{
  "_format": "hh-sol-artifact-1",
  "contractName": "DTGCDAOVoting",
  "sourceName": "contracts/DTGCDAOVoting.sol",
  "abi": [
    {
      "inputs": [
        {
          "internalType": "address",
          "name": "_dtgcToken",
          "type": "address"
        },
        {
          "internalType": "address",
          "name": "_daoTreasury",
          "type": "address"
        },
        {
          "internalType": "address",
          "name": "_stakingContract",
          "type": "address"
        },
        {
          "internalType": "address",
          "name": "_lpStakingContract",
          "type": "address"
        }
      ],
      "stateMutability": "nonpayable",
      "type": "constructor"
    },
    {
      "anonymous": false,
      "inputs": [
        {
          "indexed": false,
          "internalType": "uint256",
          "name": "amount",
          "type": "uint256"
        }
      ],
      "name": "BuyAndBurn",
      "type": "event"
    },
    {
      "anonymous": false,
      "inputs": [
        {
          "indexed": false,
          "internalType": "uint256",
          "name": "dtgcAmount",
          "type": "uint256"
        },
        {
          "indexed": false,
          "internalType": "uint256",
          "name": "urmomAmount",
          "type": "uint256"
        }
      ],
      "name": "LiquidityAdded",
      "type": "event"
    },
    {
      "anonymous": false,
      "inputs": [
        {
          "indexed": true,
          "internalType": "uint256",
          "name": "id",
          "type": "uint256"
        },
        {
          "indexed": false,
          "internalType": "uint256",
          "name": "amount",
          "type": "uint256"
        },
        {
          "indexed": false,
          "internalType": "uint256",
          "name": "endTime",
          "type": "uint256"
        }
      ],
      "name": "ProposalCreated",
      "type": "event"
    },
    {
      "anonymous": false,
      "inputs": [
        {
          "indexed": true,
          "internalType": "uint256",
          "name": "id",
          "type": "uint256"
        },
        {
          "indexed": false,
          "internalType": "enum DTGCDAOVoting.AllocationOption",
          "name": "winner",
          "type": "uint8"
        },
        {
          "indexed": false,
          "internalType": "uint256",
          "name": "amount",
          "type": "uint256"
        }
      ],
      "name": "ProposalExecuted",
      "type": "event"
    },
    {
      "anonymous": false,
      "inputs": [
        {
          "indexed": false,
          "internalType": "uint256",
          "name": "amount",
          "type": "uint256"
        }
      ],
      "name": "TreasuryFunded",
      "type": "event"
    },
    {
      "anonymous": false,
      "inputs": [
        {
          "indexed": true,
          "internalType": "uint256",
          "name": "proposalId",
          "type": "uint256"
        },
        {
          "indexed": true,
          "internalType": "address",
          "name": "voter",
          "type": "address"
        },
        {
          "indexed": false,
          "internalType": "enum DTGCDAOVoting.AllocationOption",
          "name": "option",
          "type": "uint8"
        }
      ],
      "name": "Voted",
      "type": "event"
    },
    {
      "inputs": [],
      "name": "BURN_ADDRESS",
      "outputs": [
        {
          "internalType": "address",
          "name": "",
          "type": "address"
        }
      ],
      "stateMutability": "view",
      "type": "function"
    },
    {
      "inputs": [],
      "name": "MIN_QUORUM",
      "outputs": [
        {
          "internalType": "uint256",
          "name": "",
          "type": "uint256"
        }
      ],
      "stateMutability": "view",
      "type": "function"
    },
    {
      "inputs": [],
      "name": "MIN_TOKENS_FOR_VOTING",
      "outputs": [
        {
          "internalType": "uint256",
          "name": "",
          "type": "uint256"
        }
      ],
      "stateMutability": "view",
      "type": "function"
    },
    {
      "inputs": [],
      "name": "VOTING_PERIOD",
      "outputs": [
        {
          "internalType": "uint256",
          "name": "",
          "type": "uint256"
        }
      ],
      "stateMutability": "view",
      "type": "function"
    },
    {
      "inputs": [
        {
          "internalType": "address",
          "name": "user",
          "type": "address"
        }
      ],
      "name": "canVote",
      "outputs": [
        {
          "internalType": "bool",
          "name": "",
          "type": "bool"
        }
      ],
      "stateMutability": "view",
      "type": "function"
    },
    {
      "inputs": [
        {
          "internalType": "uint256",
          "name": "amount",
          "type": "uint256"
        }
      ],
      "name": "createProposal",
      "outputs": [],
      "stateMutability": "nonpayable",
      "type": "function"
    },
    {
      "inputs": [],
      "name": "daoTreasury",
      "outputs": [
        {
          "internalType": "address",
          "name": "",
          "type": "address"
        }
      ],
      "stateMutability": "view",
      "type": "function"
    },
    {
      "inputs": [],
      "name": "dtgcToken",
      "outputs": [
        {
          "internalType": "contract IPRC20",
          "name": "",
          "type": "address"
        }
      ],
      "stateMutability": "view",
      "type": "function"
    },
    {
      "inputs": [
        {
          "internalType": "uint256",
          "name": "proposalId",
          "type": "uint256"
        }
      ],
      "name": "executeProposal",
      "outputs": [],
      "stateMutability": "nonpayable",
      "type": "function"
    },
    {
      "inputs": [],
      "name": "getActiveProposal",
      "outputs": [
        {
          "internalType": "uint256",
          "name": "",
          "type": "uint256"
        }
      ],
      "stateMutability": "view",
      "type": "function"
    },
    {
      "inputs": [
        {
          "internalType": "uint256",
          "name": "id",
          "type": "uint256"
        }
      ],
      "name": "getProposal",
      "outputs": [
        {
          "internalType": "uint256",
          "name": "amount",
          "type": "uint256"
        },
        {
          "internalType": "uint256",
          "name": "endTime",
          "type": "uint256"
        },
        {
          "internalType": "uint256[4]",
          "name": "votes",
          "type": "uint256[4]"
        },
        {
          "internalType": "uint256",
          "name": "totalVoters",
          "type": "uint256"
        },
        {
          "internalType": "bool",
          "name": "executed",
          "type": "bool"
        },
        {
          "internalType": "enum DTGCDAOVoting.AllocationOption",
          "name": "winner",
          "type": "uint8"
        }
      ],
      "stateMutability": "view",
      "type": "function"
    },
    {
      "inputs": [],
      "name": "getVotingStats",
      "outputs": [
        {
          "internalType": "uint256",
          "name": "_totalBurned",
          "type": "uint256"
        },
        {
          "internalType": "uint256",
          "name": "_totalLiquidity",
          "type": "uint256"
        },
        {
          "internalType": "uint256",
          "name": "_totalTreasury",
          "type": "uint256"
        },
        {
          "internalType": "uint256",
          "name": "_proposalCount",
          "type": "uint256"
        }
      ],
      "stateMutability": "view",
      "type": "function"
    },
    {
      "inputs": [
        {
          "internalType": "uint256",
          "name": "",
          "type": "uint256"
        },
        {
          "internalType": "address",
          "name": "",
          "type": "address"
        }
      ],
      "name": "hasVoted",
      "outputs": [
        {
          "internalType": "bool",
          "name": "",
          "type": "bool"
        }
      ],
      "stateMutability": "view",
      "type": "function"
    },
    {
      "inputs": [],
      "name": "lpStakingContract",
      "outputs": [
        {
          "internalType": "contract IStaking",
          "name": "",
          "type": "address"
        }
      ],
      "stateMutability": "view",
      "type": "function"
    },
    {
      "inputs": [],
      "name": "owner",
      "outputs": [
        {
          "internalType": "address",
          "name": "",
          "type": "address"
        }
      ],
      "stateMutability": "view",
      "type": "function"
    },
    {
      "inputs": [],
      "name": "proposalCount",
      "outputs": [
        {
          "internalType": "uint256",
          "name": "",
          "type": "uint256"
        }
      ],
      "stateMutability": "view",
      "type": "function"
    },
    {
      "inputs": [
        {
          "internalType": "uint256",
          "name": "",
          "type": "uint256"
        }
      ],
      "name": "proposals",
      "outputs": [
        {
          "internalType": "uint256",
          "name": "id",
          "type": "uint256"
        },
        {
          "internalType": "uint256",
          "name": "amount",
          "type": "uint256"
        },
        {
          "internalType": "uint256",
          "name": "startTime",
          "type": "uint256"
        },
        {
          "internalType": "uint256",
          "name": "endTime",
          "type": "uint256"
        },
        {
          "internalType": "uint256",
          "name": "votesA",
          "type": "uint256"
        },
        {
          "internalType": "uint256",
          "name": "votesB",
          "type": "uint256"
        },
        {
          "internalType": "uint256",
          "name": "votesC",
          "type": "uint256"
        },
        {
          "internalType": "uint256",
          "name": "votesD",
          "type": "uint256"
        },
        {
          "internalType": "uint256",
          "name": "totalVoters",
          "type": "uint256"
        },
        {
          "internalType": "bool",
          "name": "executed",
          "type": "bool"
        },
        {
          "internalType": "enum DTGCDAOVoting.AllocationOption",
          "name": "winner",
          "type": "uint8"
        }
      ],
      "stateMutability": "view",
      "type": "function"
    },
    {
      "inputs": [],
      "name": "pulsexRouter",
      "outputs": [
        {
          "internalType": "address",
          "name": "",
          "type": "address"
        }
      ],
      "stateMutability": "view",
      "type": "function"
    },
    {
      "inputs": [
        {
          "internalType": "address",
          "name": "token",
          "type": "address"
        },
        {
          "internalType": "uint256",
          "name": "amount",
          "type": "uint256"
        }
      ],
      "name": "recoverToken",
      "outputs": [],
      "stateMutability": "nonpayable",
      "type": "function"
    },
    {
      "inputs": [
        {
          "internalType": "address",
          "name": "_treasury",
          "type": "address"
        }
      ],
      "name": "setDaoTreasury",
      "outputs": [],
      "stateMutability": "nonpayable",
      "type": "function"
    },
    {
      "inputs": [
        {
          "internalType": "address",
          "name": "_router",
          "type": "address"
        },
        {
          "internalType": "address",
          "name": "_urmom",
          "type": "address"
        }
      ],
      "name": "setPulsexRouter",
      "outputs": [],
      "stateMutability": "nonpayable",
      "type": "function"
    },
    {
      "inputs": [
        {
          "internalType": "address",
          "name": "_staking",
          "type": "address"
        },
        {
          "internalType": "address",
          "name": "_lpStaking",
          "type": "address"
        }
      ],
      "name": "setStakingContracts",
      "outputs": [],
      "stateMutability": "nonpayable",
      "type": "function"
    },
    {
      "inputs": [],
      "name": "stakingContract",
      "outputs": [
        {
          "internalType": "contract IStaking",
          "name": "",
          "type": "address"
        }
      ],
      "stateMutability": "view",
      "type": "function"
    },
    {
      "inputs": [],
      "name": "totalBurned",
      "outputs": [
        {
          "internalType": "uint256",
          "name": "",
          "type": "uint256"
        }
      ],
      "stateMutability": "view",
      "type": "function"
    },
    {
      "inputs": [],
      "name": "totalToLiquidity",
      "outputs": [
        {
          "internalType": "uint256",
          "name": "",
          "type": "uint256"
        }
      ],
      "stateMutability": "view",
      "type": "function"
    },
    {
      "inputs": [],
      "name": "totalToTreasury",
      "outputs": [
        {
          "internalType": "uint256",
          "name": "",
          "type": "uint256"
        }
      ],
      "stateMutability": "view",
      "type": "function"
    },
    {
      "inputs": [
        {
          "internalType": "address",
          "name": "_new",
          "type": "address"
        }
      ],
      "name": "transferOwnership",
      "outputs": [],
      "stateMutability": "nonpayable",
      "type": "function"
    },
    {
      "inputs": [],
      "name": "urmomToken",
      "outputs": [
        {
          "internalType": "address",
          "name": "",
          "type": "address"
        }
      ],
      "stateMutability": "view",
      "type": "function"
    },
    {
      "inputs": [
        {
          "internalType": "uint256",
          "name": "",
          "type": "uint256"
        },
        {
          "internalType": "address",
          "name": "",
          "type": "address"
        }
      ],
      "name": "userVote",
      "outputs": [
        {
          "internalType": "enum DTGCDAOVoting.AllocationOption",
          "name": "",
          "type": "uint8"
        }
      ],
      "stateMutability": "view",
      "type": "function"
    },
    {
      "inputs": [
        {
          "internalType": "uint256",
          "name": "proposalId",
          "type": "uint256"
        },
        {
          "internalType": "enum DTGCDAOVoting.AllocationOption",
          "name": "option",
          "type": "uint8"
        }
      ],
      "name": "vote",
      "outputs": [],
      "stateMutability": "nonpayable",
      "type": "function"
    }
  ],
  "bytecode": "0x60a034620000f757601f6200170738819003918201601f19168301916001600160401b03831184841017620000fc57808492608094604052833981010312620000f7576200004d8162000112565b906200005c6020820162000112565b91620000796060620000716040850162000112565b930162000112565b9060018060a01b0392838092166080528160018060a01b031995168560035416176003551683600054161760005516816001541617600155339060025416176002556040516115df908162000128823960805181818161063301528181610a8b0152818161112f0152818161136f0152818161143801526115000152f35b600080fd5b634e487b7160e01b600052604160045260246000fd5b51906001600160a01b0382168203620000f75756fe608060408181526004918236101561001657600080fd5b600092833560e01c918263013cf08b14610f5e57508163081b8ac314610f355781630d61b51914610ced5781634385963214610ca65781635a43dc0014610a3d5781635f3ad70914610a215781636017779e14610a02578163640332d5146109d957816367380a141461097a57816376804a031461094157816379022a9f146109185781638da5cb5b146108ef578163943e8216146106bf57816394ca3b77146106625781639f76ab7c1461061e578163a124df5d146105d3578163adfaa72e146105a4578163b1610d7e14610586578163b29a8140146104cc578163b9b6f9b6146104a4578163c1b57edb14610485578163c7f758a8146102d8578163d7335d03146102b4578163d89135cd14610295578163da35c66414610276578163dc37596d1461022557508063ee99205c146101fe578063f2fde38b146101b2578063fccc2813146101965763fd10467e1461016f57600080fd5b346101925781600319360112610192576020905169d3c21bcecceda10000008152f35b5080fd5b5034610192578160031936011261019257602090516103698152f35b82346101fb5760203660031901126101fb576101cc611045565b600254906001600160a01b03906101e6338385161461129f565b16906001600160601b0360a01b161760025580f35b80fd5b5034610192578160031936011261019257905490516001600160a01b039091168152602090f35b90503461027257816003193601126102725760ff826020946102709361024961102a565b90358252600987528282206001600160a01b03909116825286522054925192839116611007565bf35b8280fd5b5050346101925781600319360112610192576020906006549051908152f35b505034610192578160031936011261019257602090600a549051908152f35b5050346101925781600319360112610192576020906102d1611237565b9051908152f35b8284346101fb576020918260031936011261019257805167ffffffffffffffff9190608081018381118282101761047257825236608091378435835260078452808320908051906103288261105b565b8254825260019687840154968084019788526002850154838501526003850154966060850197885282860154966080860197885260058701549460a08701958652600688015460c08801908152600789015460e0890190815260088a0154916101009a8b8b0193845260090154986101209e8f8c019a60ff811615158c5260081c60ff169b610140019b8a81101561045f578c52519d519c85519660808801908882109082111761044c578652518652518786015251838501525160608401525195511515965198858a10156104395781519a8b52848b015289015b848310610426578a8a6102708b8b8b8b60c086015260e0850152830190611007565b81518152918b0191908301908301610404565b634e487b7160e01b845260218652602484fd5b634e487b7160e01b895260418b52602489fd5b634e487b7160e01b895260218b52602489fd5b634e487b7160e01b855260418752602485fd5b505034610192578160031936011261019257602090600c549051908152f35b9050346102725782600319360112610272575490516001600160a01b03909116815260209150f35b91905034610272578060031936011261027257602061053d926104ed611045565b6002546001600160a01b0390811690879061050933841461129f565b865163a9059cbb60e01b81526001600160a01b03909316948301948552602435602086015291968794859391849160400190565b0393165af190811561057d5750610552575080f35b6105729060203d8111610576575b61056a818361108e565b8101906110b0565b5080f35b503d610560565b513d84823e3d90fd5b5050346101925781600319360112610192576020905162093a808152f35b505034610192576020366003190112610192576020906105ca6105c5611045565b6110c8565b90519015158152f35b83346101fb5760203660031901126101fb576105ed611045565b6002546001600160a01b039190610607908316331461129f565b166001600160601b0360a01b600354161760035580f35b505034610192578160031936011261019257517f00000000000000000000000000000000000000000000000000000000000000006001600160a01b03168152602090f35b505034610192573660031901126101fb5761067b611045565b61068361102a565b6002546001600160a01b03919061069d908316331461129f565b816001600160601b0360a01b9316838554161784551690600154161760015580f35b90503461027257816003193601126102725780359060243592818410156108eb576106e9336110c8565b156108b957821515806108ad575b156108775782855260209160078352818620600381015442116108465761072560ff60098301541615611309565b84875260088452828720338852845260ff838820541661081457916107ce917f094f80829c509370abb2d421a078ba5926755d3de25d021dacf7bbd19853f7a2949386895260088552828920338a52855282892060ff1990600182825416179055878a5260098652838a20338b528652838a209081541660ff8a16179055600881016107b181546112d7565b9055876107d457016107c381546112d7565b90555b518095611007565b3393a380f35b9050600187036107f2576005016107eb81546112d7565b90556107c6565b60028703610807576006016107eb81546112d7565b6007016107eb81546112d7565b5082606492519162461bcd60e51b8352820152600d60248201526c1053149150511657d593d51151609a1b6044820152fd5b5082606492519162461bcd60e51b8352820152600c60248201526b1593d5125391d7d15391115160a21b6044820152fd5b906020606492519162461bcd60e51b8352820152601060248201526f1253959053125117d41493d413d4d05360821b6044820152fd5b506006548311156106f7565b906020606492519162461bcd60e51b8352820152600c60248201526b4e4f545f454c494749424c4560a01b6044820152fd5b8480fd5b50503461019257816003193601126101925760025490516001600160a01b039091168152602090f35b50503461019257816003193601126101925760035490516001600160a01b039091168152602090f35b505034610192578160031936011261019257608090600a5490600b5490600c549060065492815194855260208501528301526060820152f35b919050346102725736600319011261019257610994611045565b9061099d61102a565b6002546001600160a01b0392906109b7908416331461129f565b826001600160601b0360a01b9416848254161790551690600554161760055580f35b50503461019257816003193601126101925760055490516001600160a01b039091168152602090f35b505034610192578160031936011261019257602090600b549051908152f35b5050346101925781600319360112610192576020905160038152f35b838334610192576020908160031936011261027257833560018060a01b03610a6a8160025416331461129f565b8115610c7557836024918451928380926370a0823160e01b8252308b8301527f0000000000000000000000000000000000000000000000000000000000000000165afa908115610c6b579082918691610c3a575b5010610c0057610acf6006546112d7565b8060065562093a80420190814211610bed5785908451610aee8161105b565b81815286808201868152878301428152606084018781526080850187815260a086019188835260c087019389855260e08801958a87528d8b6101008b0199818b526101208c019d8e526101408c019c60028e528252600790522098518955516001890155516002880155516003870155518d86015551600585015551600684015551600783015551600882015560090191511515908254905189811015610bda577fa6a21b90631faacde52b977eb6e15e5707522fbbba8eddef55ed173ffde48efa9798995061ff0060ff9160081b1692169061ffff191617179055600654948351928352820152a280f35b634e487b7160e01b895260218a52602489fd5b634e487b7160e01b865260118752602486fd5b815162461bcd60e51b81528086018490526014602482015273494e53554646494349454e545f42414c414e434560601b6044820152606490fd5b809250858092503d8311610c64575b610c53818361108e565b810103126108eb5781905187610abe565b503d610c49565b83513d87823e3d90fd5b825162461bcd60e51b8152808701859052600b60248201526a16915493d7d05353d5539560aa1b6044820152606490fd5b9050346102725781600319360112610272578160209360ff92610cc761102a565b90358252600886528282206001600160a01b039091168252855220549151911615158152f35b8383346101925760203660031901126101925782359081835260076020528083206003810154421115610eff5760098101908154610d2e60ff821615611309565b6003600883015410610ecb5790600191878201549061ffff191683811785556005830154828111610eba575b50506006820154818111610ea5575b50600782015411610e93575b019081549560ff825460081c1681811015610e805780610dca57505060ff90610dae60008051602061158a833981519152959697611348565b5460081c169054610dc183518093611007565b6020820152a280f35b60018103610df657505060ff90610df160008051602061158a833981519152959697611400565b610dae565b600203610e1b575060ff90610df160008051602061158a8339815191529596976114c8565b9560038104610e2981611348565b610e3281611400565b8060011b9080820460021490151715610e6d578103908111610bed5760008051602061158a8339815191529495965090610df160ff926114c8565b634e487b7160e01b875260118852602487fd5b634e487b7160e01b875260218252602487fd5b825461ff001916610300178355610d75565b845461ff001916610200178555905088610d69565b610101919250911784558880610d5a565b835162461bcd60e51b8152602081890152600e60248201526d145553d4955357d393d517d3515560921b6044820152606490fd5b815162461bcd60e51b8152602081870152601060248201526f1593d5125391d7d393d517d15391115160821b6044820152606490fd5b50503461019257816003193601126101925760015490516001600160a01b039091168152602090f35b929150346110035760203660031901126110035790818161016095610270943581526007602052209081549260018301549160028401549060038501549085015490600586015492600687015494600788015496600960088a0154990154998c5260208c01528a01526060890152608088015260a087015260c086015260e085015261010084015260ff8116151561012084015260ff61014084019160081c16611007565b8380fd5b9060048210156110145752565b634e487b7160e01b600052602160045260246000fd5b602435906001600160a01b038216820361104057565b600080fd5b600435906001600160a01b038216820361104057565b610160810190811067ffffffffffffffff82111761107857604052565b634e487b7160e01b600052604160045260246000fd5b90601f8019910116810190811067ffffffffffffffff82111761107857604052565b90816020910312611040575180151581036110405790565b60009060018060a01b039081835416604051918284631d468b5960e21b92838352169283600483015281602460209687935afa869181611218575b50611210575b5090829185156111b7575b506024604051809581936370a0823160e01b835260048301527f0000000000000000000000000000000000000000000000000000000000000000165afa9081156111ab5760009161117f575b509050811561116d575090565b69d3c21bcecceda10000009150101590565b82813d83116111a4575b611193818361108e565b810103126101fb5750518038611160565b503d611189565b6040513d6000823e3d90fd5b909184600154169160246040518094819382528660048301525afa600091816111f1575b506111e9575b908291611114565b9350816111e1565b611209919250843d86116105765761056a818361108e565b90386111db565b945082611109565b611230919250853d87116105765761056a818361108e565b9038611103565b600654805b6112465750600090565b6040600082815260076020522060ff600982015416159081611290575b5061128d57801561127857600019018061123c565b60246000634e487b7160e01b81526011600452fd5b90565b60039150015442111538611263565b156112a657565b60405162461bcd60e51b81526020600482015260096024820152682727aa2fa7aba722a960b91b6044820152606490fd5b60001981146112e65760010190565b634e487b7160e01b600052601160045260246000fd5b919082018092116112e657565b1561131057565b60405162461bcd60e51b815260206004820152601060248201526f1053149150511657d1561150d555115160821b6044820152606490fd5b60405163a9059cbb60e01b81526103696004820152602481018290529060208260448160007f00000000000000000000000000000000000000000000000000000000000000006001600160a01b03165af19081156111ab577f4d5d528c3041909dcfebf20dcbccdf9e5d759539338e3046cee8b89478a24fbe926020926113e3575b506113d781600a546112fc565b600a55604051908152a1565b6113f990833d81116105765761056a818361108e565b50386113ca565b60035460405163a9059cbb60e01b81526001600160a01b039182166004820152602481018390529190602090839060449082906000907f0000000000000000000000000000000000000000000000000000000000000000165af19081156111ab577f38f8a0c92f4c5b0b6877f878cb4c0c8d348a47b76d716c8e78f425043df9515b926040926114aa575b5061149881600b546112fc565b600b55815190815260006020820152a1565b6114c19060203d81116105765761056a818361108e565b503861148b565b60035460405163a9059cbb60e01b81526001600160a01b039182166004820152602481018390529190602090839060449082906000907f0000000000000000000000000000000000000000000000000000000000000000165af19081156111ab577fef7aff843f3420b45d9d058ff62be0d87a95132dea4a67b18925283ba05647dc9260209261156c575b5061156081600c546112fc565b600c55604051908152a1565b61158290833d81116105765761056a818361108e565b503861155356fe331f1f50ad344be3dd617fa7f15a5f74dea96ea44d7386f6ca35e580747f271fa26469706673582212204c3ca8fa6aa0d5c6b05d70127432a2a9de67ae0434ea6768da135e3bd43e9bde64736f6c63430008140033",
  "linkReferences": {},
  "deployedLinkReferences": {}
}