{"contracts/DTGCStakingV2.sol":{"DTGCStakingV2":{"abi":[{"inputs":[{"internalType":"address","name":"_dtgcToken","type":"address"},{"internalType":"address","name":"_devWallet","type":"address"},{"internalType":"address","name":"_daoTreasury","type":"address"},{"internalType":"address","name":"_daoVotingPool","type":"address"}],"stateMutability":"nonpayable","type":"constructor"},{"anonymous":false,"inputs":[{"indexed":false,"internalType":"uint256","name":"devAmount","type":"uint256"},{"indexed":false,"internalType":"uint256","name":"daoVotingAmount","type":"uint256"}],"name":"EESCollected","type":"event"},{"anonymous":false,"inputs":[{"indexed":true,"internalType":"address","name":"user","type":"address"},{"indexed":false,"internalType":"uint256","name":"returned","type":"uint256"},{"indexed":false,"internalType":"uint256","name":"devFee","type":"uint256"},{"indexed":false,"internalType":"uint256","name":"daoVotingFee","type":"uint256"}],"name":"EmergencyWithdrawn","type":"event"},{"anonymous":false,"inputs":[{"indexed":false,"internalType":"uint256","name":"devAmount","type":"uint256"},{"indexed":false,"internalType":"uint256","name":"daoAmount","type":"uint256"},{"indexed":false,"internalType":"uint256","name":"stakerAmount","type":"uint256"}],"name":"FeesDistributed","type":"event"},{"anonymous":false,"inputs":[{"indexed":true,"internalType":"address","name":"user","type":"address"},{"indexed":false,"internalType":"uint256","name":"baseReward","type":"uint256"},{"indexed":false,"internalType":"uint256","name":"feeShare","type":"uint256"},{"indexed":false,"internalType":"uint256","name":"bonus","type":"uint256"}],"name":"RewardsClaimed","type":"event"},{"anonymous":false,"inputs":[{"indexed":true,"internalType":"address","name":"user","type":"address"},{"indexed":false,"internalType":"uint256","name":"amount","type":"uint256"},{"indexed":false,"internalType":"uint256","name":"principal","type":"uint256"},{"indexed":false,"internalType":"uint8","name":"tier","type":"uint8"},{"indexed":false,"internalType":"uint256","name":"unlockTime","type":"uint256"}],"name":"Staked","type":"event"},{"anonymous":false,"inputs":[{"indexed":true,"internalType":"address","name":"user","type":"address"},{"indexed":false,"internalType":"uint256","name":"amount","type":"uint256"},{"indexed":false,"internalType":"uint256","name":"rewards","type":"uint256"},{"indexed":false,"internalType":"uint256","name":"fee","type":"uint256"}],"name":"Withdrawn","type":"event"},{"inputs":[],"name":"BASIS_POINTS","outputs":[{"internalType":"uint256","name":"","type":"uint256"}],"stateMutability":"view","type":"function"},{"inputs":[],"name":"BRONZE_APR","outputs":[{"internalType":"uint256","name":"","type":"uint256"}],"stateMutability":"view","type":"function"},{"inputs":[],"name":"BRONZE_BONUS","outputs":[{"internalType":"uint256","name":"","type":"uint256"}],"stateMutability":"view","type":"function"},{"inputs":[],"name":"BRONZE_LOCK","outputs":[{"internalType":"uint256","name":"","type":"uint256"}],"stateMutability":"view","type":"function"},{"inputs":[],"name":"DAO_FEE_SHARE","outputs":[{"internalType":"uint256","name":"","type":"uint256"}],"stateMutability":"view","type":"function"},{"inputs":[],"name":"DEV_FEE_SHARE","outputs":[{"internalType":"uint256","name":"","type":"uint256"}],"stateMutability":"view","type":"function"},{"inputs":[],"name":"EES_DAO_SHARE","outputs":[{"internalType":"uint256","name":"","type":"uint256"}],"stateMutability":"view","type":"function"},{"inputs":[],"name":"EES_DEV_SHARE","outputs":[{"internalType":"uint256","name":"","type":"uint256"}],"stateMutability":"view","type":"function"},{"inputs":[],"name":"EES_PENALTY","outputs":[{"internalType":"uint256","name":"","type":"uint256"}],"stateMutability":"view","type":"function"},{"inputs":[],"name":"ENTRY_FEE","outputs":[{"internalType":"uint256","name":"","type":"uint256"}],"stateMutability":"view","type":"function"},{"inputs":[],"name":"EXIT_FEE","outputs":[{"internalType":"uint256","name":"","type":"uint256"}],"stateMutability":"view","type":"function"},{"inputs":[],"name":"GOLD_APR","outputs":[{"internalType":"uint256","name":"","type":"uint256"}],"stateMutability":"view","type":"function"},{"inputs":[],"name":"GOLD_BONUS","outputs":[{"internalType":"uint256","name":"","type":"uint256"}],"stateMutability":"view","type":"function"},{"inputs":[],"name":"GOLD_LOCK","outputs":[{"internalType":"uint256","name":"","type":"uint256"}],"stateMutability":"view","type":"function"},{"inputs":[],"name":"MIN_TOKENS_FOR_VOTING","outputs":[{"internalType":"uint256","name":"","type":"uint256"}],"stateMutability":"view","type":"function"},{"inputs":[],"name":"SILVER_APR","outputs":[{"internalType":"uint256","name":"","type":"uint256"}],"stateMutability":"view","type":"function"},{"inputs":[],"name":"SILVER_BONUS","outputs":[{"internalType":"uint256","name":"","type":"uint256"}],"stateMutability":"view","type":"function"},{"inputs":[],"name":"SILVER_LOCK","outputs":[{"internalType":"uint256","name":"","type":"uint256"}],"stateMutability":"view","type":"function"},{"inputs":[],"name":"accFeePerShare","outputs":[{"internalType":"uint256","name":"","type":"uint256"}],"stateMutability":"view","type":"function"},{"inputs":[{"internalType":"address","name":"user","type":"address"}],"name":"calculateAllRewards","outputs":[{"internalType":"uint256","name":"base","type":"uint256"},{"internalType":"uint256","name":"feeShare","type":"uint256"},{"internalType":"uint256","name":"bonus","type":"uint256"}],"stateMutability":"view","type":"function"},{"inputs":[{"internalType":"address","name":"user","type":"address"}],"name":"calculateBaseReward","outputs":[{"internalType":"uint256","name":"","type":"uint256"}],"stateMutability":"view","type":"function"},{"inputs":[{"internalType":"address","name":"user","type":"address"}],"name":"calculateBonus","outputs":[{"internalType":"uint256","name":"","type":"uint256"}],"stateMutability":"view","type":"function"},{"inputs":[{"internalType":"address","name":"user","type":"address"}],"name":"calculateFeeShareReward","outputs":[{"internalType":"uint256","name":"","type":"uint256"}],"stateMutability":"view","type":"function"},{"inputs":[{"internalType":"address","name":"user","type":"address"}],"name":"canVote","outputs":[{"internalType":"bool","name":"","type":"bool"}],"stateMutability":"view","type":"function"},{"inputs":[],"name":"claimRewards","outputs":[],"stateMutability":"nonpayable","type":"function"},{"inputs":[],"name":"daoTreasury","outputs":[{"internalType":"address","name":"","type":"address"}],"stateMutability":"view","type":"function"},{"inputs":[],"name":"daoVotingPool","outputs":[{"internalType":"address","name":"","type":"address"}],"stateMutability":"view","type":"function"},{"inputs":[],"name":"devWallet","outputs":[{"internalType":"address","name":"","type":"address"}],"stateMutability":"view","type":"function"},{"inputs":[],"name":"dtgcToken","outputs":[{"internalType":"contract IPRC20","name":"","type":"address"}],"stateMutability":"view","type":"function"},{"inputs":[],"name":"eesPoolTotal","outputs":[{"internalType":"uint256","name":"","type":"uint256"}],"stateMutability":"view","type":"function"},{"inputs":[],"name":"emergencyWithdraw","outputs":[],"stateMutability":"nonpayable","type":"function"},{"inputs":[],"name":"feePool","outputs":[{"internalType":"uint256","name":"","type":"uint256"}],"stateMutability":"view","type":"function"},{"inputs":[{"internalType":"address","name":"","type":"address"}],"name":"feeShareClaimed","outputs":[{"internalType":"uint256","name":"","type":"uint256"}],"stateMutability":"view","type":"function"},{"inputs":[],"name":"getContractStats","outputs":[{"internalType":"uint256","name":"_totalStaked","type":"uint256"},{"internalType":"uint256","name":"_totalRewards","type":"uint256"},{"internalType":"uint256","name":"_feePool","type":"uint256"},{"internalType":"uint256","name":"_eesPool","type":"uint256"},{"internalType":"uint256","name":"_stakers","type":"uint256"}],"stateMutability":"view","type":"function"},{"inputs":[{"internalType":"address","name":"user","type":"address"}],"name":"getPosition","outputs":[{"internalType":"uint256","name":"amount","type":"uint256"},{"internalType":"uint256","name":"startTime","type":"uint256"},{"internalType":"uint256","name":"unlockTime","type":"uint256"},{"internalType":"uint256","name":"lockPeriod","type":"uint256"},{"internalType":"uint256","name":"aprBps","type":"uint256"},{"internalType":"uint256","name":"bonus","type":"uint256"},{"internalType":"bool","name":"isActive","type":"bool"},{"internalType":"uint256","name":"timeRemaining","type":"uint256"}],"stateMutability":"view","type":"function"},{"inputs":[],"name":"getTiers","outputs":[{"internalType":"string[3]","name":"names","type":"string[3]"},{"internalType":"uint256[3]","name":"locks","type":"uint256[3]"},{"internalType":"uint256[3]","name":"aprs","type":"uint256[3]"},{"internalType":"uint256[3]","name":"bonuses","type":"uint256[3]"}],"stateMutability":"pure","type":"function"},{"inputs":[{"internalType":"address","name":"","type":"address"}],"name":"isVerifiedStaker","outputs":[{"internalType":"bool","name":"","type":"bool"}],"stateMutability":"view","type":"function"},{"inputs":[{"internalType":"address","name":"","type":"address"}],"name":"lifetimeRewards","outputs":[{"internalType":"uint256","name":"","type":"uint256"}],"stateMutability":"view","type":"function"},{"inputs":[{"internalType":"address","name":"","type":"address"}],"name":"lifetimeStaked","outputs":[{"internalType":"uint256","name":"","type":"uint256"}],"stateMutability":"view","type":"function"},{"inputs":[],"name":"owner","outputs":[{"internalType":"address","name":"","type":"address"}],"stateMutability":"view","type":"function"},{"inputs":[{"internalType":"address","name":"","type":"address"}],"name":"positions","outputs":[{"internalType":"uint256","name":"amount","type":"uint256"},{"internalType":"uint256","name":"startTime","type":"uint256"},{"internalType":"uint256","name":"unlockTime","type":"uint256"},{"internalType":"uint256","name":"lockPeriod","type":"uint256"},{"internalType":"uint256","name":"aprBps","type":"uint256"},{"internalType":"uint256","name":"diamondBonus","type":"uint256"},{"internalType":"bool","name":"isActive","type":"bool"}],"stateMutability":"view","type":"function"},{"inputs":[{"internalType":"address","name":"token","type":"address"},{"internalType":"uint256","name":"amount","type":"uint256"}],"name":"recoverToken","outputs":[],"stateMutability":"nonpayable","type":"function"},{"inputs":[{"internalType":"address","name":"_dao","type":"address"}],"name":"setDaoTreasury","outputs":[],"stateMutability":"nonpayable","type":"function"},{"inputs":[{"internalType":"address","name":"_voting","type":"address"}],"name":"setDaoVotingPool","outputs":[],"stateMutability":"nonpayable","type":"function"},{"inputs":[{"internalType":"address","name":"_dev","type":"address"}],"name":"setDevWallet","outputs":[],"stateMutability":"nonpayable","type":"function"},{"inputs":[{"internalType":"uint256","name":"amount","type":"uint256"},{"internalType":"uint8","name":"tier","type":"uint8"}],"name":"stake","outputs":[],"stateMutability":"nonpayable","type":"function"},{"inputs":[],"name":"totalRewardsDistributed","outputs":[{"internalType":"uint256","name":"","type":"uint256"}],"stateMutability":"view","type":"function"},{"inputs":[],"name":"totalStaked","outputs":[{"internalType":"uint256","name":"","type":"uint256"}],"stateMutability":"view","type":"function"},{"inputs":[],"name":"totalStakers","outputs":[{"internalType":"uint256","name":"","type":"uint256"}],"stateMutability":"view","type":"function"},{"inputs":[{"internalType":"address","name":"_new","type":"address"}],"name":"transferOwnership","outputs":[],"stateMutability":"nonpayable","type":"function"},{"inputs":[],"name":"withdraw","outputs":[],"stateMutability":"nonpayable","type":"function"}],"evm":{"bytecode":{"linkReferences":{},"object":"60a034620001ed57601f620022d438819003918201601f191683019291906001600160401b03841183851017620001f2578160809284926040968752833981010312620001ed57620000518162000208565b6200005f6020830162000208565b906200007b60606200007386860162000208565b940162000208565b6001600160a01b03918216929091908315620001b957811693841562000187578116918215620001555716918215620001205760805260018060a01b03199283600154161760015582600254161760025581600354161760035533906000541617600055516120b690816200021e82396080518181816106810152818161093001528181610b1001528181610bff015281816110620152818161133d01526116940152f35b845162461bcd60e51b815260206004820152600e60248201526d494e56414c49445f564f54494e4760901b6044820152606490fd5b855162461bcd60e51b815260206004820152600b60248201526a494e56414c49445f44414f60a81b6044820152606490fd5b855162461bcd60e51b815260206004820152600b60248201526a24a72b20a624a22fa222ab60a91b6044820152606490fd5b855162461bcd60e51b815260206004820152600d60248201526c24a72b20a624a22faa27a5a2a760991b6044820152606490fd5b600080fd5b634e487b7160e01b600052604160045260246000fd5b51906001600160a01b0382168203620001ed5756fe608060408181526004918236101561001657600080fd5b600092833560e01c918263019f7b6714611b92575081630652812314611b75578163078f31fd14611b5857816310087fb11461161f578163143ae5b1146108d457816316c19739146115265781631d336d62146114ee5781631f53ac02146114a4578163310d88231461146c578163362296161461144657816336fecffa1461140e578163372500ab146112745781633ccfd60b14610f50578163432c4fa214610f335781634961ca9f14610f1757816351ff016614610efb57816352628d9a14610edc57816355f5751014610e605781635c67719214610e4457816366e0f8a014610e265781636d6277bb14610e085781636e8a56d914610dbe5781637319e5aa14610d98578163751a2d6414610d5a57816376bce55b14610d3d57816379022a9f14610d1457816379a59c1314610cbc578163817b1cd214610c9e5781638698903814610c7f5781638da5cb5b14610c575781638ea5220f14610c2e5781639f76ab7c14610bea578163a124df5d14610ba0578163adfaa72e14610aa6578163ae2e933b14610a87578163b29a8140146108f5578163b5d0d4e9146108d9578163b5ebb120146108d4578163c6580d1214610298578163db2e21bc146105b9578163dd3b829a1461059a578163de170570146103af578163dfae377914610382578163dfe6b5d61461033e57508063e1f1c4a714610322578063eb1d576314610305578063ee172546146102e7578063f2fde38b1461029d578063f6d361cc14610298578063fa652b951461027d5763fd10467e1461025657600080fd5b346102795781600319360112610279576020905169d3c21bcecceda10000008152f35b5080fd5b50346102795781600319360112610279576020905160328152f35b611bef565b82346102e45760203660031901126102e4576102b7611bd9565b8154906001600160a01b03906102d03383851614612048565b16906001600160601b0360a01b1617815580f35b80fd5b50346102795781600319360112610279576020906005549051908152f35b503461027957816003193601126102795760209051621275008152f35b5034610279578160031936011261027957602090516127108152f35b90503461037e578260031936011261037e5760a0925054906005549060065460075491600854938151958652602086015284015260608301526080820152f35b8280fd5b505034610279576020366003190112610279576020906103a86103a3611bd9565b611cf6565b9051908152f35b9190503461037e578260031936011261037e578051926103ce84611c66565b805b6060808210156103e657858201526020016103d0565b5050919250606081516103f881611c66565b3690376060815161040881611c66565b3690376060815161041881611c66565b36903780519061042782611c66565b80519361043385611c82565b600685526020946542726f6e7a6560d01b868201528352815161045581611c82565b600681526529b4b63b32b960d11b868201528584015281519061047782611c82565b81526311dbdb1960e21b8582015281830152805161049481611c66565b62127500815262278d00858201526276a700828201528151906104b682611c66565b60fa825261025886830152610384838301528251926104d484611c66565b6032845260968785015261019081850152519586956101408088019088526101a088019691805b6003811061053457505050509161051c610526926105309594880190611c0c565b6080860190611c0c565b60e0840190611c0c565b0390f35b9193949596979092985061013f198a8203018452848951805190818452855b82811061058657505081838287838095600198010152601f801991011601019a01940191019189989796959493926104fb565b818101840151858201850152889301610553565b505034610279578160031936011261027957602090600e549051908152f35b8383346102795781600319360112610279573382526020600981528183209060068201906105ea60ff835416611fd3565b825460c881029381159482810460c8148617156108c1576127108091049561070890818502918583041417156108ae57049387919061063d610635876106308a88611cc0565b611cc0565b948b54611cc0565b8a5561064b86600754611fc6565b600755805460ff1916905555600154855163a9059cbb60e01b8082526001600160a01b039283168a8301908152602081018890527f000000000000000000000000000000000000000000000000000000000000000084169a9391929086908290819003604001818d8f5af19081156108a4578a91610887575b501561084f57600354885183815291166001600160a01b031683820190815260208101879052859082908c9082908d90829060400103925af1908115610845578991610828575b50156107f057865190815233918101918252602082018390529697839188919082908b90829060400103925af19586156107e6577f7dbf5014c70ce465b3faa9272d46a09414d933de54728a335f7df4bea2bc2ae1966107729189916107b9575b50611f0e565b8451908152602081018490526040810183905233907f45df01186fed55abc3ac9cfa82408e10553b9b93a8f0c0b4c2965a7bedb267ec90606090a28351928352820152a180f35b6107d99150843d86116107df575b6107d18183611c9e565b810190611ef6565b8961076c565b503d6107c7565b85513d89823e3d90fd5b865162461bcd60e51b81528083018590526012602482015271111053d7d411539053151657d1905253115160721b6044820152606490fd5b61083f9150853d87116107df576107d18183611c9e565b8a61070b565b88513d8b823e3d90fd5b875162461bcd60e51b8152808401869052601260248201527111115597d411539053151657d1905253115160721b6044820152606490fd5b61089e9150863d88116107df576107d18183611c9e565b8b6106c4565b89513d8c823e3d90fd5b634e487b7160e01b895260118a52602489fd5b634e487b7160e01b885260118952602488fd5b611bb7565b5050346102795781600319360112610279576020905160fa8152f35b83915034610279578260031936011261027957610910611bd9565b8254602435926001600160a01b039182169161092d338414612048565b807f00000000000000000000000000000000000000000000000000000000000000001693169280841490811591610a04575b50156109d557855163a9059cbb60e01b81526001600160a01b0390921690820190815260208181019490945290928592909184919082908790829060400103925af19081156109cc57506109b1575080f35b6109c89060203d81116107df576107d18183611c9e565b5080f35b513d84823e3d90fd5b606490602087519162461bcd60e51b83528201526009602482015268141493d51150d5115160ba1b6044820152fd5b87516370a0823160e01b815230848201529150602090829060249082905afa8015610a7d578690610a46575b610a3d9150825490611cc0565b8411158761095f565b506020813d8211610a75575b81610a5f60209383611c9e565b81010312610a7157610a3d9051610a30565b8580fd5b3d9150610a52565b87513d88823e3d90fd5b5050346102795781600319360112610279576020906006549051908152f35b9190503461037e57602092836003193601126102e4576001600160a01b03908482610acf611bd9565b16808352600d825260ff8584205416958615610af1575b828787519015158152f35b856024929394959697505195869384926370a0823160e01b84528301527f0000000000000000000000000000000000000000000000000000000000000000165afa908115610b95578091610b5b575b5069d3c21bcecceda100000091501015903880848180610ae6565b90508382813d8311610b8e575b610b728183611c9e565b810103126102e4575069d3c21bcecceda1000000905138610b40565b503d610b68565b8351903d90823e3d90fd5b83346102e45760203660031901126102e457610bba611bd9565b81546001600160a01b039190610bd39083163314612048565b166001600160601b0360a01b600254161760025580f35b505034610279578160031936011261027957517f00000000000000000000000000000000000000000000000000000000000000006001600160a01b03168152602090f35b50503461027957816003193601126102795760015490516001600160a01b039091168152602090f35b505034610279578160031936011261027957905490516001600160a01b039091168152602090f35b5050346102795781600319360112610279576020906008549051908152f35b90503461037e578260031936011261037e5760209250549051908152f35b8284346102e45760203660031901126102e45750610cd8611bd9565b90610530610ce583611cf6565b91610cf8610cf285611dad565b94611e65565b9051938493846040919493926060820195825260208201520152565b50503461027957816003193601126102795760025490516001600160a01b039091168152602090f35b505034610279578160031936011261027957602090516107d08152f35b5050346102795760203660031901126102795760209160ff9082906001600160a01b03610d85611bd9565b168152600d855220541690519015158152f35b505034610279576020366003190112610279576020906103a8610db9611bd9565b611e65565b83346102e45760203660031901126102e457610dd8611bd9565b81546001600160a01b039190610df19083163314612048565b166001600160601b0360a01b600354161760035580f35b5050346102795781600319360112610279576020905162278d008152f35b505034610279578160031936011261027957602090516276a7008152f35b5050346102795781600319360112610279576020905160648152f35b90503461037e57602036600319011261037e5760e09282906001600160a01b03610e88611bd9565b16815260096020522080549260018201549260028301546003840154918401549260ff600660058701549601541695815197885260208801528601526060850152608084015260a0830152151560c0820152f35b5050346102795781600319360112610279576020906007549051908152f35b5050346102795781600319360112610279576020905160968152f35b5050346102795781600319360112610279576020905160c88152f35b505034610279578160031936011261027957602090516107088152f35b9190503461037e578260031936011261037e5733835260209060098252808420926006840193610f8360ff865416611fd3565b6002810154421061124357805493610fb8610faf610fa033611cf6565b610fa933611dad565b90611fc6565b610fa933611e65565b926064860292861593878104606414851715611230576127108091049461019090818a02918a830414171561121d570497899190611005610ffd8b610630898d611cc0565b998554611cc0565b845561101387600554611fc6565b600555338352600a855287832061102b888254611fc6565b9055805460ff1916905555600154855163a9059cbb60e01b8082526001600160a01b039283168285019081526020810187905290937f000000000000000000000000000000000000000000000000000000000000000084169390928c92879082908190604001038186895af1908115611213579287926110b78e936110e39684916111f6575b50611f4c565b600254168b518095819482938b845289840160209093929193604081019460018060a01b031681520152565b0391875af1908b82156111eb5786949261113596949261110992916111ce575b50611f89565b8b611114898c611fc6565b8a519485523392850192835260208301529294859384929091839160400190565b03925af19182156111c4579261117e611183937f75e161b3e824b114fc1a33274bd7091918dd4e639cede50b78b15a4eea956a219899936111a1968c926111a7575b5050611f0e565b611fc6565b92519283923396846040919493926060820195825260208201520152565b0390a280f35b6111bd9250803d106107df576107d18183611c9e565b3880611177565b85513d8a823e3d90fd5b6111e59150863d88116107df576107d18183611c9e565b38611103565b8951903d90823e3d90fd5b61120d9150863d88116107df576107d18183611c9e565b386110b1565b8a513d85823e3d90fd5b634e487b7160e01b8b526011845260248bfd5b634e487b7160e01b8a526011835260248afd5b5082606492519162461bcd60e51b8352820152600c60248201526b14d512531317d313d0d2d15160a21b6044820152fd5b9190503461037e578260031936011261037e57338352602060098152818420926112a460ff600686015416611fd3565b6112b0610fa033611cf6565b9384156113df57828587959493670de0b6b3a76400006112dd6113389542600182015554600e5490611ce3565b04338852600c8452868820556112f582600554611fc6565b600555338752600a835285872061130d838254611fc6565b9055855163a9059cbb60e01b8152339181019182526020820192909252909283918291604090910190565b0381877f00000000000000000000000000000000000000000000000000000000000000006001600160a01b03165af19081156113d2578492916113819184916113b55750611f0e565b82519485528401528201527f56253d287efacdb2c4cd76dd03624a4821c1ce721d1152e8f5f5718f6087c9bf60603392a280f35b6113cc9150833d85116107df576107d18183611c9e565b3861076c565b50505051903d90823e3d90fd5b50915162461bcd60e51b815291820152600a6024820152694e4f5f5245574152445360b01b6044820152606490fd5b5050346102795760203660031901126102795760209181906001600160a01b03611436611bd9565b168152600b845220549051908152f35b505034610279576020366003190112610279576020906103a8611467611bd9565b611dad565b5050346102795760203660031901126102795760209181906001600160a01b03611494611bd9565b168152600c845220549051908152f35b83346102e45760203660031901126102e4576114be611bd9565b81546001600160a01b0391906114d79083163314612048565b166001600160601b0360a01b600154161760015580f35b5050346102795760203660031901126102795760209181906001600160a01b03611516611bd9565b168152600a845220549051908152f35b9190503461037e57602036600319011261037e5761010092906001600160a01b0361154f611bd9565b16825260096020528082209281519361156785611c34565b80548552600181015494602081019586526002820154928482019484865260038401549160608401928352840154926080810193845260ff600660058701549660a084019788520154169560c08201961515988988529880611616575b611602575b5051975195519151925193519451151595815198895260208901528701526060860152608085015260a084015260c083015260e0820152f35b61160f9198504290611cc0565b96386115c9565b508042106115c4565b90503461037e578160031936011261037e5780359160249081359160ff831692838103611b54578515611b245760028411611af3573387526020946009865260ff6006858a20015416611abf5783516323b872dd60e01b815233828201523081850152604481018890526001600160a01b03937f0000000000000000000000000000000000000000000000000000000000000000851693909188816064818e895af1908115611ab557906116d9918c91611a9e5750611f0e565b6064890293898504606403611a8c5761271080950494610190808c02908c820403611a7a57918c868d9389950480948160011c9a61171691611cc0565b9061172091611cc0565b6001548c5163a9059cbb60e01b808252918d166001600160a01b031693810193845260208401889052919b90929091908f9082908190604001038187895af1908115611a7057938f94936117ba8f9794611793908f978f96611788918791611a595750611f4c565b60025416968a611cc0565b9751978896879586948552840160209093929193604081019460018060a01b031681520152565b03925af1908d8215611a4e578c959493926117da92906111ce5750611f89565b6117e687600654611fc6565b6006558554801580156119b0575b505086611850939261184861182c60069a7f312c5308f42848705a866c73dec11fd0783c2d64aac6a97e94467062ad3f405895611cc0565b8c51928352602083015260408201929092529081906060820190565b0390a161200d565b61185c83979342611fc6565b918d8a519361186a85611c34565b8a85528685014281528c86019182528c60608701938c85526080880195865260a08801968752600960c089019a60018c52338352522095518655516001860155516002850155516003840155518683015551600582015501905115159060ff199160ff8383541691161790556118e1858454611fc6565b8355338a52600b8852858a206118f8868254611fc6565b9055670de0b6b3a764000061190f600e5487611ce3565b04338b52600c8952868b2055600d8852858a2090815460ff811615611978575b505050505061193e9042611fc6565b93825195865285015283015260608201527fcc10169be2ad544347561e230939849af48d1714c052d7fe247d12f3decb489660803392a280f35b16600117905560085491600019831461199f57505060010160085561193e3880808061192f565b634e487b7160e01b8a526011905288fd5b909192939596979450670de0b6b3a764000090818602918683041486151715611a3c57611a2a57936118509361184861182c838f9896611a1a7f312c5308f42848705a866c73dec11fd0783c2d64aac6a97e94467062ad3f40589760069e9d9c9904600e54611fc6565b600e5595509a50505092936117f4565b634e487b7160e01b8e5260128852868efd5b634e487b7160e01b8f5260118952878ffd5b8a51903d90823e3d90fd5b61120d91508b3d8d116107df576107d18183611c9e565b8d513d86823e3d90fd5b634e487b7160e01b8d5260118652848dfd5b634e487b7160e01b8b5260118452828bfd5b6113cc91508a3d8c116107df576107d18183611c9e565b87513d8d823e3d90fd5b835162461bcd60e51b8152908101869052600f818401526e504f534954494f4e5f45584953545360881b6044820152606490fd5b825162461bcd60e51b8152602081870152600c818401526b24a72b20a624a22faa24a2a960a11b6044820152606490fd5b825162461bcd60e51b8152602081870152600b818401526a16915493d7d05353d5539560aa1b6044820152606490fd5b8680fd5b505034610279578160031936011261027957602090516102588152f35b505034610279578160031936011261027957602090516103848152f35b8490346102795781600319360112610279576003546001600160a01b03168152602090f35b34611bd4576000366003190112611bd45760206040516101908152f35b600080fd5b600435906001600160a01b0382168203611bd457565b34611bd4576000366003190112611bd45760206040516101f48152f35b6000915b60038310611c1d57505050565b600190825181526020809101920192019190611c10565b60e0810190811067ffffffffffffffff821117611c5057604052565b634e487b7160e01b600052604160045260246000fd5b6060810190811067ffffffffffffffff821117611c5057604052565b6040810190811067ffffffffffffffff821117611c5057604052565b90601f8019910116810190811067ffffffffffffffff821117611c5057604052565b91908203918211611ccd57565b634e487b7160e01b600052601160045260246000fd5b81810292918115918404141715611ccd57565b60018060a01b03166000526009602052604060002060405190611d1882611c34565b805491828152600182015492836020830152600283015460408301526003830154606083015260ff600660048501549460808501958652600581015460a086015201541615908115918260c085015291611da4575b50611d9c57611d93611d9892611d8964496cebb8009542611cc0565b9251905190611ce3565b611ce3565b0490565b505050600090565b90501538611d6d565b60018060a01b031680600052600960205260406000209060c0604051611dd281611c34565b60ff600685549586845260018101546020850152600281015460408501526003810154606085015260048101546080850152600581015460a085015201541615908115928391015290611e5d575b611e5657670de0b6b3a7640000611e3d611e5393600e5490611ce3565b0490600052600c60205260406000205490611cc0565b90565b5050600090565b508115611e20565b60018060a01b031660005260096020526040600020604051611e8681611c34565b60c082549182815260018401546020820152600284015490816040820152600385015460608201526004850154608082015260ff60066005870154968760a085015201541615908115938491015291611eec575b50611e565761271091611d9891611ce3565b9050421038611eda565b90816020910312611bd457518015158103611bd45790565b15611f1557565b60405162461bcd60e51b815260206004820152600f60248201526e1514905394d1915497d19052531151608a1b6044820152606490fd5b15611f5357565b60405162461bcd60e51b815260206004820152600e60248201526d11115597d1915157d1905253115160921b6044820152606490fd5b15611f9057565b60405162461bcd60e51b815260206004820152600e60248201526d111053d7d1915157d1905253115160921b6044820152606490fd5b91908201809211611ccd57565b15611fda57565b60405162461bcd60e51b815260206004820152600b60248201526a2727afa827a9a4aa24a7a760a91b6044820152606490fd5b60ff16801561203a5760011461202c576276a700906103849061019090565b62278d009061025890609690565b50621275009060fa90603290565b1561204f57565b60405162461bcd60e51b81526020600482015260096024820152682727aa2fa7aba722a960b91b6044820152606490fdfea26469706673582212203d033b0035e1207bc36f86189473030103a67837c0b21e3ac942ab5f353d5ae264736f6c63430008140033","opcodes":"PUSH1 0xA0 CALLVALUE PUSH3 0x1ED JUMPI PUSH1 0x1F PUSH3 0x22D4 CODESIZE DUP2 SWAP1 SUB SWAP2 DUP3 ADD PUSH1 0x1F NOT AND DUP4 ADD SWAP3 SWAP2 SWAP1 PUSH1 0x1 PUSH1 0x1 PUSH1 0x40 SHL SUB DUP5 GT DUP4 DUP6 LT OR PUSH3 0x1F2 JUMPI DUP2 PUSH1 0x80 SWAP3 DUP5 SWAP3 PUSH1 0x40 SWAP7 DUP8 MSTORE DUP4 CODECOPY DUP2 ADD SUB SLT PUSH3 0x1ED JUMPI PUSH3 0x51 DUP2 PUSH3 0x208 JUMP JUMPDEST PUSH3 0x5F PUSH1 0x20 DUP4 ADD PUSH3 0x208 JUMP JUMPDEST SWAP1 PUSH3 0x7B PUSH1 0x60 PUSH3 0x73 DUP7 DUP7 ADD PUSH3 0x208 JUMP JUMPDEST SWAP5 ADD PUSH3 0x208 JUMP JUMPDEST PUSH1 0x1 PUSH1 0x1 PUSH1 0xA0 SHL SUB SWAP2 DUP3 AND SWAP3 SWAP1 SWAP2 SWAP1 DUP4 ISZERO PUSH3 0x1B9 JUMPI DUP2 AND SWAP4 DUP5 ISZERO PUSH3 0x187 JUMPI DUP2 AND SWAP2 DUP3 ISZERO PUSH3 0x155 JUMPI AND SWAP2 DUP3 ISZERO PUSH3 0x120 JUMPI PUSH1 0x80 MSTORE PUSH1 0x1 DUP1 PUSH1 0xA0 SHL SUB NOT SWAP3 DUP4 PUSH1 0x1 SLOAD AND OR PUSH1 0x1 SSTORE DUP3 PUSH1 0x2 SLOAD AND OR PUSH1 0x2 SSTORE DUP2 PUSH1 0x3 SLOAD AND OR PUSH1 0x3 SSTORE CALLER SWAP1 PUSH1 0x0 SLOAD AND OR PUSH1 0x0 SSTORE MLOAD PUSH2 0x20B6 SWAP1 DUP2 PUSH3 0x21E DUP3 CODECOPY PUSH1 0x80 MLOAD DUP2 DUP2 DUP2 PUSH2 0x681 ADD MSTORE DUP2 DUP2 PUSH2 0x930 ADD MSTORE DUP2 DUP2 PUSH2 0xB10 ADD MSTORE DUP2 DUP2 PUSH2 0xBFF ADD MSTORE DUP2 DUP2 PUSH2 0x1062 ADD MSTORE DUP2 DUP2 PUSH2 0x133D ADD MSTORE PUSH2 0x1694 ADD MSTORE RETURN JUMPDEST DUP5 MLOAD PUSH3 0x461BCD PUSH1 0xE5 SHL DUP2 MSTORE PUSH1 0x20 PUSH1 0x4 DUP3 ADD MSTORE PUSH1 0xE PUSH1 0x24 DUP3 ADD MSTORE PUSH14 0x494E56414C49445F564F54494E47 PUSH1 0x90 SHL PUSH1 0x44 DUP3 ADD MSTORE PUSH1 0x64 SWAP1 REVERT JUMPDEST DUP6 MLOAD PUSH3 0x461BCD PUSH1 0xE5 SHL DUP2 MSTORE PUSH1 0x20 PUSH1 0x4 DUP3 ADD MSTORE PUSH1 0xB PUSH1 0x24 DUP3 ADD MSTORE PUSH11 0x494E56414C49445F44414F PUSH1 0xA8 SHL PUSH1 0x44 DUP3 ADD MSTORE PUSH1 0x64 SWAP1 REVERT JUMPDEST DUP6 MLOAD PUSH3 0x461BCD PUSH1 0xE5 SHL DUP2 MSTORE PUSH1 0x20 PUSH1 0x4 DUP3 ADD MSTORE PUSH1 0xB PUSH1 0x24 DUP3 ADD MSTORE PUSH11 0x24A72B20A624A22FA222AB PUSH1 0xA9 SHL PUSH1 0x44 DUP3 ADD MSTORE PUSH1 0x64 SWAP1 REVERT JUMPDEST DUP6 MLOAD PUSH3 0x461BCD PUSH1 0xE5 SHL DUP2 MSTORE PUSH1 0x20 PUSH1 0x4 DUP3 ADD MSTORE PUSH1 0xD PUSH1 0x24 DUP3 ADD MSTORE PUSH13 0x24A72B20A624A22FAA27A5A2A7 PUSH1 0x99 SHL PUSH1 0x44 DUP3 ADD MSTORE PUSH1 0x64 SWAP1 REVERT JUMPDEST PUSH1 0x0 DUP1 REVERT JUMPDEST PUSH4 0x4E487B71 PUSH1 0xE0 SHL PUSH1 0x0 MSTORE PUSH1 0x41 PUSH1 0x4 MSTORE PUSH1 0x24 PUSH1 0x0 REVERT JUMPDEST MLOAD SWAP1 PUSH1 0x1 PUSH1 0x1 PUSH1 0xA0 SHL SUB DUP3 AND DUP3 SUB PUSH3 0x1ED JUMPI JUMP INVALID PUSH1 0x80 PUSH1 0x40 DUP2 DUP2 MSTORE PUSH1 0x4 SWAP2 DUP3 CALLDATASIZE LT ISZERO PUSH2 0x16 JUMPI PUSH1 0x0 DUP1 REVERT JUMPDEST PUSH1 0x0 SWAP3 DUP4 CALLDATALOAD PUSH1 0xE0 SHR SWAP2 DUP3 PUSH4 0x19F7B67 EQ PUSH2 0x1B92 JUMPI POP DUP2 PUSH4 0x6528123 EQ PUSH2 0x1B75 JUMPI DUP2 PUSH4 0x78F31FD EQ PUSH2 0x1B58 JUMPI DUP2 PUSH4 0x10087FB1 EQ PUSH2 0x161F JUMPI DUP2 PUSH4 0x143AE5B1 EQ PUSH2 0x8D4 JUMPI DUP2 PUSH4 0x16C19739 EQ PUSH2 0x1526 JUMPI DUP2 PUSH4 0x1D336D62 EQ PUSH2 0x14EE JUMPI DUP2 PUSH4 0x1F53AC02 EQ PUSH2 0x14A4 JUMPI DUP2 PUSH4 0x310D8823 EQ PUSH2 0x146C JUMPI DUP2 PUSH4 0x36229616 EQ PUSH2 0x1446 JUMPI DUP2 PUSH4 0x36FECFFA EQ PUSH2 0x140E JUMPI DUP2 PUSH4 0x372500AB EQ PUSH2 0x1274 JUMPI DUP2 PUSH4 0x3CCFD60B EQ PUSH2 0xF50 JUMPI DUP2 PUSH4 0x432C4FA2 EQ PUSH2 0xF33 JUMPI DUP2 PUSH4 0x4961CA9F EQ PUSH2 0xF17 JUMPI DUP2 PUSH4 0x51FF0166 EQ PUSH2 0xEFB JUMPI DUP2 PUSH4 0x52628D9A EQ PUSH2 0xEDC JUMPI DUP2 PUSH4 0x55F57510 EQ PUSH2 0xE60 JUMPI DUP2 PUSH4 0x5C677192 EQ PUSH2 0xE44 JUMPI DUP2 PUSH4 0x66E0F8A0 EQ PUSH2 0xE26 JUMPI DUP2 PUSH4 0x6D6277BB EQ PUSH2 0xE08 JUMPI DUP2 PUSH4 0x6E8A56D9 EQ PUSH2 0xDBE JUMPI DUP2 PUSH4 0x7319E5AA EQ PUSH2 0xD98 JUMPI DUP2 PUSH4 0x751A2D64 EQ PUSH2 0xD5A JUMPI DUP2 PUSH4 0x76BCE55B EQ PUSH2 0xD3D JUMPI DUP2 PUSH4 0x79022A9F EQ PUSH2 0xD14 JUMPI DUP2 PUSH4 0x79A59C13 EQ PUSH2 0xCBC JUMPI DUP2 PUSH4 0x817B1CD2 EQ PUSH2 0xC9E JUMPI DUP2 PUSH4 0x86989038 EQ PUSH2 0xC7F JUMPI DUP2 PUSH4 0x8DA5CB5B EQ PUSH2 0xC57 JUMPI DUP2 PUSH4 0x8EA5220F EQ PUSH2 0xC2E JUMPI DUP2 PUSH4 0x9F76AB7C EQ PUSH2 0xBEA JUMPI DUP2 PUSH4 0xA124DF5D EQ PUSH2 0xBA0 JUMPI DUP2 PUSH4 0xADFAA72E EQ PUSH2 0xAA6 JUMPI DUP2 PUSH4 0xAE2E933B EQ PUSH2 0xA87 JUMPI DUP2 PUSH4 0xB29A8140 EQ PUSH2 0x8F5 JUMPI DUP2 PUSH4 0xB5D0D4E9 EQ PUSH2 0x8D9 JUMPI DUP2 PUSH4 0xB5EBB120 EQ PUSH2 0x8D4 JUMPI DUP2 PUSH4 0xC6580D12 EQ PUSH2 0x298 JUMPI DUP2 PUSH4 0xDB2E21BC EQ PUSH2 0x5B9 JUMPI DUP2 PUSH4 0xDD3B829A EQ PUSH2 0x59A JUMPI DUP2 PUSH4 0xDE170570 EQ PUSH2 0x3AF JUMPI DUP2 PUSH4 0xDFAE3779 EQ PUSH2 0x382 JUMPI DUP2 PUSH4 0xDFE6B5D6 EQ PUSH2 0x33E JUMPI POP DUP1 PUSH4 0xE1F1C4A7 EQ PUSH2 0x322 JUMPI DUP1 PUSH4 0xEB1D5763 EQ PUSH2 0x305 JUMPI DUP1 PUSH4 0xEE172546 EQ PUSH2 0x2E7 JUMPI DUP1 PUSH4 0xF2FDE38B EQ PUSH2 0x29D JUMPI DUP1 PUSH4 0xF6D361CC EQ PUSH2 0x298 JUMPI DUP1 PUSH4 0xFA652B95 EQ PUSH2 0x27D JUMPI PUSH4 0xFD10467E EQ PUSH2 0x256 JUMPI PUSH1 0x0 DUP1 REVERT JUMPDEST CALLVALUE PUSH2 0x279 JUMPI DUP2 PUSH1 0x3 NOT CALLDATASIZE ADD SLT PUSH2 0x279 JUMPI PUSH1 0x20 SWAP1 MLOAD PUSH10 0xD3C21BCECCEDA1000000 DUP2 MSTORE RETURN JUMPDEST POP DUP1 REVERT JUMPDEST POP CALLVALUE PUSH2 0x279 JUMPI DUP2 PUSH1 0x3 NOT CALLDATASIZE ADD SLT PUSH2 0x279 JUMPI PUSH1 0x20 SWAP1 MLOAD PUSH1 0x32 DUP2 MSTORE RETURN JUMPDEST PUSH2 0x1BEF JUMP JUMPDEST DUP3 CALLVALUE PUSH2 0x2E4 JUMPI PUSH1 0x20 CALLDATASIZE PUSH1 0x3 NOT ADD SLT PUSH2 0x2E4 JUMPI PUSH2 0x2B7 PUSH2 0x1BD9 JUMP JUMPDEST DUP2 SLOAD SWAP1 PUSH1 0x1 PUSH1 0x1 PUSH1 0xA0 SHL SUB SWAP1 PUSH2 0x2D0 CALLER DUP4 DUP6 AND EQ PUSH2 0x2048 JUMP JUMPDEST AND SWAP1 PUSH1 0x1 PUSH1 0x1 PUSH1 0x60 SHL SUB PUSH1 0xA0 SHL AND OR DUP2 SSTORE DUP1 RETURN JUMPDEST DUP1 REVERT JUMPDEST POP CALLVALUE PUSH2 0x279 JUMPI DUP2 PUSH1 0x3 NOT CALLDATASIZE ADD SLT PUSH2 0x279 JUMPI PUSH1 0x20 SWAP1 PUSH1 0x5 SLOAD SWAP1 MLOAD SWAP1 DUP2 MSTORE RETURN JUMPDEST POP CALLVALUE PUSH2 0x279 JUMPI DUP2 PUSH1 0x3 NOT CALLDATASIZE ADD SLT PUSH2 0x279 JUMPI PUSH1 0x20 SWAP1 MLOAD PUSH3 0x127500 DUP2 MSTORE RETURN JUMPDEST POP CALLVALUE PUSH2 0x279 JUMPI DUP2 PUSH1 0x3 NOT CALLDATASIZE ADD SLT PUSH2 0x279 JUMPI PUSH1 0x20 SWAP1 MLOAD PUSH2 0x2710 DUP2 MSTORE RETURN JUMPDEST SWAP1 POP CALLVALUE PUSH2 0x37E JUMPI DUP3 PUSH1 0x3 NOT CALLDATASIZE ADD SLT PUSH2 0x37E JUMPI PUSH1 0xA0 SWAP3 POP SLOAD SWAP1 PUSH1 0x5 SLOAD SWAP1 PUSH1 0x6 SLOAD PUSH1 0x7 SLOAD SWAP2 PUSH1 0x8 SLOAD SWAP4 DUP2 MLOAD SWAP6 DUP7 MSTORE PUSH1 0x20 DUP7 ADD MSTORE DUP5 ADD MSTORE PUSH1 0x60 DUP4 ADD MSTORE PUSH1 0x80 DUP3 ADD MSTORE RETURN JUMPDEST DUP3 DUP1 REVERT JUMPDEST POP POP CALLVALUE PUSH2 0x279 JUMPI PUSH1 0x20 CALLDATASIZE PUSH1 0x3 NOT ADD SLT PUSH2 0x279 JUMPI PUSH1 0x20 SWAP1 PUSH2 0x3A8 PUSH2 0x3A3 PUSH2 0x1BD9 JUMP JUMPDEST PUSH2 0x1CF6 JUMP JUMPDEST SWAP1 MLOAD SWAP1 DUP2 MSTORE RETURN JUMPDEST SWAP2 SWAP1 POP CALLVALUE PUSH2 0x37E JUMPI DUP3 PUSH1 0x3 NOT CALLDATASIZE ADD SLT PUSH2 0x37E JUMPI DUP1 MLOAD SWAP3 PUSH2 0x3CE DUP5 PUSH2 0x1C66 JUMP JUMPDEST DUP1 JUMPDEST PUSH1 0x60 DUP1 DUP3 LT ISZERO PUSH2 0x3E6 JUMPI DUP6 DUP3 ADD MSTORE PUSH1 0x20 ADD PUSH2 0x3D0 JUMP JUMPDEST POP POP SWAP2 SWAP3 POP PUSH1 0x60 DUP2 MLOAD PUSH2 0x3F8 DUP2 PUSH2 0x1C66 JUMP JUMPDEST CALLDATASIZE SWAP1 CALLDATACOPY PUSH1 0x60 DUP2 MLOAD PUSH2 0x408 DUP2 PUSH2 0x1C66 JUMP JUMPDEST CALLDATASIZE SWAP1 CALLDATACOPY PUSH1 0x60 DUP2 MLOAD PUSH2 0x418 DUP2 PUSH2 0x1C66 JUMP JUMPDEST CALLDATASIZE SWAP1 CALLDATACOPY DUP1 MLOAD SWAP1 PUSH2 0x427 DUP3 PUSH2 0x1C66 JUMP JUMPDEST DUP1 MLOAD SWAP4 PUSH2 0x433 DUP6 PUSH2 0x1C82 JUMP JUMPDEST PUSH1 0x6 DUP6 MSTORE PUSH1 0x20 SWAP5 PUSH6 0x42726F6E7A65 PUSH1 0xD0 SHL DUP7 DUP3 ADD MSTORE DUP4 MSTORE DUP2 MLOAD PUSH2 0x455 DUP2 PUSH2 0x1C82 JUMP JUMPDEST PUSH1 0x6 DUP2 MSTORE PUSH6 0x29B4B63B32B9 PUSH1 0xD1 SHL DUP7 DUP3 ADD MSTORE DUP6 DUP5 ADD MSTORE DUP2 MLOAD SWAP1 PUSH2 0x477 DUP3 PUSH2 0x1C82 JUMP JUMPDEST DUP2 MSTORE PUSH4 0x11DBDB19 PUSH1 0xE2 SHL DUP6 DUP3 ADD MSTORE DUP2 DUP4 ADD MSTORE DUP1 MLOAD PUSH2 0x494 DUP2 PUSH2 0x1C66 JUMP JUMPDEST PUSH3 0x127500 DUP2 MSTORE PUSH3 0x278D00 DUP6 DUP3 ADD MSTORE PUSH3 0x76A700 DUP3 DUP3 ADD MSTORE DUP2 MLOAD SWAP1 PUSH2 0x4B6 DUP3 PUSH2 0x1C66 JUMP JUMPDEST PUSH1 0xFA DUP3 MSTORE PUSH2 0x258 DUP7 DUP4 ADD MSTORE PUSH2 0x384 DUP4 DUP4 ADD MSTORE DUP3 MLOAD SWAP3 PUSH2 0x4D4 DUP5 PUSH2 0x1C66 JUMP JUMPDEST PUSH1 0x32 DUP5 MSTORE PUSH1 0x96 DUP8 DUP6 ADD MSTORE PUSH2 0x190 DUP2 DUP6 ADD MSTORE MLOAD SWAP6 DUP7 SWAP6 PUSH2 0x140 DUP1 DUP9 ADD SWAP1 DUP9 MSTORE PUSH2 0x1A0 DUP9 ADD SWAP7 SWAP2 DUP1 JUMPDEST PUSH1 0x3 DUP2 LT PUSH2 0x534 JUMPI POP POP POP POP SWAP2 PUSH2 0x51C PUSH2 0x526 SWAP3 PUSH2 0x530 SWAP6 SWAP5 DUP9 ADD SWAP1 PUSH2 0x1C0C JUMP JUMPDEST PUSH1 0x80 DUP7 ADD SWAP1 PUSH2 0x1C0C JUMP JUMPDEST PUSH1 0xE0 DUP5 ADD SWAP1 PUSH2 0x1C0C JUMP JUMPDEST SUB SWAP1 RETURN JUMPDEST SWAP2 SWAP4 SWAP5 SWAP6 SWAP7 SWAP8 SWAP1 SWAP3 SWAP9 POP PUSH2 0x13F NOT DUP11 DUP3 SUB ADD DUP5 MSTORE DUP5 DUP10 MLOAD DUP1 MLOAD SWAP1 DUP2 DUP5 MSTORE DUP6 JUMPDEST DUP3 DUP2 LT PUSH2 0x586 JUMPI POP POP DUP2 DUP4 DUP3 DUP8 DUP4 DUP1 SWAP6 PUSH1 0x1 SWAP9 ADD ADD MSTORE PUSH1 0x1F DUP1 NOT SWAP2 ADD AND ADD ADD SWAP11 ADD SWAP5 ADD SWAP2 ADD SWAP2 DUP10 SWAP9 SWAP8 SWAP7 SWAP6 SWAP5 SWAP4 SWAP3 PUSH2 0x4FB JUMP JUMPDEST DUP2 DUP2 ADD DUP5 ADD MLOAD DUP6 DUP3 ADD DUP6 ADD MSTORE DUP9 SWAP4 ADD PUSH2 0x553 JUMP JUMPDEST POP POP CALLVALUE PUSH2 0x279 JUMPI DUP2 PUSH1 0x3 NOT CALLDATASIZE ADD SLT PUSH2 0x279 JUMPI PUSH1 0x20 SWAP1 PUSH1 0xE SLOAD SWAP1 MLOAD SWAP1 DUP2 MSTORE RETURN JUMPDEST DUP4 DUP4 CALLVALUE PUSH2 0x279 JUMPI DUP2 PUSH1 0x3 NOT CALLDATASIZE ADD SLT PUSH2 0x279 JUMPI CALLER DUP3 MSTORE PUSH1 0x20 PUSH1 0x9 DUP2 MSTORE DUP2 DUP4 KECCAK256 SWAP1 PUSH1 0x6 DUP3 ADD SWAP1 PUSH2 0x5EA PUSH1 0xFF DUP4 SLOAD AND PUSH2 0x1FD3 JUMP JUMPDEST DUP3 SLOAD PUSH1 0xC8 DUP2 MUL SWAP4 DUP2 ISZERO SWAP5 DUP3 DUP2 DIV PUSH1 0xC8 EQ DUP7 OR ISZERO PUSH2 0x8C1 JUMPI PUSH2 0x2710 DUP1 SWAP2 DIV SWAP6 PUSH2 0x708 SWAP1 DUP2 DUP6 MUL SWAP2 DUP6 DUP4 DIV EQ OR ISZERO PUSH2 0x8AE JUMPI DIV SWAP4 DUP8 SWAP2 SWAP1 PUSH2 0x63D PUSH2 0x635 DUP8 PUSH2 0x630 DUP11 DUP9 PUSH2 0x1CC0 JUMP JUMPDEST PUSH2 0x1CC0 JUMP JUMPDEST SWAP5 DUP12 SLOAD PUSH2 0x1CC0 JUMP JUMPDEST DUP11 SSTORE PUSH2 0x64B DUP7 PUSH1 0x7 SLOAD PUSH2 0x1FC6 JUMP JUMPDEST PUSH1 0x7 SSTORE DUP1 SLOAD PUSH1 0xFF NOT AND SWAP1 SSTORE SSTORE PUSH1 0x1 SLOAD DUP6 MLOAD PUSH4 0xA9059CBB PUSH1 0xE0 SHL DUP1 DUP3 MSTORE PUSH1 0x1 PUSH1 0x1 PUSH1 0xA0 SHL SUB SWAP3 DUP4 AND DUP11 DUP4 ADD SWAP1 DUP2 MSTORE PUSH1 0x20 DUP2 ADD DUP9 SWAP1 MSTORE PUSH32 0x0 DUP5 AND SWAP11 SWAP4 SWAP2 SWAP3 SWAP1 DUP7 SWAP1 DUP3 SWAP1 DUP2 SWAP1 SUB PUSH1 0x40 ADD DUP2 DUP14 DUP16 GAS CALL SWAP1 DUP2 ISZERO PUSH2 0x8A4 JUMPI DUP11 SWAP2 PUSH2 0x887 JUMPI JUMPDEST POP ISZERO PUSH2 0x84F JUMPI PUSH1 0x3 SLOAD DUP9 MLOAD DUP4 DUP2 MSTORE SWAP2 AND PUSH1 0x1 PUSH1 0x1 PUSH1 0xA0 SHL SUB AND DUP4 DUP3 ADD SWAP1 DUP2 MSTORE PUSH1 0x20 DUP2 ADD DUP8 SWAP1 MSTORE DUP6 SWAP1 DUP3 SWAP1 DUP13 SWAP1 DUP3 SWAP1 DUP14 SWAP1 DUP3 SWAP1 PUSH1 0x40 ADD SUB SWAP3 GAS CALL SWAP1 DUP2 ISZERO PUSH2 0x845 JUMPI DUP10 SWAP2 PUSH2 0x828 JUMPI JUMPDEST POP ISZERO PUSH2 0x7F0 JUMPI DUP7 MLOAD SWAP1 DUP2 MSTORE CALLER SWAP2 DUP2 ADD SWAP2 DUP3 MSTORE PUSH1 0x20 DUP3 ADD DUP4 SWAP1 MSTORE SWAP7 SWAP8 DUP4 SWAP2 DUP9 SWAP2 SWAP1 DUP3 SWAP1 DUP12 SWAP1 DUP3 SWAP1 PUSH1 0x40 ADD SUB SWAP3 GAS CALL SWAP6 DUP7 ISZERO PUSH2 0x7E6 JUMPI PUSH32 0x7DBF5014C70CE465B3FAA9272D46A09414D933DE54728A335F7DF4BEA2BC2AE1 SWAP7 PUSH2 0x772 SWAP2 DUP10 SWAP2 PUSH2 0x7B9 JUMPI JUMPDEST POP PUSH2 0x1F0E JUMP JUMPDEST DUP5 MLOAD SWAP1 DUP2 MSTORE PUSH1 0x20 DUP2 ADD DUP5 SWAP1 MSTORE PUSH1 0x40 DUP2 ADD DUP4 SWAP1 MSTORE CALLER SWAP1 PUSH32 0x45DF01186FED55ABC3AC9CFA82408E10553B9B93A8F0C0B4C2965A7BEDB267EC SWAP1 PUSH1 0x60 SWAP1 LOG2 DUP4 MLOAD SWAP3 DUP4 MSTORE DUP3 ADD MSTORE LOG1 DUP1 RETURN JUMPDEST PUSH2 0x7D9 SWAP2 POP DUP5 RETURNDATASIZE DUP7 GT PUSH2 0x7DF JUMPI JUMPDEST PUSH2 0x7D1 DUP2 DUP4 PUSH2 0x1C9E JUMP JUMPDEST DUP2 ADD SWAP1 PUSH2 0x1EF6 JUMP JUMPDEST DUP10 PUSH2 0x76C JUMP JUMPDEST POP RETURNDATASIZE PUSH2 0x7C7 JUMP JUMPDEST DUP6 MLOAD RETURNDATASIZE DUP10 DUP3 RETURNDATACOPY RETURNDATASIZE SWAP1 REVERT JUMPDEST DUP7 MLOAD PUSH3 0x461BCD PUSH1 0xE5 SHL DUP2 MSTORE DUP1 DUP4 ADD DUP6 SWAP1 MSTORE PUSH1 0x12 PUSH1 0x24 DUP3 ADD MSTORE PUSH18 0x111053D7D411539053151657D19052531151 PUSH1 0x72 SHL PUSH1 0x44 DUP3 ADD MSTORE PUSH1 0x64 SWAP1 REVERT JUMPDEST PUSH2 0x83F SWAP2 POP DUP6 RETURNDATASIZE DUP8 GT PUSH2 0x7DF JUMPI PUSH2 0x7D1 DUP2 DUP4 PUSH2 0x1C9E JUMP JUMPDEST DUP11 PUSH2 0x70B JUMP JUMPDEST DUP9 MLOAD RETURNDATASIZE DUP12 DUP3 RETURNDATACOPY RETURNDATASIZE SWAP1 REVERT JUMPDEST DUP8 MLOAD PUSH3 0x461BCD PUSH1 0xE5 SHL DUP2 MSTORE DUP1 DUP5 ADD DUP7 SWAP1 MSTORE PUSH1 0x12 PUSH1 0x24 DUP3 ADD MSTORE PUSH18 0x11115597D411539053151657D19052531151 PUSH1 0x72 SHL PUSH1 0x44 DUP3 ADD MSTORE PUSH1 0x64 SWAP1 REVERT JUMPDEST PUSH2 0x89E SWAP2 POP DUP7 RETURNDATASIZE DUP9 GT PUSH2 0x7DF JUMPI PUSH2 0x7D1 DUP2 DUP4 PUSH2 0x1C9E JUMP JUMPDEST DUP12 PUSH2 0x6C4 JUMP JUMPDEST DUP10 MLOAD RETURNDATASIZE DUP13 DUP3 RETURNDATACOPY RETURNDATASIZE SWAP1 REVERT JUMPDEST PUSH4 0x4E487B71 PUSH1 0xE0 SHL DUP10 MSTORE PUSH1 0x11 DUP11 MSTORE PUSH1 0x24 DUP10 REVERT JUMPDEST PUSH4 0x4E487B71 PUSH1 0xE0 SHL DUP9 MSTORE PUSH1 0x11 DUP10 MSTORE PUSH1 0x24 DUP9 REVERT JUMPDEST PUSH2 0x1BB7 JUMP JUMPDEST POP POP CALLVALUE PUSH2 0x279 JUMPI DUP2 PUSH1 0x3 NOT CALLDATASIZE ADD SLT PUSH2 0x279 JUMPI PUSH1 0x20 SWAP1 MLOAD PUSH1 0xFA DUP2 MSTORE RETURN JUMPDEST DUP4 SWAP2 POP CALLVALUE PUSH2 0x279 JUMPI DUP3 PUSH1 0x3 NOT CALLDATASIZE ADD SLT PUSH2 0x279 JUMPI PUSH2 0x910 PUSH2 0x1BD9 JUMP JUMPDEST DUP3 SLOAD PUSH1 0x24 CALLDATALOAD SWAP3 PUSH1 0x1 PUSH1 0x1 PUSH1 0xA0 SHL SUB SWAP2 DUP3 AND SWAP2 PUSH2 0x92D CALLER DUP5 EQ PUSH2 0x2048 JUMP JUMPDEST DUP1 PUSH32 0x0 AND SWAP4 AND SWAP3 DUP1 DUP5 EQ SWAP1 DUP2 ISZERO SWAP2 PUSH2 0xA04 JUMPI JUMPDEST POP ISZERO PUSH2 0x9D5 JUMPI DUP6 MLOAD PUSH4 0xA9059CBB PUSH1 0xE0 SHL DUP2 MSTORE PUSH1 0x1 PUSH1 0x1 PUSH1 0xA0 SHL SUB SWAP1 SWAP3 AND SWAP1 DUP3 ADD SWAP1 DUP2 MSTORE PUSH1 0x20 DUP2 DUP2 ADD SWAP5 SWAP1 SWAP5 MSTORE SWAP1 SWAP3 DUP6 SWAP3 SWAP1 SWAP2 DUP5 SWAP2 SWAP1 DUP3 SWAP1 DUP8 SWAP1 DUP3 SWAP1 PUSH1 0x40 ADD SUB SWAP3 GAS CALL SWAP1 DUP2 ISZERO PUSH2 0x9CC JUMPI POP PUSH2 0x9B1 JUMPI POP DUP1 RETURN JUMPDEST PUSH2 0x9C8 SWAP1 PUSH1 0x20 RETURNDATASIZE DUP2 GT PUSH2 0x7DF JUMPI PUSH2 0x7D1 DUP2 DUP4 PUSH2 0x1C9E JUMP JUMPDEST POP DUP1 RETURN JUMPDEST MLOAD RETURNDATASIZE DUP5 DUP3 RETURNDATACOPY RETURNDATASIZE SWAP1 REVERT JUMPDEST PUSH1 0x64 SWAP1 PUSH1 0x20 DUP8 MLOAD SWAP2 PUSH3 0x461BCD PUSH1 0xE5 SHL DUP4 MSTORE DUP3 ADD MSTORE PUSH1 0x9 PUSH1 0x24 DUP3 ADD MSTORE PUSH9 0x141493D51150D51151 PUSH1 0xBA SHL PUSH1 0x44 DUP3 ADD MSTORE REVERT JUMPDEST DUP8 MLOAD PUSH4 0x70A08231 PUSH1 0xE0 SHL DUP2 MSTORE ADDRESS DUP5 DUP3 ADD MSTORE SWAP2 POP PUSH1 0x20 SWAP1 DUP3 SWAP1 PUSH1 0x24 SWAP1 DUP3 SWAP1 GAS STATICCALL DUP1 ISZERO PUSH2 0xA7D JUMPI DUP7 SWAP1 PUSH2 0xA46 JUMPI JUMPDEST PUSH2 0xA3D SWAP2 POP DUP3 SLOAD SWAP1 PUSH2 0x1CC0 JUMP JUMPDEST DUP5 GT ISZERO DUP8 PUSH2 0x95F JUMP JUMPDEST POP PUSH1 0x20 DUP2 RETURNDATASIZE DUP3 GT PUSH2 0xA75 JUMPI JUMPDEST DUP2 PUSH2 0xA5F PUSH1 0x20 SWAP4 DUP4 PUSH2 0x1C9E JUMP JUMPDEST DUP2 ADD SUB SLT PUSH2 0xA71 JUMPI PUSH2 0xA3D SWAP1 MLOAD PUSH2 0xA30 JUMP JUMPDEST DUP6 DUP1 REVERT JUMPDEST RETURNDATASIZE SWAP2 POP PUSH2 0xA52 JUMP JUMPDEST DUP8 MLOAD RETURNDATASIZE DUP9 DUP3 RETURNDATACOPY RETURNDATASIZE SWAP1 REVERT JUMPDEST POP POP CALLVALUE PUSH2 0x279 JUMPI DUP2 PUSH1 0x3 NOT CALLDATASIZE ADD SLT PUSH2 0x279 JUMPI PUSH1 0x20 SWAP1 PUSH1 0x6 SLOAD SWAP1 MLOAD SWAP1 DUP2 MSTORE RETURN JUMPDEST SWAP2 SWAP1 POP CALLVALUE PUSH2 0x37E JUMPI PUSH1 0x20 SWAP3 DUP4 PUSH1 0x3 NOT CALLDATASIZE ADD SLT PUSH2 0x2E4 JUMPI PUSH1 0x1 PUSH1 0x1 PUSH1 0xA0 SHL SUB SWAP1 DUP5 DUP3 PUSH2 0xACF PUSH2 0x1BD9 JUMP JUMPDEST AND DUP1 DUP4 MSTORE PUSH1 0xD DUP3 MSTORE PUSH1 0xFF DUP6 DUP5 KECCAK256 SLOAD AND SWAP6 DUP7 ISZERO PUSH2 0xAF1 JUMPI JUMPDEST DUP3 DUP8 DUP8 MLOAD SWAP1 ISZERO ISZERO DUP2 MSTORE RETURN JUMPDEST DUP6 PUSH1 0x24 SWAP3 SWAP4 SWAP5 SWAP6 SWAP7 SWAP8 POP MLOAD SWAP6 DUP7 SWAP4 DUP5 SWAP3 PUSH4 0x70A08231 PUSH1 0xE0 SHL DUP5 MSTORE DUP4 ADD MSTORE PUSH32 0x0 AND GAS STATICCALL SWAP1 DUP2 ISZERO PUSH2 0xB95 JUMPI DUP1 SWAP2 PUSH2 0xB5B JUMPI JUMPDEST POP PUSH10 0xD3C21BCECCEDA1000000 SWAP2 POP LT ISZERO SWAP1 CODESIZE DUP1 DUP5 DUP2 DUP1 PUSH2 0xAE6 JUMP JUMPDEST SWAP1 POP DUP4 DUP3 DUP2 RETURNDATASIZE DUP4 GT PUSH2 0xB8E JUMPI JUMPDEST PUSH2 0xB72 DUP2 DUP4 PUSH2 0x1C9E JUMP JUMPDEST DUP2 ADD SUB SLT PUSH2 0x2E4 JUMPI POP PUSH10 0xD3C21BCECCEDA1000000 SWAP1 MLOAD CODESIZE PUSH2 0xB40 JUMP JUMPDEST POP RETURNDATASIZE PUSH2 0xB68 JUMP JUMPDEST DUP4 MLOAD SWAP1 RETURNDATASIZE SWAP1 DUP3 RETURNDATACOPY RETURNDATASIZE SWAP1 REVERT JUMPDEST DUP4 CALLVALUE PUSH2 0x2E4 JUMPI PUSH1 0x20 CALLDATASIZE PUSH1 0x3 NOT ADD SLT PUSH2 0x2E4 JUMPI PUSH2 0xBBA PUSH2 0x1BD9 JUMP JUMPDEST DUP2 SLOAD PUSH1 0x1 PUSH1 0x1 PUSH1 0xA0 SHL SUB SWAP2 SWAP1 PUSH2 0xBD3 SWAP1 DUP4 AND CALLER EQ PUSH2 0x2048 JUMP JUMPDEST AND PUSH1 0x1 PUSH1 0x1 PUSH1 0x60 SHL SUB PUSH1 0xA0 SHL PUSH1 0x2 SLOAD AND OR PUSH1 0x2 SSTORE DUP1 RETURN JUMPDEST POP POP CALLVALUE PUSH2 0x279 JUMPI DUP2 PUSH1 0x3 NOT CALLDATASIZE ADD SLT PUSH2 0x279 JUMPI MLOAD PUSH32 0x0 PUSH1 0x1 PUSH1 0x1 PUSH1 0xA0 SHL SUB AND DUP2 MSTORE PUSH1 0x20 SWAP1 RETURN JUMPDEST POP POP CALLVALUE PUSH2 0x279 JUMPI DUP2 PUSH1 0x3 NOT CALLDATASIZE ADD SLT PUSH2 0x279 JUMPI PUSH1 0x1 SLOAD SWAP1 MLOAD PUSH1 0x1 PUSH1 0x1 PUSH1 0xA0 SHL SUB SWAP1 SWAP2 AND DUP2 MSTORE PUSH1 0x20 SWAP1 RETURN JUMPDEST POP POP CALLVALUE PUSH2 0x279 JUMPI DUP2 PUSH1 0x3 NOT CALLDATASIZE ADD SLT PUSH2 0x279 JUMPI SWAP1 SLOAD SWAP1 MLOAD PUSH1 0x1 PUSH1 0x1 PUSH1 0xA0 SHL SUB SWAP1 SWAP2 AND DUP2 MSTORE PUSH1 0x20 SWAP1 RETURN JUMPDEST POP POP CALLVALUE PUSH2 0x279 JUMPI DUP2 PUSH1 0x3 NOT CALLDATASIZE ADD SLT PUSH2 0x279 JUMPI PUSH1 0x20 SWAP1 PUSH1 0x8 SLOAD SWAP1 MLOAD SWAP1 DUP2 MSTORE RETURN JUMPDEST SWAP1 POP CALLVALUE PUSH2 0x37E JUMPI DUP3 PUSH1 0x3 NOT CALLDATASIZE ADD SLT PUSH2 0x37E JUMPI PUSH1 0x20 SWAP3 POP SLOAD SWAP1 MLOAD SWAP1 DUP2 MSTORE RETURN JUMPDEST DUP3 DUP5 CALLVALUE PUSH2 0x2E4 JUMPI PUSH1 0x20 CALLDATASIZE PUSH1 0x3 NOT ADD SLT PUSH2 0x2E4 JUMPI POP PUSH2 0xCD8 PUSH2 0x1BD9 JUMP JUMPDEST SWAP1 PUSH2 0x530 PUSH2 0xCE5 DUP4 PUSH2 0x1CF6 JUMP JUMPDEST SWAP2 PUSH2 0xCF8 PUSH2 0xCF2 DUP6 PUSH2 0x1DAD JUMP JUMPDEST SWAP5 PUSH2 0x1E65 JUMP JUMPDEST SWAP1 MLOAD SWAP4 DUP5 SWAP4 DUP5 PUSH1 0x40 SWAP2 SWAP5 SWAP4 SWAP3 PUSH1 0x60 DUP3 ADD SWAP6 DUP3 MSTORE PUSH1 0x20 DUP3 ADD MSTORE ADD MSTORE JUMP JUMPDEST POP POP CALLVALUE PUSH2 0x279 JUMPI DUP2 PUSH1 0x3 NOT CALLDATASIZE ADD SLT PUSH2 0x279 JUMPI PUSH1 0x2 SLOAD SWAP1 MLOAD PUSH1 0x1 PUSH1 0x1 PUSH1 0xA0 SHL SUB SWAP1 SWAP2 AND DUP2 MSTORE PUSH1 0x20 SWAP1 RETURN JUMPDEST POP POP CALLVALUE PUSH2 0x279 JUMPI DUP2 PUSH1 0x3 NOT CALLDATASIZE ADD SLT PUSH2 0x279 JUMPI PUSH1 0x20 SWAP1 MLOAD PUSH2 0x7D0 DUP2 MSTORE RETURN JUMPDEST POP POP CALLVALUE PUSH2 0x279 JUMPI PUSH1 0x20 CALLDATASIZE PUSH1 0x3 NOT ADD SLT PUSH2 0x279 JUMPI PUSH1 0x20 SWAP2 PUSH1 0xFF SWAP1 DUP3 SWAP1 PUSH1 0x1 PUSH1 0x1 PUSH1 0xA0 SHL SUB PUSH2 0xD85 PUSH2 0x1BD9 JUMP JUMPDEST AND DUP2 MSTORE PUSH1 0xD DUP6 MSTORE KECCAK256 SLOAD AND SWAP1 MLOAD SWAP1 ISZERO ISZERO DUP2 MSTORE RETURN JUMPDEST POP POP CALLVALUE PUSH2 0x279 JUMPI PUSH1 0x20 CALLDATASIZE PUSH1 0x3 NOT ADD SLT PUSH2 0x279 JUMPI PUSH1 0x20 SWAP1 PUSH2 0x3A8 PUSH2 0xDB9 PUSH2 0x1BD9 JUMP JUMPDEST PUSH2 0x1E65 JUMP JUMPDEST DUP4 CALLVALUE PUSH2 0x2E4 JUMPI PUSH1 0x20 CALLDATASIZE PUSH1 0x3 NOT ADD SLT PUSH2 0x2E4 JUMPI PUSH2 0xDD8 PUSH2 0x1BD9 JUMP JUMPDEST DUP2 SLOAD PUSH1 0x1 PUSH1 0x1 PUSH1 0xA0 SHL SUB SWAP2 SWAP1 PUSH2 0xDF1 SWAP1 DUP4 AND CALLER EQ PUSH2 0x2048 JUMP JUMPDEST AND PUSH1 0x1 PUSH1 0x1 PUSH1 0x60 SHL SUB PUSH1 0xA0 SHL PUSH1 0x3 SLOAD AND OR PUSH1 0x3 SSTORE DUP1 RETURN JUMPDEST POP POP CALLVALUE PUSH2 0x279 JUMPI DUP2 PUSH1 0x3 NOT CALLDATASIZE ADD SLT PUSH2 0x279 JUMPI PUSH1 0x20 SWAP1 MLOAD PUSH3 0x278D00 DUP2 MSTORE RETURN JUMPDEST POP POP CALLVALUE PUSH2 0x279 JUMPI DUP2 PUSH1 0x3 NOT CALLDATASIZE ADD SLT PUSH2 0x279 JUMPI PUSH1 0x20 SWAP1 MLOAD PUSH3 0x76A700 DUP2 MSTORE RETURN JUMPDEST POP POP CALLVALUE PUSH2 0x279 JUMPI DUP2 PUSH1 0x3 NOT CALLDATASIZE ADD SLT PUSH2 0x279 JUMPI PUSH1 0x20 SWAP1 MLOAD PUSH1 0x64 DUP2 MSTORE RETURN JUMPDEST SWAP1 POP CALLVALUE PUSH2 0x37E JUMPI PUSH1 0x20 CALLDATASIZE PUSH1 0x3 NOT ADD SLT PUSH2 0x37E JUMPI PUSH1 0xE0 SWAP3 DUP3 SWAP1 PUSH1 0x1 PUSH1 0x1 PUSH1 0xA0 SHL SUB PUSH2 0xE88 PUSH2 0x1BD9 JUMP JUMPDEST AND DUP2 MSTORE PUSH1 0x9 PUSH1 0x20 MSTORE KECCAK256 DUP1 SLOAD SWAP3 PUSH1 0x1 DUP3 ADD SLOAD SWAP3 PUSH1 0x2 DUP4 ADD SLOAD PUSH1 0x3 DUP5 ADD SLOAD SWAP2 DUP5 ADD SLOAD SWAP3 PUSH1 0xFF PUSH1 0x6 PUSH1 0x5 DUP8 ADD SLOAD SWAP7 ADD SLOAD AND SWAP6 DUP2 MLOAD SWAP8 DUP9 MSTORE PUSH1 0x20 DUP9 ADD MSTORE DUP7 ADD MSTORE PUSH1 0x60 DUP6 ADD MSTORE PUSH1 0x80 DUP5 ADD MSTORE PUSH1 0xA0 DUP4 ADD MSTORE ISZERO ISZERO PUSH1 0xC0 DUP3 ADD MSTORE RETURN JUMPDEST POP POP CALLVALUE PUSH2 0x279 JUMPI DUP2 PUSH1 0x3 NOT CALLDATASIZE ADD SLT PUSH2 0x279 JUMPI PUSH1 0x20 SWAP1 PUSH1 0x7 SLOAD SWAP1 MLOAD SWAP1 DUP2 MSTORE RETURN JUMPDEST POP POP CALLVALUE PUSH2 0x279 JUMPI DUP2 PUSH1 0x3 NOT CALLDATASIZE ADD SLT PUSH2 0x279 JUMPI PUSH1 0x20 SWAP1 MLOAD PUSH1 0x96 DUP2 MSTORE RETURN JUMPDEST POP POP CALLVALUE PUSH2 0x279 JUMPI DUP2 PUSH1 0x3 NOT CALLDATASIZE ADD SLT PUSH2 0x279 JUMPI PUSH1 0x20 SWAP1 MLOAD PUSH1 0xC8 DUP2 MSTORE RETURN JUMPDEST POP POP CALLVALUE PUSH2 0x279 JUMPI DUP2 PUSH1 0x3 NOT CALLDATASIZE ADD SLT PUSH2 0x279 JUMPI PUSH1 0x20 SWAP1 MLOAD PUSH2 0x708 DUP2 MSTORE RETURN JUMPDEST SWAP2 SWAP1 POP CALLVALUE PUSH2 0x37E JUMPI DUP3 PUSH1 0x3 NOT CALLDATASIZE ADD SLT PUSH2 0x37E JUMPI CALLER DUP4 MSTORE PUSH1 0x20 SWAP1 PUSH1 0x9 DUP3 MSTORE DUP1 DUP5 KECCAK256 SWAP3 PUSH1 0x6 DUP5 ADD SWAP4 PUSH2 0xF83 PUSH1 0xFF DUP7 SLOAD AND PUSH2 0x1FD3 JUMP JUMPDEST PUSH1 0x2 DUP2 ADD SLOAD TIMESTAMP LT PUSH2 0x1243 JUMPI DUP1 SLOAD SWAP4 PUSH2 0xFB8 PUSH2 0xFAF PUSH2 0xFA0 CALLER PUSH2 0x1CF6 JUMP JUMPDEST PUSH2 0xFA9 CALLER PUSH2 0x1DAD JUMP JUMPDEST SWAP1 PUSH2 0x1FC6 JUMP JUMPDEST PUSH2 0xFA9 CALLER PUSH2 0x1E65 JUMP JUMPDEST SWAP3 PUSH1 0x64 DUP7 MUL SWAP3 DUP7 ISZERO SWAP4 DUP8 DUP2 DIV PUSH1 0x64 EQ DUP6 OR ISZERO PUSH2 0x1230 JUMPI PUSH2 0x2710 DUP1 SWAP2 DIV SWAP5 PUSH2 0x190 SWAP1 DUP2 DUP11 MUL SWAP2 DUP11 DUP4 DIV EQ OR ISZERO PUSH2 0x121D JUMPI DIV SWAP8 DUP10 SWAP2 SWAP1 PUSH2 0x1005 PUSH2 0xFFD DUP12 PUSH2 0x630 DUP10 DUP14 PUSH2 0x1CC0 JUMP JUMPDEST SWAP10 DUP6 SLOAD PUSH2 0x1CC0 JUMP JUMPDEST DUP5 SSTORE PUSH2 0x1013 DUP8 PUSH1 0x5 SLOAD PUSH2 0x1FC6 JUMP JUMPDEST PUSH1 0x5 SSTORE CALLER DUP4 MSTORE PUSH1 0xA DUP6 MSTORE DUP8 DUP4 KECCAK256 PUSH2 0x102B DUP9 DUP3 SLOAD PUSH2 0x1FC6 JUMP JUMPDEST SWAP1 SSTORE DUP1 SLOAD PUSH1 0xFF NOT AND SWAP1 SSTORE SSTORE PUSH1 0x1 SLOAD DUP6 MLOAD PUSH4 0xA9059CBB PUSH1 0xE0 SHL DUP1 DUP3 MSTORE PUSH1 0x1 PUSH1 0x1 PUSH1 0xA0 SHL SUB SWAP3 DUP4 AND DUP3 DUP6 ADD SWAP1 DUP2 MSTORE PUSH1 0x20 DUP2 ADD DUP8 SWAP1 MSTORE SWAP1 SWAP4 PUSH32 0x0 DUP5 AND SWAP4 SWAP1 SWAP3 DUP13 SWAP3 DUP8 SWAP1 DUP3 SWAP1 DUP2 SWAP1 PUSH1 0x40 ADD SUB DUP2 DUP7 DUP10 GAS CALL SWAP1 DUP2 ISZERO PUSH2 0x1213 JUMPI SWAP3 DUP8 SWAP3 PUSH2 0x10B7 DUP15 SWAP4 PUSH2 0x10E3 SWAP7 DUP5 SWAP2 PUSH2 0x11F6 JUMPI JUMPDEST POP PUSH2 0x1F4C JUMP JUMPDEST PUSH1 0x2 SLOAD AND DUP12 MLOAD DUP1 SWAP6 DUP2 SWAP5 DUP3 SWAP4 DUP12 DUP5 MSTORE DUP10 DUP5 ADD PUSH1 0x20 SWAP1 SWAP4 SWAP3 SWAP2 SWAP4 PUSH1 0x40 DUP2 ADD SWAP5 PUSH1 0x1 DUP1 PUSH1 0xA0 SHL SUB AND DUP2 MSTORE ADD MSTORE JUMP JUMPDEST SUB SWAP2 DUP8 GAS CALL SWAP1 DUP12 DUP3 ISZERO PUSH2 0x11EB JUMPI DUP7 SWAP5 SWAP3 PUSH2 0x1135 SWAP7 SWAP5 SWAP3 PUSH2 0x1109 SWAP3 SWAP2 PUSH2 0x11CE JUMPI JUMPDEST POP PUSH2 0x1F89 JUMP JUMPDEST DUP12 PUSH2 0x1114 DUP10 DUP13 PUSH2 0x1FC6 JUMP JUMPDEST DUP11 MLOAD SWAP5 DUP6 MSTORE CALLER SWAP3 DUP6 ADD SWAP3 DUP4 MSTORE PUSH1 0x20 DUP4 ADD MSTORE SWAP3 SWAP5 DUP6 SWAP4 DUP5 SWAP3 SWAP1 SWAP2 DUP4 SWAP2 PUSH1 0x40 ADD SWAP1 JUMP JUMPDEST SUB SWAP3 GAS CALL SWAP2 DUP3 ISZERO PUSH2 0x11C4 JUMPI SWAP3 PUSH2 0x117E PUSH2 0x1183 SWAP4 PUSH32 0x75E161B3E824B114FC1A33274BD7091918DD4E639CEDE50B78B15A4EEA956A21 SWAP9 SWAP10 SWAP4 PUSH2 0x11A1 SWAP7 DUP13 SWAP3 PUSH2 0x11A7 JUMPI JUMPDEST POP POP PUSH2 0x1F0E JUMP JUMPDEST PUSH2 0x1FC6 JUMP JUMPDEST SWAP3 MLOAD SWAP3 DUP4 SWAP3 CALLER SWAP7 DUP5 PUSH1 0x40 SWAP2 SWAP5 SWAP4 SWAP3 PUSH1 0x60 DUP3 ADD SWAP6 DUP3 MSTORE PUSH1 0x20 DUP3 ADD MSTORE ADD MSTORE JUMP JUMPDEST SUB SWAP1 LOG2 DUP1 RETURN JUMPDEST PUSH2 0x11BD SWAP3 POP DUP1 RETURNDATASIZE LT PUSH2 0x7DF JUMPI PUSH2 0x7D1 DUP2 DUP4 PUSH2 0x1C9E JUMP JUMPDEST CODESIZE DUP1 PUSH2 0x1177 JUMP JUMPDEST DUP6 MLOAD RETURNDATASIZE DUP11 DUP3 RETURNDATACOPY RETURNDATASIZE SWAP1 REVERT JUMPDEST PUSH2 0x11E5 SWAP2 POP DUP7 RETURNDATASIZE DUP9 GT PUSH2 0x7DF JUMPI PUSH2 0x7D1 DUP2 DUP4 PUSH2 0x1C9E JUMP JUMPDEST CODESIZE PUSH2 0x1103 JUMP JUMPDEST DUP10 MLOAD SWAP1 RETURNDATASIZE SWAP1 DUP3 RETURNDATACOPY RETURNDATASIZE SWAP1 REVERT JUMPDEST PUSH2 0x120D SWAP2 POP DUP7 RETURNDATASIZE DUP9 GT PUSH2 0x7DF JUMPI PUSH2 0x7D1 DUP2 DUP4 PUSH2 0x1C9E JUMP JUMPDEST CODESIZE PUSH2 0x10B1 JUMP JUMPDEST DUP11 MLOAD RETURNDATASIZE DUP6 DUP3 RETURNDATACOPY RETURNDATASIZE SWAP1 REVERT JUMPDEST PUSH4 0x4E487B71 PUSH1 0xE0 SHL DUP12 MSTORE PUSH1 0x11 DUP5 MSTORE PUSH1 0x24 DUP12 REVERT JUMPDEST PUSH4 0x4E487B71 PUSH1 0xE0 SHL DUP11 MSTORE PUSH1 0x11 DUP4 MSTORE PUSH1 0x24 DUP11 REVERT JUMPDEST POP DUP3 PUSH1 0x64 SWAP3 MLOAD SWAP2 PUSH3 0x461BCD PUSH1 0xE5 SHL DUP4 MSTORE DUP3 ADD MSTORE PUSH1 0xC PUSH1 0x24 DUP3 ADD MSTORE PUSH12 0x14D512531317D313D0D2D151 PUSH1 0xA2 SHL PUSH1 0x44 DUP3 ADD MSTORE REVERT JUMPDEST SWAP2 SWAP1 POP CALLVALUE PUSH2 0x37E JUMPI DUP3 PUSH1 0x3 NOT CALLDATASIZE ADD SLT PUSH2 0x37E JUMPI CALLER DUP4 MSTORE PUSH1 0x20 PUSH1 0x9 DUP2 MSTORE DUP2 DUP5 KECCAK256 SWAP3 PUSH2 0x12A4 PUSH1 0xFF PUSH1 0x6 DUP7 ADD SLOAD AND PUSH2 0x1FD3 JUMP JUMPDEST PUSH2 0x12B0 PUSH2 0xFA0 CALLER PUSH2 0x1CF6 JUMP JUMPDEST SWAP4 DUP5 ISZERO PUSH2 0x13DF JUMPI DUP3 DUP6 DUP8 SWAP6 SWAP5 SWAP4 PUSH8 0xDE0B6B3A7640000 PUSH2 0x12DD PUSH2 0x1338 SWAP6 TIMESTAMP PUSH1 0x1 DUP3 ADD SSTORE SLOAD PUSH1 0xE SLOAD SWAP1 PUSH2 0x1CE3 JUMP JUMPDEST DIV CALLER DUP9 MSTORE PUSH1 0xC DUP5 MSTORE DUP7 DUP9 KECCAK256 SSTORE PUSH2 0x12F5 DUP3 PUSH1 0x5 SLOAD PUSH2 0x1FC6 JUMP JUMPDEST PUSH1 0x5 SSTORE CALLER DUP8 MSTORE PUSH1 0xA DUP4 MSTORE DUP6 DUP8 KECCAK256 PUSH2 0x130D DUP4 DUP3 SLOAD PUSH2 0x1FC6 JUMP JUMPDEST SWAP1 SSTORE DUP6 MLOAD PUSH4 0xA9059CBB PUSH1 0xE0 SHL DUP2 MSTORE CALLER SWAP2 DUP2 ADD SWAP2 DUP3 MSTORE PUSH1 0x20 DUP3 ADD SWAP3 SWAP1 SWAP3 MSTORE SWAP1 SWAP3 DUP4 SWAP2 DUP3 SWAP2 PUSH1 0x40 SWAP1 SWAP2 ADD SWAP1 JUMP JUMPDEST SUB DUP2 DUP8 PUSH32 0x0 PUSH1 0x1 PUSH1 0x1 PUSH1 0xA0 SHL SUB AND GAS CALL SWAP1 DUP2 ISZERO PUSH2 0x13D2 JUMPI DUP5 SWAP3 SWAP2 PUSH2 0x1381 SWAP2 DUP5 SWAP2 PUSH2 0x13B5 JUMPI POP PUSH2 0x1F0E JUMP JUMPDEST DUP3 MLOAD SWAP5 DUP6 MSTORE DUP5 ADD MSTORE DUP3 ADD MSTORE PUSH32 0x56253D287EFACDB2C4CD76DD03624A4821C1CE721D1152E8F5F5718F6087C9BF PUSH1 0x60 CALLER SWAP3 LOG2 DUP1 RETURN JUMPDEST PUSH2 0x13CC SWAP2 POP DUP4 RETURNDATASIZE DUP6 GT PUSH2 0x7DF JUMPI PUSH2 0x7D1 DUP2 DUP4 PUSH2 0x1C9E JUMP JUMPDEST CODESIZE PUSH2 0x76C JUMP JUMPDEST POP POP POP MLOAD SWAP1 RETURNDATASIZE SWAP1 DUP3 RETURNDATACOPY RETURNDATASIZE SWAP1 REVERT JUMPDEST POP SWAP2 MLOAD PUSH3 0x461BCD PUSH1 0xE5 SHL DUP2 MSTORE SWAP2 DUP3 ADD MSTORE PUSH1 0xA PUSH1 0x24 DUP3 ADD MSTORE PUSH10 0x4E4F5F52455741524453 PUSH1 0xB0 SHL PUSH1 0x44 DUP3 ADD MSTORE PUSH1 0x64 SWAP1 REVERT JUMPDEST POP POP CALLVALUE PUSH2 0x279 JUMPI PUSH1 0x20 CALLDATASIZE PUSH1 0x3 NOT ADD SLT PUSH2 0x279 JUMPI PUSH1 0x20 SWAP2 DUP2 SWAP1 PUSH1 0x1 PUSH1 0x1 PUSH1 0xA0 SHL SUB PUSH2 0x1436 PUSH2 0x1BD9 JUMP JUMPDEST AND DUP2 MSTORE PUSH1 0xB DUP5 MSTORE KECCAK256 SLOAD SWAP1 MLOAD SWAP1 DUP2 MSTORE RETURN JUMPDEST POP POP CALLVALUE PUSH2 0x279 JUMPI PUSH1 0x20 CALLDATASIZE PUSH1 0x3 NOT ADD SLT PUSH2 0x279 JUMPI PUSH1 0x20 SWAP1 PUSH2 0x3A8 PUSH2 0x1467 PUSH2 0x1BD9 JUMP JUMPDEST PUSH2 0x1DAD JUMP JUMPDEST POP POP CALLVALUE PUSH2 0x279 JUMPI PUSH1 0x20 CALLDATASIZE PUSH1 0x3 NOT ADD SLT PUSH2 0x279 JUMPI PUSH1 0x20 SWAP2 DUP2 SWAP1 PUSH1 0x1 PUSH1 0x1 PUSH1 0xA0 SHL SUB PUSH2 0x1494 PUSH2 0x1BD9 JUMP JUMPDEST AND DUP2 MSTORE PUSH1 0xC DUP5 MSTORE KECCAK256 SLOAD SWAP1 MLOAD SWAP1 DUP2 MSTORE RETURN JUMPDEST DUP4 CALLVALUE PUSH2 0x2E4 JUMPI PUSH1 0x20 CALLDATASIZE PUSH1 0x3 NOT ADD SLT PUSH2 0x2E4 JUMPI PUSH2 0x14BE PUSH2 0x1BD9 JUMP JUMPDEST DUP2 SLOAD PUSH1 0x1 PUSH1 0x1 PUSH1 0xA0 SHL SUB SWAP2 SWAP1 PUSH2 0x14D7 SWAP1 DUP4 AND CALLER EQ PUSH2 0x2048 JUMP JUMPDEST AND PUSH1 0x1 PUSH1 0x1 PUSH1 0x60 SHL SUB PUSH1 0xA0 SHL PUSH1 0x1 SLOAD AND OR PUSH1 0x1 SSTORE DUP1 RETURN JUMPDEST POP POP CALLVALUE PUSH2 0x279 JUMPI PUSH1 0x20 CALLDATASIZE PUSH1 0x3 NOT ADD SLT PUSH2 0x279 JUMPI PUSH1 0x20 SWAP2 DUP2 SWAP1 PUSH1 0x1 PUSH1 0x1 PUSH1 0xA0 SHL SUB PUSH2 0x1516 PUSH2 0x1BD9 JUMP JUMPDEST AND DUP2 MSTORE PUSH1 0xA DUP5 MSTORE KECCAK256 SLOAD SWAP1 MLOAD SWAP1 DUP2 MSTORE RETURN JUMPDEST SWAP2 SWAP1 POP CALLVALUE PUSH2 0x37E JUMPI PUSH1 0x20 CALLDATASIZE PUSH1 0x3 NOT ADD SLT PUSH2 0x37E JUMPI PUSH2 0x100 SWAP3 SWAP1 PUSH1 0x1 PUSH1 0x1 PUSH1 0xA0 SHL SUB PUSH2 0x154F PUSH2 0x1BD9 JUMP JUMPDEST AND DUP3 MSTORE PUSH1 0x9 PUSH1 0x20 MSTORE DUP1 DUP3 KECCAK256 SWAP3 DUP2 MLOAD SWAP4 PUSH2 0x1567 DUP6 PUSH2 0x1C34 JUMP JUMPDEST DUP1 SLOAD DUP6 MSTORE PUSH1 0x1 DUP2 ADD SLOAD SWAP5 PUSH1 0x20 DUP2 ADD SWAP6 DUP7 MSTORE PUSH1 0x2 DUP3 ADD SLOAD SWAP3 DUP5 DUP3 ADD SWAP5 DUP5 DUP7 MSTORE PUSH1 0x3 DUP5 ADD SLOAD SWAP2 PUSH1 0x60 DUP5 ADD SWAP3 DUP4 MSTORE DUP5 ADD SLOAD SWAP3 PUSH1 0x80 DUP2 ADD SWAP4 DUP5 MSTORE PUSH1 0xFF PUSH1 0x6 PUSH1 0x5 DUP8 ADD SLOAD SWAP7 PUSH1 0xA0 DUP5 ADD SWAP8 DUP9 MSTORE ADD SLOAD AND SWAP6 PUSH1 0xC0 DUP3 ADD SWAP7 ISZERO ISZERO SWAP9 DUP10 DUP9 MSTORE SWAP9 DUP1 PUSH2 0x1616 JUMPI JUMPDEST PUSH2 0x1602 JUMPI JUMPDEST POP MLOAD SWAP8 MLOAD SWAP6 MLOAD SWAP2 MLOAD SWAP3 MLOAD SWAP4 MLOAD SWAP5 MLOAD ISZERO ISZERO SWAP6 DUP2 MLOAD SWAP9 DUP10 MSTORE PUSH1 0x20 DUP10 ADD MSTORE DUP8 ADD MSTORE PUSH1 0x60 DUP7 ADD MSTORE PUSH1 0x80 DUP6 ADD MSTORE PUSH1 0xA0 DUP5 ADD MSTORE PUSH1 0xC0 DUP4 ADD MSTORE PUSH1 0xE0 DUP3 ADD MSTORE RETURN JUMPDEST PUSH2 0x160F SWAP2 SWAP9 POP TIMESTAMP SWAP1 PUSH2 0x1CC0 JUMP JUMPDEST SWAP7 CODESIZE PUSH2 0x15C9 JUMP JUMPDEST POP DUP1 TIMESTAMP LT PUSH2 0x15C4 JUMP JUMPDEST SWAP1 POP CALLVALUE PUSH2 0x37E JUMPI DUP2 PUSH1 0x3 NOT CALLDATASIZE ADD SLT PUSH2 0x37E JUMPI DUP1 CALLDATALOAD SWAP2 PUSH1 0x24 SWAP1 DUP2 CALLDATALOAD SWAP2 PUSH1 0xFF DUP4 AND SWAP3 DUP4 DUP2 SUB PUSH2 0x1B54 JUMPI DUP6 ISZERO PUSH2 0x1B24 JUMPI PUSH1 0x2 DUP5 GT PUSH2 0x1AF3 JUMPI CALLER DUP8 MSTORE PUSH1 0x20 SWAP5 PUSH1 0x9 DUP7 MSTORE PUSH1 0xFF PUSH1 0x6 DUP6 DUP11 KECCAK256 ADD SLOAD AND PUSH2 0x1ABF JUMPI DUP4 MLOAD PUSH4 0x23B872DD PUSH1 0xE0 SHL DUP2 MSTORE CALLER DUP3 DUP3 ADD MSTORE ADDRESS DUP2 DUP6 ADD MSTORE PUSH1 0x44 DUP2 ADD DUP9 SWAP1 MSTORE PUSH1 0x1 PUSH1 0x1 PUSH1 0xA0 SHL SUB SWAP4 PUSH32 0x0 DUP6 AND SWAP4 SWAP1 SWAP2 DUP9 DUP2 PUSH1 0x64 DUP2 DUP15 DUP10 GAS CALL SWAP1 DUP2 ISZERO PUSH2 0x1AB5 JUMPI SWAP1 PUSH2 0x16D9 SWAP2 DUP13 SWAP2 PUSH2 0x1A9E JUMPI POP PUSH2 0x1F0E JUMP JUMPDEST PUSH1 0x64 DUP10 MUL SWAP4 DUP10 DUP6 DIV PUSH1 0x64 SUB PUSH2 0x1A8C JUMPI PUSH2 0x2710 DUP1 SWAP6 DIV SWAP5 PUSH2 0x190 DUP1 DUP13 MUL SWAP1 DUP13 DUP3 DIV SUB PUSH2 0x1A7A JUMPI SWAP2 DUP13 DUP7 DUP14 SWAP4 DUP10 SWAP6 DIV DUP1 SWAP5 DUP2 PUSH1 0x1 SHR SWAP11 PUSH2 0x1716 SWAP2 PUSH2 0x1CC0 JUMP JUMPDEST SWAP1 PUSH2 0x1720 SWAP2 PUSH2 0x1CC0 JUMP JUMPDEST PUSH1 0x1 SLOAD DUP13 MLOAD PUSH4 0xA9059CBB PUSH1 0xE0 SHL DUP1 DUP3 MSTORE SWAP2 DUP14 AND PUSH1 0x1 PUSH1 0x1 PUSH1 0xA0 SHL SUB AND SWAP4 DUP2 ADD SWAP4 DUP5 MSTORE PUSH1 0x20 DUP5 ADD DUP9 SWAP1 MSTORE SWAP2 SWAP12 SWAP1 SWAP3 SWAP1 SWAP2 SWAP1 DUP16 SWAP1 DUP3 SWAP1 DUP2 SWAP1 PUSH1 0x40 ADD SUB DUP2 DUP8 DUP10 GAS CALL SWAP1 DUP2 ISZERO PUSH2 0x1A70 JUMPI SWAP4 DUP16 SWAP5 SWAP4 PUSH2 0x17BA DUP16 SWAP8 SWAP5 PUSH2 0x1793 SWAP1 DUP16 SWAP8 DUP16 SWAP7 PUSH2 0x1788 SWAP2 DUP8 SWAP2 PUSH2 0x1A59 JUMPI POP PUSH2 0x1F4C JUMP JUMPDEST PUSH1 0x2 SLOAD AND SWAP7 DUP11 PUSH2 0x1CC0 JUMP JUMPDEST SWAP8 MLOAD SWAP8 DUP9 SWAP7 DUP8 SWAP6 DUP7 SWAP5 DUP6 MSTORE DUP5 ADD PUSH1 0x20 SWAP1 SWAP4 SWAP3 SWAP2 SWAP4 PUSH1 0x40 DUP2 ADD SWAP5 PUSH1 0x1 DUP1 PUSH1 0xA0 SHL SUB AND DUP2 MSTORE ADD MSTORE JUMP JUMPDEST SUB SWAP3 GAS CALL SWAP1 DUP14 DUP3 ISZERO PUSH2 0x1A4E JUMPI DUP13 SWAP6 SWAP5 SWAP4 SWAP3 PUSH2 0x17DA SWAP3 SWAP1 PUSH2 0x11CE JUMPI POP PUSH2 0x1F89 JUMP JUMPDEST PUSH2 0x17E6 DUP8 PUSH1 0x6 SLOAD PUSH2 0x1FC6 JUMP JUMPDEST PUSH1 0x6 SSTORE DUP6 SLOAD DUP1 ISZERO DUP1 ISZERO PUSH2 0x19B0 JUMPI JUMPDEST POP POP DUP7 PUSH2 0x1850 SWAP4 SWAP3 PUSH2 0x1848 PUSH2 0x182C PUSH1 0x6 SWAP11 PUSH32 0x312C5308F42848705A866C73DEC11FD0783C2D64AAC6A97E94467062AD3F4058 SWAP6 PUSH2 0x1CC0 JUMP JUMPDEST DUP13 MLOAD SWAP3 DUP4 MSTORE PUSH1 0x20 DUP4 ADD MSTORE PUSH1 0x40 DUP3 ADD SWAP3 SWAP1 SWAP3 MSTORE SWAP1 DUP2 SWAP1 PUSH1 0x60 DUP3 ADD SWAP1 JUMP JUMPDEST SUB SWAP1 LOG1 PUSH2 0x200D JUMP JUMPDEST PUSH2 0x185C DUP4 SWAP8 SWAP4 TIMESTAMP PUSH2 0x1FC6 JUMP JUMPDEST SWAP2 DUP14 DUP11 MLOAD SWAP4 PUSH2 0x186A DUP6 PUSH2 0x1C34 JUMP JUMPDEST DUP11 DUP6 MSTORE DUP7 DUP6 ADD TIMESTAMP DUP2 MSTORE DUP13 DUP7 ADD SWAP2 DUP3 MSTORE DUP13 PUSH1 0x60 DUP8 ADD SWAP4 DUP13 DUP6 MSTORE PUSH1 0x80 DUP9 ADD SWAP6 DUP7 MSTORE PUSH1 0xA0 DUP9 ADD SWAP7 DUP8 MSTORE PUSH1 0x9 PUSH1 0xC0 DUP10 ADD SWAP11 PUSH1 0x1 DUP13 MSTORE CALLER DUP4 MSTORE MSTORE KECCAK256 SWAP6 MLOAD DUP7 SSTORE MLOAD PUSH1 0x1 DUP7 ADD SSTORE MLOAD PUSH1 0x2 DUP6 ADD SSTORE MLOAD PUSH1 0x3 DUP5 ADD SSTORE MLOAD DUP7 DUP4 ADD SSTORE MLOAD PUSH1 0x5 DUP3 ADD SSTORE ADD SWAP1 MLOAD ISZERO ISZERO SWAP1 PUSH1 0xFF NOT SWAP2 PUSH1 0xFF DUP4 DUP4 SLOAD AND SWAP2 AND OR SWAP1 SSTORE PUSH2 0x18E1 DUP6 DUP5 SLOAD PUSH2 0x1FC6 JUMP JUMPDEST DUP4 SSTORE CALLER DUP11 MSTORE PUSH1 0xB DUP9 MSTORE DUP6 DUP11 KECCAK256 PUSH2 0x18F8 DUP7 DUP3 SLOAD PUSH2 0x1FC6 JUMP JUMPDEST SWAP1 SSTORE PUSH8 0xDE0B6B3A7640000 PUSH2 0x190F PUSH1 0xE SLOAD DUP8 PUSH2 0x1CE3 JUMP JUMPDEST DIV CALLER DUP12 MSTORE PUSH1 0xC DUP10 MSTORE DUP7 DUP12 KECCAK256 SSTORE PUSH1 0xD DUP9 MSTORE DUP6 DUP11 KECCAK256 SWAP1 DUP2 SLOAD PUSH1 0xFF DUP2 AND ISZERO PUSH2 0x1978 JUMPI JUMPDEST POP POP POP POP POP PUSH2 0x193E SWAP1 TIMESTAMP PUSH2 0x1FC6 JUMP JUMPDEST SWAP4 DUP3 MLOAD SWAP6 DUP7 MSTORE DUP6 ADD MSTORE DUP4 ADD MSTORE PUSH1 0x60 DUP3 ADD MSTORE PUSH32 0xCC10169BE2AD544347561E230939849AF48D1714C052D7FE247D12F3DECB4896 PUSH1 0x80 CALLER SWAP3 LOG2 DUP1 RETURN JUMPDEST AND PUSH1 0x1 OR SWAP1 SSTORE PUSH1 0x8 SLOAD SWAP2 PUSH1 0x0 NOT DUP4 EQ PUSH2 0x199F JUMPI POP POP PUSH1 0x1 ADD PUSH1 0x8 SSTORE PUSH2 0x193E CODESIZE DUP1 DUP1 DUP1 PUSH2 0x192F JUMP JUMPDEST PUSH4 0x4E487B71 PUSH1 0xE0 SHL DUP11 MSTORE PUSH1 0x11 SWAP1 MSTORE DUP9 REVERT JUMPDEST SWAP1 SWAP2 SWAP3 SWAP4 SWAP6 SWAP7 SWAP8 SWAP5 POP PUSH8 0xDE0B6B3A7640000 SWAP1 DUP2 DUP7 MUL SWAP2 DUP7 DUP4 DIV EQ DUP7 ISZERO OR ISZERO PUSH2 0x1A3C JUMPI PUSH2 0x1A2A JUMPI SWAP4 PUSH2 0x1850 SWAP4 PUSH2 0x1848 PUSH2 0x182C DUP4 DUP16 SWAP9 SWAP7 PUSH2 0x1A1A PUSH32 0x312C5308F42848705A866C73DEC11FD0783C2D64AAC6A97E94467062AD3F4058 SWAP8 PUSH1 0x6 SWAP15 SWAP14 SWAP13 SWAP10 DIV PUSH1 0xE SLOAD PUSH2 0x1FC6 JUMP JUMPDEST PUSH1 0xE SSTORE SWAP6 POP SWAP11 POP POP POP SWAP3 SWAP4 PUSH2 0x17F4 JUMP JUMPDEST PUSH4 0x4E487B71 PUSH1 0xE0 SHL DUP15 MSTORE PUSH1 0x12 DUP9 MSTORE DUP7 DUP15 REVERT JUMPDEST PUSH4 0x4E487B71 PUSH1 0xE0 SHL DUP16 MSTORE PUSH1 0x11 DUP10 MSTORE DUP8 DUP16 REVERT JUMPDEST DUP11 MLOAD SWAP1 RETURNDATASIZE SWAP1 DUP3 RETURNDATACOPY RETURNDATASIZE SWAP1 REVERT JUMPDEST PUSH2 0x120D SWAP2 POP DUP12 RETURNDATASIZE DUP14 GT PUSH2 0x7DF JUMPI PUSH2 0x7D1 DUP2 DUP4 PUSH2 0x1C9E JUMP JUMPDEST DUP14 MLOAD RETURNDATASIZE DUP7 DUP3 RETURNDATACOPY RETURNDATASIZE SWAP1 REVERT JUMPDEST PUSH4 0x4E487B71 PUSH1 0xE0 SHL DUP14 MSTORE PUSH1 0x11 DUP7 MSTORE DUP5 DUP14 REVERT JUMPDEST PUSH4 0x4E487B71 PUSH1 0xE0 SHL DUP12 MSTORE PUSH1 0x11 DUP5 MSTORE DUP3 DUP12 REVERT JUMPDEST PUSH2 0x13CC SWAP2 POP DUP11 RETURNDATASIZE DUP13 GT PUSH2 0x7DF JUMPI PUSH2 0x7D1 DUP2 DUP4 PUSH2 0x1C9E JUMP JUMPDEST DUP8 MLOAD RETURNDATASIZE DUP14 DUP3 RETURNDATACOPY RETURNDATASIZE SWAP1 REVERT JUMPDEST DUP4 MLOAD PUSH3 0x461BCD PUSH1 0xE5 SHL DUP2 MSTORE SWAP1 DUP2 ADD DUP7 SWAP1 MSTORE PUSH1 0xF DUP2 DUP5 ADD MSTORE PUSH15 0x504F534954494F4E5F455849535453 PUSH1 0x88 SHL PUSH1 0x44 DUP3 ADD MSTORE PUSH1 0x64 SWAP1 REVERT JUMPDEST DUP3 MLOAD PUSH3 0x461BCD PUSH1 0xE5 SHL DUP2 MSTORE PUSH1 0x20 DUP2 DUP8 ADD MSTORE PUSH1 0xC DUP2 DUP5 ADD MSTORE PUSH12 0x24A72B20A624A22FAA24A2A9 PUSH1 0xA1 SHL PUSH1 0x44 DUP3 ADD MSTORE PUSH1 0x64 SWAP1 REVERT JUMPDEST DUP3 MLOAD PUSH3 0x461BCD PUSH1 0xE5 SHL DUP2 MSTORE PUSH1 0x20 DUP2 DUP8 ADD MSTORE PUSH1 0xB DUP2 DUP5 ADD MSTORE PUSH11 0x16915493D7D05353D55395 PUSH1 0xAA SHL PUSH1 0x44 DUP3 ADD MSTORE PUSH1 0x64 SWAP1 REVERT JUMPDEST DUP7 DUP1 REVERT JUMPDEST POP POP CALLVALUE PUSH2 0x279 JUMPI DUP2 PUSH1 0x3 NOT CALLDATASIZE ADD SLT PUSH2 0x279 JUMPI PUSH1 0x20 SWAP1 MLOAD PUSH2 0x258 DUP2 MSTORE RETURN JUMPDEST POP POP CALLVALUE PUSH2 0x279 JUMPI DUP2 PUSH1 0x3 NOT CALLDATASIZE ADD SLT PUSH2 0x279 JUMPI PUSH1 0x20 SWAP1 MLOAD PUSH2 0x384 DUP2 MSTORE RETURN JUMPDEST DUP5 SWAP1 CALLVALUE PUSH2 0x279 JUMPI DUP2 PUSH1 0x3 NOT CALLDATASIZE ADD SLT PUSH2 0x279 JUMPI PUSH1 0x3 SLOAD PUSH1 0x1 PUSH1 0x1 PUSH1 0xA0 SHL SUB AND DUP2 MSTORE PUSH1 0x20 SWAP1 RETURN JUMPDEST CALLVALUE PUSH2 0x1BD4 JUMPI PUSH1 0x0 CALLDATASIZE PUSH1 0x3 NOT ADD SLT PUSH2 0x1BD4 JUMPI PUSH1 0x20 PUSH1 0x40 MLOAD PUSH2 0x190 DUP2 MSTORE RETURN JUMPDEST PUSH1 0x0 DUP1 REVERT JUMPDEST PUSH1 0x4 CALLDATALOAD SWAP1 PUSH1 0x1 PUSH1 0x1 PUSH1 0xA0 SHL SUB DUP3 AND DUP3 SUB PUSH2 0x1BD4 JUMPI JUMP JUMPDEST CALLVALUE PUSH2 0x1BD4 JUMPI PUSH1 0x0 CALLDATASIZE PUSH1 0x3 NOT ADD SLT PUSH2 0x1BD4 JUMPI PUSH1 0x20 PUSH1 0x40 MLOAD PUSH2 0x1F4 DUP2 MSTORE RETURN JUMPDEST PUSH1 0x0 SWAP2 JUMPDEST PUSH1 0x3 DUP4 LT PUSH2 0x1C1D JUMPI POP POP POP JUMP JUMPDEST PUSH1 0x1 SWAP1 DUP3 MLOAD DUP2 MSTORE PUSH1 0x20 DUP1 SWAP2 ADD SWAP3 ADD SWAP3 ADD SWAP2 SWAP1 PUSH2 0x1C10 JUMP JUMPDEST PUSH1 0xE0 DUP2 ADD SWAP1 DUP2 LT PUSH8 0xFFFFFFFFFFFFFFFF DUP3 GT OR PUSH2 0x1C50 JUMPI PUSH1 0x40 MSTORE JUMP JUMPDEST PUSH4 0x4E487B71 PUSH1 0xE0 SHL PUSH1 0x0 MSTORE PUSH1 0x41 PUSH1 0x4 MSTORE PUSH1 0x24 PUSH1 0x0 REVERT JUMPDEST PUSH1 0x60 DUP2 ADD SWAP1 DUP2 LT PUSH8 0xFFFFFFFFFFFFFFFF DUP3 GT OR PUSH2 0x1C50 JUMPI PUSH1 0x40 MSTORE JUMP JUMPDEST PUSH1 0x40 DUP2 ADD SWAP1 DUP2 LT PUSH8 0xFFFFFFFFFFFFFFFF DUP3 GT OR PUSH2 0x1C50 JUMPI PUSH1 0x40 MSTORE JUMP JUMPDEST SWAP1 PUSH1 0x1F DUP1 NOT SWAP2 ADD AND DUP2 ADD SWAP1 DUP2 LT PUSH8 0xFFFFFFFFFFFFFFFF DUP3 GT OR PUSH2 0x1C50 JUMPI PUSH1 0x40 MSTORE JUMP JUMPDEST SWAP2 SWAP1 DUP3 SUB SWAP2 DUP3 GT PUSH2 0x1CCD JUMPI JUMP JUMPDEST PUSH4 0x4E487B71 PUSH1 0xE0 SHL PUSH1 0x0 MSTORE PUSH1 0x11 PUSH1 0x4 MSTORE PUSH1 0x24 PUSH1 0x0 REVERT JUMPDEST DUP2 DUP2 MUL SWAP3 SWAP2 DUP2 ISZERO SWAP2 DUP5 DIV EQ OR ISZERO PUSH2 0x1CCD JUMPI JUMP JUMPDEST PUSH1 0x1 DUP1 PUSH1 0xA0 SHL SUB AND PUSH1 0x0 MSTORE PUSH1 0x9 PUSH1 0x20 MSTORE PUSH1 0x40 PUSH1 0x0 KECCAK256 PUSH1 0x40 MLOAD SWAP1 PUSH2 0x1D18 DUP3 PUSH2 0x1C34 JUMP JUMPDEST DUP1 SLOAD SWAP2 DUP3 DUP2 MSTORE PUSH1 0x1 DUP3 ADD SLOAD SWAP3 DUP4 PUSH1 0x20 DUP4 ADD MSTORE PUSH1 0x2 DUP4 ADD SLOAD PUSH1 0x40 DUP4 ADD MSTORE PUSH1 0x3 DUP4 ADD SLOAD PUSH1 0x60 DUP4 ADD MSTORE PUSH1 0xFF PUSH1 0x6 PUSH1 0x4 DUP6 ADD SLOAD SWAP5 PUSH1 0x80 DUP6 ADD SWAP6 DUP7 MSTORE PUSH1 0x5 DUP2 ADD SLOAD PUSH1 0xA0 DUP7 ADD MSTORE ADD SLOAD AND ISZERO SWAP1 DUP2 ISZERO SWAP2 DUP3 PUSH1 0xC0 DUP6 ADD MSTORE SWAP2 PUSH2 0x1DA4 JUMPI JUMPDEST POP PUSH2 0x1D9C JUMPI PUSH2 0x1D93 PUSH2 0x1D98 SWAP3 PUSH2 0x1D89 PUSH5 0x496CEBB800 SWAP6 TIMESTAMP PUSH2 0x1CC0 JUMP JUMPDEST SWAP3 MLOAD SWAP1 MLOAD SWAP1 PUSH2 0x1CE3 JUMP JUMPDEST PUSH2 0x1CE3 JUMP JUMPDEST DIV SWAP1 JUMP JUMPDEST POP POP POP PUSH1 0x0 SWAP1 JUMP JUMPDEST SWAP1 POP ISZERO CODESIZE PUSH2 0x1D6D JUMP JUMPDEST PUSH1 0x1 DUP1 PUSH1 0xA0 SHL SUB AND DUP1 PUSH1 0x0 MSTORE PUSH1 0x9 PUSH1 0x20 MSTORE PUSH1 0x40 PUSH1 0x0 KECCAK256 SWAP1 PUSH1 0xC0 PUSH1 0x40 MLOAD PUSH2 0x1DD2 DUP2 PUSH2 0x1C34 JUMP JUMPDEST PUSH1 0xFF PUSH1 0x6 DUP6 SLOAD SWAP6 DUP7 DUP5 MSTORE PUSH1 0x1 DUP2 ADD SLOAD PUSH1 0x20 DUP6 ADD MSTORE PUSH1 0x2 DUP2 ADD SLOAD PUSH1 0x40 DUP6 ADD MSTORE PUSH1 0x3 DUP2 ADD SLOAD PUSH1 0x60 DUP6 ADD MSTORE PUSH1 0x4 DUP2 ADD SLOAD PUSH1 0x80 DUP6 ADD MSTORE PUSH1 0x5 DUP2 ADD SLOAD PUSH1 0xA0 DUP6 ADD MSTORE ADD SLOAD AND ISZERO SWAP1 DUP2 ISZERO SWAP3 DUP4 SWAP2 ADD MSTORE SWAP1 PUSH2 0x1E5D JUMPI JUMPDEST PUSH2 0x1E56 JUMPI PUSH8 0xDE0B6B3A7640000 PUSH2 0x1E3D PUSH2 0x1E53 SWAP4 PUSH1 0xE SLOAD SWAP1 PUSH2 0x1CE3 JUMP JUMPDEST DIV SWAP1 PUSH1 0x0 MSTORE PUSH1 0xC PUSH1 0x20 MSTORE PUSH1 0x40 PUSH1 0x0 KECCAK256 SLOAD SWAP1 PUSH2 0x1CC0 JUMP JUMPDEST SWAP1 JUMP JUMPDEST POP POP PUSH1 0x0 SWAP1 JUMP JUMPDEST POP DUP2 ISZERO PUSH2 0x1E20 JUMP JUMPDEST PUSH1 0x1 DUP1 PUSH1 0xA0 SHL SUB AND PUSH1 0x0 MSTORE PUSH1 0x9 PUSH1 0x20 MSTORE PUSH1 0x40 PUSH1 0x0 KECCAK256 PUSH1 0x40 MLOAD PUSH2 0x1E86 DUP2 PUSH2 0x1C34 JUMP JUMPDEST PUSH1 0xC0 DUP3 SLOAD SWAP2 DUP3 DUP2 MSTORE PUSH1 0x1 DUP5 ADD SLOAD PUSH1 0x20 DUP3 ADD MSTORE PUSH1 0x2 DUP5 ADD SLOAD SWAP1 DUP2 PUSH1 0x40 DUP3 ADD MSTORE PUSH1 0x3 DUP6 ADD SLOAD PUSH1 0x60 DUP3 ADD MSTORE PUSH1 0x4 DUP6 ADD SLOAD PUSH1 0x80 DUP3 ADD MSTORE PUSH1 0xFF PUSH1 0x6 PUSH1 0x5 DUP8 ADD SLOAD SWAP7 DUP8 PUSH1 0xA0 DUP6 ADD MSTORE ADD SLOAD AND ISZERO SWAP1 DUP2 ISZERO SWAP4 DUP5 SWAP2 ADD MSTORE SWAP2 PUSH2 0x1EEC JUMPI JUMPDEST POP PUSH2 0x1E56 JUMPI PUSH2 0x2710 SWAP2 PUSH2 0x1D98 SWAP2 PUSH2 0x1CE3 JUMP JUMPDEST SWAP1 POP TIMESTAMP LT CODESIZE PUSH2 0x1EDA JUMP JUMPDEST SWAP1 DUP2 PUSH1 0x20 SWAP2 SUB SLT PUSH2 0x1BD4 JUMPI MLOAD DUP1 ISZERO ISZERO DUP2 SUB PUSH2 0x1BD4 JUMPI SWAP1 JUMP JUMPDEST ISZERO PUSH2 0x1F15 JUMPI JUMP JUMPDEST PUSH1 0x40 MLOAD PUSH3 0x461BCD PUSH1 0xE5 SHL DUP2 MSTORE PUSH1 0x20 PUSH1 0x4 DUP3 ADD MSTORE PUSH1 0xF PUSH1 0x24 DUP3 ADD MSTORE PUSH15 0x1514905394D1915497D19052531151 PUSH1 0x8A SHL PUSH1 0x44 DUP3 ADD MSTORE PUSH1 0x64 SWAP1 REVERT JUMPDEST ISZERO PUSH2 0x1F53 JUMPI JUMP JUMPDEST PUSH1 0x40 MLOAD PUSH3 0x461BCD PUSH1 0xE5 SHL DUP2 MSTORE PUSH1 0x20 PUSH1 0x4 DUP3 ADD MSTORE PUSH1 0xE PUSH1 0x24 DUP3 ADD MSTORE PUSH14 0x11115597D1915157D19052531151 PUSH1 0x92 SHL PUSH1 0x44 DUP3 ADD MSTORE PUSH1 0x64 SWAP1 REVERT JUMPDEST ISZERO PUSH2 0x1F90 JUMPI JUMP JUMPDEST PUSH1 0x40 MLOAD PUSH3 0x461BCD PUSH1 0xE5 SHL DUP2 MSTORE PUSH1 0x20 PUSH1 0x4 DUP3 ADD MSTORE PUSH1 0xE PUSH1 0x24 DUP3 ADD MSTORE PUSH14 0x111053D7D1915157D19052531151 PUSH1 0x92 SHL PUSH1 0x44 DUP3 ADD MSTORE PUSH1 0x64 SWAP1 REVERT JUMPDEST SWAP2 SWAP1 DUP3 ADD DUP1 SWAP3 GT PUSH2 0x1CCD JUMPI JUMP JUMPDEST ISZERO PUSH2 0x1FDA JUMPI JUMP JUMPDEST PUSH1 0x40 MLOAD PUSH3 0x461BCD PUSH1 0xE5 SHL DUP2 MSTORE PUSH1 0x20 PUSH1 0x4 DUP3 ADD MSTORE PUSH1 0xB PUSH1 0x24 DUP3 ADD MSTORE PUSH11 0x2727AFA827A9A4AA24A7A7 PUSH1 0xA9 SHL PUSH1 0x44 DUP3 ADD MSTORE PUSH1 0x64 SWAP1 REVERT JUMPDEST PUSH1 0xFF AND DUP1 ISZERO PUSH2 0x203A JUMPI PUSH1 0x1 EQ PUSH2 0x202C JUMPI PUSH3 0x76A700 SWAP1 PUSH2 0x384 SWAP1 PUSH2 0x190 SWAP1 JUMP JUMPDEST PUSH3 0x278D00 SWAP1 PUSH2 0x258 SWAP1 PUSH1 0x96 SWAP1 JUMP JUMPDEST POP PUSH3 0x127500 SWAP1 PUSH1 0xFA SWAP1 PUSH1 0x32 SWAP1 JUMP JUMPDEST ISZERO PUSH2 0x204F JUMPI JUMP JUMPDEST PUSH1 0x40 MLOAD PUSH3 0x461BCD PUSH1 0xE5 SHL DUP2 MSTORE PUSH1 0x20 PUSH1 0x4 DUP3 ADD MSTORE PUSH1 0x9 PUSH1 0x24 DUP3 ADD MSTORE PUSH9 0x2727AA2FA7ABA722A9 PUSH1 0xB9 SHL PUSH1 0x44 DUP3 ADD MSTORE PUSH1 0x64 SWAP1 REVERT INVALID LOG2 PUSH5 0x6970667358 0x22 SLT KECCAK256 RETURNDATASIZE SUB EXTCODESIZE STOP CALLDATALOAD 0xE1 KECCAK256 PUSH28 0xC36F86189473030103A67837C0B21E3AC942AB5F353D5AE264736F6C PUSH4 0x43000814 STOP CALLER "},"methodIdentifiers":{"BASIS_POINTS()":"e1f1c4a7","BRONZE_APR()":"b5d0d4e9","BRONZE_BONUS()":"fa652b95","BRONZE_LOCK()":"eb1d5763","DAO_FEE_SHARE()":"143ae5b1","DEV_FEE_SHARE()":"5c677192","EES_DAO_SHARE()":"432c4fa2","EES_DEV_SHARE()":"4961ca9f","EES_PENALTY()":"76bce55b","ENTRY_FEE()":"f6d361cc","EXIT_FEE()":"c6580d12","GOLD_APR()":"06528123","GOLD_BONUS()":"b5ebb120","GOLD_LOCK()":"66e0f8a0","MIN_TOKENS_FOR_VOTING()":"fd10467e","SILVER_APR()":"078f31fd","SILVER_BONUS()":"51ff0166","SILVER_LOCK()":"6d6277bb","accFeePerShare()":"dd3b829a","calculateAllRewards(address)":"79a59c13","calculateBaseReward(address)":"dfae3779","calculateBonus(address)":"7319e5aa","calculateFeeShareReward(address)":"36229616","canVote(address)":"adfaa72e","claimRewards()":"372500ab","daoTreasury()":"79022a9f","daoVotingPool()":"019f7b67","devWallet()":"8ea5220f","dtgcToken()":"9f76ab7c","eesPoolTotal()":"52628d9a","emergencyWithdraw()":"db2e21bc","feePool()":"ae2e933b","feeShareClaimed(address)":"310d8823","getContractStats()":"dfe6b5d6","getPosition(address)":"16c19739","getTiers()":"de170570","isVerifiedStaker(address)":"751a2d64","lifetimeRewards(address)":"1d336d62","lifetimeStaked(address)":"36fecffa","owner()":"8da5cb5b","positions(address)":"55f57510","recoverToken(address,uint256)":"b29a8140","setDaoTreasury(address)":"a124df5d","setDaoVotingPool(address)":"6e8a56d9","setDevWallet(address)":"1f53ac02","stake(uint256,uint8)":"10087fb1","totalRewardsDistributed()":"ee172546","totalStaked()":"817b1cd2","totalStakers()":"86989038","transferOwnership(address)":"f2fde38b","withdraw()":"3ccfd60b"}}}}}