{"contracts/DTGCDAOVoting.sol":{"DTGCDAOVoting":{"abi":[{"inputs":[{"internalType":"address","name":"_dtgcToken","type":"address"},{"internalType":"address","name":"_daoTreasury","type":"address"},{"internalType":"address","name":"_stakingContract","type":"address"},{"internalType":"address","name":"_lpStakingContract","type":"address"}],"stateMutability":"nonpayable","type":"constructor"},{"anonymous":false,"inputs":[{"indexed":false,"internalType":"uint256","name":"amount","type":"uint256"}],"name":"BuyAndBurn","type":"event"},{"anonymous":false,"inputs":[{"indexed":false,"internalType":"uint256","name":"dtgcAmount","type":"uint256"},{"indexed":false,"internalType":"uint256","name":"urmomAmount","type":"uint256"}],"name":"LiquidityAdded","type":"event"},{"anonymous":false,"inputs":[{"indexed":true,"internalType":"uint256","name":"id","type":"uint256"},{"indexed":false,"internalType":"uint256","name":"amount","type":"uint256"},{"indexed":false,"internalType":"uint256","name":"endTime","type":"uint256"}],"name":"ProposalCreated","type":"event"},{"anonymous":false,"inputs":[{"indexed":true,"internalType":"uint256","name":"id","type":"uint256"},{"indexed":false,"internalType":"enum DTGCDAOVoting.AllocationOption","name":"winner","type":"uint8"},{"indexed":false,"internalType":"uint256","name":"amount","type":"uint256"}],"name":"ProposalExecuted","type":"event"},{"anonymous":false,"inputs":[{"indexed":false,"internalType":"uint256","name":"amount","type":"uint256"}],"name":"TreasuryFunded","type":"event"},{"anonymous":false,"inputs":[{"indexed":true,"internalType":"uint256","name":"proposalId","type":"uint256"},{"indexed":true,"internalType":"address","name":"voter","type":"address"},{"indexed":false,"internalType":"enum DTGCDAOVoting.AllocationOption","name":"option","type":"uint8"}],"name":"Voted","type":"event"},{"inputs":[],"name":"BURN_ADDRESS","outputs":[{"internalType":"address","name":"","type":"address"}],"stateMutability":"view","type":"function"},{"inputs":[],"name":"MIN_QUORUM","outputs":[{"internalType":"uint256","name":"","type":"uint256"}],"stateMutability":"view","type":"function"},{"inputs":[],"name":"MIN_TOKENS_FOR_VOTING","outputs":[{"internalType":"uint256","name":"","type":"uint256"}],"stateMutability":"view","type":"function"},{"inputs":[],"name":"VOTING_PERIOD","outputs":[{"internalType":"uint256","name":"","type":"uint256"}],"stateMutability":"view","type":"function"},{"inputs":[{"internalType":"address","name":"user","type":"address"}],"name":"canVote","outputs":[{"internalType":"bool","name":"","type":"bool"}],"stateMutability":"view","type":"function"},{"inputs":[{"internalType":"uint256","name":"amount","type":"uint256"}],"name":"createProposal","outputs":[],"stateMutability":"nonpayable","type":"function"},{"inputs":[],"name":"daoTreasury","outputs":[{"internalType":"address","name":"","type":"address"}],"stateMutability":"view","type":"function"},{"inputs":[],"name":"dtgcToken","outputs":[{"internalType":"contract IPRC20","name":"","type":"address"}],"stateMutability":"view","type":"function"},{"inputs":[{"internalType":"uint256","name":"proposalId","type":"uint256"}],"name":"executeProposal","outputs":[],"stateMutability":"nonpayable","type":"function"},{"inputs":[],"name":"getActiveProposal","outputs":[{"internalType":"uint256","name":"","type":"uint256"}],"stateMutability":"view","type":"function"},{"inputs":[{"internalType":"uint256","name":"id","type":"uint256"}],"name":"getProposal","outputs":[{"internalType":"uint256","name":"amount","type":"uint256"},{"internalType":"uint256","name":"endTime","type":"uint256"},{"internalType":"uint256[4]","name":"votes","type":"uint256[4]"},{"internalType":"uint256","name":"totalVoters","type":"uint256"},{"internalType":"bool","name":"executed","type":"bool"},{"internalType":"enum DTGCDAOVoting.AllocationOption","name":"winner","type":"uint8"}],"stateMutability":"view","type":"function"},{"inputs":[],"name":"getVotingStats","outputs":[{"internalType":"uint256","name":"_totalBurned","type":"uint256"},{"internalType":"uint256","name":"_totalLiquidity","type":"uint256"},{"internalType":"uint256","name":"_totalTreasury","type":"uint256"},{"internalType":"uint256","name":"_proposalCount","type":"uint256"}],"stateMutability":"view","type":"function"},{"inputs":[{"internalType":"uint256","name":"","type":"uint256"},{"internalType":"address","name":"","type":"address"}],"name":"hasVoted","outputs":[{"internalType":"bool","name":"","type":"bool"}],"stateMutability":"view","type":"function"},{"inputs":[],"name":"lpStakingContract","outputs":[{"internalType":"contract IStaking","name":"","type":"address"}],"stateMutability":"view","type":"function"},{"inputs":[],"name":"owner","outputs":[{"internalType":"address","name":"","type":"address"}],"stateMutability":"view","type":"function"},{"inputs":[],"name":"proposalCount","outputs":[{"internalType":"uint256","name":"","type":"uint256"}],"stateMutability":"view","type":"function"},{"inputs":[{"internalType":"uint256","name":"","type":"uint256"}],"name":"proposals","outputs":[{"internalType":"uint256","name":"id","type":"uint256"},{"internalType":"uint256","name":"amount","type":"uint256"},{"internalType":"uint256","name":"startTime","type":"uint256"},{"internalType":"uint256","name":"endTime","type":"uint256"},{"internalType":"uint256","name":"votesA","type":"uint256"},{"internalType":"uint256","name":"votesB","type":"uint256"},{"internalType":"uint256","name":"votesC","type":"uint256"},{"internalType":"uint256","name":"votesD","type":"uint256"},{"internalType":"uint256","name":"totalVoters","type":"uint256"},{"internalType":"bool","name":"executed","type":"bool"},{"internalType":"enum DTGCDAOVoting.AllocationOption","name":"winner","type":"uint8"}],"stateMutability":"view","type":"function"},{"inputs":[],"name":"pulsexRouter","outputs":[{"internalType":"address","name":"","type":"address"}],"stateMutability":"view","type":"function"},{"inputs":[{"internalType":"address","name":"token","type":"address"},{"internalType":"uint256","name":"amount","type":"uint256"}],"name":"recoverToken","outputs":[],"stateMutability":"nonpayable","type":"function"},{"inputs":[{"internalType":"address","name":"_treasury","type":"address"}],"name":"setDaoTreasury","outputs":[],"stateMutability":"nonpayable","type":"function"},{"inputs":[{"internalType":"address","name":"_router","type":"address"},{"internalType":"address","name":"_urmom","type":"address"}],"name":"setPulsexRouter","outputs":[],"stateMutability":"nonpayable","type":"function"},{"inputs":[{"internalType":"address","name":"_staking","type":"address"},{"internalType":"address","name":"_lpStaking","type":"address"}],"name":"setStakingContracts","outputs":[],"stateMutability":"nonpayable","type":"function"},{"inputs":[],"name":"stakingContract","outputs":[{"internalType":"contract IStaking","name":"","type":"address"}],"stateMutability":"view","type":"function"},{"inputs":[],"name":"totalBurned","outputs":[{"internalType":"uint256","name":"","type":"uint256"}],"stateMutability":"view","type":"function"},{"inputs":[],"name":"totalToLiquidity","outputs":[{"internalType":"uint256","name":"","type":"uint256"}],"stateMutability":"view","type":"function"},{"inputs":[],"name":"totalToTreasury","outputs":[{"internalType":"uint256","name":"","type":"uint256"}],"stateMutability":"view","type":"function"},{"inputs":[{"internalType":"address","name":"_new","type":"address"}],"name":"transferOwnership","outputs":[],"stateMutability":"nonpayable","type":"function"},{"inputs":[],"name":"urmomToken","outputs":[{"internalType":"address","name":"","type":"address"}],"stateMutability":"view","type":"function"},{"inputs":[{"internalType":"uint256","name":"","type":"uint256"},{"internalType":"address","name":"","type":"address"}],"name":"userVote","outputs":[{"internalType":"enum DTGCDAOVoting.AllocationOption","name":"","type":"uint8"}],"stateMutability":"view","type":"function"},{"inputs":[{"internalType":"uint256","name":"proposalId","type":"uint256"},{"internalType":"enum DTGCDAOVoting.AllocationOption","name":"option","type":"uint8"}],"name":"vote","outputs":[],"stateMutability":"nonpayable","type":"function"}],"evm":{"bytecode":{"linkReferences":{},"object":"60a034620000f757601f6200170738819003918201601f19168301916001600160401b03831184841017620000fc57808492608094604052833981010312620000f7576200004d8162000112565b906200005c6020820162000112565b91620000796060620000716040850162000112565b930162000112565b9060018060a01b0392838092166080528160018060a01b031995168560035416176003551683600054161760005516816001541617600155339060025416176002556040516115df908162000128823960805181818161063301528181610a8b0152818161112f0152818161136f0152818161143801526115000152f35b600080fd5b634e487b7160e01b600052604160045260246000fd5b51906001600160a01b0382168203620000f75756fe608060408181526004918236101561001657600080fd5b600092833560e01c918263013cf08b14610f5e57508163081b8ac314610f355781630d61b51914610ced5781634385963214610ca65781635a43dc0014610a3d5781635f3ad70914610a215781636017779e14610a02578163640332d5146109d957816367380a141461097a57816376804a031461094157816379022a9f146109185781638da5cb5b146108ef578163943e8216146106bf57816394ca3b77146106625781639f76ab7c1461061e578163a124df5d146105d3578163adfaa72e146105a4578163b1610d7e14610586578163b29a8140146104cc578163b9b6f9b6146104a4578163c1b57edb14610485578163c7f758a8146102d8578163d7335d03146102b4578163d89135cd14610295578163da35c66414610276578163dc37596d1461022557508063ee99205c146101fe578063f2fde38b146101b2578063fccc2813146101965763fd10467e1461016f57600080fd5b346101925781600319360112610192576020905169d3c21bcecceda10000008152f35b5080fd5b5034610192578160031936011261019257602090516103698152f35b82346101fb5760203660031901126101fb576101cc611045565b600254906001600160a01b03906101e6338385161461129f565b16906001600160601b0360a01b161760025580f35b80fd5b5034610192578160031936011261019257905490516001600160a01b039091168152602090f35b90503461027257816003193601126102725760ff826020946102709361024961102a565b90358252600987528282206001600160a01b03909116825286522054925192839116611007565bf35b8280fd5b5050346101925781600319360112610192576020906006549051908152f35b505034610192578160031936011261019257602090600a549051908152f35b5050346101925781600319360112610192576020906102d1611237565b9051908152f35b8284346101fb576020918260031936011261019257805167ffffffffffffffff9190608081018381118282101761047257825236608091378435835260078452808320908051906103288261105b565b8254825260019687840154968084019788526002850154838501526003850154966060850197885282860154966080860197885260058701549460a08701958652600688015460c08801908152600789015460e0890190815260088a0154916101009a8b8b0193845260090154986101209e8f8c019a60ff811615158c5260081c60ff169b610140019b8a81101561045f578c52519d519c85519660808801908882109082111761044c578652518652518786015251838501525160608401525195511515965198858a10156104395781519a8b52848b015289015b848310610426578a8a6102708b8b8b8b60c086015260e0850152830190611007565b81518152918b0191908301908301610404565b634e487b7160e01b845260218652602484fd5b634e487b7160e01b895260418b52602489fd5b634e487b7160e01b895260218b52602489fd5b634e487b7160e01b855260418752602485fd5b505034610192578160031936011261019257602090600c549051908152f35b9050346102725782600319360112610272575490516001600160a01b03909116815260209150f35b91905034610272578060031936011261027257602061053d926104ed611045565b6002546001600160a01b0390811690879061050933841461129f565b865163a9059cbb60e01b81526001600160a01b03909316948301948552602435602086015291968794859391849160400190565b0393165af190811561057d5750610552575080f35b6105729060203d8111610576575b61056a818361108e565b8101906110b0565b5080f35b503d610560565b513d84823e3d90fd5b5050346101925781600319360112610192576020905162093a808152f35b505034610192576020366003190112610192576020906105ca6105c5611045565b6110c8565b90519015158152f35b83346101fb5760203660031901126101fb576105ed611045565b6002546001600160a01b039190610607908316331461129f565b166001600160601b0360a01b600354161760035580f35b505034610192578160031936011261019257517f00000000000000000000000000000000000000000000000000000000000000006001600160a01b03168152602090f35b505034610192573660031901126101fb5761067b611045565b61068361102a565b6002546001600160a01b03919061069d908316331461129f565b816001600160601b0360a01b9316838554161784551690600154161760015580f35b90503461027257816003193601126102725780359060243592818410156108eb576106e9336110c8565b156108b957821515806108ad575b156108775782855260209160078352818620600381015442116108465761072560ff60098301541615611309565b84875260088452828720338852845260ff838820541661081457916107ce917f094f80829c509370abb2d421a078ba5926755d3de25d021dacf7bbd19853f7a2949386895260088552828920338a52855282892060ff1990600182825416179055878a5260098652838a20338b528652838a209081541660ff8a16179055600881016107b181546112d7565b9055876107d457016107c381546112d7565b90555b518095611007565b3393a380f35b9050600187036107f2576005016107eb81546112d7565b90556107c6565b60028703610807576006016107eb81546112d7565b6007016107eb81546112d7565b5082606492519162461bcd60e51b8352820152600d60248201526c1053149150511657d593d51151609a1b6044820152fd5b5082606492519162461bcd60e51b8352820152600c60248201526b1593d5125391d7d15391115160a21b6044820152fd5b906020606492519162461bcd60e51b8352820152601060248201526f1253959053125117d41493d413d4d05360821b6044820152fd5b506006548311156106f7565b906020606492519162461bcd60e51b8352820152600c60248201526b4e4f545f454c494749424c4560a01b6044820152fd5b8480fd5b50503461019257816003193601126101925760025490516001600160a01b039091168152602090f35b50503461019257816003193601126101925760035490516001600160a01b039091168152602090f35b505034610192578160031936011261019257608090600a5490600b5490600c549060065492815194855260208501528301526060820152f35b919050346102725736600319011261019257610994611045565b9061099d61102a565b6002546001600160a01b0392906109b7908416331461129f565b826001600160601b0360a01b9416848254161790551690600554161760055580f35b50503461019257816003193601126101925760055490516001600160a01b039091168152602090f35b505034610192578160031936011261019257602090600b549051908152f35b5050346101925781600319360112610192576020905160038152f35b838334610192576020908160031936011261027257833560018060a01b03610a6a8160025416331461129f565b8115610c7557836024918451928380926370a0823160e01b8252308b8301527f0000000000000000000000000000000000000000000000000000000000000000165afa908115610c6b579082918691610c3a575b5010610c0057610acf6006546112d7565b8060065562093a80420190814211610bed5785908451610aee8161105b565b81815286808201868152878301428152606084018781526080850187815260a086019188835260c087019389855260e08801958a87528d8b6101008b0199818b526101208c019d8e526101408c019c60028e528252600790522098518955516001890155516002880155516003870155518d86015551600585015551600684015551600783015551600882015560090191511515908254905189811015610bda577fa6a21b90631faacde52b977eb6e15e5707522fbbba8eddef55ed173ffde48efa9798995061ff0060ff9160081b1692169061ffff191617179055600654948351928352820152a280f35b634e487b7160e01b895260218a52602489fd5b634e487b7160e01b865260118752602486fd5b815162461bcd60e51b81528086018490526014602482015273494e53554646494349454e545f42414c414e434560601b6044820152606490fd5b809250858092503d8311610c64575b610c53818361108e565b810103126108eb5781905187610abe565b503d610c49565b83513d87823e3d90fd5b825162461bcd60e51b8152808701859052600b60248201526a16915493d7d05353d5539560aa1b6044820152606490fd5b9050346102725781600319360112610272578160209360ff92610cc761102a565b90358252600886528282206001600160a01b039091168252855220549151911615158152f35b8383346101925760203660031901126101925782359081835260076020528083206003810154421115610eff5760098101908154610d2e60ff821615611309565b6003600883015410610ecb5790600191878201549061ffff191683811785556005830154828111610eba575b50506006820154818111610ea5575b50600782015411610e93575b019081549560ff825460081c1681811015610e805780610dca57505060ff90610dae60008051602061158a833981519152959697611348565b5460081c169054610dc183518093611007565b6020820152a280f35b60018103610df657505060ff90610df160008051602061158a833981519152959697611400565b610dae565b600203610e1b575060ff90610df160008051602061158a8339815191529596976114c8565b9560038104610e2981611348565b610e3281611400565b8060011b9080820460021490151715610e6d578103908111610bed5760008051602061158a8339815191529495965090610df160ff926114c8565b634e487b7160e01b875260118852602487fd5b634e487b7160e01b875260218252602487fd5b825461ff001916610300178355610d75565b845461ff001916610200178555905088610d69565b610101919250911784558880610d5a565b835162461bcd60e51b8152602081890152600e60248201526d145553d4955357d393d517d3515560921b6044820152606490fd5b815162461bcd60e51b8152602081870152601060248201526f1593d5125391d7d393d517d15391115160821b6044820152606490fd5b50503461019257816003193601126101925760015490516001600160a01b039091168152602090f35b929150346110035760203660031901126110035790818161016095610270943581526007602052209081549260018301549160028401549060038501549085015490600586015492600687015494600788015496600960088a0154990154998c5260208c01528a01526060890152608088015260a087015260c086015260e085015261010084015260ff8116151561012084015260ff61014084019160081c16611007565b8380fd5b9060048210156110145752565b634e487b7160e01b600052602160045260246000fd5b602435906001600160a01b038216820361104057565b600080fd5b600435906001600160a01b038216820361104057565b610160810190811067ffffffffffffffff82111761107857604052565b634e487b7160e01b600052604160045260246000fd5b90601f8019910116810190811067ffffffffffffffff82111761107857604052565b90816020910312611040575180151581036110405790565b60009060018060a01b039081835416604051918284631d468b5960e21b92838352169283600483015281602460209687935afa869181611218575b50611210575b5090829185156111b7575b506024604051809581936370a0823160e01b835260048301527f0000000000000000000000000000000000000000000000000000000000000000165afa9081156111ab5760009161117f575b509050811561116d575090565b69d3c21bcecceda10000009150101590565b82813d83116111a4575b611193818361108e565b810103126101fb5750518038611160565b503d611189565b6040513d6000823e3d90fd5b909184600154169160246040518094819382528660048301525afa600091816111f1575b506111e9575b908291611114565b9350816111e1565b611209919250843d86116105765761056a818361108e565b90386111db565b945082611109565b611230919250853d87116105765761056a818361108e565b9038611103565b600654805b6112465750600090565b6040600082815260076020522060ff600982015416159081611290575b5061128d57801561127857600019018061123c565b60246000634e487b7160e01b81526011600452fd5b90565b60039150015442111538611263565b156112a657565b60405162461bcd60e51b81526020600482015260096024820152682727aa2fa7aba722a960b91b6044820152606490fd5b60001981146112e65760010190565b634e487b7160e01b600052601160045260246000fd5b919082018092116112e657565b1561131057565b60405162461bcd60e51b815260206004820152601060248201526f1053149150511657d1561150d555115160821b6044820152606490fd5b60405163a9059cbb60e01b81526103696004820152602481018290529060208260448160007f00000000000000000000000000000000000000000000000000000000000000006001600160a01b03165af19081156111ab577f4d5d528c3041909dcfebf20dcbccdf9e5d759539338e3046cee8b89478a24fbe926020926113e3575b506113d781600a546112fc565b600a55604051908152a1565b6113f990833d81116105765761056a818361108e565b50386113ca565b60035460405163a9059cbb60e01b81526001600160a01b039182166004820152602481018390529190602090839060449082906000907f0000000000000000000000000000000000000000000000000000000000000000165af19081156111ab577f38f8a0c92f4c5b0b6877f878cb4c0c8d348a47b76d716c8e78f425043df9515b926040926114aa575b5061149881600b546112fc565b600b55815190815260006020820152a1565b6114c19060203d81116105765761056a818361108e565b503861148b565b60035460405163a9059cbb60e01b81526001600160a01b039182166004820152602481018390529190602090839060449082906000907f0000000000000000000000000000000000000000000000000000000000000000165af19081156111ab577fef7aff843f3420b45d9d058ff62be0d87a95132dea4a67b18925283ba05647dc9260209261156c575b5061156081600c546112fc565b600c55604051908152a1565b61158290833d81116105765761056a818361108e565b503861155356fe331f1f50ad344be3dd617fa7f15a5f74dea96ea44d7386f6ca35e580747f271fa26469706673582212204c3ca8fa6aa0d5c6b05d70127432a2a9de67ae0434ea6768da135e3bd43e9bde64736f6c63430008140033","opcodes":"PUSH1 0xA0 CALLVALUE PUSH3 0xF7 JUMPI PUSH1 0x1F PUSH3 0x1707 CODESIZE DUP2 SWAP1 SUB SWAP2 DUP3 ADD PUSH1 0x1F NOT AND DUP4 ADD SWAP2 PUSH1 0x1 PUSH1 0x1 PUSH1 0x40 SHL SUB DUP4 GT DUP5 DUP5 LT OR PUSH3 0xFC JUMPI DUP1 DUP5 SWAP3 PUSH1 0x80 SWAP5 PUSH1 0x40 MSTORE DUP4 CODECOPY DUP2 ADD SUB SLT PUSH3 0xF7 JUMPI PUSH3 0x4D DUP2 PUSH3 0x112 JUMP JUMPDEST SWAP1 PUSH3 0x5C PUSH1 0x20 DUP3 ADD PUSH3 0x112 JUMP JUMPDEST SWAP2 PUSH3 0x79 PUSH1 0x60 PUSH3 0x71 PUSH1 0x40 DUP6 ADD PUSH3 0x112 JUMP JUMPDEST SWAP4 ADD PUSH3 0x112 JUMP JUMPDEST SWAP1 PUSH1 0x1 DUP1 PUSH1 0xA0 SHL SUB SWAP3 DUP4 DUP1 SWAP3 AND PUSH1 0x80 MSTORE DUP2 PUSH1 0x1 DUP1 PUSH1 0xA0 SHL SUB NOT SWAP6 AND DUP6 PUSH1 0x3 SLOAD AND OR PUSH1 0x3 SSTORE AND DUP4 PUSH1 0x0 SLOAD AND OR PUSH1 0x0 SSTORE AND DUP2 PUSH1 0x1 SLOAD AND OR PUSH1 0x1 SSTORE CALLER SWAP1 PUSH1 0x2 SLOAD AND OR PUSH1 0x2 SSTORE PUSH1 0x40 MLOAD PUSH2 0x15DF SWAP1 DUP2 PUSH3 0x128 DUP3 CODECOPY PUSH1 0x80 MLOAD DUP2 DUP2 DUP2 PUSH2 0x633 ADD MSTORE DUP2 DUP2 PUSH2 0xA8B ADD MSTORE DUP2 DUP2 PUSH2 0x112F ADD MSTORE DUP2 DUP2 PUSH2 0x136F ADD MSTORE DUP2 DUP2 PUSH2 0x1438 ADD MSTORE PUSH2 0x1500 ADD MSTORE RETURN JUMPDEST PUSH1 0x0 DUP1 REVERT JUMPDEST PUSH4 0x4E487B71 PUSH1 0xE0 SHL PUSH1 0x0 MSTORE PUSH1 0x41 PUSH1 0x4 MSTORE PUSH1 0x24 PUSH1 0x0 REVERT JUMPDEST MLOAD SWAP1 PUSH1 0x1 PUSH1 0x1 PUSH1 0xA0 SHL SUB DUP3 AND DUP3 SUB PUSH3 0xF7 JUMPI JUMP INVALID PUSH1 0x80 PUSH1 0x40 DUP2 DUP2 MSTORE PUSH1 0x4 SWAP2 DUP3 CALLDATASIZE LT ISZERO PUSH2 0x16 JUMPI PUSH1 0x0 DUP1 REVERT JUMPDEST PUSH1 0x0 SWAP3 DUP4 CALLDATALOAD PUSH1 0xE0 SHR SWAP2 DUP3 PUSH4 0x13CF08B EQ PUSH2 0xF5E JUMPI POP DUP2 PUSH4 0x81B8AC3 EQ PUSH2 0xF35 JUMPI DUP2 PUSH4 0xD61B519 EQ PUSH2 0xCED JUMPI DUP2 PUSH4 0x43859632 EQ PUSH2 0xCA6 JUMPI DUP2 PUSH4 0x5A43DC00 EQ PUSH2 0xA3D JUMPI DUP2 PUSH4 0x5F3AD709 EQ PUSH2 0xA21 JUMPI DUP2 PUSH4 0x6017779E EQ PUSH2 0xA02 JUMPI DUP2 PUSH4 0x640332D5 EQ PUSH2 0x9D9 JUMPI DUP2 PUSH4 0x67380A14 EQ PUSH2 0x97A JUMPI DUP2 PUSH4 0x76804A03 EQ PUSH2 0x941 JUMPI DUP2 PUSH4 0x79022A9F EQ PUSH2 0x918 JUMPI DUP2 PUSH4 0x8DA5CB5B EQ PUSH2 0x8EF JUMPI DUP2 PUSH4 0x943E8216 EQ PUSH2 0x6BF JUMPI DUP2 PUSH4 0x94CA3B77 EQ PUSH2 0x662 JUMPI DUP2 PUSH4 0x9F76AB7C EQ PUSH2 0x61E JUMPI DUP2 PUSH4 0xA124DF5D EQ PUSH2 0x5D3 JUMPI DUP2 PUSH4 0xADFAA72E EQ PUSH2 0x5A4 JUMPI DUP2 PUSH4 0xB1610D7E EQ PUSH2 0x586 JUMPI DUP2 PUSH4 0xB29A8140 EQ PUSH2 0x4CC JUMPI DUP2 PUSH4 0xB9B6F9B6 EQ PUSH2 0x4A4 JUMPI DUP2 PUSH4 0xC1B57EDB EQ PUSH2 0x485 JUMPI DUP2 PUSH4 0xC7F758A8 EQ PUSH2 0x2D8 JUMPI DUP2 PUSH4 0xD7335D03 EQ PUSH2 0x2B4 JUMPI DUP2 PUSH4 0xD89135CD EQ PUSH2 0x295 JUMPI DUP2 PUSH4 0xDA35C664 EQ PUSH2 0x276 JUMPI DUP2 PUSH4 0xDC37596D EQ PUSH2 0x225 JUMPI POP DUP1 PUSH4 0xEE99205C EQ PUSH2 0x1FE JUMPI DUP1 PUSH4 0xF2FDE38B EQ PUSH2 0x1B2 JUMPI DUP1 PUSH4 0xFCCC2813 EQ PUSH2 0x196 JUMPI PUSH4 0xFD10467E EQ PUSH2 0x16F JUMPI PUSH1 0x0 DUP1 REVERT JUMPDEST CALLVALUE PUSH2 0x192 JUMPI DUP2 PUSH1 0x3 NOT CALLDATASIZE ADD SLT PUSH2 0x192 JUMPI PUSH1 0x20 SWAP1 MLOAD PUSH10 0xD3C21BCECCEDA1000000 DUP2 MSTORE RETURN JUMPDEST POP DUP1 REVERT JUMPDEST POP CALLVALUE PUSH2 0x192 JUMPI DUP2 PUSH1 0x3 NOT CALLDATASIZE ADD SLT PUSH2 0x192 JUMPI PUSH1 0x20 SWAP1 MLOAD PUSH2 0x369 DUP2 MSTORE RETURN JUMPDEST DUP3 CALLVALUE PUSH2 0x1FB JUMPI PUSH1 0x20 CALLDATASIZE PUSH1 0x3 NOT ADD SLT PUSH2 0x1FB JUMPI PUSH2 0x1CC PUSH2 0x1045 JUMP JUMPDEST PUSH1 0x2 SLOAD SWAP1 PUSH1 0x1 PUSH1 0x1 PUSH1 0xA0 SHL SUB SWAP1 PUSH2 0x1E6 CALLER DUP4 DUP6 AND EQ PUSH2 0x129F JUMP JUMPDEST AND SWAP1 PUSH1 0x1 PUSH1 0x1 PUSH1 0x60 SHL SUB PUSH1 0xA0 SHL AND OR PUSH1 0x2 SSTORE DUP1 RETURN JUMPDEST DUP1 REVERT JUMPDEST POP CALLVALUE PUSH2 0x192 JUMPI DUP2 PUSH1 0x3 NOT CALLDATASIZE ADD SLT PUSH2 0x192 JUMPI SWAP1 SLOAD SWAP1 MLOAD PUSH1 0x1 PUSH1 0x1 PUSH1 0xA0 SHL SUB SWAP1 SWAP2 AND DUP2 MSTORE PUSH1 0x20 SWAP1 RETURN JUMPDEST SWAP1 POP CALLVALUE PUSH2 0x272 JUMPI DUP2 PUSH1 0x3 NOT CALLDATASIZE ADD SLT PUSH2 0x272 JUMPI PUSH1 0xFF DUP3 PUSH1 0x20 SWAP5 PUSH2 0x270 SWAP4 PUSH2 0x249 PUSH2 0x102A JUMP JUMPDEST SWAP1 CALLDATALOAD DUP3 MSTORE PUSH1 0x9 DUP8 MSTORE DUP3 DUP3 KECCAK256 PUSH1 0x1 PUSH1 0x1 PUSH1 0xA0 SHL SUB SWAP1 SWAP2 AND DUP3 MSTORE DUP7 MSTORE KECCAK256 SLOAD SWAP3 MLOAD SWAP3 DUP4 SWAP2 AND PUSH2 0x1007 JUMP JUMPDEST RETURN JUMPDEST DUP3 DUP1 REVERT JUMPDEST POP POP CALLVALUE PUSH2 0x192 JUMPI DUP2 PUSH1 0x3 NOT CALLDATASIZE ADD SLT PUSH2 0x192 JUMPI PUSH1 0x20 SWAP1 PUSH1 0x6 SLOAD SWAP1 MLOAD SWAP1 DUP2 MSTORE RETURN JUMPDEST POP POP CALLVALUE PUSH2 0x192 JUMPI DUP2 PUSH1 0x3 NOT CALLDATASIZE ADD SLT PUSH2 0x192 JUMPI PUSH1 0x20 SWAP1 PUSH1 0xA SLOAD SWAP1 MLOAD SWAP1 DUP2 MSTORE RETURN JUMPDEST POP POP CALLVALUE PUSH2 0x192 JUMPI DUP2 PUSH1 0x3 NOT CALLDATASIZE ADD SLT PUSH2 0x192 JUMPI PUSH1 0x20 SWAP1 PUSH2 0x2D1 PUSH2 0x1237 JUMP JUMPDEST SWAP1 MLOAD SWAP1 DUP2 MSTORE RETURN JUMPDEST DUP3 DUP5 CALLVALUE PUSH2 0x1FB JUMPI PUSH1 0x20 SWAP2 DUP3 PUSH1 0x3 NOT CALLDATASIZE ADD SLT PUSH2 0x192 JUMPI DUP1 MLOAD PUSH8 0xFFFFFFFFFFFFFFFF SWAP2 SWAP1 PUSH1 0x80 DUP2 ADD DUP4 DUP2 GT DUP3 DUP3 LT OR PUSH2 0x472 JUMPI DUP3 MSTORE CALLDATASIZE PUSH1 0x80 SWAP2 CALLDATACOPY DUP5 CALLDATALOAD DUP4 MSTORE PUSH1 0x7 DUP5 MSTORE DUP1 DUP4 KECCAK256 SWAP1 DUP1 MLOAD SWAP1 PUSH2 0x328 DUP3 PUSH2 0x105B JUMP JUMPDEST DUP3 SLOAD DUP3 MSTORE PUSH1 0x1 SWAP7 DUP8 DUP5 ADD SLOAD SWAP7 DUP1 DUP5 ADD SWAP8 DUP9 MSTORE PUSH1 0x2 DUP6 ADD SLOAD DUP4 DUP6 ADD MSTORE PUSH1 0x3 DUP6 ADD SLOAD SWAP7 PUSH1 0x60 DUP6 ADD SWAP8 DUP9 MSTORE DUP3 DUP7 ADD SLOAD SWAP7 PUSH1 0x80 DUP7 ADD SWAP8 DUP9 MSTORE PUSH1 0x5 DUP8 ADD SLOAD SWAP5 PUSH1 0xA0 DUP8 ADD SWAP6 DUP7 MSTORE PUSH1 0x6 DUP9 ADD SLOAD PUSH1 0xC0 DUP9 ADD SWAP1 DUP2 MSTORE PUSH1 0x7 DUP10 ADD SLOAD PUSH1 0xE0 DUP10 ADD SWAP1 DUP2 MSTORE PUSH1 0x8 DUP11 ADD SLOAD SWAP2 PUSH2 0x100 SWAP11 DUP12 DUP12 ADD SWAP4 DUP5 MSTORE PUSH1 0x9 ADD SLOAD SWAP9 PUSH2 0x120 SWAP15 DUP16 DUP13 ADD SWAP11 PUSH1 0xFF DUP2 AND ISZERO ISZERO DUP13 MSTORE PUSH1 0x8 SHR PUSH1 0xFF AND SWAP12 PUSH2 0x140 ADD SWAP12 DUP11 DUP2 LT ISZERO PUSH2 0x45F JUMPI DUP13 MSTORE MLOAD SWAP14 MLOAD SWAP13 DUP6 MLOAD SWAP7 PUSH1 0x80 DUP9 ADD SWAP1 DUP9 DUP3 LT SWAP1 DUP3 GT OR PUSH2 0x44C JUMPI DUP7 MSTORE MLOAD DUP7 MSTORE MLOAD DUP8 DUP7 ADD MSTORE MLOAD DUP4 DUP6 ADD MSTORE MLOAD PUSH1 0x60 DUP5 ADD MSTORE MLOAD SWAP6 MLOAD ISZERO ISZERO SWAP7 MLOAD SWAP9 DUP6 DUP11 LT ISZERO PUSH2 0x439 JUMPI DUP2 MLOAD SWAP11 DUP12 MSTORE DUP5 DUP12 ADD MSTORE DUP10 ADD JUMPDEST DUP5 DUP4 LT PUSH2 0x426 JUMPI DUP11 DUP11 PUSH2 0x270 DUP12 DUP12 DUP12 DUP12 PUSH1 0xC0 DUP7 ADD MSTORE PUSH1 0xE0 DUP6 ADD MSTORE DUP4 ADD SWAP1 PUSH2 0x1007 JUMP JUMPDEST DUP2 MLOAD DUP2 MSTORE SWAP2 DUP12 ADD SWAP2 SWAP1 DUP4 ADD SWAP1 DUP4 ADD PUSH2 0x404 JUMP JUMPDEST PUSH4 0x4E487B71 PUSH1 0xE0 SHL DUP5 MSTORE PUSH1 0x21 DUP7 MSTORE PUSH1 0x24 DUP5 REVERT JUMPDEST PUSH4 0x4E487B71 PUSH1 0xE0 SHL DUP10 MSTORE PUSH1 0x41 DUP12 MSTORE PUSH1 0x24 DUP10 REVERT JUMPDEST PUSH4 0x4E487B71 PUSH1 0xE0 SHL DUP10 MSTORE PUSH1 0x21 DUP12 MSTORE PUSH1 0x24 DUP10 REVERT JUMPDEST PUSH4 0x4E487B71 PUSH1 0xE0 SHL DUP6 MSTORE PUSH1 0x41 DUP8 MSTORE PUSH1 0x24 DUP6 REVERT JUMPDEST POP POP CALLVALUE PUSH2 0x192 JUMPI DUP2 PUSH1 0x3 NOT CALLDATASIZE ADD SLT PUSH2 0x192 JUMPI PUSH1 0x20 SWAP1 PUSH1 0xC SLOAD SWAP1 MLOAD SWAP1 DUP2 MSTORE RETURN JUMPDEST SWAP1 POP CALLVALUE PUSH2 0x272 JUMPI DUP3 PUSH1 0x3 NOT CALLDATASIZE ADD SLT PUSH2 0x272 JUMPI SLOAD SWAP1 MLOAD PUSH1 0x1 PUSH1 0x1 PUSH1 0xA0 SHL SUB SWAP1 SWAP2 AND DUP2 MSTORE PUSH1 0x20 SWAP2 POP RETURN JUMPDEST SWAP2 SWAP1 POP CALLVALUE PUSH2 0x272 JUMPI DUP1 PUSH1 0x3 NOT CALLDATASIZE ADD SLT PUSH2 0x272 JUMPI PUSH1 0x20 PUSH2 0x53D SWAP3 PUSH2 0x4ED PUSH2 0x1045 JUMP JUMPDEST PUSH1 0x2 SLOAD PUSH1 0x1 PUSH1 0x1 PUSH1 0xA0 SHL SUB SWAP1 DUP2 AND SWAP1 DUP8 SWAP1 PUSH2 0x509 CALLER DUP5 EQ PUSH2 0x129F JUMP JUMPDEST DUP7 MLOAD PUSH4 0xA9059CBB PUSH1 0xE0 SHL DUP2 MSTORE PUSH1 0x1 PUSH1 0x1 PUSH1 0xA0 SHL SUB SWAP1 SWAP4 AND SWAP5 DUP4 ADD SWAP5 DUP6 MSTORE PUSH1 0x24 CALLDATALOAD PUSH1 0x20 DUP7 ADD MSTORE SWAP2 SWAP7 DUP8 SWAP5 DUP6 SWAP4 SWAP2 DUP5 SWAP2 PUSH1 0x40 ADD SWAP1 JUMP JUMPDEST SUB SWAP4 AND GAS CALL SWAP1 DUP2 ISZERO PUSH2 0x57D JUMPI POP PUSH2 0x552 JUMPI POP DUP1 RETURN JUMPDEST PUSH2 0x572 SWAP1 PUSH1 0x20 RETURNDATASIZE DUP2 GT PUSH2 0x576 JUMPI JUMPDEST PUSH2 0x56A DUP2 DUP4 PUSH2 0x108E JUMP JUMPDEST DUP2 ADD SWAP1 PUSH2 0x10B0 JUMP JUMPDEST POP DUP1 RETURN JUMPDEST POP RETURNDATASIZE PUSH2 0x560 JUMP JUMPDEST MLOAD RETURNDATASIZE DUP5 DUP3 RETURNDATACOPY RETURNDATASIZE SWAP1 REVERT JUMPDEST POP POP CALLVALUE PUSH2 0x192 JUMPI DUP2 PUSH1 0x3 NOT CALLDATASIZE ADD SLT PUSH2 0x192 JUMPI PUSH1 0x20 SWAP1 MLOAD PUSH3 0x93A80 DUP2 MSTORE RETURN JUMPDEST POP POP CALLVALUE PUSH2 0x192 JUMPI PUSH1 0x20 CALLDATASIZE PUSH1 0x3 NOT ADD SLT PUSH2 0x192 JUMPI PUSH1 0x20 SWAP1 PUSH2 0x5CA PUSH2 0x5C5 PUSH2 0x1045 JUMP JUMPDEST PUSH2 0x10C8 JUMP JUMPDEST SWAP1 MLOAD SWAP1 ISZERO ISZERO DUP2 MSTORE RETURN JUMPDEST DUP4 CALLVALUE PUSH2 0x1FB JUMPI PUSH1 0x20 CALLDATASIZE PUSH1 0x3 NOT ADD SLT PUSH2 0x1FB JUMPI PUSH2 0x5ED PUSH2 0x1045 JUMP JUMPDEST PUSH1 0x2 SLOAD PUSH1 0x1 PUSH1 0x1 PUSH1 0xA0 SHL SUB SWAP2 SWAP1 PUSH2 0x607 SWAP1 DUP4 AND CALLER EQ PUSH2 0x129F JUMP JUMPDEST AND PUSH1 0x1 PUSH1 0x1 PUSH1 0x60 SHL SUB PUSH1 0xA0 SHL PUSH1 0x3 SLOAD AND OR PUSH1 0x3 SSTORE DUP1 RETURN JUMPDEST POP POP CALLVALUE PUSH2 0x192 JUMPI DUP2 PUSH1 0x3 NOT CALLDATASIZE ADD SLT PUSH2 0x192 JUMPI MLOAD PUSH32 0x0 PUSH1 0x1 PUSH1 0x1 PUSH1 0xA0 SHL SUB AND DUP2 MSTORE PUSH1 0x20 SWAP1 RETURN JUMPDEST POP POP CALLVALUE PUSH2 0x192 JUMPI CALLDATASIZE PUSH1 0x3 NOT ADD SLT PUSH2 0x1FB JUMPI PUSH2 0x67B PUSH2 0x1045 JUMP JUMPDEST PUSH2 0x683 PUSH2 0x102A JUMP JUMPDEST PUSH1 0x2 SLOAD PUSH1 0x1 PUSH1 0x1 PUSH1 0xA0 SHL SUB SWAP2 SWAP1 PUSH2 0x69D SWAP1 DUP4 AND CALLER EQ PUSH2 0x129F JUMP JUMPDEST DUP2 PUSH1 0x1 PUSH1 0x1 PUSH1 0x60 SHL SUB PUSH1 0xA0 SHL SWAP4 AND DUP4 DUP6 SLOAD AND OR DUP5 SSTORE AND SWAP1 PUSH1 0x1 SLOAD AND OR PUSH1 0x1 SSTORE DUP1 RETURN JUMPDEST SWAP1 POP CALLVALUE PUSH2 0x272 JUMPI DUP2 PUSH1 0x3 NOT CALLDATASIZE ADD SLT PUSH2 0x272 JUMPI DUP1 CALLDATALOAD SWAP1 PUSH1 0x24 CALLDATALOAD SWAP3 DUP2 DUP5 LT ISZERO PUSH2 0x8EB JUMPI PUSH2 0x6E9 CALLER PUSH2 0x10C8 JUMP JUMPDEST ISZERO PUSH2 0x8B9 JUMPI DUP3 ISZERO ISZERO DUP1 PUSH2 0x8AD JUMPI JUMPDEST ISZERO PUSH2 0x877 JUMPI DUP3 DUP6 MSTORE PUSH1 0x20 SWAP2 PUSH1 0x7 DUP4 MSTORE DUP2 DUP7 KECCAK256 PUSH1 0x3 DUP2 ADD SLOAD TIMESTAMP GT PUSH2 0x846 JUMPI PUSH2 0x725 PUSH1 0xFF PUSH1 0x9 DUP4 ADD SLOAD AND ISZERO PUSH2 0x1309 JUMP JUMPDEST DUP5 DUP8 MSTORE PUSH1 0x8 DUP5 MSTORE DUP3 DUP8 KECCAK256 CALLER DUP9 MSTORE DUP5 MSTORE PUSH1 0xFF DUP4 DUP9 KECCAK256 SLOAD AND PUSH2 0x814 JUMPI SWAP2 PUSH2 0x7CE SWAP2 PUSH32 0x94F80829C509370ABB2D421A078BA5926755D3DE25D021DACF7BBD19853F7A2 SWAP5 SWAP4 DUP7 DUP10 MSTORE PUSH1 0x8 DUP6 MSTORE DUP3 DUP10 KECCAK256 CALLER DUP11 MSTORE DUP6 MSTORE DUP3 DUP10 KECCAK256 PUSH1 0xFF NOT SWAP1 PUSH1 0x1 DUP3 DUP3 SLOAD AND OR SWAP1 SSTORE DUP8 DUP11 MSTORE PUSH1 0x9 DUP7 MSTORE DUP4 DUP11 KECCAK256 CALLER DUP12 MSTORE DUP7 MSTORE DUP4 DUP11 KECCAK256 SWAP1 DUP2 SLOAD AND PUSH1 0xFF DUP11 AND OR SWAP1 SSTORE PUSH1 0x8 DUP2 ADD PUSH2 0x7B1 DUP2 SLOAD PUSH2 0x12D7 JUMP JUMPDEST SWAP1 SSTORE DUP8 PUSH2 0x7D4 JUMPI ADD PUSH2 0x7C3 DUP2 SLOAD PUSH2 0x12D7 JUMP JUMPDEST SWAP1 SSTORE JUMPDEST MLOAD DUP1 SWAP6 PUSH2 0x1007 JUMP JUMPDEST CALLER SWAP4 LOG3 DUP1 RETURN JUMPDEST SWAP1 POP PUSH1 0x1 DUP8 SUB PUSH2 0x7F2 JUMPI PUSH1 0x5 ADD PUSH2 0x7EB DUP2 SLOAD PUSH2 0x12D7 JUMP JUMPDEST SWAP1 SSTORE PUSH2 0x7C6 JUMP JUMPDEST PUSH1 0x2 DUP8 SUB PUSH2 0x807 JUMPI PUSH1 0x6 ADD PUSH2 0x7EB DUP2 SLOAD PUSH2 0x12D7 JUMP JUMPDEST PUSH1 0x7 ADD PUSH2 0x7EB DUP2 SLOAD PUSH2 0x12D7 JUMP JUMPDEST POP DUP3 PUSH1 0x64 SWAP3 MLOAD SWAP2 PUSH3 0x461BCD PUSH1 0xE5 SHL DUP4 MSTORE DUP3 ADD MSTORE PUSH1 0xD PUSH1 0x24 DUP3 ADD MSTORE PUSH13 0x1053149150511657D593D51151 PUSH1 0x9A SHL PUSH1 0x44 DUP3 ADD MSTORE REVERT JUMPDEST POP DUP3 PUSH1 0x64 SWAP3 MLOAD SWAP2 PUSH3 0x461BCD PUSH1 0xE5 SHL DUP4 MSTORE DUP3 ADD MSTORE PUSH1 0xC PUSH1 0x24 DUP3 ADD MSTORE PUSH12 0x1593D5125391D7D153911151 PUSH1 0xA2 SHL PUSH1 0x44 DUP3 ADD MSTORE REVERT JUMPDEST SWAP1 PUSH1 0x20 PUSH1 0x64 SWAP3 MLOAD SWAP2 PUSH3 0x461BCD PUSH1 0xE5 SHL DUP4 MSTORE DUP3 ADD MSTORE PUSH1 0x10 PUSH1 0x24 DUP3 ADD MSTORE PUSH16 0x1253959053125117D41493D413D4D053 PUSH1 0x82 SHL PUSH1 0x44 DUP3 ADD MSTORE REVERT JUMPDEST POP PUSH1 0x6 SLOAD DUP4 GT ISZERO PUSH2 0x6F7 JUMP JUMPDEST SWAP1 PUSH1 0x20 PUSH1 0x64 SWAP3 MLOAD SWAP2 PUSH3 0x461BCD PUSH1 0xE5 SHL DUP4 MSTORE DUP3 ADD MSTORE PUSH1 0xC PUSH1 0x24 DUP3 ADD MSTORE PUSH12 0x4E4F545F454C494749424C45 PUSH1 0xA0 SHL PUSH1 0x44 DUP3 ADD MSTORE REVERT JUMPDEST DUP5 DUP1 REVERT JUMPDEST POP POP CALLVALUE PUSH2 0x192 JUMPI DUP2 PUSH1 0x3 NOT CALLDATASIZE ADD SLT PUSH2 0x192 JUMPI PUSH1 0x2 SLOAD SWAP1 MLOAD PUSH1 0x1 PUSH1 0x1 PUSH1 0xA0 SHL SUB SWAP1 SWAP2 AND DUP2 MSTORE PUSH1 0x20 SWAP1 RETURN JUMPDEST POP POP CALLVALUE PUSH2 0x192 JUMPI DUP2 PUSH1 0x3 NOT CALLDATASIZE ADD SLT PUSH2 0x192 JUMPI PUSH1 0x3 SLOAD SWAP1 MLOAD PUSH1 0x1 PUSH1 0x1 PUSH1 0xA0 SHL SUB SWAP1 SWAP2 AND DUP2 MSTORE PUSH1 0x20 SWAP1 RETURN JUMPDEST POP POP CALLVALUE PUSH2 0x192 JUMPI DUP2 PUSH1 0x3 NOT CALLDATASIZE ADD SLT PUSH2 0x192 JUMPI PUSH1 0x80 SWAP1 PUSH1 0xA SLOAD SWAP1 PUSH1 0xB SLOAD SWAP1 PUSH1 0xC SLOAD SWAP1 PUSH1 0x6 SLOAD SWAP3 DUP2 MLOAD SWAP5 DUP6 MSTORE PUSH1 0x20 DUP6 ADD MSTORE DUP4 ADD MSTORE PUSH1 0x60 DUP3 ADD MSTORE RETURN JUMPDEST SWAP2 SWAP1 POP CALLVALUE PUSH2 0x272 JUMPI CALLDATASIZE PUSH1 0x3 NOT ADD SLT PUSH2 0x192 JUMPI PUSH2 0x994 PUSH2 0x1045 JUMP JUMPDEST SWAP1 PUSH2 0x99D PUSH2 0x102A JUMP JUMPDEST PUSH1 0x2 SLOAD PUSH1 0x1 PUSH1 0x1 PUSH1 0xA0 SHL SUB SWAP3 SWAP1 PUSH2 0x9B7 SWAP1 DUP5 AND CALLER EQ PUSH2 0x129F JUMP JUMPDEST DUP3 PUSH1 0x1 PUSH1 0x1 PUSH1 0x60 SHL SUB PUSH1 0xA0 SHL SWAP5 AND DUP5 DUP3 SLOAD AND OR SWAP1 SSTORE AND SWAP1 PUSH1 0x5 SLOAD AND OR PUSH1 0x5 SSTORE DUP1 RETURN JUMPDEST POP POP CALLVALUE PUSH2 0x192 JUMPI DUP2 PUSH1 0x3 NOT CALLDATASIZE ADD SLT PUSH2 0x192 JUMPI PUSH1 0x5 SLOAD SWAP1 MLOAD PUSH1 0x1 PUSH1 0x1 PUSH1 0xA0 SHL SUB SWAP1 SWAP2 AND DUP2 MSTORE PUSH1 0x20 SWAP1 RETURN JUMPDEST POP POP CALLVALUE PUSH2 0x192 JUMPI DUP2 PUSH1 0x3 NOT CALLDATASIZE ADD SLT PUSH2 0x192 JUMPI PUSH1 0x20 SWAP1 PUSH1 0xB SLOAD SWAP1 MLOAD SWAP1 DUP2 MSTORE RETURN JUMPDEST POP POP CALLVALUE PUSH2 0x192 JUMPI DUP2 PUSH1 0x3 NOT CALLDATASIZE ADD SLT PUSH2 0x192 JUMPI PUSH1 0x20 SWAP1 MLOAD PUSH1 0x3 DUP2 MSTORE RETURN JUMPDEST DUP4 DUP4 CALLVALUE PUSH2 0x192 JUMPI PUSH1 0x20 SWAP1 DUP2 PUSH1 0x3 NOT CALLDATASIZE ADD SLT PUSH2 0x272 JUMPI DUP4 CALLDATALOAD PUSH1 0x1 DUP1 PUSH1 0xA0 SHL SUB PUSH2 0xA6A DUP2 PUSH1 0x2 SLOAD AND CALLER EQ PUSH2 0x129F JUMP JUMPDEST DUP2 ISZERO PUSH2 0xC75 JUMPI DUP4 PUSH1 0x24 SWAP2 DUP5 MLOAD SWAP3 DUP4 DUP1 SWAP3 PUSH4 0x70A08231 PUSH1 0xE0 SHL DUP3 MSTORE ADDRESS DUP12 DUP4 ADD MSTORE PUSH32 0x0 AND GAS STATICCALL SWAP1 DUP2 ISZERO PUSH2 0xC6B JUMPI SWAP1 DUP3 SWAP2 DUP7 SWAP2 PUSH2 0xC3A JUMPI JUMPDEST POP LT PUSH2 0xC00 JUMPI PUSH2 0xACF PUSH1 0x6 SLOAD PUSH2 0x12D7 JUMP JUMPDEST DUP1 PUSH1 0x6 SSTORE PUSH3 0x93A80 TIMESTAMP ADD SWAP1 DUP2 TIMESTAMP GT PUSH2 0xBED JUMPI DUP6 SWAP1 DUP5 MLOAD PUSH2 0xAEE DUP2 PUSH2 0x105B JUMP JUMPDEST DUP2 DUP2 MSTORE DUP7 DUP1 DUP3 ADD DUP7 DUP2 MSTORE DUP8 DUP4 ADD TIMESTAMP DUP2 MSTORE PUSH1 0x60 DUP5 ADD DUP8 DUP2 MSTORE PUSH1 0x80 DUP6 ADD DUP8 DUP2 MSTORE PUSH1 0xA0 DUP7 ADD SWAP2 DUP9 DUP4 MSTORE PUSH1 0xC0 DUP8 ADD SWAP4 DUP10 DUP6 MSTORE PUSH1 0xE0 DUP9 ADD SWAP6 DUP11 DUP8 MSTORE DUP14 DUP12 PUSH2 0x100 DUP12 ADD SWAP10 DUP2 DUP12 MSTORE PUSH2 0x120 DUP13 ADD SWAP14 DUP15 MSTORE PUSH2 0x140 DUP13 ADD SWAP13 PUSH1 0x2 DUP15 MSTORE DUP3 MSTORE PUSH1 0x7 SWAP1 MSTORE KECCAK256 SWAP9 MLOAD DUP10 SSTORE MLOAD PUSH1 0x1 DUP10 ADD SSTORE MLOAD PUSH1 0x2 DUP9 ADD SSTORE MLOAD PUSH1 0x3 DUP8 ADD SSTORE MLOAD DUP14 DUP7 ADD SSTORE MLOAD PUSH1 0x5 DUP6 ADD SSTORE MLOAD PUSH1 0x6 DUP5 ADD SSTORE MLOAD PUSH1 0x7 DUP4 ADD SSTORE MLOAD PUSH1 0x8 DUP3 ADD SSTORE PUSH1 0x9 ADD SWAP2 MLOAD ISZERO ISZERO SWAP1 DUP3 SLOAD SWAP1 MLOAD DUP10 DUP2 LT ISZERO PUSH2 0xBDA JUMPI PUSH32 0xA6A21B90631FAACDE52B977EB6E15E5707522FBBBA8EDDEF55ED173FFDE48EFA SWAP8 SWAP9 SWAP10 POP PUSH2 0xFF00 PUSH1 0xFF SWAP2 PUSH1 0x8 SHL AND SWAP3 AND SWAP1 PUSH2 0xFFFF NOT AND OR OR SWAP1 SSTORE PUSH1 0x6 SLOAD SWAP5 DUP4 MLOAD SWAP3 DUP4 MSTORE DUP3 ADD MSTORE LOG2 DUP1 RETURN JUMPDEST PUSH4 0x4E487B71 PUSH1 0xE0 SHL DUP10 MSTORE PUSH1 0x21 DUP11 MSTORE PUSH1 0x24 DUP10 REVERT JUMPDEST PUSH4 0x4E487B71 PUSH1 0xE0 SHL DUP7 MSTORE PUSH1 0x11 DUP8 MSTORE PUSH1 0x24 DUP7 REVERT JUMPDEST DUP2 MLOAD PUSH3 0x461BCD PUSH1 0xE5 SHL DUP2 MSTORE DUP1 DUP7 ADD DUP5 SWAP1 MSTORE PUSH1 0x14 PUSH1 0x24 DUP3 ADD MSTORE PUSH20 0x494E53554646494349454E545F42414C414E4345 PUSH1 0x60 SHL PUSH1 0x44 DUP3 ADD MSTORE PUSH1 0x64 SWAP1 REVERT JUMPDEST DUP1 SWAP3 POP DUP6 DUP1 SWAP3 POP RETURNDATASIZE DUP4 GT PUSH2 0xC64 JUMPI JUMPDEST PUSH2 0xC53 DUP2 DUP4 PUSH2 0x108E JUMP JUMPDEST DUP2 ADD SUB SLT PUSH2 0x8EB JUMPI DUP2 SWAP1 MLOAD DUP8 PUSH2 0xABE JUMP JUMPDEST POP RETURNDATASIZE PUSH2 0xC49 JUMP JUMPDEST DUP4 MLOAD RETURNDATASIZE DUP8 DUP3 RETURNDATACOPY RETURNDATASIZE SWAP1 REVERT JUMPDEST DUP3 MLOAD PUSH3 0x461BCD PUSH1 0xE5 SHL DUP2 MSTORE DUP1 DUP8 ADD DUP6 SWAP1 MSTORE PUSH1 0xB PUSH1 0x24 DUP3 ADD MSTORE PUSH11 0x16915493D7D05353D55395 PUSH1 0xAA SHL PUSH1 0x44 DUP3 ADD MSTORE PUSH1 0x64 SWAP1 REVERT JUMPDEST SWAP1 POP CALLVALUE PUSH2 0x272 JUMPI DUP2 PUSH1 0x3 NOT CALLDATASIZE ADD SLT PUSH2 0x272 JUMPI DUP2 PUSH1 0x20 SWAP4 PUSH1 0xFF SWAP3 PUSH2 0xCC7 PUSH2 0x102A JUMP JUMPDEST SWAP1 CALLDATALOAD DUP3 MSTORE PUSH1 0x8 DUP7 MSTORE DUP3 DUP3 KECCAK256 PUSH1 0x1 PUSH1 0x1 PUSH1 0xA0 SHL SUB SWAP1 SWAP2 AND DUP3 MSTORE DUP6 MSTORE KECCAK256 SLOAD SWAP2 MLOAD SWAP2 AND ISZERO ISZERO DUP2 MSTORE RETURN JUMPDEST DUP4 DUP4 CALLVALUE PUSH2 0x192 JUMPI PUSH1 0x20 CALLDATASIZE PUSH1 0x3 NOT ADD SLT PUSH2 0x192 JUMPI DUP3 CALLDATALOAD SWAP1 DUP2 DUP4 MSTORE PUSH1 0x7 PUSH1 0x20 MSTORE DUP1 DUP4 KECCAK256 PUSH1 0x3 DUP2 ADD SLOAD TIMESTAMP GT ISZERO PUSH2 0xEFF JUMPI PUSH1 0x9 DUP2 ADD SWAP1 DUP2 SLOAD PUSH2 0xD2E PUSH1 0xFF DUP3 AND ISZERO PUSH2 0x1309 JUMP JUMPDEST PUSH1 0x3 PUSH1 0x8 DUP4 ADD SLOAD LT PUSH2 0xECB JUMPI SWAP1 PUSH1 0x1 SWAP2 DUP8 DUP3 ADD SLOAD SWAP1 PUSH2 0xFFFF NOT AND DUP4 DUP2 OR DUP6 SSTORE PUSH1 0x5 DUP4 ADD SLOAD DUP3 DUP2 GT PUSH2 0xEBA JUMPI JUMPDEST POP POP PUSH1 0x6 DUP3 ADD SLOAD DUP2 DUP2 GT PUSH2 0xEA5 JUMPI JUMPDEST POP PUSH1 0x7 DUP3 ADD SLOAD GT PUSH2 0xE93 JUMPI JUMPDEST ADD SWAP1 DUP2 SLOAD SWAP6 PUSH1 0xFF DUP3 SLOAD PUSH1 0x8 SHR AND DUP2 DUP2 LT ISZERO PUSH2 0xE80 JUMPI DUP1 PUSH2 0xDCA JUMPI POP POP PUSH1 0xFF SWAP1 PUSH2 0xDAE PUSH1 0x0 DUP1 MLOAD PUSH1 0x20 PUSH2 0x158A DUP4 CODECOPY DUP2 MLOAD SWAP2 MSTORE SWAP6 SWAP7 SWAP8 PUSH2 0x1348 JUMP JUMPDEST SLOAD PUSH1 0x8 SHR AND SWAP1 SLOAD PUSH2 0xDC1 DUP4 MLOAD DUP1 SWAP4 PUSH2 0x1007 JUMP JUMPDEST PUSH1 0x20 DUP3 ADD MSTORE LOG2 DUP1 RETURN JUMPDEST PUSH1 0x1 DUP2 SUB PUSH2 0xDF6 JUMPI POP POP PUSH1 0xFF SWAP1 PUSH2 0xDF1 PUSH1 0x0 DUP1 MLOAD PUSH1 0x20 PUSH2 0x158A DUP4 CODECOPY DUP2 MLOAD SWAP2 MSTORE SWAP6 SWAP7 SWAP8 PUSH2 0x1400 JUMP JUMPDEST PUSH2 0xDAE JUMP JUMPDEST PUSH1 0x2 SUB PUSH2 0xE1B JUMPI POP PUSH1 0xFF SWAP1 PUSH2 0xDF1 PUSH1 0x0 DUP1 MLOAD PUSH1 0x20 PUSH2 0x158A DUP4 CODECOPY DUP2 MLOAD SWAP2 MSTORE SWAP6 SWAP7 SWAP8 PUSH2 0x14C8 JUMP JUMPDEST SWAP6 PUSH1 0x3 DUP2 DIV PUSH2 0xE29 DUP2 PUSH2 0x1348 JUMP JUMPDEST PUSH2 0xE32 DUP2 PUSH2 0x1400 JUMP JUMPDEST DUP1 PUSH1 0x1 SHL SWAP1 DUP1 DUP3 DIV PUSH1 0x2 EQ SWAP1 ISZERO OR ISZERO PUSH2 0xE6D JUMPI DUP2 SUB SWAP1 DUP2 GT PUSH2 0xBED JUMPI PUSH1 0x0 DUP1 MLOAD PUSH1 0x20 PUSH2 0x158A DUP4 CODECOPY DUP2 MLOAD SWAP2 MSTORE SWAP5 SWAP6 SWAP7 POP SWAP1 PUSH2 0xDF1 PUSH1 0xFF SWAP3 PUSH2 0x14C8 JUMP JUMPDEST PUSH4 0x4E487B71 PUSH1 0xE0 SHL DUP8 MSTORE PUSH1 0x11 DUP9 MSTORE PUSH1 0x24 DUP8 REVERT JUMPDEST PUSH4 0x4E487B71 PUSH1 0xE0 SHL DUP8 MSTORE PUSH1 0x21 DUP3 MSTORE PUSH1 0x24 DUP8 REVERT JUMPDEST DUP3 SLOAD PUSH2 0xFF00 NOT AND PUSH2 0x300 OR DUP4 SSTORE PUSH2 0xD75 JUMP JUMPDEST DUP5 SLOAD PUSH2 0xFF00 NOT AND PUSH2 0x200 OR DUP6 SSTORE SWAP1 POP DUP9 PUSH2 0xD69 JUMP JUMPDEST PUSH2 0x101 SWAP2 SWAP3 POP SWAP2 OR DUP5 SSTORE DUP9 DUP1 PUSH2 0xD5A JUMP JUMPDEST DUP4 MLOAD PUSH3 0x461BCD PUSH1 0xE5 SHL DUP2 MSTORE PUSH1 0x20 DUP2 DUP10 ADD MSTORE PUSH1 0xE PUSH1 0x24 DUP3 ADD MSTORE PUSH14 0x145553D4955357D393D517D35155 PUSH1 0x92 SHL PUSH1 0x44 DUP3 ADD MSTORE PUSH1 0x64 SWAP1 REVERT JUMPDEST DUP2 MLOAD PUSH3 0x461BCD PUSH1 0xE5 SHL DUP2 MSTORE PUSH1 0x20 DUP2 DUP8 ADD MSTORE PUSH1 0x10 PUSH1 0x24 DUP3 ADD MSTORE PUSH16 0x1593D5125391D7D393D517D153911151 PUSH1 0x82 SHL PUSH1 0x44 DUP3 ADD MSTORE PUSH1 0x64 SWAP1 REVERT JUMPDEST POP POP CALLVALUE PUSH2 0x192 JUMPI DUP2 PUSH1 0x3 NOT CALLDATASIZE ADD SLT PUSH2 0x192 JUMPI PUSH1 0x1 SLOAD SWAP1 MLOAD PUSH1 0x1 PUSH1 0x1 PUSH1 0xA0 SHL SUB SWAP1 SWAP2 AND DUP2 MSTORE PUSH1 0x20 SWAP1 RETURN JUMPDEST SWAP3 SWAP2 POP CALLVALUE PUSH2 0x1003 JUMPI PUSH1 0x20 CALLDATASIZE PUSH1 0x3 NOT ADD SLT PUSH2 0x1003 JUMPI SWAP1 DUP2 DUP2 PUSH2 0x160 SWAP6 PUSH2 0x270 SWAP5 CALLDATALOAD DUP2 MSTORE PUSH1 0x7 PUSH1 0x20 MSTORE KECCAK256 SWAP1 DUP2 SLOAD SWAP3 PUSH1 0x1 DUP4 ADD SLOAD SWAP2 PUSH1 0x2 DUP5 ADD SLOAD SWAP1 PUSH1 0x3 DUP6 ADD SLOAD SWAP1 DUP6 ADD SLOAD SWAP1 PUSH1 0x5 DUP7 ADD SLOAD SWAP3 PUSH1 0x6 DUP8 ADD SLOAD SWAP5 PUSH1 0x7 DUP9 ADD SLOAD SWAP7 PUSH1 0x9 PUSH1 0x8 DUP11 ADD SLOAD SWAP10 ADD SLOAD SWAP10 DUP13 MSTORE PUSH1 0x20 DUP13 ADD MSTORE DUP11 ADD MSTORE PUSH1 0x60 DUP10 ADD MSTORE PUSH1 0x80 DUP9 ADD MSTORE PUSH1 0xA0 DUP8 ADD MSTORE PUSH1 0xC0 DUP7 ADD MSTORE PUSH1 0xE0 DUP6 ADD MSTORE PUSH2 0x100 DUP5 ADD MSTORE PUSH1 0xFF DUP2 AND ISZERO ISZERO PUSH2 0x120 DUP5 ADD MSTORE PUSH1 0xFF PUSH2 0x140 DUP5 ADD SWAP2 PUSH1 0x8 SHR AND PUSH2 0x1007 JUMP JUMPDEST DUP4 DUP1 REVERT JUMPDEST SWAP1 PUSH1 0x4 DUP3 LT ISZERO PUSH2 0x1014 JUMPI MSTORE JUMP JUMPDEST PUSH4 0x4E487B71 PUSH1 0xE0 SHL PUSH1 0x0 MSTORE PUSH1 0x21 PUSH1 0x4 MSTORE PUSH1 0x24 PUSH1 0x0 REVERT JUMPDEST PUSH1 0x24 CALLDATALOAD SWAP1 PUSH1 0x1 PUSH1 0x1 PUSH1 0xA0 SHL SUB DUP3 AND DUP3 SUB PUSH2 0x1040 JUMPI JUMP JUMPDEST PUSH1 0x0 DUP1 REVERT JUMPDEST PUSH1 0x4 CALLDATALOAD SWAP1 PUSH1 0x1 PUSH1 0x1 PUSH1 0xA0 SHL SUB DUP3 AND DUP3 SUB PUSH2 0x1040 JUMPI JUMP JUMPDEST PUSH2 0x160 DUP2 ADD SWAP1 DUP2 LT PUSH8 0xFFFFFFFFFFFFFFFF DUP3 GT OR PUSH2 0x1078 JUMPI PUSH1 0x40 MSTORE JUMP JUMPDEST PUSH4 0x4E487B71 PUSH1 0xE0 SHL PUSH1 0x0 MSTORE PUSH1 0x41 PUSH1 0x4 MSTORE PUSH1 0x24 PUSH1 0x0 REVERT JUMPDEST SWAP1 PUSH1 0x1F DUP1 NOT SWAP2 ADD AND DUP2 ADD SWAP1 DUP2 LT PUSH8 0xFFFFFFFFFFFFFFFF DUP3 GT OR PUSH2 0x1078 JUMPI PUSH1 0x40 MSTORE JUMP JUMPDEST SWAP1 DUP2 PUSH1 0x20 SWAP2 SUB SLT PUSH2 0x1040 JUMPI MLOAD DUP1 ISZERO ISZERO DUP2 SUB PUSH2 0x1040 JUMPI SWAP1 JUMP JUMPDEST PUSH1 0x0 SWAP1 PUSH1 0x1 DUP1 PUSH1 0xA0 SHL SUB SWAP1 DUP2 DUP4 SLOAD AND PUSH1 0x40 MLOAD SWAP2 DUP3 DUP5 PUSH4 0x1D468B59 PUSH1 0xE2 SHL SWAP3 DUP4 DUP4 MSTORE AND SWAP3 DUP4 PUSH1 0x4 DUP4 ADD MSTORE DUP2 PUSH1 0x24 PUSH1 0x20 SWAP7 DUP8 SWAP4 GAS STATICCALL DUP7 SWAP2 DUP2 PUSH2 0x1218 JUMPI JUMPDEST POP PUSH2 0x1210 JUMPI JUMPDEST POP SWAP1 DUP3 SWAP2 DUP6 ISZERO PUSH2 0x11B7 JUMPI JUMPDEST POP PUSH1 0x24 PUSH1 0x40 MLOAD DUP1 SWAP6 DUP2 SWAP4 PUSH4 0x70A08231 PUSH1 0xE0 SHL DUP4 MSTORE PUSH1 0x4 DUP4 ADD MSTORE PUSH32 0x0 AND GAS STATICCALL SWAP1 DUP2 ISZERO PUSH2 0x11AB JUMPI PUSH1 0x0 SWAP2 PUSH2 0x117F JUMPI JUMPDEST POP SWAP1 POP DUP2 ISZERO PUSH2 0x116D JUMPI POP SWAP1 JUMP JUMPDEST PUSH10 0xD3C21BCECCEDA1000000 SWAP2 POP LT ISZERO SWAP1 JUMP JUMPDEST DUP3 DUP2 RETURNDATASIZE DUP4 GT PUSH2 0x11A4 JUMPI JUMPDEST PUSH2 0x1193 DUP2 DUP4 PUSH2 0x108E JUMP JUMPDEST DUP2 ADD SUB SLT PUSH2 0x1FB JUMPI POP MLOAD DUP1 CODESIZE PUSH2 0x1160 JUMP JUMPDEST POP RETURNDATASIZE PUSH2 0x1189 JUMP JUMPDEST PUSH1 0x40 MLOAD RETURNDATASIZE PUSH1 0x0 DUP3 RETURNDATACOPY RETURNDATASIZE SWAP1 REVERT JUMPDEST SWAP1 SWAP2 DUP5 PUSH1 0x1 SLOAD AND SWAP2 PUSH1 0x24 PUSH1 0x40 MLOAD DUP1 SWAP5 DUP2 SWAP4 DUP3 MSTORE DUP7 PUSH1 0x4 DUP4 ADD MSTORE GAS STATICCALL PUSH1 0x0 SWAP2 DUP2 PUSH2 0x11F1 JUMPI JUMPDEST POP PUSH2 0x11E9 JUMPI JUMPDEST SWAP1 DUP3 SWAP2 PUSH2 0x1114 JUMP JUMPDEST SWAP4 POP DUP2 PUSH2 0x11E1 JUMP JUMPDEST PUSH2 0x1209 SWAP2 SWAP3 POP DUP5 RETURNDATASIZE DUP7 GT PUSH2 0x576 JUMPI PUSH2 0x56A DUP2 DUP4 PUSH2 0x108E JUMP JUMPDEST SWAP1 CODESIZE PUSH2 0x11DB JUMP JUMPDEST SWAP5 POP DUP3 PUSH2 0x1109 JUMP JUMPDEST PUSH2 0x1230 SWAP2 SWAP3 POP DUP6 RETURNDATASIZE DUP8 GT PUSH2 0x576 JUMPI PUSH2 0x56A DUP2 DUP4 PUSH2 0x108E JUMP JUMPDEST SWAP1 CODESIZE PUSH2 0x1103 JUMP JUMPDEST PUSH1 0x6 SLOAD DUP1 JUMPDEST PUSH2 0x1246 JUMPI POP PUSH1 0x0 SWAP1 JUMP JUMPDEST PUSH1 0x40 PUSH1 0x0 DUP3 DUP2 MSTORE PUSH1 0x7 PUSH1 0x20 MSTORE KECCAK256 PUSH1 0xFF PUSH1 0x9 DUP3 ADD SLOAD AND ISZERO SWAP1 DUP2 PUSH2 0x1290 JUMPI JUMPDEST POP PUSH2 0x128D JUMPI DUP1 ISZERO PUSH2 0x1278 JUMPI PUSH1 0x0 NOT ADD DUP1 PUSH2 0x123C JUMP JUMPDEST PUSH1 0x24 PUSH1 0x0 PUSH4 0x4E487B71 PUSH1 0xE0 SHL DUP2 MSTORE PUSH1 0x11 PUSH1 0x4 MSTORE REVERT JUMPDEST SWAP1 JUMP JUMPDEST PUSH1 0x3 SWAP2 POP ADD SLOAD TIMESTAMP GT ISZERO CODESIZE PUSH2 0x1263 JUMP JUMPDEST ISZERO PUSH2 0x12A6 JUMPI JUMP JUMPDEST PUSH1 0x40 MLOAD PUSH3 0x461BCD PUSH1 0xE5 SHL DUP2 MSTORE PUSH1 0x20 PUSH1 0x4 DUP3 ADD MSTORE PUSH1 0x9 PUSH1 0x24 DUP3 ADD MSTORE PUSH9 0x2727AA2FA7ABA722A9 PUSH1 0xB9 SHL PUSH1 0x44 DUP3 ADD MSTORE PUSH1 0x64 SWAP1 REVERT JUMPDEST PUSH1 0x0 NOT DUP2 EQ PUSH2 0x12E6 JUMPI PUSH1 0x1 ADD SWAP1 JUMP JUMPDEST PUSH4 0x4E487B71 PUSH1 0xE0 SHL PUSH1 0x0 MSTORE PUSH1 0x11 PUSH1 0x4 MSTORE PUSH1 0x24 PUSH1 0x0 REVERT JUMPDEST SWAP2 SWAP1 DUP3 ADD DUP1 SWAP3 GT PUSH2 0x12E6 JUMPI JUMP JUMPDEST ISZERO PUSH2 0x1310 JUMPI JUMP JUMPDEST PUSH1 0x40 MLOAD PUSH3 0x461BCD PUSH1 0xE5 SHL DUP2 MSTORE PUSH1 0x20 PUSH1 0x4 DUP3 ADD MSTORE PUSH1 0x10 PUSH1 0x24 DUP3 ADD MSTORE PUSH16 0x1053149150511657D1561150D5551151 PUSH1 0x82 SHL PUSH1 0x44 DUP3 ADD MSTORE PUSH1 0x64 SWAP1 REVERT JUMPDEST PUSH1 0x40 MLOAD PUSH4 0xA9059CBB PUSH1 0xE0 SHL DUP2 MSTORE PUSH2 0x369 PUSH1 0x4 DUP3 ADD MSTORE PUSH1 0x24 DUP2 ADD DUP3 SWAP1 MSTORE SWAP1 PUSH1 0x20 DUP3 PUSH1 0x44 DUP2 PUSH1 0x0 PUSH32 0x0 PUSH1 0x1 PUSH1 0x1 PUSH1 0xA0 SHL SUB AND GAS CALL SWAP1 DUP2 ISZERO PUSH2 0x11AB JUMPI PUSH32 0x4D5D528C3041909DCFEBF20DCBCCDF9E5D759539338E3046CEE8B89478A24FBE SWAP3 PUSH1 0x20 SWAP3 PUSH2 0x13E3 JUMPI JUMPDEST POP PUSH2 0x13D7 DUP2 PUSH1 0xA SLOAD PUSH2 0x12FC JUMP JUMPDEST PUSH1 0xA SSTORE PUSH1 0x40 MLOAD SWAP1 DUP2 MSTORE LOG1 JUMP JUMPDEST PUSH2 0x13F9 SWAP1 DUP4 RETURNDATASIZE DUP2 GT PUSH2 0x576 JUMPI PUSH2 0x56A DUP2 DUP4 PUSH2 0x108E JUMP JUMPDEST POP CODESIZE PUSH2 0x13CA JUMP JUMPDEST PUSH1 0x3 SLOAD PUSH1 0x40 MLOAD PUSH4 0xA9059CBB PUSH1 0xE0 SHL DUP2 MSTORE PUSH1 0x1 PUSH1 0x1 PUSH1 0xA0 SHL SUB SWAP2 DUP3 AND PUSH1 0x4 DUP3 ADD MSTORE PUSH1 0x24 DUP2 ADD DUP4 SWAP1 MSTORE SWAP2 SWAP1 PUSH1 0x20 SWAP1 DUP4 SWAP1 PUSH1 0x44 SWAP1 DUP3 SWAP1 PUSH1 0x0 SWAP1 PUSH32 0x0 AND GAS CALL SWAP1 DUP2 ISZERO PUSH2 0x11AB JUMPI PUSH32 0x38F8A0C92F4C5B0B6877F878CB4C0C8D348A47B76D716C8E78F425043DF9515B SWAP3 PUSH1 0x40 SWAP3 PUSH2 0x14AA JUMPI JUMPDEST POP PUSH2 0x1498 DUP2 PUSH1 0xB SLOAD PUSH2 0x12FC JUMP JUMPDEST PUSH1 0xB SSTORE DUP2 MLOAD SWAP1 DUP2 MSTORE PUSH1 0x0 PUSH1 0x20 DUP3 ADD MSTORE LOG1 JUMP JUMPDEST PUSH2 0x14C1 SWAP1 PUSH1 0x20 RETURNDATASIZE DUP2 GT PUSH2 0x576 JUMPI PUSH2 0x56A DUP2 DUP4 PUSH2 0x108E JUMP JUMPDEST POP CODESIZE PUSH2 0x148B JUMP JUMPDEST PUSH1 0x3 SLOAD PUSH1 0x40 MLOAD PUSH4 0xA9059CBB PUSH1 0xE0 SHL DUP2 MSTORE PUSH1 0x1 PUSH1 0x1 PUSH1 0xA0 SHL SUB SWAP2 DUP3 AND PUSH1 0x4 DUP3 ADD MSTORE PUSH1 0x24 DUP2 ADD DUP4 SWAP1 MSTORE SWAP2 SWAP1 PUSH1 0x20 SWAP1 DUP4 SWAP1 PUSH1 0x44 SWAP1 DUP3 SWAP1 PUSH1 0x0 SWAP1 PUSH32 0x0 AND GAS CALL SWAP1 DUP2 ISZERO PUSH2 0x11AB JUMPI PUSH32 0xEF7AFF843F3420B45D9D058FF62BE0D87A95132DEA4A67B18925283BA05647DC SWAP3 PUSH1 0x20 SWAP3 PUSH2 0x156C JUMPI JUMPDEST POP PUSH2 0x1560 DUP2 PUSH1 0xC SLOAD PUSH2 0x12FC JUMP JUMPDEST PUSH1 0xC SSTORE PUSH1 0x40 MLOAD SWAP1 DUP2 MSTORE LOG1 JUMP JUMPDEST PUSH2 0x1582 SWAP1 DUP4 RETURNDATASIZE DUP2 GT PUSH2 0x576 JUMPI PUSH2 0x56A DUP2 DUP4 PUSH2 0x108E JUMP JUMPDEST POP CODESIZE PUSH2 0x1553 JUMP INVALID CALLER 0x1F 0x1F POP 0xAD CALLVALUE 0x4B 0xE3 0xDD PUSH2 0x7FA7 CALL GAS PUSH0 PUSH21 0xDEA96EA44D7386F6CA35E580747F271FA264697066 PUSH20 0x582212204C3CA8FA6AA0D5C6B05D70127432A2A9 0xDE PUSH8 0xAE0434EA6768DA13 0x5E EXTCODESIZE 0xD4 RETURNDATACOPY SWAP12 0xDE PUSH5 0x736F6C6343 STOP ADDMOD EQ STOP CALLER "},"methodIdentifiers":{"BURN_ADDRESS()":"fccc2813","MIN_QUORUM()":"5f3ad709","MIN_TOKENS_FOR_VOTING()":"fd10467e","VOTING_PERIOD()":"b1610d7e","canVote(address)":"adfaa72e","createProposal(uint256)":"5a43dc00","daoTreasury()":"79022a9f","dtgcToken()":"9f76ab7c","executeProposal(uint256)":"0d61b519","getActiveProposal()":"d7335d03","getProposal(uint256)":"c7f758a8","getVotingStats()":"76804a03","hasVoted(uint256,address)":"43859632","lpStakingContract()":"081b8ac3","owner()":"8da5cb5b","proposalCount()":"da35c664","proposals(uint256)":"013cf08b","pulsexRouter()":"b9b6f9b6","recoverToken(address,uint256)":"b29a8140","setDaoTreasury(address)":"a124df5d","setPulsexRouter(address,address)":"67380a14","setStakingContracts(address,address)":"94ca3b77","stakingContract()":"ee99205c","totalBurned()":"d89135cd","totalToLiquidity()":"6017779e","totalToTreasury()":"c1b57edb","transferOwnership(address)":"f2fde38b","urmomToken()":"640332d5","userVote(uint256,address)":"dc37596d","vote(uint256,uint8)":"943e8216"}}}}}