{"contracts/DTGCLPStakingV2.sol":{"DTGCLPStakingV2":{"abi":[{"inputs":[{"internalType":"address","name":"_lpToken","type":"address"},{"internalType":"address","name":"_rewardToken","type":"address"},{"internalType":"address","name":"_dtgcToken","type":"address"},{"internalType":"address","name":"_devWallet","type":"address"},{"internalType":"address","name":"_daoTreasury","type":"address"},{"internalType":"address","name":"_daoVotingPool","type":"address"}],"stateMutability":"nonpayable","type":"constructor"},{"anonymous":false,"inputs":[{"indexed":false,"internalType":"uint256","name":"devAmount","type":"uint256"},{"indexed":false,"internalType":"uint256","name":"daoVotingAmount","type":"uint256"}],"name":"EESCollected","type":"event"},{"anonymous":false,"inputs":[{"indexed":true,"internalType":"address","name":"user","type":"address"},{"indexed":false,"internalType":"uint256","name":"returned","type":"uint256"},{"indexed":false,"internalType":"uint256","name":"devFee","type":"uint256"},{"indexed":false,"internalType":"uint256","name":"daoVotingFee","type":"uint256"}],"name":"EmergencyWithdrawn","type":"event"},{"anonymous":false,"inputs":[{"indexed":true,"internalType":"address","name":"user","type":"address"},{"indexed":false,"internalType":"uint256","name":"reward","type":"uint256"}],"name":"RewardsClaimed","type":"event"},{"anonymous":false,"inputs":[{"indexed":true,"internalType":"address","name":"user","type":"address"},{"indexed":false,"internalType":"uint256","name":"amount","type":"uint256"},{"indexed":false,"internalType":"uint256","name":"principal","type":"uint256"},{"indexed":false,"internalType":"uint256","name":"unlockTime","type":"uint256"}],"name":"Staked","type":"event"},{"anonymous":false,"inputs":[{"indexed":true,"internalType":"address","name":"user","type":"address"},{"indexed":false,"internalType":"uint256","name":"lpAmount","type":"uint256"},{"indexed":false,"internalType":"uint256","name":"rewards","type":"uint256"},{"indexed":false,"internalType":"uint256","name":"fees","type":"uint256"}],"name":"Withdrawn","type":"event"},{"inputs":[],"name":"BASIS_POINTS","outputs":[{"internalType":"uint256","name":"","type":"uint256"}],"stateMutability":"view","type":"function"},{"inputs":[],"name":"BOOST_PRECISION","outputs":[{"internalType":"uint256","name":"","type":"uint256"}],"stateMutability":"view","type":"function"},{"inputs":[],"name":"DAO_FEE_SHARE","outputs":[{"internalType":"uint256","name":"","type":"uint256"}],"stateMutability":"view","type":"function"},{"inputs":[],"name":"DEV_FEE_SHARE","outputs":[{"internalType":"uint256","name":"","type":"uint256"}],"stateMutability":"view","type":"function"},{"inputs":[],"name":"DIAMOND_APR","outputs":[{"internalType":"uint256","name":"","type":"uint256"}],"stateMutability":"view","type":"function"},{"inputs":[],"name":"DIAMOND_BONUS","outputs":[{"internalType":"uint256","name":"","type":"uint256"}],"stateMutability":"view","type":"function"},{"inputs":[],"name":"DIAMOND_LOCK","outputs":[{"internalType":"uint256","name":"","type":"uint256"}],"stateMutability":"view","type":"function"},{"inputs":[],"name":"EES_DAO_SHARE","outputs":[{"internalType":"uint256","name":"","type":"uint256"}],"stateMutability":"view","type":"function"},{"inputs":[],"name":"EES_DEV_SHARE","outputs":[{"internalType":"uint256","name":"","type":"uint256"}],"stateMutability":"view","type":"function"},{"inputs":[],"name":"EES_PENALTY","outputs":[{"internalType":"uint256","name":"","type":"uint256"}],"stateMutability":"view","type":"function"},{"inputs":[],"name":"ENTRY_FEE","outputs":[{"internalType":"uint256","name":"","type":"uint256"}],"stateMutability":"view","type":"function"},{"inputs":[],"name":"EXIT_FEE","outputs":[{"internalType":"uint256","name":"","type":"uint256"}],"stateMutability":"view","type":"function"},{"inputs":[],"name":"MAX_BOOST","outputs":[{"internalType":"uint256","name":"","type":"uint256"}],"stateMutability":"view","type":"function"},{"inputs":[],"name":"MIN_TOKENS_FOR_VOTING","outputs":[{"internalType":"uint256","name":"","type":"uint256"}],"stateMutability":"view","type":"function"},{"inputs":[{"internalType":"address","name":"user","type":"address"}],"name":"calculateBonus","outputs":[{"internalType":"uint256","name":"","type":"uint256"}],"stateMutability":"view","type":"function"},{"inputs":[{"internalType":"address","name":"user","type":"address"}],"name":"calculateReward","outputs":[{"internalType":"uint256","name":"","type":"uint256"}],"stateMutability":"view","type":"function"},{"inputs":[{"internalType":"address","name":"user","type":"address"}],"name":"canVote","outputs":[{"internalType":"bool","name":"","type":"bool"}],"stateMutability":"view","type":"function"},{"inputs":[],"name":"claimRewards","outputs":[],"stateMutability":"nonpayable","type":"function"},{"inputs":[],"name":"daoTreasury","outputs":[{"internalType":"address","name":"","type":"address"}],"stateMutability":"view","type":"function"},{"inputs":[],"name":"daoVotingPool","outputs":[{"internalType":"address","name":"","type":"address"}],"stateMutability":"view","type":"function"},{"inputs":[],"name":"devWallet","outputs":[{"internalType":"address","name":"","type":"address"}],"stateMutability":"view","type":"function"},{"inputs":[],"name":"dtgcToken","outputs":[{"internalType":"contract IPRC20","name":"","type":"address"}],"stateMutability":"view","type":"function"},{"inputs":[],"name":"eesPoolTotal","outputs":[{"internalType":"uint256","name":"","type":"uint256"}],"stateMutability":"view","type":"function"},{"inputs":[],"name":"emergencyWithdraw","outputs":[],"stateMutability":"nonpayable","type":"function"},{"inputs":[{"internalType":"uint256","name":"amount","type":"uint256"}],"name":"fundRewards","outputs":[],"stateMutability":"nonpayable","type":"function"},{"inputs":[{"internalType":"address","name":"user","type":"address"}],"name":"getBoostMultiplier","outputs":[{"internalType":"uint256","name":"","type":"uint256"}],"stateMutability":"view","type":"function"},{"inputs":[],"name":"getContractStats","outputs":[{"internalType":"uint256","name":"_totalStaked","type":"uint256"},{"internalType":"uint256","name":"_totalRewards","type":"uint256"},{"internalType":"uint256","name":"_eesPool","type":"uint256"},{"internalType":"uint256","name":"_apr","type":"uint256"},{"internalType":"uint256","name":"_stakers","type":"uint256"}],"stateMutability":"view","type":"function"},{"inputs":[{"internalType":"address","name":"user","type":"address"}],"name":"getPosition","outputs":[{"internalType":"uint256","name":"amount","type":"uint256"},{"internalType":"uint256","name":"startTime","type":"uint256"},{"internalType":"uint256","name":"unlockTime","type":"uint256"},{"internalType":"uint256","name":"pendingReward","type":"uint256"},{"internalType":"uint256","name":"pendingBonus","type":"uint256"},{"internalType":"uint256","name":"boostMultiplier","type":"uint256"},{"internalType":"bool","name":"isActive","type":"bool"},{"internalType":"uint256","name":"timeRemaining","type":"uint256"}],"stateMutability":"view","type":"function"},{"inputs":[{"internalType":"address","name":"","type":"address"}],"name":"isVerifiedStaker","outputs":[{"internalType":"bool","name":"","type":"bool"}],"stateMutability":"view","type":"function"},{"inputs":[{"internalType":"address","name":"","type":"address"}],"name":"lifetimeRewards","outputs":[{"internalType":"uint256","name":"","type":"uint256"}],"stateMutability":"view","type":"function"},{"inputs":[],"name":"lpToken","outputs":[{"internalType":"contract IPRC20","name":"","type":"address"}],"stateMutability":"view","type":"function"},{"inputs":[],"name":"owner","outputs":[{"internalType":"address","name":"","type":"address"}],"stateMutability":"view","type":"function"},{"inputs":[{"internalType":"address","name":"","type":"address"}],"name":"positions","outputs":[{"internalType":"uint256","name":"amount","type":"uint256"},{"internalType":"uint256","name":"startTime","type":"uint256"},{"internalType":"uint256","name":"unlockTime","type":"uint256"},{"internalType":"uint256","name":"rewardDebt","type":"uint256"},{"internalType":"bool","name":"isActive","type":"bool"}],"stateMutability":"view","type":"function"},{"inputs":[{"internalType":"address","name":"token","type":"address"},{"internalType":"uint256","name":"amount","type":"uint256"}],"name":"recoverToken","outputs":[],"stateMutability":"nonpayable","type":"function"},{"inputs":[],"name":"rewardToken","outputs":[{"internalType":"contract IPRC20","name":"","type":"address"}],"stateMutability":"view","type":"function"},{"inputs":[{"internalType":"address","name":"_dao","type":"address"}],"name":"setDaoTreasury","outputs":[],"stateMutability":"nonpayable","type":"function"},{"inputs":[{"internalType":"address","name":"_voting","type":"address"}],"name":"setDaoVotingPool","outputs":[],"stateMutability":"nonpayable","type":"function"},{"inputs":[{"internalType":"address","name":"_dev","type":"address"}],"name":"setDevWallet","outputs":[],"stateMutability":"nonpayable","type":"function"},{"inputs":[{"internalType":"uint256","name":"amount","type":"uint256"}],"name":"stake","outputs":[],"stateMutability":"nonpayable","type":"function"},{"inputs":[],"name":"totalRewardsDistributed","outputs":[{"internalType":"uint256","name":"","type":"uint256"}],"stateMutability":"view","type":"function"},{"inputs":[],"name":"totalStaked","outputs":[{"internalType":"uint256","name":"","type":"uint256"}],"stateMutability":"view","type":"function"},{"inputs":[],"name":"totalStakers","outputs":[{"internalType":"uint256","name":"","type":"uint256"}],"stateMutability":"view","type":"function"},{"inputs":[{"internalType":"address","name":"_new","type":"address"}],"name":"transferOwnership","outputs":[],"stateMutability":"nonpayable","type":"function"},{"inputs":[],"name":"withdraw","outputs":[],"stateMutability":"nonpayable","type":"function"}],"evm":{"bytecode":{"linkReferences":{},"object":"60e034620002a857601f62001fcf38819003918201601f191683019291906001600160401b03841183851017620002ad578160c09284926040968752833981010312620002a8576200005181620002c3565b60209062000061828401620002c3565b6200006e858501620002c3565b6200007c60608601620002c3565b916200009960a06200009160808901620002c3565b9701620002c3565b936001600160a01b0390811691821562000277578116928315620002425781169384156200020f578116968715620001dd578116948515620001ab571694851562000177575060805260a05260c05260018060a01b0319928360015416176001558260025416176002558160035416176003553390600054161760005551611cf69081620002d982396080518181816103f0015281816106c90152818161096c01528181610fee01526111fe015260a05181818161024401528181610d9e01528181611352015261159b015260c0518181816108810152610d0e0152f35b60649088519062461bcd60e51b82526004820152600e60248201526d494e56414c49445f564f54494e4760901b6044820152fd5b885162461bcd60e51b815260048101889052600b60248201526a494e56414c49445f44414f60a81b6044820152606490fd5b885162461bcd60e51b815260048101889052600b60248201526a24a72b20a624a22fa222ab60a91b6044820152606490fd5b885162461bcd60e51b815260048101889052600c60248201526b494e56414c49445f4454474360a01b6044820152606490fd5b885162461bcd60e51b815260048101889052600e60248201526d1253959053125117d49155d0549160921b6044820152606490fd5b885162461bcd60e51b815260048101889052600a6024820152690494e56414c49445f4c560b41b6044820152606490fd5b600080fd5b634e487b7160e01b600052604160045260246000fd5b51906001600160a01b0382168203620002a85756fe608060408181526004918236101561001657600080fd5b600092833560e01c918263019f7b671461182b57508163143ae5b11461180e57816316c197391461171c5781631d336d62146116e45781631f53ac021461169a578163315865df1461167d5781633367fe1614611660578163372500ab146114eb5781633ccfd60b146110f9578163432c4fa2146110dc5781634961ca9f146110c057816352628d9a146110a157816355f57510146110395781635c6771921461101d5781635fcbd28514610fd95781636e8a56d914610f8f5781636f371efe14610f695781637319e5aa14610f43578163751a2d6414610f0557816376bce55b14610ee857816379022a9f14610ebf578163817b1cd214610ea15781638698903814610e825781638da5cb5b14610e5a5781638ea5220f14610e3157816393707a1914610d3d5781639f0e56dd146102735781639f76ab7c14610cf9578163a124df5d14610caf578163a694fc3a14610911578163adfaa72e14610817578163b29a81401461068e578163c6580d1214610273578163cc6db2da146102e0578163d805e62d14610670578163d82e396214610643578163db2e21bc14610329578163dfe6b5d6146102e557508063e1f1c4a7146102e0578063ee172546146102c2578063f2fde38b14610278578063f6d361cc14610273578063f7c618c1146102305763fd10467e1461020957600080fd5b3461022c578160031936011261022c576020905169d3c21bcecceda10000008152f35b5080fd5b503461022c578160031936011261022c57517f00000000000000000000000000000000000000000000000000000000000000006001600160a01b03168152602090f35b61186b565b82346102bf5760203660031901126102bf57610292611850565b8154906001600160a01b03906102ab3383851614611c88565b16906001600160601b0360a01b1617815580f35b80fd5b503461022c578160031936011261022c576020906005549051908152f35b611888565b90503461032557826003193601126103255760a092505490600554906006549060075492815194855260208501528301526104b060608301526080820152f35b8280fd5b83833461022c578160031936011261022c57338252602060088152818320908482019061035960ff835416611c4e565b825460c881029381159482810460c8148617156106305761271080910495610708908185029185830414171561061d5704938791906103ac6103a48761039f8a886118f9565b6118f9565b948b546118f9565b8a556103ba8660065461192f565b600655805460ff1916905555600154855163a9059cbb60e01b8082526001600160a01b039283168a8301908152602081018890527f000000000000000000000000000000000000000000000000000000000000000084169a9391929086908290819003604001818d8f5af1908115610613578a916105f6575b50156105be57600354885183815291166001600160a01b031683820190815260208101879052859082908c9082908d90829060400103925af19081156105b4578991610597575b501561055f57865190815233918101918252602082018390529697839188919082908b90829060400103925af1958615610555577f7dbf5014c70ce465b3faa9272d46a09414d933de54728a335f7df4bea2bc2ae1966104e1918991610528575b50611b96565b8451908152602081018490526040810183905233907f45df01186fed55abc3ac9cfa82408e10553b9b93a8f0c0b4c2965a7bedb267ec90606090a28351928352820152a180f35b6105489150843d861161054e575b61054081836118d7565b810190611b7e565b896104db565b503d610536565b85513d89823e3d90fd5b865162461bcd60e51b81528083018590526012602482015271111053d7d411539053151657d1905253115160721b6044820152606490fd5b6105ae9150853d871161054e5761054081836118d7565b8a61047a565b88513d8b823e3d90fd5b875162461bcd60e51b8152808401869052601260248201527111115597d411539053151657d1905253115160721b6044820152606490fd5b61060d9150863d881161054e5761054081836118d7565b8b610433565b89513d8c823e3d90fd5b634e487b7160e01b895260118a52602489fd5b634e487b7160e01b885260118952602488fd5b50503461022c57602036600319011261022c57602090610669610664611850565b611a1d565b9051908152f35b50503461022c578160031936011261022c57602090516276a7008152f35b8391503461022c578260031936011261022c576106a9611850565b8254602435926001600160a01b03918216916106c6338414611c88565b807f000000000000000000000000000000000000000000000000000000000000000016931692808414610765575b50855163a9059cbb60e01b81526001600160a01b0390921690820190815260208181019490945293949093909291849182908790829060400103925af190811561075c5750610741575080f35b6107589060203d811161054e5761054081836118d7565b5080f35b513d84823e3d90fd5b60206024918851928380926370a0823160e01b825230878301525afa801561080d5786906107d6575b61079b91508254906118f9565b84116107a757866106f4565b606490602087519162461bcd60e51b83528201526009602482015268141493d51150d5115160ba1b6044820152fd5b506020813d8211610805575b816107ef602093836118d7565b810103126108015761079b905161078e565b8580fd5b3d91506107e2565b87513d88823e3d90fd5b9190503461032557602092836003193601126102bf576001600160a01b03908482610840611850565b16808352600a825260ff8584205416958615610862575b828787519015158152f35b856024929394959697505195869384926370a0823160e01b84528301527f0000000000000000000000000000000000000000000000000000000000000000165afa9081156109065780916108cc575b5069d3c21bcecceda100000091501015903880848180610857565b90508382813d83116108ff575b6108e381836118d7565b810103126102bf575069d3c21bcecceda10000009051386108b1565b503d6108d9565b8351903d90823e3d90fd5b83833461022c57602080600319360112610325578335918215610c7e573384526008825260ff85828620015416610c495780516323b872dd60e01b815233868201908152306020820152604081018590526001600160a01b037f000000000000000000000000000000000000000000000000000000000000000081169392909185908290819060600103818a885af1908115610c3f57906109b8918891610c285750611b96565b6064850292858404606403610c155761271080940493610190808802908882040361061d570491889190610a29876109f48661039f8a8d6118f9565b9783600154168851938492839263a9059cbb60e01b998a8552840160209093929193604081019460018060a01b031681520152565b03818d875af1908115610c0b5788949392610a4e8d938d938491610bee575b50611bd4565b6002548851958652166001600160a01b0316918401918252602082019590955291938492839190829060400103925af1908115610be45790610a97918791610bc7575b50611c11565b6276a700420192834211610bb457600a825191610ab3836118a5565b848352888184019342855285810188815260608201908b8252608083019660018852338d5260088652888d209351845551600184015551600283015551600382015501925115159260ff199360ff858354169116179055610b15858a5461192f565b89553388525281862090815460ff811615610b6d575b50509051938452506020830152604082015233907fb4caaf29adda3eefee3ad552a8e85058589bf834c7466cae4ee58787f70589ed9080606081015b0390a280f35b1660011790556007546000198114610bb4576001016007559394508493610b677fb4caaf29adda3eefee3ad552a8e85058589bf834c7466cae4ee58787f70589ed88610b2b565b634e487b7160e01b865260118752602486fd5b610bde9150853d871161054e5761054081836118d7565b88610a91565b82513d88823e3d90fd5b610c059150883d8a1161054e5761054081836118d7565b8f610a48565b86513d8c823e3d90fd5b634e487b7160e01b875260118852602487fd5b6105489150863d881161054e5761054081836118d7565b83513d89823e3d90fd5b5162461bcd60e51b815280850191909152600f60248201526e504f534954494f4e5f45584953545360881b6044820152606490fd5b5162461bcd60e51b815280850191909152600b60248201526a16915493d7d05353d5539560aa1b6044820152606490fd5b83346102bf5760203660031901126102bf57610cc9611850565b81546001600160a01b039190610ce29083163314611c88565b166001600160601b0360a01b600254161760025580f35b50503461022c578160031936011261022c57517f00000000000000000000000000000000000000000000000000000000000000006001600160a01b03168152602090f35b919050346103255760203660031901126103255782546001600160a01b0390610d699082163314611c88565b81516323b872dd60e01b81523384820190815230602082810191909152853560408301529192839182908890829060600103927f0000000000000000000000000000000000000000000000000000000000000000165af1908115610e27578491610e09575b5015610dd8578280f35b906020606492519162461bcd60e51b8352820152600b60248201526a1195539117d1905253115160aa1b6044820152fd5b610e21915060203d811161054e5761054081836118d7565b38610dce565b82513d86823e3d90fd5b50503461022c578160031936011261022c5760015490516001600160a01b039091168152602090f35b50503461022c578160031936011261022c57905490516001600160a01b039091168152602090f35b50503461022c578160031936011261022c576020906007549051908152f35b90503461032557826003193601126103255760209250549051908152f35b50503461022c578160031936011261022c5760025490516001600160a01b039091168152602090f35b50503461022c578160031936011261022c57602090516107d08152f35b50503461022c57602036600319011261022c5760209160ff9082906001600160a01b03610f30611850565b168152600a855220541690519015158152f35b50503461022c57602036600319011261022c57602090610669610f64611850565b611aed565b50503461022c57602036600319011261022c57602090610669610f8a611850565b61193c565b83346102bf5760203660031901126102bf57610fa9611850565b81546001600160a01b039190610fc29083163314611c88565b166001600160601b0360a01b600354161760035580f35b50503461022c578160031936011261022c57517f00000000000000000000000000000000000000000000000000000000000000006001600160a01b03168152602090f35b50503461022c578160031936011261022c576020905160648152f35b919050346103255760203660031901126103255760a09281906001600160a01b03611062611850565b16815260086020522080549260018201549260ff6002840154926003850154940154169381519586526020860152840152606083015215156080820152f35b50503461022c578160031936011261022c576020906006549051908152f35b50503461022c578160031936011261022c576020905160c88152f35b50503461022c578160031936011261022c57602090516107088152f35b8391503461022c578160031936011261022c5733825260209260088452808320938285019461112b60ff875416611c4e565b600281015442106114ba5780549361115461114533611a1d565b61114e33611aed565b9061192f565b9260648602928615938781046064148517156114a7576127108091049461019090818a02918a83041417156114945704988891906111a16111998c61039f898d6118f9565b9986546118f9565b85556111af8760055461192f565b600555338352600984528783206111c788825461192f565b9055805460ff1916905555600154855163a9059cbb60e01b8082526001600160a01b039283168583019081526020810187905290917f000000000000000000000000000000000000000000000000000000000000000084169185908290819003604001818e865af190811561146d5790611247918c916114775750611bd4565b60025488518381529084166001600160a01b0316868201908152602081018d9052859082908d90829081906040010391865af190811561146d578b9261129887936112bb9386916114505750611c11565b8a5185815233898201908152602081018e90529094859384928391604090910190565b03925af1908115611446578a91611429575b50156113f1578561132b575b5050505061130d7f75e161b3e824b114fc1a33274bd7091918dd4e639cede50b78b15a4eea956a21949596610b679261192f565b92519283923396846040919493926060820195825260208201520152565b865190815233848201908152602081018790529091839183919082908c90829060400103927f0000000000000000000000000000000000000000000000000000000000000000165af19081156113e75788916113ca575b501561138f5780806112d9565b845162461bcd60e51b8152918201526016602482015275149155d0549117d514905394d1915497d1905253115160521b604482015260649150fd5b6113e19150823d841161054e5761054081836118d7565b89611382565b86513d8a823e3d90fd5b865162461bcd60e51b81528085018490526012602482015271131417d514905394d1915497d1905253115160721b6044820152606490fd5b6114409150843d861161054e5761054081836118d7565b8b6112cd565b88513d8c823e3d90fd5b6114679150853d871161054e5761054081836118d7565b38610a91565b89513d8d823e3d90fd5b61148e9150863d881161054e5761054081836118d7565b8d610a48565b634e487b7160e01b8a526011855260248afd5b634e487b7160e01b895260118452602489fd5b50905162461bcd60e51b815291820152600c60248201526b14d512531317d313d0d2d15160a21b6044820152606490fd5b9050346103255782600319360112610325573383526020600881528284209161151960ff8285015416611c4e565b61152233611a1d565b92831561163157836115969282600386940161153f84825461192f565b90556001429101556115538260055461192f565b6005553388526009835286882061156b83825461192f565b9055865163a9059cbb60e01b8152339181019182526020820192909252909283918291604090910190565b0381887f00000000000000000000000000000000000000000000000000000000000000006001600160a01b03165af1908115611627577ffc30cddea38e2bf4d6ea7d3f9ed3b6ad7f176419f4963bd81318067a4aee73fe93949161160091879161160a5750611b96565b519283523392a280f35b6116219150843d861161054e5761054081836118d7565b386104db565b84513d87823e3d90fd5b5060649184519162461bcd60e51b8352820152600a6024820152694e4f5f5245574152445360b01b6044820152fd5b50503461022c578160031936011261022c57602090516104b08152f35b50503461022c578160031936011261022c5760209051613a988152f35b83346102bf5760203660031901126102bf576116b4611850565b81546001600160a01b0391906116cd9083163314611c88565b166001600160601b0360a01b600154161760015580f35b50503461022c57602036600319011261022c5760209181906001600160a01b0361170c611850565b1681526009845220549051908152f35b83833461022c57602036600319011261022c576101009261173b611850565b6001600160a01b038116845260086020528284208351939092919061175f856118a5565b835485526001840154956020860196875260ff60028601549483880196868852600381015460608a0152015416936080870194151580865280611805575b156117fe576117ae915042906118f9565b945b51955193516117be83611a1d565b916117d16117cb85611aed565b9461193c565b9451151595815198895260208901528701526060860152608085015260a084015260c083015260e0820152f35b50946117b0565b5080421061179d565b50503461022c578160031936011261022c57602090516101908152f35b84903461022c578160031936011261022c576003546001600160a01b03168152602090f35b600435906001600160a01b038216820361186657565b600080fd5b346118665760003660031901126118665760206040516101f48152f35b346118665760003660031901126118665760206040516127108152f35b60a0810190811067ffffffffffffffff8211176118c157604052565b634e487b7160e01b600052604160045260246000fd5b90601f8019910116810190811067ffffffffffffffff8211176118c157604052565b9190820391821161190657565b634e487b7160e01b600052601160045260246000fd5b8181029291811591840414171561190657565b9190820180921161190657565b6001600160a01b03166000908152600860205260408082209051608090611962816118a5565b82549081815260ff6004600186015495866020850152600281015460408501526003810154606085015201541615908115938491015291611a14575b50611a0c576119ad90426118f9565b906276a70080831015611a035761138892808402938404036119ef57612710920482018092116119db575090565b634e487b7160e01b81526011600452602490fd5b634e487b7160e01b82526011600452602482fd5b505050613a9890565b505061271090565b9050153861199e565b60018060a01b03811660005260086020526040600020604051611a3f816118a5565b81548082526001830154908160208401526002840154604084015260ff600460038601549560608601968752015416159081159182608086015291611ae4575b50611adb57611a8e90426118f9565b9051906104b09182810292818404149015171561190657611ad893611ac964496cebb800611ac2611acf946127109661191c565b049161193c565b9061191c565b049051906118f9565b90565b50505050600090565b90501538611a7f565b60018060a01b031660005260086020526040600020608060405191611b11836118a5565b8054928381526001820154602082015260ff60046002840154938460408501526003810154606085015201541615908115938491015291611b74575b50611b6e576101f49081810291818304149015171561190657612710900490565b50600090565b9050421038611b4d565b90816020910312611866575180151581036118665790565b15611b9d57565b60405162461bcd60e51b815260206004820152600f60248201526e1514905394d1915497d19052531151608a1b6044820152606490fd5b15611bdb57565b60405162461bcd60e51b815260206004820152600e60248201526d11115597d1915157d1905253115160921b6044820152606490fd5b15611c1857565b60405162461bcd60e51b815260206004820152600e60248201526d111053d7d1915157d1905253115160921b6044820152606490fd5b15611c5557565b60405162461bcd60e51b815260206004820152600b60248201526a2727afa827a9a4aa24a7a760a91b6044820152606490fd5b15611c8f57565b60405162461bcd60e51b81526020600482015260096024820152682727aa2fa7aba722a960b91b6044820152606490fdfea264697066735822122075211375ec33a9ad50afe5496df008f814287ff4c8ee700a7221c2058955fb1364736f6c63430008140033","opcodes":"PUSH1 0xE0 CALLVALUE PUSH3 0x2A8 JUMPI PUSH1 0x1F PUSH3 0x1FCF CODESIZE DUP2 SWAP1 SUB SWAP2 DUP3 ADD PUSH1 0x1F NOT AND DUP4 ADD SWAP3 SWAP2 SWAP1 PUSH1 0x1 PUSH1 0x1 PUSH1 0x40 SHL SUB DUP5 GT DUP4 DUP6 LT OR PUSH3 0x2AD JUMPI DUP2 PUSH1 0xC0 SWAP3 DUP5 SWAP3 PUSH1 0x40 SWAP7 DUP8 MSTORE DUP4 CODECOPY DUP2 ADD SUB SLT PUSH3 0x2A8 JUMPI PUSH3 0x51 DUP2 PUSH3 0x2C3 JUMP JUMPDEST PUSH1 0x20 SWAP1 PUSH3 0x61 DUP3 DUP5 ADD PUSH3 0x2C3 JUMP JUMPDEST PUSH3 0x6E DUP6 DUP6 ADD PUSH3 0x2C3 JUMP JUMPDEST PUSH3 0x7C PUSH1 0x60 DUP7 ADD PUSH3 0x2C3 JUMP JUMPDEST SWAP2 PUSH3 0x99 PUSH1 0xA0 PUSH3 0x91 PUSH1 0x80 DUP10 ADD PUSH3 0x2C3 JUMP JUMPDEST SWAP8 ADD PUSH3 0x2C3 JUMP JUMPDEST SWAP4 PUSH1 0x1 PUSH1 0x1 PUSH1 0xA0 SHL SUB SWAP1 DUP2 AND SWAP2 DUP3 ISZERO PUSH3 0x277 JUMPI DUP2 AND SWAP3 DUP4 ISZERO PUSH3 0x242 JUMPI DUP2 AND SWAP4 DUP5 ISZERO PUSH3 0x20F JUMPI DUP2 AND SWAP7 DUP8 ISZERO PUSH3 0x1DD JUMPI DUP2 AND SWAP5 DUP6 ISZERO PUSH3 0x1AB JUMPI AND SWAP5 DUP6 ISZERO PUSH3 0x177 JUMPI POP PUSH1 0x80 MSTORE PUSH1 0xA0 MSTORE PUSH1 0xC0 MSTORE PUSH1 0x1 DUP1 PUSH1 0xA0 SHL SUB NOT SWAP3 DUP4 PUSH1 0x1 SLOAD AND OR PUSH1 0x1 SSTORE DUP3 PUSH1 0x2 SLOAD AND OR PUSH1 0x2 SSTORE DUP2 PUSH1 0x3 SLOAD AND OR PUSH1 0x3 SSTORE CALLER SWAP1 PUSH1 0x0 SLOAD AND OR PUSH1 0x0 SSTORE MLOAD PUSH2 0x1CF6 SWAP1 DUP2 PUSH3 0x2D9 DUP3 CODECOPY PUSH1 0x80 MLOAD DUP2 DUP2 DUP2 PUSH2 0x3F0 ADD MSTORE DUP2 DUP2 PUSH2 0x6C9 ADD MSTORE DUP2 DUP2 PUSH2 0x96C ADD MSTORE DUP2 DUP2 PUSH2 0xFEE ADD MSTORE PUSH2 0x11FE ADD MSTORE PUSH1 0xA0 MLOAD DUP2 DUP2 DUP2 PUSH2 0x244 ADD MSTORE DUP2 DUP2 PUSH2 0xD9E ADD MSTORE DUP2 DUP2 PUSH2 0x1352 ADD MSTORE PUSH2 0x159B ADD MSTORE PUSH1 0xC0 MLOAD DUP2 DUP2 DUP2 PUSH2 0x881 ADD MSTORE PUSH2 0xD0E ADD MSTORE RETURN JUMPDEST PUSH1 0x64 SWAP1 DUP9 MLOAD SWAP1 PUSH3 0x461BCD PUSH1 0xE5 SHL DUP3 MSTORE PUSH1 0x4 DUP3 ADD MSTORE PUSH1 0xE PUSH1 0x24 DUP3 ADD MSTORE PUSH14 0x494E56414C49445F564F54494E47 PUSH1 0x90 SHL PUSH1 0x44 DUP3 ADD MSTORE REVERT JUMPDEST DUP9 MLOAD PUSH3 0x461BCD PUSH1 0xE5 SHL DUP2 MSTORE PUSH1 0x4 DUP2 ADD DUP9 SWAP1 MSTORE PUSH1 0xB PUSH1 0x24 DUP3 ADD MSTORE PUSH11 0x494E56414C49445F44414F PUSH1 0xA8 SHL PUSH1 0x44 DUP3 ADD MSTORE PUSH1 0x64 SWAP1 REVERT JUMPDEST DUP9 MLOAD PUSH3 0x461BCD PUSH1 0xE5 SHL DUP2 MSTORE PUSH1 0x4 DUP2 ADD DUP9 SWAP1 MSTORE PUSH1 0xB PUSH1 0x24 DUP3 ADD MSTORE PUSH11 0x24A72B20A624A22FA222AB PUSH1 0xA9 SHL PUSH1 0x44 DUP3 ADD MSTORE PUSH1 0x64 SWAP1 REVERT JUMPDEST DUP9 MLOAD PUSH3 0x461BCD PUSH1 0xE5 SHL DUP2 MSTORE PUSH1 0x4 DUP2 ADD DUP9 SWAP1 MSTORE PUSH1 0xC PUSH1 0x24 DUP3 ADD MSTORE PUSH12 0x494E56414C49445F44544743 PUSH1 0xA0 SHL PUSH1 0x44 DUP3 ADD MSTORE PUSH1 0x64 SWAP1 REVERT JUMPDEST DUP9 MLOAD PUSH3 0x461BCD PUSH1 0xE5 SHL DUP2 MSTORE PUSH1 0x4 DUP2 ADD DUP9 SWAP1 MSTORE PUSH1 0xE PUSH1 0x24 DUP3 ADD MSTORE PUSH14 0x1253959053125117D49155D05491 PUSH1 0x92 SHL PUSH1 0x44 DUP3 ADD MSTORE PUSH1 0x64 SWAP1 REVERT JUMPDEST DUP9 MLOAD PUSH3 0x461BCD PUSH1 0xE5 SHL DUP2 MSTORE PUSH1 0x4 DUP2 ADD DUP9 SWAP1 MSTORE PUSH1 0xA PUSH1 0x24 DUP3 ADD MSTORE PUSH10 0x494E56414C49445F4C5 PUSH1 0xB4 SHL PUSH1 0x44 DUP3 ADD MSTORE PUSH1 0x64 SWAP1 REVERT JUMPDEST PUSH1 0x0 DUP1 REVERT JUMPDEST PUSH4 0x4E487B71 PUSH1 0xE0 SHL PUSH1 0x0 MSTORE PUSH1 0x41 PUSH1 0x4 MSTORE PUSH1 0x24 PUSH1 0x0 REVERT JUMPDEST MLOAD SWAP1 PUSH1 0x1 PUSH1 0x1 PUSH1 0xA0 SHL SUB DUP3 AND DUP3 SUB PUSH3 0x2A8 JUMPI JUMP INVALID PUSH1 0x80 PUSH1 0x40 DUP2 DUP2 MSTORE PUSH1 0x4 SWAP2 DUP3 CALLDATASIZE LT ISZERO PUSH2 0x16 JUMPI PUSH1 0x0 DUP1 REVERT JUMPDEST PUSH1 0x0 SWAP3 DUP4 CALLDATALOAD PUSH1 0xE0 SHR SWAP2 DUP3 PUSH4 0x19F7B67 EQ PUSH2 0x182B JUMPI POP DUP2 PUSH4 0x143AE5B1 EQ PUSH2 0x180E JUMPI DUP2 PUSH4 0x16C19739 EQ PUSH2 0x171C JUMPI DUP2 PUSH4 0x1D336D62 EQ PUSH2 0x16E4 JUMPI DUP2 PUSH4 0x1F53AC02 EQ PUSH2 0x169A JUMPI DUP2 PUSH4 0x315865DF EQ PUSH2 0x167D JUMPI DUP2 PUSH4 0x3367FE16 EQ PUSH2 0x1660 JUMPI DUP2 PUSH4 0x372500AB EQ PUSH2 0x14EB JUMPI DUP2 PUSH4 0x3CCFD60B EQ PUSH2 0x10F9 JUMPI DUP2 PUSH4 0x432C4FA2 EQ PUSH2 0x10DC JUMPI DUP2 PUSH4 0x4961CA9F EQ PUSH2 0x10C0 JUMPI DUP2 PUSH4 0x52628D9A EQ PUSH2 0x10A1 JUMPI DUP2 PUSH4 0x55F57510 EQ PUSH2 0x1039 JUMPI DUP2 PUSH4 0x5C677192 EQ PUSH2 0x101D JUMPI DUP2 PUSH4 0x5FCBD285 EQ PUSH2 0xFD9 JUMPI DUP2 PUSH4 0x6E8A56D9 EQ PUSH2 0xF8F JUMPI DUP2 PUSH4 0x6F371EFE EQ PUSH2 0xF69 JUMPI DUP2 PUSH4 0x7319E5AA EQ PUSH2 0xF43 JUMPI DUP2 PUSH4 0x751A2D64 EQ PUSH2 0xF05 JUMPI DUP2 PUSH4 0x76BCE55B EQ PUSH2 0xEE8 JUMPI DUP2 PUSH4 0x79022A9F EQ PUSH2 0xEBF JUMPI DUP2 PUSH4 0x817B1CD2 EQ PUSH2 0xEA1 JUMPI DUP2 PUSH4 0x86989038 EQ PUSH2 0xE82 JUMPI DUP2 PUSH4 0x8DA5CB5B EQ PUSH2 0xE5A JUMPI DUP2 PUSH4 0x8EA5220F EQ PUSH2 0xE31 JUMPI DUP2 PUSH4 0x93707A19 EQ PUSH2 0xD3D JUMPI DUP2 PUSH4 0x9F0E56DD EQ PUSH2 0x273 JUMPI DUP2 PUSH4 0x9F76AB7C EQ PUSH2 0xCF9 JUMPI DUP2 PUSH4 0xA124DF5D EQ PUSH2 0xCAF JUMPI DUP2 PUSH4 0xA694FC3A EQ PUSH2 0x911 JUMPI DUP2 PUSH4 0xADFAA72E EQ PUSH2 0x817 JUMPI DUP2 PUSH4 0xB29A8140 EQ PUSH2 0x68E JUMPI DUP2 PUSH4 0xC6580D12 EQ PUSH2 0x273 JUMPI DUP2 PUSH4 0xCC6DB2DA EQ PUSH2 0x2E0 JUMPI DUP2 PUSH4 0xD805E62D EQ PUSH2 0x670 JUMPI DUP2 PUSH4 0xD82E3962 EQ PUSH2 0x643 JUMPI DUP2 PUSH4 0xDB2E21BC EQ PUSH2 0x329 JUMPI DUP2 PUSH4 0xDFE6B5D6 EQ PUSH2 0x2E5 JUMPI POP DUP1 PUSH4 0xE1F1C4A7 EQ PUSH2 0x2E0 JUMPI DUP1 PUSH4 0xEE172546 EQ PUSH2 0x2C2 JUMPI DUP1 PUSH4 0xF2FDE38B EQ PUSH2 0x278 JUMPI DUP1 PUSH4 0xF6D361CC EQ PUSH2 0x273 JUMPI DUP1 PUSH4 0xF7C618C1 EQ PUSH2 0x230 JUMPI PUSH4 0xFD10467E EQ PUSH2 0x209 JUMPI PUSH1 0x0 DUP1 REVERT JUMPDEST CALLVALUE PUSH2 0x22C JUMPI DUP2 PUSH1 0x3 NOT CALLDATASIZE ADD SLT PUSH2 0x22C JUMPI PUSH1 0x20 SWAP1 MLOAD PUSH10 0xD3C21BCECCEDA1000000 DUP2 MSTORE RETURN JUMPDEST POP DUP1 REVERT JUMPDEST POP CALLVALUE PUSH2 0x22C JUMPI DUP2 PUSH1 0x3 NOT CALLDATASIZE ADD SLT PUSH2 0x22C JUMPI MLOAD PUSH32 0x0 PUSH1 0x1 PUSH1 0x1 PUSH1 0xA0 SHL SUB AND DUP2 MSTORE PUSH1 0x20 SWAP1 RETURN JUMPDEST PUSH2 0x186B JUMP JUMPDEST DUP3 CALLVALUE PUSH2 0x2BF JUMPI PUSH1 0x20 CALLDATASIZE PUSH1 0x3 NOT ADD SLT PUSH2 0x2BF JUMPI PUSH2 0x292 PUSH2 0x1850 JUMP JUMPDEST DUP2 SLOAD SWAP1 PUSH1 0x1 PUSH1 0x1 PUSH1 0xA0 SHL SUB SWAP1 PUSH2 0x2AB CALLER DUP4 DUP6 AND EQ PUSH2 0x1C88 JUMP JUMPDEST AND SWAP1 PUSH1 0x1 PUSH1 0x1 PUSH1 0x60 SHL SUB PUSH1 0xA0 SHL AND OR DUP2 SSTORE DUP1 RETURN JUMPDEST DUP1 REVERT JUMPDEST POP CALLVALUE PUSH2 0x22C JUMPI DUP2 PUSH1 0x3 NOT CALLDATASIZE ADD SLT PUSH2 0x22C JUMPI PUSH1 0x20 SWAP1 PUSH1 0x5 SLOAD SWAP1 MLOAD SWAP1 DUP2 MSTORE RETURN JUMPDEST PUSH2 0x1888 JUMP JUMPDEST SWAP1 POP CALLVALUE PUSH2 0x325 JUMPI DUP3 PUSH1 0x3 NOT CALLDATASIZE ADD SLT PUSH2 0x325 JUMPI PUSH1 0xA0 SWAP3 POP SLOAD SWAP1 PUSH1 0x5 SLOAD SWAP1 PUSH1 0x6 SLOAD SWAP1 PUSH1 0x7 SLOAD SWAP3 DUP2 MLOAD SWAP5 DUP6 MSTORE PUSH1 0x20 DUP6 ADD MSTORE DUP4 ADD MSTORE PUSH2 0x4B0 PUSH1 0x60 DUP4 ADD MSTORE PUSH1 0x80 DUP3 ADD MSTORE RETURN JUMPDEST DUP3 DUP1 REVERT JUMPDEST DUP4 DUP4 CALLVALUE PUSH2 0x22C JUMPI DUP2 PUSH1 0x3 NOT CALLDATASIZE ADD SLT PUSH2 0x22C JUMPI CALLER DUP3 MSTORE PUSH1 0x20 PUSH1 0x8 DUP2 MSTORE DUP2 DUP4 KECCAK256 SWAP1 DUP5 DUP3 ADD SWAP1 PUSH2 0x359 PUSH1 0xFF DUP4 SLOAD AND PUSH2 0x1C4E JUMP JUMPDEST DUP3 SLOAD PUSH1 0xC8 DUP2 MUL SWAP4 DUP2 ISZERO SWAP5 DUP3 DUP2 DIV PUSH1 0xC8 EQ DUP7 OR ISZERO PUSH2 0x630 JUMPI PUSH2 0x2710 DUP1 SWAP2 DIV SWAP6 PUSH2 0x708 SWAP1 DUP2 DUP6 MUL SWAP2 DUP6 DUP4 DIV EQ OR ISZERO PUSH2 0x61D JUMPI DIV SWAP4 DUP8 SWAP2 SWAP1 PUSH2 0x3AC PUSH2 0x3A4 DUP8 PUSH2 0x39F DUP11 DUP9 PUSH2 0x18F9 JUMP JUMPDEST PUSH2 0x18F9 JUMP JUMPDEST SWAP5 DUP12 SLOAD PUSH2 0x18F9 JUMP JUMPDEST DUP11 SSTORE PUSH2 0x3BA DUP7 PUSH1 0x6 SLOAD PUSH2 0x192F JUMP JUMPDEST PUSH1 0x6 SSTORE DUP1 SLOAD PUSH1 0xFF NOT AND SWAP1 SSTORE SSTORE PUSH1 0x1 SLOAD DUP6 MLOAD PUSH4 0xA9059CBB PUSH1 0xE0 SHL DUP1 DUP3 MSTORE PUSH1 0x1 PUSH1 0x1 PUSH1 0xA0 SHL SUB SWAP3 DUP4 AND DUP11 DUP4 ADD SWAP1 DUP2 MSTORE PUSH1 0x20 DUP2 ADD DUP9 SWAP1 MSTORE PUSH32 0x0 DUP5 AND SWAP11 SWAP4 SWAP2 SWAP3 SWAP1 DUP7 SWAP1 DUP3 SWAP1 DUP2 SWAP1 SUB PUSH1 0x40 ADD DUP2 DUP14 DUP16 GAS CALL SWAP1 DUP2 ISZERO PUSH2 0x613 JUMPI DUP11 SWAP2 PUSH2 0x5F6 JUMPI JUMPDEST POP ISZERO PUSH2 0x5BE JUMPI PUSH1 0x3 SLOAD DUP9 MLOAD DUP4 DUP2 MSTORE SWAP2 AND PUSH1 0x1 PUSH1 0x1 PUSH1 0xA0 SHL SUB AND DUP4 DUP3 ADD SWAP1 DUP2 MSTORE PUSH1 0x20 DUP2 ADD DUP8 SWAP1 MSTORE DUP6 SWAP1 DUP3 SWAP1 DUP13 SWAP1 DUP3 SWAP1 DUP14 SWAP1 DUP3 SWAP1 PUSH1 0x40 ADD SUB SWAP3 GAS CALL SWAP1 DUP2 ISZERO PUSH2 0x5B4 JUMPI DUP10 SWAP2 PUSH2 0x597 JUMPI JUMPDEST POP ISZERO PUSH2 0x55F JUMPI DUP7 MLOAD SWAP1 DUP2 MSTORE CALLER SWAP2 DUP2 ADD SWAP2 DUP3 MSTORE PUSH1 0x20 DUP3 ADD DUP4 SWAP1 MSTORE SWAP7 SWAP8 DUP4 SWAP2 DUP9 SWAP2 SWAP1 DUP3 SWAP1 DUP12 SWAP1 DUP3 SWAP1 PUSH1 0x40 ADD SUB SWAP3 GAS CALL SWAP6 DUP7 ISZERO PUSH2 0x555 JUMPI PUSH32 0x7DBF5014C70CE465B3FAA9272D46A09414D933DE54728A335F7DF4BEA2BC2AE1 SWAP7 PUSH2 0x4E1 SWAP2 DUP10 SWAP2 PUSH2 0x528 JUMPI JUMPDEST POP PUSH2 0x1B96 JUMP JUMPDEST DUP5 MLOAD SWAP1 DUP2 MSTORE PUSH1 0x20 DUP2 ADD DUP5 SWAP1 MSTORE PUSH1 0x40 DUP2 ADD DUP4 SWAP1 MSTORE CALLER SWAP1 PUSH32 0x45DF01186FED55ABC3AC9CFA82408E10553B9B93A8F0C0B4C2965A7BEDB267EC SWAP1 PUSH1 0x60 SWAP1 LOG2 DUP4 MLOAD SWAP3 DUP4 MSTORE DUP3 ADD MSTORE LOG1 DUP1 RETURN JUMPDEST PUSH2 0x548 SWAP2 POP DUP5 RETURNDATASIZE DUP7 GT PUSH2 0x54E JUMPI JUMPDEST PUSH2 0x540 DUP2 DUP4 PUSH2 0x18D7 JUMP JUMPDEST DUP2 ADD SWAP1 PUSH2 0x1B7E JUMP JUMPDEST DUP10 PUSH2 0x4DB JUMP JUMPDEST POP RETURNDATASIZE PUSH2 0x536 JUMP JUMPDEST DUP6 MLOAD RETURNDATASIZE DUP10 DUP3 RETURNDATACOPY RETURNDATASIZE SWAP1 REVERT JUMPDEST DUP7 MLOAD PUSH3 0x461BCD PUSH1 0xE5 SHL DUP2 MSTORE DUP1 DUP4 ADD DUP6 SWAP1 MSTORE PUSH1 0x12 PUSH1 0x24 DUP3 ADD MSTORE PUSH18 0x111053D7D411539053151657D19052531151 PUSH1 0x72 SHL PUSH1 0x44 DUP3 ADD MSTORE PUSH1 0x64 SWAP1 REVERT JUMPDEST PUSH2 0x5AE SWAP2 POP DUP6 RETURNDATASIZE DUP8 GT PUSH2 0x54E JUMPI PUSH2 0x540 DUP2 DUP4 PUSH2 0x18D7 JUMP JUMPDEST DUP11 PUSH2 0x47A JUMP JUMPDEST DUP9 MLOAD RETURNDATASIZE DUP12 DUP3 RETURNDATACOPY RETURNDATASIZE SWAP1 REVERT JUMPDEST DUP8 MLOAD PUSH3 0x461BCD PUSH1 0xE5 SHL DUP2 MSTORE DUP1 DUP5 ADD DUP7 SWAP1 MSTORE PUSH1 0x12 PUSH1 0x24 DUP3 ADD MSTORE PUSH18 0x11115597D411539053151657D19052531151 PUSH1 0x72 SHL PUSH1 0x44 DUP3 ADD MSTORE PUSH1 0x64 SWAP1 REVERT JUMPDEST PUSH2 0x60D SWAP2 POP DUP7 RETURNDATASIZE DUP9 GT PUSH2 0x54E JUMPI PUSH2 0x540 DUP2 DUP4 PUSH2 0x18D7 JUMP JUMPDEST DUP12 PUSH2 0x433 JUMP JUMPDEST DUP10 MLOAD RETURNDATASIZE DUP13 DUP3 RETURNDATACOPY RETURNDATASIZE SWAP1 REVERT JUMPDEST PUSH4 0x4E487B71 PUSH1 0xE0 SHL DUP10 MSTORE PUSH1 0x11 DUP11 MSTORE PUSH1 0x24 DUP10 REVERT JUMPDEST PUSH4 0x4E487B71 PUSH1 0xE0 SHL DUP9 MSTORE PUSH1 0x11 DUP10 MSTORE PUSH1 0x24 DUP9 REVERT JUMPDEST POP POP CALLVALUE PUSH2 0x22C JUMPI PUSH1 0x20 CALLDATASIZE PUSH1 0x3 NOT ADD SLT PUSH2 0x22C JUMPI PUSH1 0x20 SWAP1 PUSH2 0x669 PUSH2 0x664 PUSH2 0x1850 JUMP JUMPDEST PUSH2 0x1A1D JUMP JUMPDEST SWAP1 MLOAD SWAP1 DUP2 MSTORE RETURN JUMPDEST POP POP CALLVALUE PUSH2 0x22C JUMPI DUP2 PUSH1 0x3 NOT CALLDATASIZE ADD SLT PUSH2 0x22C JUMPI PUSH1 0x20 SWAP1 MLOAD PUSH3 0x76A700 DUP2 MSTORE RETURN JUMPDEST DUP4 SWAP2 POP CALLVALUE PUSH2 0x22C JUMPI DUP3 PUSH1 0x3 NOT CALLDATASIZE ADD SLT PUSH2 0x22C JUMPI PUSH2 0x6A9 PUSH2 0x1850 JUMP JUMPDEST DUP3 SLOAD PUSH1 0x24 CALLDATALOAD SWAP3 PUSH1 0x1 PUSH1 0x1 PUSH1 0xA0 SHL SUB SWAP2 DUP3 AND SWAP2 PUSH2 0x6C6 CALLER DUP5 EQ PUSH2 0x1C88 JUMP JUMPDEST DUP1 PUSH32 0x0 AND SWAP4 AND SWAP3 DUP1 DUP5 EQ PUSH2 0x765 JUMPI JUMPDEST POP DUP6 MLOAD PUSH4 0xA9059CBB PUSH1 0xE0 SHL DUP2 MSTORE PUSH1 0x1 PUSH1 0x1 PUSH1 0xA0 SHL SUB SWAP1 SWAP3 AND SWAP1 DUP3 ADD SWAP1 DUP2 MSTORE PUSH1 0x20 DUP2 DUP2 ADD SWAP5 SWAP1 SWAP5 MSTORE SWAP4 SWAP5 SWAP1 SWAP4 SWAP1 SWAP3 SWAP2 DUP5 SWAP2 DUP3 SWAP1 DUP8 SWAP1 DUP3 SWAP1 PUSH1 0x40 ADD SUB SWAP3 GAS CALL SWAP1 DUP2 ISZERO PUSH2 0x75C JUMPI POP PUSH2 0x741 JUMPI POP DUP1 RETURN JUMPDEST PUSH2 0x758 SWAP1 PUSH1 0x20 RETURNDATASIZE DUP2 GT PUSH2 0x54E JUMPI PUSH2 0x540 DUP2 DUP4 PUSH2 0x18D7 JUMP JUMPDEST POP DUP1 RETURN JUMPDEST MLOAD RETURNDATASIZE DUP5 DUP3 RETURNDATACOPY RETURNDATASIZE SWAP1 REVERT JUMPDEST PUSH1 0x20 PUSH1 0x24 SWAP2 DUP9 MLOAD SWAP3 DUP4 DUP1 SWAP3 PUSH4 0x70A08231 PUSH1 0xE0 SHL DUP3 MSTORE ADDRESS DUP8 DUP4 ADD MSTORE GAS STATICCALL DUP1 ISZERO PUSH2 0x80D JUMPI DUP7 SWAP1 PUSH2 0x7D6 JUMPI JUMPDEST PUSH2 0x79B SWAP2 POP DUP3 SLOAD SWAP1 PUSH2 0x18F9 JUMP JUMPDEST DUP5 GT PUSH2 0x7A7 JUMPI DUP7 PUSH2 0x6F4 JUMP JUMPDEST PUSH1 0x64 SWAP1 PUSH1 0x20 DUP8 MLOAD SWAP2 PUSH3 0x461BCD PUSH1 0xE5 SHL DUP4 MSTORE DUP3 ADD MSTORE PUSH1 0x9 PUSH1 0x24 DUP3 ADD MSTORE PUSH9 0x141493D51150D51151 PUSH1 0xBA SHL PUSH1 0x44 DUP3 ADD MSTORE REVERT JUMPDEST POP PUSH1 0x20 DUP2 RETURNDATASIZE DUP3 GT PUSH2 0x805 JUMPI JUMPDEST DUP2 PUSH2 0x7EF PUSH1 0x20 SWAP4 DUP4 PUSH2 0x18D7 JUMP JUMPDEST DUP2 ADD SUB SLT PUSH2 0x801 JUMPI PUSH2 0x79B SWAP1 MLOAD PUSH2 0x78E JUMP JUMPDEST DUP6 DUP1 REVERT JUMPDEST RETURNDATASIZE SWAP2 POP PUSH2 0x7E2 JUMP JUMPDEST DUP8 MLOAD RETURNDATASIZE DUP9 DUP3 RETURNDATACOPY RETURNDATASIZE SWAP1 REVERT JUMPDEST SWAP2 SWAP1 POP CALLVALUE PUSH2 0x325 JUMPI PUSH1 0x20 SWAP3 DUP4 PUSH1 0x3 NOT CALLDATASIZE ADD SLT PUSH2 0x2BF JUMPI PUSH1 0x1 PUSH1 0x1 PUSH1 0xA0 SHL SUB SWAP1 DUP5 DUP3 PUSH2 0x840 PUSH2 0x1850 JUMP JUMPDEST AND DUP1 DUP4 MSTORE PUSH1 0xA DUP3 MSTORE PUSH1 0xFF DUP6 DUP5 KECCAK256 SLOAD AND SWAP6 DUP7 ISZERO PUSH2 0x862 JUMPI JUMPDEST DUP3 DUP8 DUP8 MLOAD SWAP1 ISZERO ISZERO DUP2 MSTORE RETURN JUMPDEST DUP6 PUSH1 0x24 SWAP3 SWAP4 SWAP5 SWAP6 SWAP7 SWAP8 POP MLOAD SWAP6 DUP7 SWAP4 DUP5 SWAP3 PUSH4 0x70A08231 PUSH1 0xE0 SHL DUP5 MSTORE DUP4 ADD MSTORE PUSH32 0x0 AND GAS STATICCALL SWAP1 DUP2 ISZERO PUSH2 0x906 JUMPI DUP1 SWAP2 PUSH2 0x8CC JUMPI JUMPDEST POP PUSH10 0xD3C21BCECCEDA1000000 SWAP2 POP LT ISZERO SWAP1 CODESIZE DUP1 DUP5 DUP2 DUP1 PUSH2 0x857 JUMP JUMPDEST SWAP1 POP DUP4 DUP3 DUP2 RETURNDATASIZE DUP4 GT PUSH2 0x8FF JUMPI JUMPDEST PUSH2 0x8E3 DUP2 DUP4 PUSH2 0x18D7 JUMP JUMPDEST DUP2 ADD SUB SLT PUSH2 0x2BF JUMPI POP PUSH10 0xD3C21BCECCEDA1000000 SWAP1 MLOAD CODESIZE PUSH2 0x8B1 JUMP JUMPDEST POP RETURNDATASIZE PUSH2 0x8D9 JUMP JUMPDEST DUP4 MLOAD SWAP1 RETURNDATASIZE SWAP1 DUP3 RETURNDATACOPY RETURNDATASIZE SWAP1 REVERT JUMPDEST DUP4 DUP4 CALLVALUE PUSH2 0x22C JUMPI PUSH1 0x20 DUP1 PUSH1 0x3 NOT CALLDATASIZE ADD SLT PUSH2 0x325 JUMPI DUP4 CALLDATALOAD SWAP2 DUP3 ISZERO PUSH2 0xC7E JUMPI CALLER DUP5 MSTORE PUSH1 0x8 DUP3 MSTORE PUSH1 0xFF DUP6 DUP3 DUP7 KECCAK256 ADD SLOAD AND PUSH2 0xC49 JUMPI DUP1 MLOAD PUSH4 0x23B872DD PUSH1 0xE0 SHL DUP2 MSTORE CALLER DUP7 DUP3 ADD SWAP1 DUP2 MSTORE ADDRESS PUSH1 0x20 DUP3 ADD MSTORE PUSH1 0x40 DUP2 ADD DUP6 SWAP1 MSTORE PUSH1 0x1 PUSH1 0x1 PUSH1 0xA0 SHL SUB PUSH32 0x0 DUP2 AND SWAP4 SWAP3 SWAP1 SWAP2 DUP6 SWAP1 DUP3 SWAP1 DUP2 SWAP1 PUSH1 0x60 ADD SUB DUP2 DUP11 DUP9 GAS CALL SWAP1 DUP2 ISZERO PUSH2 0xC3F JUMPI SWAP1 PUSH2 0x9B8 SWAP2 DUP9 SWAP2 PUSH2 0xC28 JUMPI POP PUSH2 0x1B96 JUMP JUMPDEST PUSH1 0x64 DUP6 MUL SWAP3 DUP6 DUP5 DIV PUSH1 0x64 SUB PUSH2 0xC15 JUMPI PUSH2 0x2710 DUP1 SWAP5 DIV SWAP4 PUSH2 0x190 DUP1 DUP9 MUL SWAP1 DUP9 DUP3 DIV SUB PUSH2 0x61D JUMPI DIV SWAP2 DUP9 SWAP2 SWAP1 PUSH2 0xA29 DUP8 PUSH2 0x9F4 DUP7 PUSH2 0x39F DUP11 DUP14 PUSH2 0x18F9 JUMP JUMPDEST SWAP8 DUP4 PUSH1 0x1 SLOAD AND DUP9 MLOAD SWAP4 DUP5 SWAP3 DUP4 SWAP3 PUSH4 0xA9059CBB PUSH1 0xE0 SHL SWAP10 DUP11 DUP6 MSTORE DUP5 ADD PUSH1 0x20 SWAP1 SWAP4 SWAP3 SWAP2 SWAP4 PUSH1 0x40 DUP2 ADD SWAP5 PUSH1 0x1 DUP1 PUSH1 0xA0 SHL SUB AND DUP2 MSTORE ADD MSTORE JUMP JUMPDEST SUB DUP2 DUP14 DUP8 GAS CALL SWAP1 DUP2 ISZERO PUSH2 0xC0B JUMPI DUP9 SWAP5 SWAP4 SWAP3 PUSH2 0xA4E DUP14 SWAP4 DUP14 SWAP4 DUP5 SWAP2 PUSH2 0xBEE JUMPI JUMPDEST POP PUSH2 0x1BD4 JUMP JUMPDEST PUSH1 0x2 SLOAD DUP9 MLOAD SWAP6 DUP7 MSTORE AND PUSH1 0x1 PUSH1 0x1 PUSH1 0xA0 SHL SUB AND SWAP2 DUP5 ADD SWAP2 DUP3 MSTORE PUSH1 0x20 DUP3 ADD SWAP6 SWAP1 SWAP6 MSTORE SWAP2 SWAP4 DUP5 SWAP3 DUP4 SWAP2 SWAP1 DUP3 SWAP1 PUSH1 0x40 ADD SUB SWAP3 GAS CALL SWAP1 DUP2 ISZERO PUSH2 0xBE4 JUMPI SWAP1 PUSH2 0xA97 SWAP2 DUP8 SWAP2 PUSH2 0xBC7 JUMPI JUMPDEST POP PUSH2 0x1C11 JUMP JUMPDEST PUSH3 0x76A700 TIMESTAMP ADD SWAP3 DUP4 TIMESTAMP GT PUSH2 0xBB4 JUMPI PUSH1 0xA DUP3 MLOAD SWAP2 PUSH2 0xAB3 DUP4 PUSH2 0x18A5 JUMP JUMPDEST DUP5 DUP4 MSTORE DUP9 DUP2 DUP5 ADD SWAP4 TIMESTAMP DUP6 MSTORE DUP6 DUP2 ADD DUP9 DUP2 MSTORE PUSH1 0x60 DUP3 ADD SWAP1 DUP12 DUP3 MSTORE PUSH1 0x80 DUP4 ADD SWAP7 PUSH1 0x1 DUP9 MSTORE CALLER DUP14 MSTORE PUSH1 0x8 DUP7 MSTORE DUP9 DUP14 KECCAK256 SWAP4 MLOAD DUP5 SSTORE MLOAD PUSH1 0x1 DUP5 ADD SSTORE MLOAD PUSH1 0x2 DUP4 ADD SSTORE MLOAD PUSH1 0x3 DUP3 ADD SSTORE ADD SWAP3 MLOAD ISZERO ISZERO SWAP3 PUSH1 0xFF NOT SWAP4 PUSH1 0xFF DUP6 DUP4 SLOAD AND SWAP2 AND OR SWAP1 SSTORE PUSH2 0xB15 DUP6 DUP11 SLOAD PUSH2 0x192F JUMP JUMPDEST DUP10 SSTORE CALLER DUP9 MSTORE MSTORE DUP2 DUP7 KECCAK256 SWAP1 DUP2 SLOAD PUSH1 0xFF DUP2 AND ISZERO PUSH2 0xB6D JUMPI JUMPDEST POP POP SWAP1 MLOAD SWAP4 DUP5 MSTORE POP PUSH1 0x20 DUP4 ADD MSTORE PUSH1 0x40 DUP3 ADD MSTORE CALLER SWAP1 PUSH32 0xB4CAAF29ADDA3EEFEE3AD552A8E85058589BF834C7466CAE4EE58787F70589ED SWAP1 DUP1 PUSH1 0x60 DUP2 ADD JUMPDEST SUB SWAP1 LOG2 DUP1 RETURN JUMPDEST AND PUSH1 0x1 OR SWAP1 SSTORE PUSH1 0x7 SLOAD PUSH1 0x0 NOT DUP2 EQ PUSH2 0xBB4 JUMPI PUSH1 0x1 ADD PUSH1 0x7 SSTORE SWAP4 SWAP5 POP DUP5 SWAP4 PUSH2 0xB67 PUSH32 0xB4CAAF29ADDA3EEFEE3AD552A8E85058589BF834C7466CAE4EE58787F70589ED DUP9 PUSH2 0xB2B JUMP JUMPDEST PUSH4 0x4E487B71 PUSH1 0xE0 SHL DUP7 MSTORE PUSH1 0x11 DUP8 MSTORE PUSH1 0x24 DUP7 REVERT JUMPDEST PUSH2 0xBDE SWAP2 POP DUP6 RETURNDATASIZE DUP8 GT PUSH2 0x54E JUMPI PUSH2 0x540 DUP2 DUP4 PUSH2 0x18D7 JUMP JUMPDEST DUP9 PUSH2 0xA91 JUMP JUMPDEST DUP3 MLOAD RETURNDATASIZE DUP9 DUP3 RETURNDATACOPY RETURNDATASIZE SWAP1 REVERT JUMPDEST PUSH2 0xC05 SWAP2 POP DUP9 RETURNDATASIZE DUP11 GT PUSH2 0x54E JUMPI PUSH2 0x540 DUP2 DUP4 PUSH2 0x18D7 JUMP JUMPDEST DUP16 PUSH2 0xA48 JUMP JUMPDEST DUP7 MLOAD RETURNDATASIZE DUP13 DUP3 RETURNDATACOPY RETURNDATASIZE SWAP1 REVERT JUMPDEST PUSH4 0x4E487B71 PUSH1 0xE0 SHL DUP8 MSTORE PUSH1 0x11 DUP9 MSTORE PUSH1 0x24 DUP8 REVERT JUMPDEST PUSH2 0x548 SWAP2 POP DUP7 RETURNDATASIZE DUP9 GT PUSH2 0x54E JUMPI PUSH2 0x540 DUP2 DUP4 PUSH2 0x18D7 JUMP JUMPDEST DUP4 MLOAD RETURNDATASIZE DUP10 DUP3 RETURNDATACOPY RETURNDATASIZE SWAP1 REVERT JUMPDEST MLOAD PUSH3 0x461BCD PUSH1 0xE5 SHL DUP2 MSTORE DUP1 DUP6 ADD SWAP2 SWAP1 SWAP2 MSTORE PUSH1 0xF PUSH1 0x24 DUP3 ADD MSTORE PUSH15 0x504F534954494F4E5F455849535453 PUSH1 0x88 SHL PUSH1 0x44 DUP3 ADD MSTORE PUSH1 0x64 SWAP1 REVERT JUMPDEST MLOAD PUSH3 0x461BCD PUSH1 0xE5 SHL DUP2 MSTORE DUP1 DUP6 ADD SWAP2 SWAP1 SWAP2 MSTORE PUSH1 0xB PUSH1 0x24 DUP3 ADD MSTORE PUSH11 0x16915493D7D05353D55395 PUSH1 0xAA SHL PUSH1 0x44 DUP3 ADD MSTORE PUSH1 0x64 SWAP1 REVERT JUMPDEST DUP4 CALLVALUE PUSH2 0x2BF JUMPI PUSH1 0x20 CALLDATASIZE PUSH1 0x3 NOT ADD SLT PUSH2 0x2BF JUMPI PUSH2 0xCC9 PUSH2 0x1850 JUMP JUMPDEST DUP2 SLOAD PUSH1 0x1 PUSH1 0x1 PUSH1 0xA0 SHL SUB SWAP2 SWAP1 PUSH2 0xCE2 SWAP1 DUP4 AND CALLER EQ PUSH2 0x1C88 JUMP JUMPDEST AND PUSH1 0x1 PUSH1 0x1 PUSH1 0x60 SHL SUB PUSH1 0xA0 SHL PUSH1 0x2 SLOAD AND OR PUSH1 0x2 SSTORE DUP1 RETURN JUMPDEST POP POP CALLVALUE PUSH2 0x22C JUMPI DUP2 PUSH1 0x3 NOT CALLDATASIZE ADD SLT PUSH2 0x22C JUMPI MLOAD PUSH32 0x0 PUSH1 0x1 PUSH1 0x1 PUSH1 0xA0 SHL SUB AND DUP2 MSTORE PUSH1 0x20 SWAP1 RETURN JUMPDEST SWAP2 SWAP1 POP CALLVALUE PUSH2 0x325 JUMPI PUSH1 0x20 CALLDATASIZE PUSH1 0x3 NOT ADD SLT PUSH2 0x325 JUMPI DUP3 SLOAD PUSH1 0x1 PUSH1 0x1 PUSH1 0xA0 SHL SUB SWAP1 PUSH2 0xD69 SWAP1 DUP3 AND CALLER EQ PUSH2 0x1C88 JUMP JUMPDEST DUP2 MLOAD PUSH4 0x23B872DD PUSH1 0xE0 SHL DUP2 MSTORE CALLER DUP5 DUP3 ADD SWAP1 DUP2 MSTORE ADDRESS PUSH1 0x20 DUP3 DUP2 ADD SWAP2 SWAP1 SWAP2 MSTORE DUP6 CALLDATALOAD PUSH1 0x40 DUP4 ADD MSTORE SWAP2 SWAP3 DUP4 SWAP2 DUP3 SWAP1 DUP9 SWAP1 DUP3 SWAP1 PUSH1 0x60 ADD SUB SWAP3 PUSH32 0x0 AND GAS CALL SWAP1 DUP2 ISZERO PUSH2 0xE27 JUMPI DUP5 SWAP2 PUSH2 0xE09 JUMPI JUMPDEST POP ISZERO PUSH2 0xDD8 JUMPI DUP3 DUP1 RETURN JUMPDEST SWAP1 PUSH1 0x20 PUSH1 0x64 SWAP3 MLOAD SWAP2 PUSH3 0x461BCD PUSH1 0xE5 SHL DUP4 MSTORE DUP3 ADD MSTORE PUSH1 0xB PUSH1 0x24 DUP3 ADD MSTORE PUSH11 0x1195539117D19052531151 PUSH1 0xAA SHL PUSH1 0x44 DUP3 ADD MSTORE REVERT JUMPDEST PUSH2 0xE21 SWAP2 POP PUSH1 0x20 RETURNDATASIZE DUP2 GT PUSH2 0x54E JUMPI PUSH2 0x540 DUP2 DUP4 PUSH2 0x18D7 JUMP JUMPDEST CODESIZE PUSH2 0xDCE JUMP JUMPDEST DUP3 MLOAD RETURNDATASIZE DUP7 DUP3 RETURNDATACOPY RETURNDATASIZE SWAP1 REVERT JUMPDEST POP POP CALLVALUE PUSH2 0x22C JUMPI DUP2 PUSH1 0x3 NOT CALLDATASIZE ADD SLT PUSH2 0x22C JUMPI PUSH1 0x1 SLOAD SWAP1 MLOAD PUSH1 0x1 PUSH1 0x1 PUSH1 0xA0 SHL SUB SWAP1 SWAP2 AND DUP2 MSTORE PUSH1 0x20 SWAP1 RETURN JUMPDEST POP POP CALLVALUE PUSH2 0x22C JUMPI DUP2 PUSH1 0x3 NOT CALLDATASIZE ADD SLT PUSH2 0x22C JUMPI SWAP1 SLOAD SWAP1 MLOAD PUSH1 0x1 PUSH1 0x1 PUSH1 0xA0 SHL SUB SWAP1 SWAP2 AND DUP2 MSTORE PUSH1 0x20 SWAP1 RETURN JUMPDEST POP POP CALLVALUE PUSH2 0x22C JUMPI DUP2 PUSH1 0x3 NOT CALLDATASIZE ADD SLT PUSH2 0x22C JUMPI PUSH1 0x20 SWAP1 PUSH1 0x7 SLOAD SWAP1 MLOAD SWAP1 DUP2 MSTORE RETURN JUMPDEST SWAP1 POP CALLVALUE PUSH2 0x325 JUMPI DUP3 PUSH1 0x3 NOT CALLDATASIZE ADD SLT PUSH2 0x325 JUMPI PUSH1 0x20 SWAP3 POP SLOAD SWAP1 MLOAD SWAP1 DUP2 MSTORE RETURN JUMPDEST POP POP CALLVALUE PUSH2 0x22C JUMPI DUP2 PUSH1 0x3 NOT CALLDATASIZE ADD SLT PUSH2 0x22C JUMPI PUSH1 0x2 SLOAD SWAP1 MLOAD PUSH1 0x1 PUSH1 0x1 PUSH1 0xA0 SHL SUB SWAP1 SWAP2 AND DUP2 MSTORE PUSH1 0x20 SWAP1 RETURN JUMPDEST POP POP CALLVALUE PUSH2 0x22C JUMPI DUP2 PUSH1 0x3 NOT CALLDATASIZE ADD SLT PUSH2 0x22C JUMPI PUSH1 0x20 SWAP1 MLOAD PUSH2 0x7D0 DUP2 MSTORE RETURN JUMPDEST POP POP CALLVALUE PUSH2 0x22C JUMPI PUSH1 0x20 CALLDATASIZE PUSH1 0x3 NOT ADD SLT PUSH2 0x22C JUMPI PUSH1 0x20 SWAP2 PUSH1 0xFF SWAP1 DUP3 SWAP1 PUSH1 0x1 PUSH1 0x1 PUSH1 0xA0 SHL SUB PUSH2 0xF30 PUSH2 0x1850 JUMP JUMPDEST AND DUP2 MSTORE PUSH1 0xA DUP6 MSTORE KECCAK256 SLOAD AND SWAP1 MLOAD SWAP1 ISZERO ISZERO DUP2 MSTORE RETURN JUMPDEST POP POP CALLVALUE PUSH2 0x22C JUMPI PUSH1 0x20 CALLDATASIZE PUSH1 0x3 NOT ADD SLT PUSH2 0x22C JUMPI PUSH1 0x20 SWAP1 PUSH2 0x669 PUSH2 0xF64 PUSH2 0x1850 JUMP JUMPDEST PUSH2 0x1AED JUMP JUMPDEST POP POP CALLVALUE PUSH2 0x22C JUMPI PUSH1 0x20 CALLDATASIZE PUSH1 0x3 NOT ADD SLT PUSH2 0x22C JUMPI PUSH1 0x20 SWAP1 PUSH2 0x669 PUSH2 0xF8A PUSH2 0x1850 JUMP JUMPDEST PUSH2 0x193C JUMP JUMPDEST DUP4 CALLVALUE PUSH2 0x2BF JUMPI PUSH1 0x20 CALLDATASIZE PUSH1 0x3 NOT ADD SLT PUSH2 0x2BF JUMPI PUSH2 0xFA9 PUSH2 0x1850 JUMP JUMPDEST DUP2 SLOAD PUSH1 0x1 PUSH1 0x1 PUSH1 0xA0 SHL SUB SWAP2 SWAP1 PUSH2 0xFC2 SWAP1 DUP4 AND CALLER EQ PUSH2 0x1C88 JUMP JUMPDEST AND PUSH1 0x1 PUSH1 0x1 PUSH1 0x60 SHL SUB PUSH1 0xA0 SHL PUSH1 0x3 SLOAD AND OR PUSH1 0x3 SSTORE DUP1 RETURN JUMPDEST POP POP CALLVALUE PUSH2 0x22C JUMPI DUP2 PUSH1 0x3 NOT CALLDATASIZE ADD SLT PUSH2 0x22C JUMPI MLOAD PUSH32 0x0 PUSH1 0x1 PUSH1 0x1 PUSH1 0xA0 SHL SUB AND DUP2 MSTORE PUSH1 0x20 SWAP1 RETURN JUMPDEST POP POP CALLVALUE PUSH2 0x22C JUMPI DUP2 PUSH1 0x3 NOT CALLDATASIZE ADD SLT PUSH2 0x22C JUMPI PUSH1 0x20 SWAP1 MLOAD PUSH1 0x64 DUP2 MSTORE RETURN JUMPDEST SWAP2 SWAP1 POP CALLVALUE PUSH2 0x325 JUMPI PUSH1 0x20 CALLDATASIZE PUSH1 0x3 NOT ADD SLT PUSH2 0x325 JUMPI PUSH1 0xA0 SWAP3 DUP2 SWAP1 PUSH1 0x1 PUSH1 0x1 PUSH1 0xA0 SHL SUB PUSH2 0x1062 PUSH2 0x1850 JUMP JUMPDEST AND DUP2 MSTORE PUSH1 0x8 PUSH1 0x20 MSTORE KECCAK256 DUP1 SLOAD SWAP3 PUSH1 0x1 DUP3 ADD SLOAD SWAP3 PUSH1 0xFF PUSH1 0x2 DUP5 ADD SLOAD SWAP3 PUSH1 0x3 DUP6 ADD SLOAD SWAP5 ADD SLOAD AND SWAP4 DUP2 MLOAD SWAP6 DUP7 MSTORE PUSH1 0x20 DUP7 ADD MSTORE DUP5 ADD MSTORE PUSH1 0x60 DUP4 ADD MSTORE ISZERO ISZERO PUSH1 0x80 DUP3 ADD MSTORE RETURN JUMPDEST POP POP CALLVALUE PUSH2 0x22C JUMPI DUP2 PUSH1 0x3 NOT CALLDATASIZE ADD SLT PUSH2 0x22C JUMPI PUSH1 0x20 SWAP1 PUSH1 0x6 SLOAD SWAP1 MLOAD SWAP1 DUP2 MSTORE RETURN JUMPDEST POP POP CALLVALUE PUSH2 0x22C JUMPI DUP2 PUSH1 0x3 NOT CALLDATASIZE ADD SLT PUSH2 0x22C JUMPI PUSH1 0x20 SWAP1 MLOAD PUSH1 0xC8 DUP2 MSTORE RETURN JUMPDEST POP POP CALLVALUE PUSH2 0x22C JUMPI DUP2 PUSH1 0x3 NOT CALLDATASIZE ADD SLT PUSH2 0x22C JUMPI PUSH1 0x20 SWAP1 MLOAD PUSH2 0x708 DUP2 MSTORE RETURN JUMPDEST DUP4 SWAP2 POP CALLVALUE PUSH2 0x22C JUMPI DUP2 PUSH1 0x3 NOT CALLDATASIZE ADD SLT PUSH2 0x22C JUMPI CALLER DUP3 MSTORE PUSH1 0x20 SWAP3 PUSH1 0x8 DUP5 MSTORE DUP1 DUP4 KECCAK256 SWAP4 DUP3 DUP6 ADD SWAP5 PUSH2 0x112B PUSH1 0xFF DUP8 SLOAD AND PUSH2 0x1C4E JUMP JUMPDEST PUSH1 0x2 DUP2 ADD SLOAD TIMESTAMP LT PUSH2 0x14BA JUMPI DUP1 SLOAD SWAP4 PUSH2 0x1154 PUSH2 0x1145 CALLER PUSH2 0x1A1D JUMP JUMPDEST PUSH2 0x114E CALLER PUSH2 0x1AED JUMP JUMPDEST SWAP1 PUSH2 0x192F JUMP JUMPDEST SWAP3 PUSH1 0x64 DUP7 MUL SWAP3 DUP7 ISZERO SWAP4 DUP8 DUP2 DIV PUSH1 0x64 EQ DUP6 OR ISZERO PUSH2 0x14A7 JUMPI PUSH2 0x2710 DUP1 SWAP2 DIV SWAP5 PUSH2 0x190 SWAP1 DUP2 DUP11 MUL SWAP2 DUP11 DUP4 DIV EQ OR ISZERO PUSH2 0x1494 JUMPI DIV SWAP9 DUP9 SWAP2 SWAP1 PUSH2 0x11A1 PUSH2 0x1199 DUP13 PUSH2 0x39F DUP10 DUP14 PUSH2 0x18F9 JUMP JUMPDEST SWAP10 DUP7 SLOAD PUSH2 0x18F9 JUMP JUMPDEST DUP6 SSTORE PUSH2 0x11AF DUP8 PUSH1 0x5 SLOAD PUSH2 0x192F JUMP JUMPDEST PUSH1 0x5 SSTORE CALLER DUP4 MSTORE PUSH1 0x9 DUP5 MSTORE DUP8 DUP4 KECCAK256 PUSH2 0x11C7 DUP9 DUP3 SLOAD PUSH2 0x192F JUMP JUMPDEST SWAP1 SSTORE DUP1 SLOAD PUSH1 0xFF NOT AND SWAP1 SSTORE SSTORE PUSH1 0x1 SLOAD DUP6 MLOAD PUSH4 0xA9059CBB PUSH1 0xE0 SHL DUP1 DUP3 MSTORE PUSH1 0x1 PUSH1 0x1 PUSH1 0xA0 SHL SUB SWAP3 DUP4 AND DUP6 DUP4 ADD SWAP1 DUP2 MSTORE PUSH1 0x20 DUP2 ADD DUP8 SWAP1 MSTORE SWAP1 SWAP2 PUSH32 0x0 DUP5 AND SWAP2 DUP6 SWAP1 DUP3 SWAP1 DUP2 SWAP1 SUB PUSH1 0x40 ADD DUP2 DUP15 DUP7 GAS CALL SWAP1 DUP2 ISZERO PUSH2 0x146D JUMPI SWAP1 PUSH2 0x1247 SWAP2 DUP13 SWAP2 PUSH2 0x1477 JUMPI POP PUSH2 0x1BD4 JUMP JUMPDEST PUSH1 0x2 SLOAD DUP9 MLOAD DUP4 DUP2 MSTORE SWAP1 DUP5 AND PUSH1 0x1 PUSH1 0x1 PUSH1 0xA0 SHL SUB AND DUP7 DUP3 ADD SWAP1 DUP2 MSTORE PUSH1 0x20 DUP2 ADD DUP14 SWAP1 MSTORE DUP6 SWAP1 DUP3 SWAP1 DUP14 SWAP1 DUP3 SWAP1 DUP2 SWAP1 PUSH1 0x40 ADD SUB SWAP2 DUP7 GAS CALL SWAP1 DUP2 ISZERO PUSH2 0x146D JUMPI DUP12 SWAP3 PUSH2 0x1298 DUP8 SWAP4 PUSH2 0x12BB SWAP4 DUP7 SWAP2 PUSH2 0x1450 JUMPI POP PUSH2 0x1C11 JUMP JUMPDEST DUP11 MLOAD DUP6 DUP2 MSTORE CALLER DUP10 DUP3 ADD SWAP1 DUP2 MSTORE PUSH1 0x20 DUP2 ADD DUP15 SWAP1 MSTORE SWAP1 SWAP5 DUP6 SWAP4 DUP5 SWAP3 DUP4 SWAP2 PUSH1 0x40 SWAP1 SWAP2 ADD SWAP1 JUMP JUMPDEST SUB SWAP3 GAS CALL SWAP1 DUP2 ISZERO PUSH2 0x1446 JUMPI DUP11 SWAP2 PUSH2 0x1429 JUMPI JUMPDEST POP ISZERO PUSH2 0x13F1 JUMPI DUP6 PUSH2 0x132B JUMPI JUMPDEST POP POP POP POP PUSH2 0x130D PUSH32 0x75E161B3E824B114FC1A33274BD7091918DD4E639CEDE50B78B15A4EEA956A21 SWAP5 SWAP6 SWAP7 PUSH2 0xB67 SWAP3 PUSH2 0x192F JUMP JUMPDEST SWAP3 MLOAD SWAP3 DUP4 SWAP3 CALLER SWAP7 DUP5 PUSH1 0x40 SWAP2 SWAP5 SWAP4 SWAP3 PUSH1 0x60 DUP3 ADD SWAP6 DUP3 MSTORE PUSH1 0x20 DUP3 ADD MSTORE ADD MSTORE JUMP JUMPDEST DUP7 MLOAD SWAP1 DUP2 MSTORE CALLER DUP5 DUP3 ADD SWAP1 DUP2 MSTORE PUSH1 0x20 DUP2 ADD DUP8 SWAP1 MSTORE SWAP1 SWAP2 DUP4 SWAP2 DUP4 SWAP2 SWAP1 DUP3 SWAP1 DUP13 SWAP1 DUP3 SWAP1 PUSH1 0x40 ADD SUB SWAP3 PUSH32 0x0 AND GAS CALL SWAP1 DUP2 ISZERO PUSH2 0x13E7 JUMPI DUP9 SWAP2 PUSH2 0x13CA JUMPI JUMPDEST POP ISZERO PUSH2 0x138F JUMPI DUP1 DUP1 PUSH2 0x12D9 JUMP JUMPDEST DUP5 MLOAD PUSH3 0x461BCD PUSH1 0xE5 SHL DUP2 MSTORE SWAP2 DUP3 ADD MSTORE PUSH1 0x16 PUSH1 0x24 DUP3 ADD MSTORE PUSH22 0x149155D0549117D514905394D1915497D19052531151 PUSH1 0x52 SHL PUSH1 0x44 DUP3 ADD MSTORE PUSH1 0x64 SWAP2 POP REVERT JUMPDEST PUSH2 0x13E1 SWAP2 POP DUP3 RETURNDATASIZE DUP5 GT PUSH2 0x54E JUMPI PUSH2 0x540 DUP2 DUP4 PUSH2 0x18D7 JUMP JUMPDEST DUP10 PUSH2 0x1382 JUMP JUMPDEST DUP7 MLOAD RETURNDATASIZE DUP11 DUP3 RETURNDATACOPY RETURNDATASIZE SWAP1 REVERT JUMPDEST DUP7 MLOAD PUSH3 0x461BCD PUSH1 0xE5 SHL DUP2 MSTORE DUP1 DUP6 ADD DUP5 SWAP1 MSTORE PUSH1 0x12 PUSH1 0x24 DUP3 ADD MSTORE PUSH18 0x131417D514905394D1915497D19052531151 PUSH1 0x72 SHL PUSH1 0x44 DUP3 ADD MSTORE PUSH1 0x64 SWAP1 REVERT JUMPDEST PUSH2 0x1440 SWAP2 POP DUP5 RETURNDATASIZE DUP7 GT PUSH2 0x54E JUMPI PUSH2 0x540 DUP2 DUP4 PUSH2 0x18D7 JUMP JUMPDEST DUP12 PUSH2 0x12CD JUMP JUMPDEST DUP9 MLOAD RETURNDATASIZE DUP13 DUP3 RETURNDATACOPY RETURNDATASIZE SWAP1 REVERT JUMPDEST PUSH2 0x1467 SWAP2 POP DUP6 RETURNDATASIZE DUP8 GT PUSH2 0x54E JUMPI PUSH2 0x540 DUP2 DUP4 PUSH2 0x18D7 JUMP JUMPDEST CODESIZE PUSH2 0xA91 JUMP JUMPDEST DUP10 MLOAD RETURNDATASIZE DUP14 DUP3 RETURNDATACOPY RETURNDATASIZE SWAP1 REVERT JUMPDEST PUSH2 0x148E SWAP2 POP DUP7 RETURNDATASIZE DUP9 GT PUSH2 0x54E JUMPI PUSH2 0x540 DUP2 DUP4 PUSH2 0x18D7 JUMP JUMPDEST DUP14 PUSH2 0xA48 JUMP JUMPDEST PUSH4 0x4E487B71 PUSH1 0xE0 SHL DUP11 MSTORE PUSH1 0x11 DUP6 MSTORE PUSH1 0x24 DUP11 REVERT JUMPDEST PUSH4 0x4E487B71 PUSH1 0xE0 SHL DUP10 MSTORE PUSH1 0x11 DUP5 MSTORE PUSH1 0x24 DUP10 REVERT JUMPDEST POP SWAP1 MLOAD PUSH3 0x461BCD PUSH1 0xE5 SHL DUP2 MSTORE SWAP2 DUP3 ADD MSTORE PUSH1 0xC PUSH1 0x24 DUP3 ADD MSTORE PUSH12 0x14D512531317D313D0D2D151 PUSH1 0xA2 SHL PUSH1 0x44 DUP3 ADD MSTORE PUSH1 0x64 SWAP1 REVERT JUMPDEST SWAP1 POP CALLVALUE PUSH2 0x325 JUMPI DUP3 PUSH1 0x3 NOT CALLDATASIZE ADD SLT PUSH2 0x325 JUMPI CALLER DUP4 MSTORE PUSH1 0x20 PUSH1 0x8 DUP2 MSTORE DUP3 DUP5 KECCAK256 SWAP2 PUSH2 0x1519 PUSH1 0xFF DUP3 DUP6 ADD SLOAD AND PUSH2 0x1C4E JUMP JUMPDEST PUSH2 0x1522 CALLER PUSH2 0x1A1D JUMP JUMPDEST SWAP3 DUP4 ISZERO PUSH2 0x1631 JUMPI DUP4 PUSH2 0x1596 SWAP3 DUP3 PUSH1 0x3 DUP7 SWAP5 ADD PUSH2 0x153F DUP5 DUP3 SLOAD PUSH2 0x192F JUMP JUMPDEST SWAP1 SSTORE PUSH1 0x1 TIMESTAMP SWAP2 ADD SSTORE PUSH2 0x1553 DUP3 PUSH1 0x5 SLOAD PUSH2 0x192F JUMP JUMPDEST PUSH1 0x5 SSTORE CALLER DUP9 MSTORE PUSH1 0x9 DUP4 MSTORE DUP7 DUP9 KECCAK256 PUSH2 0x156B DUP4 DUP3 SLOAD PUSH2 0x192F JUMP JUMPDEST SWAP1 SSTORE DUP7 MLOAD PUSH4 0xA9059CBB PUSH1 0xE0 SHL DUP2 MSTORE CALLER SWAP2 DUP2 ADD SWAP2 DUP3 MSTORE PUSH1 0x20 DUP3 ADD SWAP3 SWAP1 SWAP3 MSTORE SWAP1 SWAP3 DUP4 SWAP2 DUP3 SWAP2 PUSH1 0x40 SWAP1 SWAP2 ADD SWAP1 JUMP JUMPDEST SUB DUP2 DUP9 PUSH32 0x0 PUSH1 0x1 PUSH1 0x1 PUSH1 0xA0 SHL SUB AND GAS CALL SWAP1 DUP2 ISZERO PUSH2 0x1627 JUMPI PUSH32 0xFC30CDDEA38E2BF4D6EA7D3F9ED3B6AD7F176419F4963BD81318067A4AEE73FE SWAP4 SWAP5 SWAP2 PUSH2 0x1600 SWAP2 DUP8 SWAP2 PUSH2 0x160A JUMPI POP PUSH2 0x1B96 JUMP JUMPDEST MLOAD SWAP3 DUP4 MSTORE CALLER SWAP3 LOG2 DUP1 RETURN JUMPDEST PUSH2 0x1621 SWAP2 POP DUP5 RETURNDATASIZE DUP7 GT PUSH2 0x54E JUMPI PUSH2 0x540 DUP2 DUP4 PUSH2 0x18D7 JUMP JUMPDEST CODESIZE PUSH2 0x4DB JUMP JUMPDEST DUP5 MLOAD RETURNDATASIZE DUP8 DUP3 RETURNDATACOPY RETURNDATASIZE SWAP1 REVERT JUMPDEST POP PUSH1 0x64 SWAP2 DUP5 MLOAD SWAP2 PUSH3 0x461BCD PUSH1 0xE5 SHL DUP4 MSTORE DUP3 ADD MSTORE PUSH1 0xA PUSH1 0x24 DUP3 ADD MSTORE PUSH10 0x4E4F5F52455741524453 PUSH1 0xB0 SHL PUSH1 0x44 DUP3 ADD MSTORE REVERT JUMPDEST POP POP CALLVALUE PUSH2 0x22C JUMPI DUP2 PUSH1 0x3 NOT CALLDATASIZE ADD SLT PUSH2 0x22C JUMPI PUSH1 0x20 SWAP1 MLOAD PUSH2 0x4B0 DUP2 MSTORE RETURN JUMPDEST POP POP CALLVALUE PUSH2 0x22C JUMPI DUP2 PUSH1 0x3 NOT CALLDATASIZE ADD SLT PUSH2 0x22C JUMPI PUSH1 0x20 SWAP1 MLOAD PUSH2 0x3A98 DUP2 MSTORE RETURN JUMPDEST DUP4 CALLVALUE PUSH2 0x2BF JUMPI PUSH1 0x20 CALLDATASIZE PUSH1 0x3 NOT ADD SLT PUSH2 0x2BF JUMPI PUSH2 0x16B4 PUSH2 0x1850 JUMP JUMPDEST DUP2 SLOAD PUSH1 0x1 PUSH1 0x1 PUSH1 0xA0 SHL SUB SWAP2 SWAP1 PUSH2 0x16CD SWAP1 DUP4 AND CALLER EQ PUSH2 0x1C88 JUMP JUMPDEST AND PUSH1 0x1 PUSH1 0x1 PUSH1 0x60 SHL SUB PUSH1 0xA0 SHL PUSH1 0x1 SLOAD AND OR PUSH1 0x1 SSTORE DUP1 RETURN JUMPDEST POP POP CALLVALUE PUSH2 0x22C JUMPI PUSH1 0x20 CALLDATASIZE PUSH1 0x3 NOT ADD SLT PUSH2 0x22C JUMPI PUSH1 0x20 SWAP2 DUP2 SWAP1 PUSH1 0x1 PUSH1 0x1 PUSH1 0xA0 SHL SUB PUSH2 0x170C PUSH2 0x1850 JUMP JUMPDEST AND DUP2 MSTORE PUSH1 0x9 DUP5 MSTORE KECCAK256 SLOAD SWAP1 MLOAD SWAP1 DUP2 MSTORE RETURN JUMPDEST DUP4 DUP4 CALLVALUE PUSH2 0x22C JUMPI PUSH1 0x20 CALLDATASIZE PUSH1 0x3 NOT ADD SLT PUSH2 0x22C JUMPI PUSH2 0x100 SWAP3 PUSH2 0x173B PUSH2 0x1850 JUMP JUMPDEST PUSH1 0x1 PUSH1 0x1 PUSH1 0xA0 SHL SUB DUP2 AND DUP5 MSTORE PUSH1 0x8 PUSH1 0x20 MSTORE DUP3 DUP5 KECCAK256 DUP4 MLOAD SWAP4 SWAP1 SWAP3 SWAP2 SWAP1 PUSH2 0x175F DUP6 PUSH2 0x18A5 JUMP JUMPDEST DUP4 SLOAD DUP6 MSTORE PUSH1 0x1 DUP5 ADD SLOAD SWAP6 PUSH1 0x20 DUP7 ADD SWAP7 DUP8 MSTORE PUSH1 0xFF PUSH1 0x2 DUP7 ADD SLOAD SWAP5 DUP4 DUP9 ADD SWAP7 DUP7 DUP9 MSTORE PUSH1 0x3 DUP2 ADD SLOAD PUSH1 0x60 DUP11 ADD MSTORE ADD SLOAD AND SWAP4 PUSH1 0x80 DUP8 ADD SWAP5 ISZERO ISZERO DUP1 DUP7 MSTORE DUP1 PUSH2 0x1805 JUMPI JUMPDEST ISZERO PUSH2 0x17FE JUMPI PUSH2 0x17AE SWAP2 POP TIMESTAMP SWAP1 PUSH2 0x18F9 JUMP JUMPDEST SWAP5 JUMPDEST MLOAD SWAP6 MLOAD SWAP4 MLOAD PUSH2 0x17BE DUP4 PUSH2 0x1A1D JUMP JUMPDEST SWAP2 PUSH2 0x17D1 PUSH2 0x17CB DUP6 PUSH2 0x1AED JUMP JUMPDEST SWAP5 PUSH2 0x193C JUMP JUMPDEST SWAP5 MLOAD ISZERO ISZERO SWAP6 DUP2 MLOAD SWAP9 DUP10 MSTORE PUSH1 0x20 DUP10 ADD MSTORE DUP8 ADD MSTORE PUSH1 0x60 DUP7 ADD MSTORE PUSH1 0x80 DUP6 ADD MSTORE PUSH1 0xA0 DUP5 ADD MSTORE PUSH1 0xC0 DUP4 ADD MSTORE PUSH1 0xE0 DUP3 ADD MSTORE RETURN JUMPDEST POP SWAP5 PUSH2 0x17B0 JUMP JUMPDEST POP DUP1 TIMESTAMP LT PUSH2 0x179D JUMP JUMPDEST POP POP CALLVALUE PUSH2 0x22C JUMPI DUP2 PUSH1 0x3 NOT CALLDATASIZE ADD SLT PUSH2 0x22C JUMPI PUSH1 0x20 SWAP1 MLOAD PUSH2 0x190 DUP2 MSTORE RETURN JUMPDEST DUP5 SWAP1 CALLVALUE PUSH2 0x22C JUMPI DUP2 PUSH1 0x3 NOT CALLDATASIZE ADD SLT PUSH2 0x22C JUMPI PUSH1 0x3 SLOAD PUSH1 0x1 PUSH1 0x1 PUSH1 0xA0 SHL SUB AND DUP2 MSTORE PUSH1 0x20 SWAP1 RETURN JUMPDEST PUSH1 0x4 CALLDATALOAD SWAP1 PUSH1 0x1 PUSH1 0x1 PUSH1 0xA0 SHL SUB DUP3 AND DUP3 SUB PUSH2 0x1866 JUMPI JUMP JUMPDEST PUSH1 0x0 DUP1 REVERT JUMPDEST CALLVALUE PUSH2 0x1866 JUMPI PUSH1 0x0 CALLDATASIZE PUSH1 0x3 NOT ADD SLT PUSH2 0x1866 JUMPI PUSH1 0x20 PUSH1 0x40 MLOAD PUSH2 0x1F4 DUP2 MSTORE RETURN JUMPDEST CALLVALUE PUSH2 0x1866 JUMPI PUSH1 0x0 CALLDATASIZE PUSH1 0x3 NOT ADD SLT PUSH2 0x1866 JUMPI PUSH1 0x20 PUSH1 0x40 MLOAD PUSH2 0x2710 DUP2 MSTORE RETURN JUMPDEST PUSH1 0xA0 DUP2 ADD SWAP1 DUP2 LT PUSH8 0xFFFFFFFFFFFFFFFF DUP3 GT OR PUSH2 0x18C1 JUMPI PUSH1 0x40 MSTORE JUMP JUMPDEST PUSH4 0x4E487B71 PUSH1 0xE0 SHL PUSH1 0x0 MSTORE PUSH1 0x41 PUSH1 0x4 MSTORE PUSH1 0x24 PUSH1 0x0 REVERT JUMPDEST SWAP1 PUSH1 0x1F DUP1 NOT SWAP2 ADD AND DUP2 ADD SWAP1 DUP2 LT PUSH8 0xFFFFFFFFFFFFFFFF DUP3 GT OR PUSH2 0x18C1 JUMPI PUSH1 0x40 MSTORE JUMP JUMPDEST SWAP2 SWAP1 DUP3 SUB SWAP2 DUP3 GT PUSH2 0x1906 JUMPI JUMP JUMPDEST PUSH4 0x4E487B71 PUSH1 0xE0 SHL PUSH1 0x0 MSTORE PUSH1 0x11 PUSH1 0x4 MSTORE PUSH1 0x24 PUSH1 0x0 REVERT JUMPDEST DUP2 DUP2 MUL SWAP3 SWAP2 DUP2 ISZERO SWAP2 DUP5 DIV EQ OR ISZERO PUSH2 0x1906 JUMPI JUMP JUMPDEST SWAP2 SWAP1 DUP3 ADD DUP1 SWAP3 GT PUSH2 0x1906 JUMPI JUMP JUMPDEST PUSH1 0x1 PUSH1 0x1 PUSH1 0xA0 SHL SUB AND PUSH1 0x0 SWAP1 DUP2 MSTORE PUSH1 0x8 PUSH1 0x20 MSTORE PUSH1 0x40 DUP1 DUP3 KECCAK256 SWAP1 MLOAD PUSH1 0x80 SWAP1 PUSH2 0x1962 DUP2 PUSH2 0x18A5 JUMP JUMPDEST DUP3 SLOAD SWAP1 DUP2 DUP2 MSTORE PUSH1 0xFF PUSH1 0x4 PUSH1 0x1 DUP7 ADD SLOAD SWAP6 DUP7 PUSH1 0x20 DUP6 ADD MSTORE PUSH1 0x2 DUP2 ADD SLOAD PUSH1 0x40 DUP6 ADD MSTORE PUSH1 0x3 DUP2 ADD SLOAD PUSH1 0x60 DUP6 ADD MSTORE ADD SLOAD AND ISZERO SWAP1 DUP2 ISZERO SWAP4 DUP5 SWAP2 ADD MSTORE SWAP2 PUSH2 0x1A14 JUMPI JUMPDEST POP PUSH2 0x1A0C JUMPI PUSH2 0x19AD SWAP1 TIMESTAMP PUSH2 0x18F9 JUMP JUMPDEST SWAP1 PUSH3 0x76A700 DUP1 DUP4 LT ISZERO PUSH2 0x1A03 JUMPI PUSH2 0x1388 SWAP3 DUP1 DUP5 MUL SWAP4 DUP5 DIV SUB PUSH2 0x19EF JUMPI PUSH2 0x2710 SWAP3 DIV DUP3 ADD DUP1 SWAP3 GT PUSH2 0x19DB JUMPI POP SWAP1 JUMP JUMPDEST PUSH4 0x4E487B71 PUSH1 0xE0 SHL DUP2 MSTORE PUSH1 0x11 PUSH1 0x4 MSTORE PUSH1 0x24 SWAP1 REVERT JUMPDEST PUSH4 0x4E487B71 PUSH1 0xE0 SHL DUP3 MSTORE PUSH1 0x11 PUSH1 0x4 MSTORE PUSH1 0x24 DUP3 REVERT JUMPDEST POP POP POP PUSH2 0x3A98 SWAP1 JUMP JUMPDEST POP POP PUSH2 0x2710 SWAP1 JUMP JUMPDEST SWAP1 POP ISZERO CODESIZE PUSH2 0x199E JUMP JUMPDEST PUSH1 0x1 DUP1 PUSH1 0xA0 SHL SUB DUP2 AND PUSH1 0x0 MSTORE PUSH1 0x8 PUSH1 0x20 MSTORE PUSH1 0x40 PUSH1 0x0 KECCAK256 PUSH1 0x40 MLOAD PUSH2 0x1A3F DUP2 PUSH2 0x18A5 JUMP JUMPDEST DUP2 SLOAD DUP1 DUP3 MSTORE PUSH1 0x1 DUP4 ADD SLOAD SWAP1 DUP2 PUSH1 0x20 DUP5 ADD MSTORE PUSH1 0x2 DUP5 ADD SLOAD PUSH1 0x40 DUP5 ADD MSTORE PUSH1 0xFF PUSH1 0x4 PUSH1 0x3 DUP7 ADD SLOAD SWAP6 PUSH1 0x60 DUP7 ADD SWAP7 DUP8 MSTORE ADD SLOAD AND ISZERO SWAP1 DUP2 ISZERO SWAP2 DUP3 PUSH1 0x80 DUP7 ADD MSTORE SWAP2 PUSH2 0x1AE4 JUMPI JUMPDEST POP PUSH2 0x1ADB JUMPI PUSH2 0x1A8E SWAP1 TIMESTAMP PUSH2 0x18F9 JUMP JUMPDEST SWAP1 MLOAD SWAP1 PUSH2 0x4B0 SWAP2 DUP3 DUP2 MUL SWAP3 DUP2 DUP5 DIV EQ SWAP1 ISZERO OR ISZERO PUSH2 0x1906 JUMPI PUSH2 0x1AD8 SWAP4 PUSH2 0x1AC9 PUSH5 0x496CEBB800 PUSH2 0x1AC2 PUSH2 0x1ACF SWAP5 PUSH2 0x2710 SWAP7 PUSH2 0x191C JUMP JUMPDEST DIV SWAP2 PUSH2 0x193C JUMP JUMPDEST SWAP1 PUSH2 0x191C JUMP JUMPDEST DIV SWAP1 MLOAD SWAP1 PUSH2 0x18F9 JUMP JUMPDEST SWAP1 JUMP JUMPDEST POP POP POP POP PUSH1 0x0 SWAP1 JUMP JUMPDEST SWAP1 POP ISZERO CODESIZE PUSH2 0x1A7F JUMP JUMPDEST PUSH1 0x1 DUP1 PUSH1 0xA0 SHL SUB AND PUSH1 0x0 MSTORE PUSH1 0x8 PUSH1 0x20 MSTORE PUSH1 0x40 PUSH1 0x0 KECCAK256 PUSH1 0x80 PUSH1 0x40 MLOAD SWAP2 PUSH2 0x1B11 DUP4 PUSH2 0x18A5 JUMP JUMPDEST DUP1 SLOAD SWAP3 DUP4 DUP2 MSTORE PUSH1 0x1 DUP3 ADD SLOAD PUSH1 0x20 DUP3 ADD MSTORE PUSH1 0xFF PUSH1 0x4 PUSH1 0x2 DUP5 ADD SLOAD SWAP4 DUP5 PUSH1 0x40 DUP6 ADD MSTORE PUSH1 0x3 DUP2 ADD SLOAD PUSH1 0x60 DUP6 ADD MSTORE ADD SLOAD AND ISZERO SWAP1 DUP2 ISZERO SWAP4 DUP5 SWAP2 ADD MSTORE SWAP2 PUSH2 0x1B74 JUMPI JUMPDEST POP PUSH2 0x1B6E JUMPI PUSH2 0x1F4 SWAP1 DUP2 DUP2 MUL SWAP2 DUP2 DUP4 DIV EQ SWAP1 ISZERO OR ISZERO PUSH2 0x1906 JUMPI PUSH2 0x2710 SWAP1 DIV SWAP1 JUMP JUMPDEST POP PUSH1 0x0 SWAP1 JUMP JUMPDEST SWAP1 POP TIMESTAMP LT CODESIZE PUSH2 0x1B4D JUMP JUMPDEST SWAP1 DUP2 PUSH1 0x20 SWAP2 SUB SLT PUSH2 0x1866 JUMPI MLOAD DUP1 ISZERO ISZERO DUP2 SUB PUSH2 0x1866 JUMPI SWAP1 JUMP JUMPDEST ISZERO PUSH2 0x1B9D JUMPI JUMP JUMPDEST PUSH1 0x40 MLOAD PUSH3 0x461BCD PUSH1 0xE5 SHL DUP2 MSTORE PUSH1 0x20 PUSH1 0x4 DUP3 ADD MSTORE PUSH1 0xF PUSH1 0x24 DUP3 ADD MSTORE PUSH15 0x1514905394D1915497D19052531151 PUSH1 0x8A SHL PUSH1 0x44 DUP3 ADD MSTORE PUSH1 0x64 SWAP1 REVERT JUMPDEST ISZERO PUSH2 0x1BDB JUMPI JUMP JUMPDEST PUSH1 0x40 MLOAD PUSH3 0x461BCD PUSH1 0xE5 SHL DUP2 MSTORE PUSH1 0x20 PUSH1 0x4 DUP3 ADD MSTORE PUSH1 0xE PUSH1 0x24 DUP3 ADD MSTORE PUSH14 0x11115597D1915157D19052531151 PUSH1 0x92 SHL PUSH1 0x44 DUP3 ADD MSTORE PUSH1 0x64 SWAP1 REVERT JUMPDEST ISZERO PUSH2 0x1C18 JUMPI JUMP JUMPDEST PUSH1 0x40 MLOAD PUSH3 0x461BCD PUSH1 0xE5 SHL DUP2 MSTORE PUSH1 0x20 PUSH1 0x4 DUP3 ADD MSTORE PUSH1 0xE PUSH1 0x24 DUP3 ADD MSTORE PUSH14 0x111053D7D1915157D19052531151 PUSH1 0x92 SHL PUSH1 0x44 DUP3 ADD MSTORE PUSH1 0x64 SWAP1 REVERT JUMPDEST ISZERO PUSH2 0x1C55 JUMPI JUMP JUMPDEST PUSH1 0x40 MLOAD PUSH3 0x461BCD PUSH1 0xE5 SHL DUP2 MSTORE PUSH1 0x20 PUSH1 0x4 DUP3 ADD MSTORE PUSH1 0xB PUSH1 0x24 DUP3 ADD MSTORE PUSH11 0x2727AFA827A9A4AA24A7A7 PUSH1 0xA9 SHL PUSH1 0x44 DUP3 ADD MSTORE PUSH1 0x64 SWAP1 REVERT JUMPDEST ISZERO PUSH2 0x1C8F JUMPI JUMP JUMPDEST PUSH1 0x40 MLOAD PUSH3 0x461BCD PUSH1 0xE5 SHL DUP2 MSTORE PUSH1 0x20 PUSH1 0x4 DUP3 ADD MSTORE PUSH1 0x9 PUSH1 0x24 DUP3 ADD MSTORE PUSH9 0x2727AA2FA7ABA722A9 PUSH1 0xB9 SHL PUSH1 0x44 DUP3 ADD MSTORE PUSH1 0x64 SWAP1 REVERT INVALID LOG2 PUSH5 0x6970667358 0x22 SLT KECCAK256 PUSH22 0x211375EC33A9AD50AFE5496DF008F814287FF4C8EE70 EXP PUSH19 0x21C2058955FB1364736F6C6343000814003300 "},"methodIdentifiers":{"BASIS_POINTS()":"e1f1c4a7","BOOST_PRECISION()":"cc6db2da","DAO_FEE_SHARE()":"143ae5b1","DEV_FEE_SHARE()":"5c677192","DIAMOND_APR()":"3367fe16","DIAMOND_BONUS()":"9f0e56dd","DIAMOND_LOCK()":"d805e62d","EES_DAO_SHARE()":"432c4fa2","EES_DEV_SHARE()":"4961ca9f","EES_PENALTY()":"76bce55b","ENTRY_FEE()":"f6d361cc","EXIT_FEE()":"c6580d12","MAX_BOOST()":"315865df","MIN_TOKENS_FOR_VOTING()":"fd10467e","calculateBonus(address)":"7319e5aa","calculateReward(address)":"d82e3962","canVote(address)":"adfaa72e","claimRewards()":"372500ab","daoTreasury()":"79022a9f","daoVotingPool()":"019f7b67","devWallet()":"8ea5220f","dtgcToken()":"9f76ab7c","eesPoolTotal()":"52628d9a","emergencyWithdraw()":"db2e21bc","fundRewards(uint256)":"93707a19","getBoostMultiplier(address)":"6f371efe","getContractStats()":"dfe6b5d6","getPosition(address)":"16c19739","isVerifiedStaker(address)":"751a2d64","lifetimeRewards(address)":"1d336d62","lpToken()":"5fcbd285","owner()":"8da5cb5b","positions(address)":"55f57510","recoverToken(address,uint256)":"b29a8140","rewardToken()":"f7c618c1","setDaoTreasury(address)":"a124df5d","setDaoVotingPool(address)":"6e8a56d9","setDevWallet(address)":"1f53ac02","stake(uint256)":"a694fc3a","totalRewardsDistributed()":"ee172546","totalStaked()":"817b1cd2","totalStakers()":"86989038","transferOwnership(address)":"f2fde38b","withdraw()":"3ccfd60b"}}}}}