{"contracts/DTGCDAOTreasury.sol":{"DTGCDAOTreasury":{"abi":[{"inputs":[],"stateMutability":"nonpayable","type":"constructor"},{"anonymous":false,"inputs":[{"indexed":false,"internalType":"address[]","name":"recipients","type":"address[]"},{"indexed":false,"internalType":"uint256","name":"totalAmount","type":"uint256"}],"name":"CommunityDistribution","type":"event"},{"anonymous":false,"inputs":[{"indexed":true,"internalType":"address","name":"member","type":"address"}],"name":"CouncilMemberAdded","type":"event"},{"anonymous":false,"inputs":[{"indexed":true,"internalType":"address","name":"member","type":"address"}],"name":"CouncilMemberRemoved","type":"event"},{"anonymous":false,"inputs":[{"indexed":false,"internalType":"uint256","name":"newLimit","type":"uint256"}],"name":"DailyLimitUpdated","type":"event"},{"anonymous":false,"inputs":[{"indexed":true,"internalType":"address","name":"oldGuardian","type":"address"},{"indexed":true,"internalType":"address","name":"newGuardian","type":"address"}],"name":"GuardianTransferred","type":"event"},{"anonymous":false,"inputs":[{"indexed":true,"internalType":"address","name":"lpContract","type":"address"},{"indexed":false,"internalType":"uint256","name":"amount","type":"uint256"}],"name":"LPFunded","type":"event"},{"anonymous":false,"inputs":[{"indexed":true,"internalType":"uint256","name":"id","type":"uint256"},{"indexed":true,"internalType":"address","name":"approver","type":"address"}],"name":"ProposalApproved","type":"event"},{"anonymous":false,"inputs":[{"indexed":true,"internalType":"uint256","name":"id","type":"uint256"}],"name":"ProposalCancelled","type":"event"},{"anonymous":false,"inputs":[{"indexed":true,"internalType":"uint256","name":"id","type":"uint256"},{"indexed":true,"internalType":"address","name":"proposer","type":"address"},{"indexed":false,"internalType":"enum DTGCDAOTreasury.ProposalType","name":"pType","type":"uint8"},{"indexed":false,"internalType":"uint256","name":"amount","type":"uint256"}],"name":"ProposalCreated","type":"event"},{"anonymous":false,"inputs":[{"indexed":true,"internalType":"uint256","name":"id","type":"uint256"},{"indexed":true,"internalType":"address","name":"executor","type":"address"}],"name":"ProposalExecuted","type":"event"},{"anonymous":false,"inputs":[{"indexed":true,"internalType":"address","name":"stakingContract","type":"address"},{"indexed":false,"internalType":"uint256","name":"amount","type":"uint256"}],"name":"StakingFunded","type":"event"},{"anonymous":false,"inputs":[{"indexed":true,"internalType":"address","name":"funder","type":"address"},{"indexed":false,"internalType":"uint256","name":"amount","type":"uint256"}],"name":"TreasuryFunded","type":"event"},{"inputs":[],"name":"DTGC","outputs":[{"internalType":"address","name":"","type":"address"}],"stateMutability":"view","type":"function"},{"inputs":[],"name":"PULSE_BURN","outputs":[{"internalType":"address","name":"","type":"address"}],"stateMutability":"view","type":"function"},{"inputs":[],"name":"TOTAL_ALLOCATION","outputs":[{"internalType":"uint256","name":"","type":"uint256"}],"stateMutability":"view","type":"function"},{"inputs":[],"name":"URMOM","outputs":[{"internalType":"address","name":"","type":"address"}],"stateMutability":"view","type":"function"},{"inputs":[],"name":"acceptGuardianship","outputs":[],"stateMutability":"nonpayable","type":"function"},{"inputs":[{"internalType":"address","name":"lpContract","type":"address"}],"name":"approveLPContract","outputs":[],"stateMutability":"nonpayable","type":"function"},{"inputs":[{"internalType":"uint256","name":"proposalId","type":"uint256"}],"name":"approveProposal","outputs":[],"stateMutability":"nonpayable","type":"function"},{"inputs":[{"internalType":"address","name":"stakingContract","type":"address"}],"name":"approveStakingContract","outputs":[],"stateMutability":"nonpayable","type":"function"},{"inputs":[{"internalType":"address","name":"","type":"address"}],"name":"approvedLPContracts","outputs":[{"internalType":"bool","name":"","type":"bool"}],"stateMutability":"view","type":"function"},{"inputs":[{"internalType":"address","name":"","type":"address"}],"name":"approvedStakingContracts","outputs":[{"internalType":"bool","name":"","type":"bool"}],"stateMutability":"view","type":"function"},{"inputs":[{"internalType":"uint256","name":"proposalId","type":"uint256"}],"name":"cancelProposal","outputs":[],"stateMutability":"nonpayable","type":"function"},{"inputs":[],"name":"communityBudget","outputs":[{"internalType":"uint256","name":"","type":"uint256"}],"stateMutability":"view","type":"function"},{"inputs":[{"internalType":"address[]","name":"recipients","type":"address[]"},{"internalType":"uint256[]","name":"amounts","type":"uint256[]"}],"name":"communityDistribute","outputs":[],"stateMutability":"nonpayable","type":"function"},{"inputs":[{"internalType":"uint256","name":"","type":"uint256"}],"name":"councilMembers","outputs":[{"internalType":"address","name":"","type":"address"}],"stateMutability":"view","type":"function"},{"inputs":[],"name":"councilThreshold","outputs":[{"internalType":"uint256","name":"","type":"uint256"}],"stateMutability":"view","type":"function"},{"inputs":[{"internalType":"string","name":"description","type":"string"},{"internalType":"address","name":"targetContract","type":"address"},{"internalType":"uint256","name":"amount","type":"uint256"},{"internalType":"enum DTGCDAOTreasury.ProposalType","name":"pType","type":"uint8"}],"name":"createProposal","outputs":[{"internalType":"uint256","name":"","type":"uint256"}],"stateMutability":"nonpayable","type":"function"},{"inputs":[],"name":"dailyLimit","outputs":[{"internalType":"uint256","name":"","type":"uint256"}],"stateMutability":"view","type":"function"},{"inputs":[],"name":"dtgcToken","outputs":[{"internalType":"contract IPRC20","name":"","type":"address"}],"stateMutability":"view","type":"function"},{"inputs":[{"internalType":"uint256","name":"proposalId","type":"uint256"}],"name":"executeProposal","outputs":[],"stateMutability":"nonpayable","type":"function"},{"inputs":[{"internalType":"address","name":"lpContract","type":"address"},{"internalType":"uint256","name":"amount","type":"uint256"}],"name":"fundLPContract","outputs":[],"stateMutability":"nonpayable","type":"function"},{"inputs":[{"internalType":"address","name":"stakingContract","type":"address"},{"internalType":"uint256","name":"amount","type":"uint256"}],"name":"fundStakingContract","outputs":[],"stateMutability":"nonpayable","type":"function"},{"inputs":[{"internalType":"uint256","name":"amount","type":"uint256"}],"name":"fundTreasury","outputs":[],"stateMutability":"nonpayable","type":"function"},{"inputs":[],"name":"getBudgets","outputs":[{"internalType":"uint256","name":"staking","type":"uint256"},{"internalType":"uint256","name":"lp","type":"uint256"},{"internalType":"uint256","name":"community","type":"uint256"},{"internalType":"uint256","name":"operations","type":"uint256"}],"stateMutability":"view","type":"function"},{"inputs":[],"name":"getCouncilMembers","outputs":[{"internalType":"address[]","name":"","type":"address[]"}],"stateMutability":"view","type":"function"},{"inputs":[],"name":"getDailySpendingStatus","outputs":[{"internalType":"uint256","name":"spent","type":"uint256"},{"internalType":"uint256","name":"limit","type":"uint256"},{"internalType":"uint256","name":"remaining","type":"uint256"},{"internalType":"uint256","name":"resetsIn","type":"uint256"}],"stateMutability":"view","type":"function"},{"inputs":[{"internalType":"uint256","name":"proposalId","type":"uint256"}],"name":"getProposal","outputs":[{"components":[{"internalType":"uint256","name":"id","type":"uint256"},{"internalType":"address","name":"proposer","type":"address"},{"internalType":"string","name":"description","type":"string"},{"internalType":"address","name":"targetContract","type":"address"},{"internalType":"uint256","name":"amount","type":"uint256"},{"internalType":"enum DTGCDAOTreasury.ProposalType","name":"pType","type":"uint8"},{"internalType":"uint256","name":"approvals","type":"uint256"},{"internalType":"uint256","name":"createdAt","type":"uint256"},{"internalType":"uint256","name":"executedAt","type":"uint256"},{"internalType":"bool","name":"executed","type":"bool"},{"internalType":"bool","name":"cancelled","type":"bool"}],"internalType":"struct DTGCDAOTreasury.Proposal","name":"","type":"tuple"}],"stateMutability":"view","type":"function"},{"inputs":[],"name":"getTreasuryBalance","outputs":[{"internalType":"uint256","name":"dtgc","type":"uint256"},{"internalType":"uint256","name":"urmom","type":"uint256"}],"stateMutability":"view","type":"function"},{"inputs":[],"name":"guardian","outputs":[{"internalType":"address","name":"","type":"address"}],"stateMutability":"view","type":"function"},{"inputs":[],"name":"lastDayReset","outputs":[{"internalType":"uint256","name":"","type":"uint256"}],"stateMutability":"view","type":"function"},{"inputs":[],"name":"lpBudget","outputs":[{"internalType":"uint256","name":"","type":"uint256"}],"stateMutability":"view","type":"function"},{"inputs":[],"name":"operationsBudget","outputs":[{"internalType":"uint256","name":"","type":"uint256"}],"stateMutability":"view","type":"function"},{"inputs":[],"name":"pendingGuardian","outputs":[{"internalType":"address","name":"","type":"address"}],"stateMutability":"view","type":"function"},{"inputs":[{"internalType":"uint256","name":"","type":"uint256"},{"internalType":"address","name":"","type":"address"}],"name":"proposalApprovals","outputs":[{"internalType":"bool","name":"","type":"bool"}],"stateMutability":"view","type":"function"},{"inputs":[],"name":"proposalCount","outputs":[{"internalType":"uint256","name":"","type":"uint256"}],"stateMutability":"view","type":"function"},{"inputs":[{"internalType":"uint256","name":"","type":"uint256"}],"name":"proposals","outputs":[{"internalType":"uint256","name":"id","type":"uint256"},{"internalType":"address","name":"proposer","type":"address"},{"internalType":"string","name":"description","type":"string"},{"internalType":"address","name":"targetContract","type":"address"},{"internalType":"uint256","name":"amount","type":"uint256"},{"internalType":"enum DTGCDAOTreasury.ProposalType","name":"pType","type":"uint8"},{"internalType":"uint256","name":"approvals","type":"uint256"},{"internalType":"uint256","name":"createdAt","type":"uint256"},{"internalType":"uint256","name":"executedAt","type":"uint256"},{"internalType":"bool","name":"executed","type":"bool"},{"internalType":"bool","name":"cancelled","type":"bool"}],"stateMutability":"view","type":"function"},{"inputs":[{"internalType":"uint256","name":"newStaking","type":"uint256"},{"internalType":"uint256","name":"newLP","type":"uint256"},{"internalType":"uint256","name":"newCommunity","type":"uint256"},{"internalType":"uint256","name":"newOperations","type":"uint256"}],"name":"reallocateBudgets","outputs":[],"stateMutability":"nonpayable","type":"function"},{"inputs":[{"internalType":"address","name":"lpContract","type":"address"}],"name":"revokeLPContract","outputs":[],"stateMutability":"nonpayable","type":"function"},{"inputs":[{"internalType":"address","name":"stakingContract","type":"address"}],"name":"revokeStakingContract","outputs":[],"stateMutability":"nonpayable","type":"function"},{"inputs":[{"internalType":"uint256","name":"threshold","type":"uint256"}],"name":"setCouncilThreshold","outputs":[],"stateMutability":"nonpayable","type":"function"},{"inputs":[{"internalType":"uint256","name":"newLimit","type":"uint256"}],"name":"setDailyLimit","outputs":[],"stateMutability":"nonpayable","type":"function"},{"inputs":[],"name":"spentToday","outputs":[{"internalType":"uint256","name":"","type":"uint256"}],"stateMutability":"view","type":"function"},{"inputs":[],"name":"stakingBudget","outputs":[{"internalType":"uint256","name":"","type":"uint256"}],"stateMutability":"view","type":"function"},{"inputs":[{"internalType":"address","name":"newGuardian","type":"address"}],"name":"transferGuardianship","outputs":[],"stateMutability":"nonpayable","type":"function"},{"inputs":[],"name":"urmomToken","outputs":[{"internalType":"contract IPRC20","name":"","type":"address"}],"stateMutability":"view","type":"function"}],"evm":{"bytecode":{"linkReferences":{},"object":"60c080604052346100f05769d3c21bcecceda100000060085573d0676b28a457371d58d47e5247b439114e40eb0f60805273e43b3cee3554e120213b8b69caf690b6c04a7ec060a052600080546001600160a01b03191633179055426009556a52b7d2dcc80cd2e40000006004556a295be96e640669720000006005556a18d0bf423c03d8de0000006006556a108b2a2c2802909400000060075561257490816100f68239608051818181610248015281816107a9015281816108bc01528181610a7d015281816117f6015281816119f701528181611c350152611d0b015260a051818181610ac601526113600152f35b600080fdfe608060405260048036101561001357600080fd5b60003560e01c8063013cf08b14611ede5780630d61b51914611b545780630dac7bea14611b2e57806310154c2114611adf578063271c5076146119245780632fabf4201461163257806330491144146115f9578063324a9649146115dc5780633ea745a21461159d578063452a9320146115745780634733c271146115275780635e34085014611475578063606a6b76146113ad57806362324cef1461138f578063640332d51461134a57806367eeba0c1461132c578063691eeedd1461130e5780636ca51011146112cf578063722900e61461125d578063751a6a341461121c57806375c6edb314610e77578063762c31ba14610e4e5780637855daae14610e305780638310762614610e125780638c75733c14610d6c57806398951b5614610c3e5780639927c2c614610c0f578063995e617a14610b675780639b5655dc14610a425780639cef4240146109ba5780639eff9857146107d85780639f76ab7c14610793578063b1b60c5314610775578063b20d30a91461071c578063b77d3747146106fe578063b91f1f92146106cf578063c7f758a814610515578063ca47b8b9146104c6578063da35c664146104a8578063e0a8f6f5146103dd578063e87fbe2f14610391578063eb08584a14610345578063f059cf2b146103275763f6471f4b1461020157600080fd5b3461032257602090816003193601126103225780359182156102f1576040516323b872dd60e01b8152339281019290925230602483015260448201839052808260648160007f00000000000000000000000000000000000000000000000000000000000000006001600160a01b03165af19182156102e5577fda1785fe1dec267c363b06ae3e02c3e086123f9d611399f7a1cc98492518372e926102ad916000916102b8575b50612209565b6040519283523392a2005b6102d89150833d85116102de575b6102d0818361201c565b8101906121f1565b386102a7565b503d6102c6565b6040513d6000823e3d90fd5b60405162461bcd60e51b815291820152600b60248201526a16915493d7d05353d5539560aa1b604482015260649150fd5b600080fd5b34610322576000366003190112610322576020600a54604051908152f35b346103225760203660031901126103225761035e612147565b6000546001600160a01b0391906103789083163314612372565b166000908152600b60205260409020805460ff19169055005b34610322576020366003190112610322576103aa612147565b6000546001600160a01b0391906103c49083163314612372565b166000908152600c60205260409020805460ff19169055005b50346103225760203660031901126103225780359081600052600e6020526009604060002061042360018060a01b0380600184015416331490811561049a575b50612247565b019081549060ff8216610463575061ff0019166101001790557f416e669c63d9a3a5e36ee7cc7e2104b8db28ccd286aa18966e98fa230c73b08c600080a2005b60649060206040519162461bcd60e51b8352820152601060248201526f1053149150511657d1561150d555115160821b6044820152fd5b90506000541633143861041d565b34610322576000366003190112610322576020600d54604051908152f35b34610322576020366003190112610322576104df612147565b6000546001600160a01b0391906104f99083163314612372565b166000908152600c60205260409020805460ff19166001179055005b503461032257602036600319011261032257600061014060405161053881611fe9565b828152826020820152606060408201528260608201528260808201528260a08201528260c08201528260e0820152826101008201528261012082015201528035600052600e60205260ff600960406000206040519361059685611fe9565b8154855260018201546001600160a01b031660208601526105b96002830161203e565b604086015260038201546001600160a01b03166060860152810154608085015260058101546105ed90841660a0860161232a565b600681015460c0850152600781015460e085015260088101546101008501520154818116151561012084015260081c1615156101408201526040518091602082528051602083015260018060a01b0360208201511660408301526040810151610140610667610160928360608701526101808601906120e4565b9260018060a01b036060820151166080860152608081015160a086015261069660a082015160c0870190612124565b60c081015160e086015260e081015161010086015261010081015161012086015261012081015115158286015201511515908301520390f35b3461032257600036600319011261032257602060405173d0676b28a457371d58d47e5247b439114e40eb0f8152f35b34610322576000366003190112610322576020600754604051908152f35b50346103225760203660031901126103225760207f6cd8635c4285386b9de2e59a4c1eaf32ad41f28ae64c308280217d7af51464e0913561076860018060a01b03600054163314612372565b80600855604051908152a1005b34610322576000366003190112610322576020600954604051908152f35b34610322576000366003190112610322576040517f00000000000000000000000000000000000000000000000000000000000000006001600160a01b03168152602090f35b5034610322576040366003190112610322576107f2612147565b6000546001600160a01b039290602435908416331480156109a6575b61081790612247565b61081f6123ad565b61084281600a5461083d6108338383612284565b60085410156122a7565b612284565b600a558383169283600052602092600c845260ff6040600020541615610970576005548084116109385795849260008593610881856108b89a9b6122ea565b6005556040805163a9059cbb60e01b81526001600160a01b0390941691840191825260208201959095529197889485938492910190565b03927f0000000000000000000000000000000000000000000000000000000000000000165af19283156102e5577f11224ec236a848056ae38149a8952287aa7738b4ffb35d745a25ff53acfb43d293610918916000916109215750612209565b604051908152a2005b6102d89150843d86116102de576102d0818361201c565b60405162461bcd60e51b81528083018690526011602482015270115610d1515114d7d31417d0955111d155607a1b6044820152606490fd5b60405162461bcd60e51b8152908101849052600f60248201526e04e4f545f415050524f5645445f4c5608c1b6044820152606490fd5b506108176109b3336123d1565b905061080e565b5034610322576020366003190112610322576109d4612147565b6000546001600160a01b0391906109ee9083163314612372565b16908115610a0f57506001600160601b0360a01b6001541617600155600080f35b60649060206040519162461bcd60e51b8352820152600c60248201526b5a45524f5f4144445245535360a01b6044820152fd5b5034610322576000366003190112610322576040516370a0823160e01b80825230838301526001600160a01b039290919060209081836024817f000000000000000000000000000000000000000000000000000000000000000089165afa9283156102e557600093610b35575b5060248293946040519687938492835230908301527f0000000000000000000000000000000000000000000000000000000000000000165afa9081156102e557600091610b05575b604080945051928352820152f35b80915083813d8311610b2e575b610b1c818361201c565b81010312610322576040925190610af7565b503d610b12565b9180935082813d8311610b60575b610b4d818361201c565b8101031261032257905191906024610aaf565b503d610b43565b5034610322576000366003190112610322576001546001600160a01b03918282169033829003610bd45750806000549384167f9fe65984b511eb7998b3cd481cfd80c807fcc7f28721a790d33c87dc9c879485600080a36001600160a01b03199283161760005516600155005b60649060206040519162461bcd60e51b835282015260146024820152732727aa2fa822a72224a723afa3aaa0a92224a0a760611b6044820152fd5b3461032257600036600319011261032257602060405173e43b3cee3554e120213b8b69caf690b6c04a7ec08152f35b503461032257602090816003193601126103225780359160018060a01b036000541633148015610d58575b610c7290612247565b82600052600e8152604060002091610c9a600984015460ff8116159081610d49575b50612336565b83600052600f8252604060002033600052825260ff60406000205416610d1457506000838152600f8252604080822033835290925220805460ff191660011790556006018054610ce9906122f7565b905533907f049c28adfe50bcf1b76fd95273b6a24566b9f377e52fddc653c3355248dad07a600080a3005b6064916040519162461bcd60e51b8352820152601060248201526f1053149150511657d054141493d5915160821b6044820152fd5b60ff915060081c161538610c94565b50610c72610d65336123d1565b9050610c69565b50346103225760003660031901126103225760095490620151808201809211610dfd5750600a54610de860085492828411600014610df557610dae83856122ea565b905b42811115610dec57610dc39042906122ea565b905b604051948594859094939260609260808301968352602083015260408201520152565b0390f35b50600090610dc5565b600090610db0565b601190634e487b7160e01b6000525260246000fd5b34610322576000366003190112610322576020600554604051908152f35b34610322576000366003190112610322576020600354604051908152f35b34610322576000366003190112610322576001546040516001600160a01b039091168152602090f35b50346103225760803660031901126103225767ffffffffffffffff8135116103225736602382350112156103225767ffffffffffffffff8135820135116103225736813580830135016024011161032257610ed061215d565b9060076064351015610322576000546001600160a01b031633148015611208575b610efa90612247565b610f05600d546122f7565b80600d5560405192610f1684611fe9565b818452336020850152604051610f3a6020601f19601f87358801350116018261201c565b8335808501358083529060240160208301376000843585013582016020015260408501526001600160a01b031660608401526044356080840152610f8360643560a0850161232a565b600060c08401524260e0840152600061010084015260006101208401526000610140840152600052600e602052604060002091805183556001830160018060a01b036020830151166001600160601b0360a01b825416179055604081015192835167ffffffffffffffff81116111f3576110006002830154611faf565b601f81116111ac575b506020601f821160011461113d578192939495600092611132575b50508160011b916000199060031b1c19161760028201555b6003810160018060a01b036060840151166001600160601b0360a01b8254161790556080820151838201556005810160a0830151600781101561111d57600993945060ff8019835416911617905560c0830151600682015560e083015160078201556101008301516008820155019061012081015115159060ff61ff006101408554930151151560081b1692169061ffff1916171790556020600d546040516110e781606435612124565b60443583820152817f89f2ccbe5ce8017189037c67b330b3c300aea4d3f98bf76108c6c8921dbf4ad960403393a3604051908152f35b602185634e487b7160e01b6000525260246000fd5b015190503880611024565b6002830160005260206000209060005b601f1984168110611194575060019394959683601f1981161061117b575b505050811b01600282015561103c565b015160001960f88460031b161c1916905538808061116b565b9091602060018192858b01518155019301910161114d565b600283016000526020600020601f830160051c8101602084106111ec575b601f830160051c820181106111e0575050611009565b600081556001016111ca565b50806111ca565b604184634e487b7160e01b6000525260246000fd5b50610efa611215336123d1565b9050610ef1565b50346103225760203660031901126103225735600254811015610322576112446020916121a4565b905460405160039290921b1c6001600160a01b03168152f35b50346103225760203660031901126103225780359061128760018060a01b03600054163314612372565b60025482116112965750600355005b60649060206040519162461bcd60e51b835282015260126024820152710a890a48aa6909e9888bea89e9ebe90928e960731b6044820152fd5b34610322576020366003190112610322576001600160a01b036112f0612147565b16600052600b602052602060ff604060002054166040519015158152f35b50346103225760003660031901126103225760209054604051908152f35b34610322576000366003190112610322576020600854604051908152f35b34610322576000366003190112610322576040517f00000000000000000000000000000000000000000000000000000000000000006001600160a01b03168152602090f35b34610322576000366003190112610322576020600654604051908152f35b3461032257600036600319011261032257604051806002548083526020809301809160026000527f405787fa12a823e0f2b7631cc41b3ba8828b3321ca811111fa75cd3aa3bb5ace9060005b8682821061145857868661140f8288038361201c565b604051928392818401908285525180915260408401929160005b82811061143857505050500390f35b83516001600160a01b031685528695509381019392810192600101611429565b83546001600160a01b0316855290930192600192830192016113f9565b503461032257608036600319011261032257803560243560443591606435936114a960018060a01b03600054163314612372565b6114bb8561083d8661083d8787612284565b6114e16114d86114cf845460055490612284565b60065490612284565b60075490612284565b036114f25755600555600655600755005b60649060206040519162461bcd60e51b8352820152600e60248201526d0a89ea88298be9a92a69a82a886960931b6044820152fd5b50346103225760403660031901126103225761154161215d565b9035600052600f60205260406000209060018060a01b0316600052602052602060ff604060002054166040519015158152f35b34610322576000366003190112610322576000546040516001600160a01b039091168152602090f35b34610322576020366003190112610322576001600160a01b036115be612147565b16600052600c602052602060ff604060002054166040519015158152f35b346103225760003660031901126103225760206040516103698152f35b50346103225760003660031901126103225754600554600654600754604080519485526020850193909352918301526060820152608090f35b50346103225760403660031901126103225767ffffffffffffffff8135818111610322576116639036908401612173565b916024359081116103225761167b9036908501612173565b6000546001600160a01b039290831633148015611910575b61169c90612247565b8185036118da5760009560005b8381106118b557506006548711611871576116c59593956123ad565b6116ed87600a546116d96108338383612284565b6116e5826006546122ea565b600655612284565b600a5560005b8481106117715750505050604051928160408501604086525260608401929160005b81811061174b577f56ccab27d9e4867c064687fd0550a0ef41045e67c7f019e65fed5c918decec838680878a60208301520390a1005b909192938435908482168092036103225790815260209081019401929190600101611715565b61177f818585999799612306565b35151580611859575b61179e575b611796906122f7565b9593956116f3565b6117b16117ac828989612306565b612316565b906117bd818686612306565b6040805163a9059cbb60e01b81526001600160a01b0390941685850190815291356020838101919091529182918591829101038160008b7f0000000000000000000000000000000000000000000000000000000000000000165af180156102e557611796936118359260009261183c575b5050612209565b905061178d565b6118529250803d106102de576102d0818361201c565b388061182e565b50846118696117ac838a8a612306565b161515611788565b60649060206040519162461bcd60e51b8352820152601860248201527f455843454544535f434f4d4d554e4954595f42554447455400000000000000006044820152fd5b966118cf6118d5916118c88a8787612306565b3590612284565b976122f7565b6116a9565b60405162461bcd60e51b8152602081880152600f60248201526e0988a9c8ea890be9a92a69a82a8869608b1b6044820152606490fd5b5061169c61191d336123d1565b9050611693565b50346103225760403660031901126103225761193e612147565b6000546001600160a01b03929060243590841633148015611acb575b61196390612247565b61196b6123ad565b61197f81600a5461083d6108338383612284565b600a558383169283600052602092600b845260ff6040600020541615611a90578054808411611a5357958492600085936119bd856119f39a9b6122ea565b81556040805163a9059cbb60e01b81526001600160a01b0390941691840191825260208201959095529197889485938492910190565b03927f0000000000000000000000000000000000000000000000000000000000000000165af19283156102e5577f085354d6e9a0501286f4f8aa85f7f810c0c8ea2185f8628c8306cd7a4ab9b08e93610918916000916109215750612209565b60405162461bcd60e51b81528083018690526016602482015275115610d1515114d7d4d51052d25391d7d0955111d15560521b6044820152606490fd5b60405162461bcd60e51b815290810184905260146024820152734e4f545f415050524f5645445f5354414b494e4760601b6044820152606490fd5b50611963611ad8336123d1565b905061195a565b3461032257602036600319011261032257611af8612147565b6000546001600160a01b039190611b129083163314612372565b166000908152600b60205260409020805460ff19166001179055005b346103225760003660031901126103225760206040516aa56fa5b99019a5c80000008152f35b50346103225760208060031936011261032257600054823592906001600160a01b0390811633148015611eca575b611b8b90612247565b83600052600e835260406000206009810180549060ff82161580611ebb575b611bb390612336565b600683015491600392835480911090811591611eb2575b5015611e755760ff19166001179055426008830155600582015460ff16600781101561111d5780611cc25750938383838395611c3197986000960154169788910154948593828252600b8652611c2660ff604084205416612503565b6119bd8582546122ea565b03927f0000000000000000000000000000000000000000000000000000000000000000165af19283156102e5577f085354d6e9a0501286f4f8aa85f7f810c0c8ea2185f8628c8306cd7a4ab9b08e93611c91916000916109215750612209565b604051908152a25b33907f9c85b616f29fca57a17eafe71cf9ff82ffef41766e2cf01ea7f8f7878dd3ec24600080a3005b60018103611d735750938383838395611d0797986000960154169788910154948593828252600c8652611cfb60ff604084205416612503565b610881856005546122ea565b03927f0000000000000000000000000000000000000000000000000000000000000000165af19283156102e5577f11224ec236a848056ae38149a8952287aa7738b4ffb35d745a25ff53acfb43d293611d67916000916109215750612209565b604051908152a2611c99565b909190808303611e4c575001541691611d8b836123d1565b611e1857506002549068010000000000000000821015611e03575081611dba826001611dd994016002556121a4565b90919082549060031b9160018060a01b03809116831b921b1916179055565b7fdcb46b4634af6065fbbeab63938d70a7cc803a67bc6a5bb9f28fb8d9a5c4ce14600080a2611c99565b604190634e487b7160e01b6000525260246000fd5b60405162461bcd60e51b815291820152600e60248201526d20a62922a0a22cafa6a2a6a122a960911b604482015260649150fd5b9094509290919214611e61575b505050611c99565b611e6d92015416612422565b388080611e59565b60405162461bcd60e51b81528087018890526016602482015275494e53554646494349454e545f415050524f56414c5360501b6044820152606490fd5b90501538611bca565b50600882901c60ff1615611baa565b50611b8b611ed7336123d1565b9050611b82565b5034610322576020366003190112610322578035600052600e60205260406000209081549060ff60018060a01b038060018601541694611f206002820161203e565b916003820154169381015483600583015416611f84600684015491600785015493611f6f60096008880154970154976040519c8d9c8d5260208d015260408c61016091829101528c01906120e4565b9860608b015260808a015260a0890190612124565b60c087015260e0860152610100850152818116151561012085015260081c1615156101408301520390f35b90600182811c92168015611fdf575b6020831014611fc957565b634e487b7160e01b600052602260045260246000fd5b91607f1691611fbe565b610160810190811067ffffffffffffffff82111761200657604052565b634e487b7160e01b600052604160045260246000fd5b90601f8019910116810190811067ffffffffffffffff82111761200657604052565b906040519182600082549261205284611faf565b9081845260019485811690816000146120c1575060011461207e575b505061207c9250038361201c565b565b9093915060005260209081600020936000915b8183106120a957505061207c9350820101388061206e565b85548884018501529485019487945091830191612091565b91505061207c94506020925060ff191682840152151560051b820101388061206e565b919082519283825260005b848110612110575050826000602080949584010152601f8019910116010190565b6020818301810151848301820152016120ef565b9060078210156121315752565b634e487b7160e01b600052602160045260246000fd5b600435906001600160a01b038216820361032257565b602435906001600160a01b038216820361032257565b9181601f840112156103225782359167ffffffffffffffff8311610322576020808501948460051b01011161032257565b6002548110156121db5760026000527f405787fa12a823e0f2b7631cc41b3ba8828b3321ca811111fa75cd3aa3bb5ace0190600090565b634e487b7160e01b600052603260045260246000fd5b90816020910312610322575180151581036103225790565b1561221057565b60405162461bcd60e51b815260206004820152600f60248201526e1514905394d1915497d19052531151608a1b6044820152606490fd5b1561224e57565b60405162461bcd60e51b815260206004820152600e60248201526d1393d517d055551213d49256915160921b6044820152606490fd5b9190820180921161229157565b634e487b7160e01b600052601160045260246000fd5b156122ae57565b60405162461bcd60e51b8152602060048201526014602482015273111052531657d31253525517d15610d15151115160621b6044820152606490fd5b9190820391821161229157565b60001981146122915760010190565b91908110156121db5760051b0190565b356001600160a01b03811681036103225790565b60078210156121315752565b1561233d57565b60405162461bcd60e51b815260206004820152600d60248201526c494e56414c49445f535441544560981b6044820152606490fd5b1561237957565b60405162461bcd60e51b815260206004820152600c60248201526b2727aa2fa3aaa0a92224a0a760a11b6044820152606490fd5b600954620151808101809111612291574210156123c657565b6000600a5542600955565b6002549060005b8281106123e757505050600090565b6123f0816121a4565b905460039190911b1c6001600160a01b039081169083161461241a57612415906122f7565b6123d8565b505050600190565b60005b6002805490818310156124fd5761243b836121a4565b90546001600160a01b03868116946003949391929091851b1c8216851461246f57505050505061246a906122f7565b612425565b939550919390926000199182820191821161229157611dba846124946124a1946121a4565b905490891b1c16916121a4565b825480156124e75701926124b4846121a4565b81939154921b1b19169055557fce6ed85c24e62fbd23486204879240944c169dfcde2952b0c15f12bf12029669600080a2565b634e487b7160e01b600052603160045260246000fd5b50505050565b1561250a57565b60405162461bcd60e51b815260206004820152600c60248201526b1393d517d054141493d5915160a21b6044820152606490fdfea26469706673582212203bb06de82a44b9cc424df5a3638bb2b777800aac70e961b9615afe851fea7a7d64736f6c63430008140033","opcodes":"PUSH1 0xC0 DUP1 PUSH1 0x40 MSTORE CALLVALUE PUSH2 0xF0 JUMPI PUSH10 0xD3C21BCECCEDA1000000 PUSH1 0x8 SSTORE PUSH20 0xD0676B28A457371D58D47E5247B439114E40EB0F PUSH1 0x80 MSTORE PUSH20 0xE43B3CEE3554E120213B8B69CAF690B6C04A7EC0 PUSH1 0xA0 MSTORE PUSH1 0x0 DUP1 SLOAD PUSH1 0x1 PUSH1 0x1 PUSH1 0xA0 SHL SUB NOT AND CALLER OR SWAP1 SSTORE TIMESTAMP PUSH1 0x9 SSTORE PUSH11 0x52B7D2DCC80CD2E4000000 PUSH1 0x4 SSTORE PUSH11 0x295BE96E64066972000000 PUSH1 0x5 SSTORE PUSH11 0x18D0BF423C03D8DE000000 PUSH1 0x6 SSTORE PUSH11 0x108B2A2C28029094000000 PUSH1 0x7 SSTORE PUSH2 0x2574 SWAP1 DUP2 PUSH2 0xF6 DUP3 CODECOPY PUSH1 0x80 MLOAD DUP2 DUP2 DUP2 PUSH2 0x248 ADD MSTORE DUP2 DUP2 PUSH2 0x7A9 ADD MSTORE DUP2 DUP2 PUSH2 0x8BC ADD MSTORE DUP2 DUP2 PUSH2 0xA7D ADD MSTORE DUP2 DUP2 PUSH2 0x17F6 ADD MSTORE DUP2 DUP2 PUSH2 0x19F7 ADD MSTORE DUP2 DUP2 PUSH2 0x1C35 ADD MSTORE PUSH2 0x1D0B ADD MSTORE PUSH1 0xA0 MLOAD DUP2 DUP2 DUP2 PUSH2 0xAC6 ADD MSTORE PUSH2 0x1360 ADD MSTORE RETURN JUMPDEST PUSH1 0x0 DUP1 REVERT INVALID PUSH1 0x80 PUSH1 0x40 MSTORE PUSH1 0x4 DUP1 CALLDATASIZE LT ISZERO PUSH2 0x13 JUMPI PUSH1 0x0 DUP1 REVERT JUMPDEST PUSH1 0x0 CALLDATALOAD PUSH1 0xE0 SHR DUP1 PUSH4 0x13CF08B EQ PUSH2 0x1EDE JUMPI DUP1 PUSH4 0xD61B519 EQ PUSH2 0x1B54 JUMPI DUP1 PUSH4 0xDAC7BEA EQ PUSH2 0x1B2E JUMPI DUP1 PUSH4 0x10154C21 EQ PUSH2 0x1ADF JUMPI DUP1 PUSH4 0x271C5076 EQ PUSH2 0x1924 JUMPI DUP1 PUSH4 0x2FABF420 EQ PUSH2 0x1632 JUMPI DUP1 PUSH4 0x30491144 EQ PUSH2 0x15F9 JUMPI DUP1 PUSH4 0x324A9649 EQ PUSH2 0x15DC JUMPI DUP1 PUSH4 0x3EA745A2 EQ PUSH2 0x159D JUMPI DUP1 PUSH4 0x452A9320 EQ PUSH2 0x1574 JUMPI DUP1 PUSH4 0x4733C271 EQ PUSH2 0x1527 JUMPI DUP1 PUSH4 0x5E340850 EQ PUSH2 0x1475 JUMPI DUP1 PUSH4 0x606A6B76 EQ PUSH2 0x13AD JUMPI DUP1 PUSH4 0x62324CEF EQ PUSH2 0x138F JUMPI DUP1 PUSH4 0x640332D5 EQ PUSH2 0x134A JUMPI DUP1 PUSH4 0x67EEBA0C EQ PUSH2 0x132C JUMPI DUP1 PUSH4 0x691EEEDD EQ PUSH2 0x130E JUMPI DUP1 PUSH4 0x6CA51011 EQ PUSH2 0x12CF JUMPI DUP1 PUSH4 0x722900E6 EQ PUSH2 0x125D JUMPI DUP1 PUSH4 0x751A6A34 EQ PUSH2 0x121C JUMPI DUP1 PUSH4 0x75C6EDB3 EQ PUSH2 0xE77 JUMPI DUP1 PUSH4 0x762C31BA EQ PUSH2 0xE4E JUMPI DUP1 PUSH4 0x7855DAAE EQ PUSH2 0xE30 JUMPI DUP1 PUSH4 0x83107626 EQ PUSH2 0xE12 JUMPI DUP1 PUSH4 0x8C75733C EQ PUSH2 0xD6C JUMPI DUP1 PUSH4 0x98951B56 EQ PUSH2 0xC3E JUMPI DUP1 PUSH4 0x9927C2C6 EQ PUSH2 0xC0F JUMPI DUP1 PUSH4 0x995E617A EQ PUSH2 0xB67 JUMPI DUP1 PUSH4 0x9B5655DC EQ PUSH2 0xA42 JUMPI DUP1 PUSH4 0x9CEF4240 EQ PUSH2 0x9BA JUMPI DUP1 PUSH4 0x9EFF9857 EQ PUSH2 0x7D8 JUMPI DUP1 PUSH4 0x9F76AB7C EQ PUSH2 0x793 JUMPI DUP1 PUSH4 0xB1B60C53 EQ PUSH2 0x775 JUMPI DUP1 PUSH4 0xB20D30A9 EQ PUSH2 0x71C JUMPI DUP1 PUSH4 0xB77D3747 EQ PUSH2 0x6FE JUMPI DUP1 PUSH4 0xB91F1F92 EQ PUSH2 0x6CF JUMPI DUP1 PUSH4 0xC7F758A8 EQ PUSH2 0x515 JUMPI DUP1 PUSH4 0xCA47B8B9 EQ PUSH2 0x4C6 JUMPI DUP1 PUSH4 0xDA35C664 EQ PUSH2 0x4A8 JUMPI DUP1 PUSH4 0xE0A8F6F5 EQ PUSH2 0x3DD JUMPI DUP1 PUSH4 0xE87FBE2F EQ PUSH2 0x391 JUMPI DUP1 PUSH4 0xEB08584A EQ PUSH2 0x345 JUMPI DUP1 PUSH4 0xF059CF2B EQ PUSH2 0x327 JUMPI PUSH4 0xF6471F4B EQ PUSH2 0x201 JUMPI PUSH1 0x0 DUP1 REVERT JUMPDEST CALLVALUE PUSH2 0x322 JUMPI PUSH1 0x20 SWAP1 DUP2 PUSH1 0x3 NOT CALLDATASIZE ADD SLT PUSH2 0x322 JUMPI DUP1 CALLDATALOAD SWAP2 DUP3 ISZERO PUSH2 0x2F1 JUMPI PUSH1 0x40 MLOAD PUSH4 0x23B872DD PUSH1 0xE0 SHL DUP2 MSTORE CALLER SWAP3 DUP2 ADD SWAP3 SWAP1 SWAP3 MSTORE ADDRESS PUSH1 0x24 DUP4 ADD MSTORE PUSH1 0x44 DUP3 ADD DUP4 SWAP1 MSTORE DUP1 DUP3 PUSH1 0x64 DUP2 PUSH1 0x0 PUSH32 0x0 PUSH1 0x1 PUSH1 0x1 PUSH1 0xA0 SHL SUB AND GAS CALL SWAP2 DUP3 ISZERO PUSH2 0x2E5 JUMPI PUSH32 0xDA1785FE1DEC267C363B06AE3E02C3E086123F9D611399F7A1CC98492518372E SWAP3 PUSH2 0x2AD SWAP2 PUSH1 0x0 SWAP2 PUSH2 0x2B8 JUMPI JUMPDEST POP PUSH2 0x2209 JUMP JUMPDEST PUSH1 0x40 MLOAD SWAP3 DUP4 MSTORE CALLER SWAP3 LOG2 STOP JUMPDEST PUSH2 0x2D8 SWAP2 POP DUP4 RETURNDATASIZE DUP6 GT PUSH2 0x2DE JUMPI JUMPDEST PUSH2 0x2D0 DUP2 DUP4 PUSH2 0x201C JUMP JUMPDEST DUP2 ADD SWAP1 PUSH2 0x21F1 JUMP JUMPDEST CODESIZE PUSH2 0x2A7 JUMP JUMPDEST POP RETURNDATASIZE PUSH2 0x2C6 JUMP JUMPDEST PUSH1 0x40 MLOAD RETURNDATASIZE PUSH1 0x0 DUP3 RETURNDATACOPY RETURNDATASIZE SWAP1 REVERT JUMPDEST PUSH1 0x40 MLOAD PUSH3 0x461BCD PUSH1 0xE5 SHL DUP2 MSTORE SWAP2 DUP3 ADD MSTORE PUSH1 0xB PUSH1 0x24 DUP3 ADD MSTORE PUSH11 0x16915493D7D05353D55395 PUSH1 0xAA SHL PUSH1 0x44 DUP3 ADD MSTORE PUSH1 0x64 SWAP2 POP REVERT JUMPDEST PUSH1 0x0 DUP1 REVERT JUMPDEST CALLVALUE PUSH2 0x322 JUMPI PUSH1 0x0 CALLDATASIZE PUSH1 0x3 NOT ADD SLT PUSH2 0x322 JUMPI PUSH1 0x20 PUSH1 0xA SLOAD PUSH1 0x40 MLOAD SWAP1 DUP2 MSTORE RETURN JUMPDEST CALLVALUE PUSH2 0x322 JUMPI PUSH1 0x20 CALLDATASIZE PUSH1 0x3 NOT ADD SLT PUSH2 0x322 JUMPI PUSH2 0x35E PUSH2 0x2147 JUMP JUMPDEST PUSH1 0x0 SLOAD PUSH1 0x1 PUSH1 0x1 PUSH1 0xA0 SHL SUB SWAP2 SWAP1 PUSH2 0x378 SWAP1 DUP4 AND CALLER EQ PUSH2 0x2372 JUMP JUMPDEST AND PUSH1 0x0 SWAP1 DUP2 MSTORE PUSH1 0xB PUSH1 0x20 MSTORE PUSH1 0x40 SWAP1 KECCAK256 DUP1 SLOAD PUSH1 0xFF NOT AND SWAP1 SSTORE STOP JUMPDEST CALLVALUE PUSH2 0x322 JUMPI PUSH1 0x20 CALLDATASIZE PUSH1 0x3 NOT ADD SLT PUSH2 0x322 JUMPI PUSH2 0x3AA PUSH2 0x2147 JUMP JUMPDEST PUSH1 0x0 SLOAD PUSH1 0x1 PUSH1 0x1 PUSH1 0xA0 SHL SUB SWAP2 SWAP1 PUSH2 0x3C4 SWAP1 DUP4 AND CALLER EQ PUSH2 0x2372 JUMP JUMPDEST AND PUSH1 0x0 SWAP1 DUP2 MSTORE PUSH1 0xC PUSH1 0x20 MSTORE PUSH1 0x40 SWAP1 KECCAK256 DUP1 SLOAD PUSH1 0xFF NOT AND SWAP1 SSTORE STOP JUMPDEST POP CALLVALUE PUSH2 0x322 JUMPI PUSH1 0x20 CALLDATASIZE PUSH1 0x3 NOT ADD SLT PUSH2 0x322 JUMPI DUP1 CALLDATALOAD SWAP1 DUP2 PUSH1 0x0 MSTORE PUSH1 0xE PUSH1 0x20 MSTORE PUSH1 0x9 PUSH1 0x40 PUSH1 0x0 KECCAK256 PUSH2 0x423 PUSH1 0x1 DUP1 PUSH1 0xA0 SHL SUB DUP1 PUSH1 0x1 DUP5 ADD SLOAD AND CALLER EQ SWAP1 DUP2 ISZERO PUSH2 0x49A JUMPI JUMPDEST POP PUSH2 0x2247 JUMP JUMPDEST ADD SWAP1 DUP2 SLOAD SWAP1 PUSH1 0xFF DUP3 AND PUSH2 0x463 JUMPI POP PUSH2 0xFF00 NOT AND PUSH2 0x100 OR SWAP1 SSTORE PUSH32 0x416E669C63D9A3A5E36EE7CC7E2104B8DB28CCD286AA18966E98FA230C73B08C PUSH1 0x0 DUP1 LOG2 STOP JUMPDEST PUSH1 0x64 SWAP1 PUSH1 0x20 PUSH1 0x40 MLOAD SWAP2 PUSH3 0x461BCD PUSH1 0xE5 SHL DUP4 MSTORE DUP3 ADD MSTORE PUSH1 0x10 PUSH1 0x24 DUP3 ADD MSTORE PUSH16 0x1053149150511657D1561150D5551151 PUSH1 0x82 SHL PUSH1 0x44 DUP3 ADD MSTORE REVERT JUMPDEST SWAP1 POP PUSH1 0x0 SLOAD AND CALLER EQ CODESIZE PUSH2 0x41D JUMP JUMPDEST CALLVALUE PUSH2 0x322 JUMPI PUSH1 0x0 CALLDATASIZE PUSH1 0x3 NOT ADD SLT PUSH2 0x322 JUMPI PUSH1 0x20 PUSH1 0xD SLOAD PUSH1 0x40 MLOAD SWAP1 DUP2 MSTORE RETURN JUMPDEST CALLVALUE PUSH2 0x322 JUMPI PUSH1 0x20 CALLDATASIZE PUSH1 0x3 NOT ADD SLT PUSH2 0x322 JUMPI PUSH2 0x4DF PUSH2 0x2147 JUMP JUMPDEST PUSH1 0x0 SLOAD PUSH1 0x1 PUSH1 0x1 PUSH1 0xA0 SHL SUB SWAP2 SWAP1 PUSH2 0x4F9 SWAP1 DUP4 AND CALLER EQ PUSH2 0x2372 JUMP JUMPDEST AND PUSH1 0x0 SWAP1 DUP2 MSTORE PUSH1 0xC PUSH1 0x20 MSTORE PUSH1 0x40 SWAP1 KECCAK256 DUP1 SLOAD PUSH1 0xFF NOT AND PUSH1 0x1 OR SWAP1 SSTORE STOP JUMPDEST POP CALLVALUE PUSH2 0x322 JUMPI PUSH1 0x20 CALLDATASIZE PUSH1 0x3 NOT ADD SLT PUSH2 0x322 JUMPI PUSH1 0x0 PUSH2 0x140 PUSH1 0x40 MLOAD PUSH2 0x538 DUP2 PUSH2 0x1FE9 JUMP JUMPDEST DUP3 DUP2 MSTORE DUP3 PUSH1 0x20 DUP3 ADD MSTORE PUSH1 0x60 PUSH1 0x40 DUP3 ADD MSTORE DUP3 PUSH1 0x60 DUP3 ADD MSTORE DUP3 PUSH1 0x80 DUP3 ADD MSTORE DUP3 PUSH1 0xA0 DUP3 ADD MSTORE DUP3 PUSH1 0xC0 DUP3 ADD MSTORE DUP3 PUSH1 0xE0 DUP3 ADD MSTORE DUP3 PUSH2 0x100 DUP3 ADD MSTORE DUP3 PUSH2 0x120 DUP3 ADD MSTORE ADD MSTORE DUP1 CALLDATALOAD PUSH1 0x0 MSTORE PUSH1 0xE PUSH1 0x20 MSTORE PUSH1 0xFF PUSH1 0x9 PUSH1 0x40 PUSH1 0x0 KECCAK256 PUSH1 0x40 MLOAD SWAP4 PUSH2 0x596 DUP6 PUSH2 0x1FE9 JUMP JUMPDEST DUP2 SLOAD DUP6 MSTORE PUSH1 0x1 DUP3 ADD SLOAD PUSH1 0x1 PUSH1 0x1 PUSH1 0xA0 SHL SUB AND PUSH1 0x20 DUP7 ADD MSTORE PUSH2 0x5B9 PUSH1 0x2 DUP4 ADD PUSH2 0x203E JUMP JUMPDEST PUSH1 0x40 DUP7 ADD MSTORE PUSH1 0x3 DUP3 ADD SLOAD PUSH1 0x1 PUSH1 0x1 PUSH1 0xA0 SHL SUB AND PUSH1 0x60 DUP7 ADD MSTORE DUP2 ADD SLOAD PUSH1 0x80 DUP6 ADD MSTORE PUSH1 0x5 DUP2 ADD SLOAD PUSH2 0x5ED SWAP1 DUP5 AND PUSH1 0xA0 DUP7 ADD PUSH2 0x232A JUMP JUMPDEST PUSH1 0x6 DUP2 ADD SLOAD PUSH1 0xC0 DUP6 ADD MSTORE PUSH1 0x7 DUP2 ADD SLOAD PUSH1 0xE0 DUP6 ADD MSTORE PUSH1 0x8 DUP2 ADD SLOAD PUSH2 0x100 DUP6 ADD MSTORE ADD SLOAD DUP2 DUP2 AND ISZERO ISZERO PUSH2 0x120 DUP5 ADD MSTORE PUSH1 0x8 SHR AND ISZERO ISZERO PUSH2 0x140 DUP3 ADD MSTORE PUSH1 0x40 MLOAD DUP1 SWAP2 PUSH1 0x20 DUP3 MSTORE DUP1 MLOAD PUSH1 0x20 DUP4 ADD MSTORE PUSH1 0x1 DUP1 PUSH1 0xA0 SHL SUB PUSH1 0x20 DUP3 ADD MLOAD AND PUSH1 0x40 DUP4 ADD MSTORE PUSH1 0x40 DUP2 ADD MLOAD PUSH2 0x140 PUSH2 0x667 PUSH2 0x160 SWAP3 DUP4 PUSH1 0x60 DUP8 ADD MSTORE PUSH2 0x180 DUP7 ADD SWAP1 PUSH2 0x20E4 JUMP JUMPDEST SWAP3 PUSH1 0x1 DUP1 PUSH1 0xA0 SHL SUB PUSH1 0x60 DUP3 ADD MLOAD AND PUSH1 0x80 DUP7 ADD MSTORE PUSH1 0x80 DUP2 ADD MLOAD PUSH1 0xA0 DUP7 ADD MSTORE PUSH2 0x696 PUSH1 0xA0 DUP3 ADD MLOAD PUSH1 0xC0 DUP8 ADD SWAP1 PUSH2 0x2124 JUMP JUMPDEST PUSH1 0xC0 DUP2 ADD MLOAD PUSH1 0xE0 DUP7 ADD MSTORE PUSH1 0xE0 DUP2 ADD MLOAD PUSH2 0x100 DUP7 ADD MSTORE PUSH2 0x100 DUP2 ADD MLOAD PUSH2 0x120 DUP7 ADD MSTORE PUSH2 0x120 DUP2 ADD MLOAD ISZERO ISZERO DUP3 DUP7 ADD MSTORE ADD MLOAD ISZERO ISZERO SWAP1 DUP4 ADD MSTORE SUB SWAP1 RETURN JUMPDEST CALLVALUE PUSH2 0x322 JUMPI PUSH1 0x0 CALLDATASIZE PUSH1 0x3 NOT ADD SLT PUSH2 0x322 JUMPI PUSH1 0x20 PUSH1 0x40 MLOAD PUSH20 0xD0676B28A457371D58D47E5247B439114E40EB0F DUP2 MSTORE RETURN JUMPDEST CALLVALUE PUSH2 0x322 JUMPI PUSH1 0x0 CALLDATASIZE PUSH1 0x3 NOT ADD SLT PUSH2 0x322 JUMPI PUSH1 0x20 PUSH1 0x7 SLOAD PUSH1 0x40 MLOAD SWAP1 DUP2 MSTORE RETURN JUMPDEST POP CALLVALUE PUSH2 0x322 JUMPI PUSH1 0x20 CALLDATASIZE PUSH1 0x3 NOT ADD SLT PUSH2 0x322 JUMPI PUSH1 0x20 PUSH32 0x6CD8635C4285386B9DE2E59A4C1EAF32AD41F28AE64C308280217D7AF51464E0 SWAP2 CALLDATALOAD PUSH2 0x768 PUSH1 0x1 DUP1 PUSH1 0xA0 SHL SUB PUSH1 0x0 SLOAD AND CALLER EQ PUSH2 0x2372 JUMP JUMPDEST DUP1 PUSH1 0x8 SSTORE PUSH1 0x40 MLOAD SWAP1 DUP2 MSTORE LOG1 STOP JUMPDEST CALLVALUE PUSH2 0x322 JUMPI PUSH1 0x0 CALLDATASIZE PUSH1 0x3 NOT ADD SLT PUSH2 0x322 JUMPI PUSH1 0x20 PUSH1 0x9 SLOAD PUSH1 0x40 MLOAD SWAP1 DUP2 MSTORE RETURN JUMPDEST CALLVALUE PUSH2 0x322 JUMPI PUSH1 0x0 CALLDATASIZE PUSH1 0x3 NOT ADD SLT PUSH2 0x322 JUMPI PUSH1 0x40 MLOAD PUSH32 0x0 PUSH1 0x1 PUSH1 0x1 PUSH1 0xA0 SHL SUB AND DUP2 MSTORE PUSH1 0x20 SWAP1 RETURN JUMPDEST POP CALLVALUE PUSH2 0x322 JUMPI PUSH1 0x40 CALLDATASIZE PUSH1 0x3 NOT ADD SLT PUSH2 0x322 JUMPI PUSH2 0x7F2 PUSH2 0x2147 JUMP JUMPDEST PUSH1 0x0 SLOAD PUSH1 0x1 PUSH1 0x1 PUSH1 0xA0 SHL SUB SWAP3 SWAP1 PUSH1 0x24 CALLDATALOAD SWAP1 DUP5 AND CALLER EQ DUP1 ISZERO PUSH2 0x9A6 JUMPI JUMPDEST PUSH2 0x817 SWAP1 PUSH2 0x2247 JUMP JUMPDEST PUSH2 0x81F PUSH2 0x23AD JUMP JUMPDEST PUSH2 0x842 DUP2 PUSH1 0xA SLOAD PUSH2 0x83D PUSH2 0x833 DUP4 DUP4 PUSH2 0x2284 JUMP JUMPDEST PUSH1 0x8 SLOAD LT ISZERO PUSH2 0x22A7 JUMP JUMPDEST PUSH2 0x2284 JUMP JUMPDEST PUSH1 0xA SSTORE DUP4 DUP4 AND SWAP3 DUP4 PUSH1 0x0 MSTORE PUSH1 0x20 SWAP3 PUSH1 0xC DUP5 MSTORE PUSH1 0xFF PUSH1 0x40 PUSH1 0x0 KECCAK256 SLOAD AND ISZERO PUSH2 0x970 JUMPI PUSH1 0x5 SLOAD DUP1 DUP5 GT PUSH2 0x938 JUMPI SWAP6 DUP5 SWAP3 PUSH1 0x0 DUP6 SWAP4 PUSH2 0x881 DUP6 PUSH2 0x8B8 SWAP11 SWAP12 PUSH2 0x22EA JUMP JUMPDEST PUSH1 0x5 SSTORE PUSH1 0x40 DUP1 MLOAD PUSH4 0xA9059CBB PUSH1 0xE0 SHL DUP2 MSTORE PUSH1 0x1 PUSH1 0x1 PUSH1 0xA0 SHL SUB SWAP1 SWAP5 AND SWAP2 DUP5 ADD SWAP2 DUP3 MSTORE PUSH1 0x20 DUP3 ADD SWAP6 SWAP1 SWAP6 MSTORE SWAP2 SWAP8 DUP9 SWAP5 DUP6 SWAP4 DUP5 SWAP3 SWAP2 ADD SWAP1 JUMP JUMPDEST SUB SWAP3 PUSH32 0x0 AND GAS CALL SWAP3 DUP4 ISZERO PUSH2 0x2E5 JUMPI PUSH32 0x11224EC236A848056AE38149A8952287AA7738B4FFB35D745A25FF53ACFB43D2 SWAP4 PUSH2 0x918 SWAP2 PUSH1 0x0 SWAP2 PUSH2 0x921 JUMPI POP PUSH2 0x2209 JUMP JUMPDEST PUSH1 0x40 MLOAD SWAP1 DUP2 MSTORE LOG2 STOP JUMPDEST PUSH2 0x2D8 SWAP2 POP DUP5 RETURNDATASIZE DUP7 GT PUSH2 0x2DE JUMPI PUSH2 0x2D0 DUP2 DUP4 PUSH2 0x201C JUMP JUMPDEST PUSH1 0x40 MLOAD PUSH3 0x461BCD PUSH1 0xE5 SHL DUP2 MSTORE DUP1 DUP4 ADD DUP7 SWAP1 MSTORE PUSH1 0x11 PUSH1 0x24 DUP3 ADD MSTORE PUSH17 0x115610D1515114D7D31417D0955111D155 PUSH1 0x7A SHL PUSH1 0x44 DUP3 ADD MSTORE PUSH1 0x64 SWAP1 REVERT JUMPDEST PUSH1 0x40 MLOAD PUSH3 0x461BCD PUSH1 0xE5 SHL DUP2 MSTORE SWAP1 DUP2 ADD DUP5 SWAP1 MSTORE PUSH1 0xF PUSH1 0x24 DUP3 ADD MSTORE PUSH15 0x4E4F545F415050524F5645445F4C5 PUSH1 0x8C SHL PUSH1 0x44 DUP3 ADD MSTORE PUSH1 0x64 SWAP1 REVERT JUMPDEST POP PUSH2 0x817 PUSH2 0x9B3 CALLER PUSH2 0x23D1 JUMP JUMPDEST SWAP1 POP PUSH2 0x80E JUMP JUMPDEST POP CALLVALUE PUSH2 0x322 JUMPI PUSH1 0x20 CALLDATASIZE PUSH1 0x3 NOT ADD SLT PUSH2 0x322 JUMPI PUSH2 0x9D4 PUSH2 0x2147 JUMP JUMPDEST PUSH1 0x0 SLOAD PUSH1 0x1 PUSH1 0x1 PUSH1 0xA0 SHL SUB SWAP2 SWAP1 PUSH2 0x9EE SWAP1 DUP4 AND CALLER EQ PUSH2 0x2372 JUMP JUMPDEST AND SWAP1 DUP2 ISZERO PUSH2 0xA0F JUMPI POP PUSH1 0x1 PUSH1 0x1 PUSH1 0x60 SHL SUB PUSH1 0xA0 SHL PUSH1 0x1 SLOAD AND OR PUSH1 0x1 SSTORE PUSH1 0x0 DUP1 RETURN JUMPDEST PUSH1 0x64 SWAP1 PUSH1 0x20 PUSH1 0x40 MLOAD SWAP2 PUSH3 0x461BCD PUSH1 0xE5 SHL DUP4 MSTORE DUP3 ADD MSTORE PUSH1 0xC PUSH1 0x24 DUP3 ADD MSTORE PUSH12 0x5A45524F5F41444452455353 PUSH1 0xA0 SHL PUSH1 0x44 DUP3 ADD MSTORE REVERT JUMPDEST POP CALLVALUE PUSH2 0x322 JUMPI PUSH1 0x0 CALLDATASIZE PUSH1 0x3 NOT ADD SLT PUSH2 0x322 JUMPI PUSH1 0x40 MLOAD PUSH4 0x70A08231 PUSH1 0xE0 SHL DUP1 DUP3 MSTORE ADDRESS DUP4 DUP4 ADD MSTORE PUSH1 0x1 PUSH1 0x1 PUSH1 0xA0 SHL SUB SWAP3 SWAP1 SWAP2 SWAP1 PUSH1 0x20 SWAP1 DUP2 DUP4 PUSH1 0x24 DUP2 PUSH32 0x0 DUP10 AND GAS STATICCALL SWAP3 DUP4 ISZERO PUSH2 0x2E5 JUMPI PUSH1 0x0 SWAP4 PUSH2 0xB35 JUMPI JUMPDEST POP PUSH1 0x24 DUP3 SWAP4 SWAP5 PUSH1 0x40 MLOAD SWAP7 DUP8 SWAP4 DUP5 SWAP3 DUP4 MSTORE ADDRESS SWAP1 DUP4 ADD MSTORE PUSH32 0x0 AND GAS STATICCALL SWAP1 DUP2 ISZERO PUSH2 0x2E5 JUMPI PUSH1 0x0 SWAP2 PUSH2 0xB05 JUMPI JUMPDEST PUSH1 0x40 DUP1 SWAP5 POP MLOAD SWAP3 DUP4 MSTORE DUP3 ADD MSTORE RETURN JUMPDEST DUP1 SWAP2 POP DUP4 DUP2 RETURNDATASIZE DUP4 GT PUSH2 0xB2E JUMPI JUMPDEST PUSH2 0xB1C DUP2 DUP4 PUSH2 0x201C JUMP JUMPDEST DUP2 ADD SUB SLT PUSH2 0x322 JUMPI PUSH1 0x40 SWAP3 MLOAD SWAP1 PUSH2 0xAF7 JUMP JUMPDEST POP RETURNDATASIZE PUSH2 0xB12 JUMP JUMPDEST SWAP2 DUP1 SWAP4 POP DUP3 DUP2 RETURNDATASIZE DUP4 GT PUSH2 0xB60 JUMPI JUMPDEST PUSH2 0xB4D DUP2 DUP4 PUSH2 0x201C JUMP JUMPDEST DUP2 ADD SUB SLT PUSH2 0x322 JUMPI SWAP1 MLOAD SWAP2 SWAP1 PUSH1 0x24 PUSH2 0xAAF JUMP JUMPDEST POP RETURNDATASIZE PUSH2 0xB43 JUMP JUMPDEST POP CALLVALUE PUSH2 0x322 JUMPI PUSH1 0x0 CALLDATASIZE PUSH1 0x3 NOT ADD SLT PUSH2 0x322 JUMPI PUSH1 0x1 SLOAD PUSH1 0x1 PUSH1 0x1 PUSH1 0xA0 SHL SUB SWAP2 DUP3 DUP3 AND SWAP1 CALLER DUP3 SWAP1 SUB PUSH2 0xBD4 JUMPI POP DUP1 PUSH1 0x0 SLOAD SWAP4 DUP5 AND PUSH32 0x9FE65984B511EB7998B3CD481CFD80C807FCC7F28721A790D33C87DC9C879485 PUSH1 0x0 DUP1 LOG3 PUSH1 0x1 PUSH1 0x1 PUSH1 0xA0 SHL SUB NOT SWAP3 DUP4 AND OR PUSH1 0x0 SSTORE AND PUSH1 0x1 SSTORE STOP JUMPDEST PUSH1 0x64 SWAP1 PUSH1 0x20 PUSH1 0x40 MLOAD SWAP2 PUSH3 0x461BCD PUSH1 0xE5 SHL DUP4 MSTORE DUP3 ADD MSTORE PUSH1 0x14 PUSH1 0x24 DUP3 ADD MSTORE PUSH20 0x2727AA2FA822A72224A723AFA3AAA0A92224A0A7 PUSH1 0x61 SHL PUSH1 0x44 DUP3 ADD MSTORE REVERT JUMPDEST CALLVALUE PUSH2 0x322 JUMPI PUSH1 0x0 CALLDATASIZE PUSH1 0x3 NOT ADD SLT PUSH2 0x322 JUMPI PUSH1 0x20 PUSH1 0x40 MLOAD PUSH20 0xE43B3CEE3554E120213B8B69CAF690B6C04A7EC0 DUP2 MSTORE RETURN JUMPDEST POP CALLVALUE PUSH2 0x322 JUMPI PUSH1 0x20 SWAP1 DUP2 PUSH1 0x3 NOT CALLDATASIZE ADD SLT PUSH2 0x322 JUMPI DUP1 CALLDATALOAD SWAP2 PUSH1 0x1 DUP1 PUSH1 0xA0 SHL SUB PUSH1 0x0 SLOAD AND CALLER EQ DUP1 ISZERO PUSH2 0xD58 JUMPI JUMPDEST PUSH2 0xC72 SWAP1 PUSH2 0x2247 JUMP JUMPDEST DUP3 PUSH1 0x0 MSTORE PUSH1 0xE DUP2 MSTORE PUSH1 0x40 PUSH1 0x0 KECCAK256 SWAP2 PUSH2 0xC9A PUSH1 0x9 DUP5 ADD SLOAD PUSH1 0xFF DUP2 AND ISZERO SWAP1 DUP2 PUSH2 0xD49 JUMPI JUMPDEST POP PUSH2 0x2336 JUMP JUMPDEST DUP4 PUSH1 0x0 MSTORE PUSH1 0xF DUP3 MSTORE PUSH1 0x40 PUSH1 0x0 KECCAK256 CALLER PUSH1 0x0 MSTORE DUP3 MSTORE PUSH1 0xFF PUSH1 0x40 PUSH1 0x0 KECCAK256 SLOAD AND PUSH2 0xD14 JUMPI POP PUSH1 0x0 DUP4 DUP2 MSTORE PUSH1 0xF DUP3 MSTORE PUSH1 0x40 DUP1 DUP3 KECCAK256 CALLER DUP4 MSTORE SWAP1 SWAP3 MSTORE KECCAK256 DUP1 SLOAD PUSH1 0xFF NOT AND PUSH1 0x1 OR SWAP1 SSTORE PUSH1 0x6 ADD DUP1 SLOAD PUSH2 0xCE9 SWAP1 PUSH2 0x22F7 JUMP JUMPDEST SWAP1 SSTORE CALLER SWAP1 PUSH32 0x49C28ADFE50BCF1B76FD95273B6A24566B9F377E52FDDC653C3355248DAD07A PUSH1 0x0 DUP1 LOG3 STOP JUMPDEST PUSH1 0x64 SWAP2 PUSH1 0x40 MLOAD SWAP2 PUSH3 0x461BCD PUSH1 0xE5 SHL DUP4 MSTORE DUP3 ADD MSTORE PUSH1 0x10 PUSH1 0x24 DUP3 ADD MSTORE PUSH16 0x1053149150511657D054141493D59151 PUSH1 0x82 SHL PUSH1 0x44 DUP3 ADD MSTORE REVERT JUMPDEST PUSH1 0xFF SWAP2 POP PUSH1 0x8 SHR AND ISZERO CODESIZE PUSH2 0xC94 JUMP JUMPDEST POP PUSH2 0xC72 PUSH2 0xD65 CALLER PUSH2 0x23D1 JUMP JUMPDEST SWAP1 POP PUSH2 0xC69 JUMP JUMPDEST POP CALLVALUE PUSH2 0x322 JUMPI PUSH1 0x0 CALLDATASIZE PUSH1 0x3 NOT ADD SLT PUSH2 0x322 JUMPI PUSH1 0x9 SLOAD SWAP1 PUSH3 0x15180 DUP3 ADD DUP1 SWAP3 GT PUSH2 0xDFD JUMPI POP PUSH1 0xA SLOAD PUSH2 0xDE8 PUSH1 0x8 SLOAD SWAP3 DUP3 DUP5 GT PUSH1 0x0 EQ PUSH2 0xDF5 JUMPI PUSH2 0xDAE DUP4 DUP6 PUSH2 0x22EA JUMP JUMPDEST SWAP1 JUMPDEST TIMESTAMP DUP2 GT ISZERO PUSH2 0xDEC JUMPI PUSH2 0xDC3 SWAP1 TIMESTAMP SWAP1 PUSH2 0x22EA JUMP JUMPDEST SWAP1 JUMPDEST PUSH1 0x40 MLOAD SWAP5 DUP6 SWAP5 DUP6 SWAP1 SWAP5 SWAP4 SWAP3 PUSH1 0x60 SWAP3 PUSH1 0x80 DUP4 ADD SWAP7 DUP4 MSTORE PUSH1 0x20 DUP4 ADD MSTORE PUSH1 0x40 DUP3 ADD MSTORE ADD MSTORE JUMP JUMPDEST SUB SWAP1 RETURN JUMPDEST POP PUSH1 0x0 SWAP1 PUSH2 0xDC5 JUMP JUMPDEST PUSH1 0x0 SWAP1 PUSH2 0xDB0 JUMP JUMPDEST PUSH1 0x11 SWAP1 PUSH4 0x4E487B71 PUSH1 0xE0 SHL PUSH1 0x0 MSTORE MSTORE PUSH1 0x24 PUSH1 0x0 REVERT JUMPDEST CALLVALUE PUSH2 0x322 JUMPI PUSH1 0x0 CALLDATASIZE PUSH1 0x3 NOT ADD SLT PUSH2 0x322 JUMPI PUSH1 0x20 PUSH1 0x5 SLOAD PUSH1 0x40 MLOAD SWAP1 DUP2 MSTORE RETURN JUMPDEST CALLVALUE PUSH2 0x322 JUMPI PUSH1 0x0 CALLDATASIZE PUSH1 0x3 NOT ADD SLT PUSH2 0x322 JUMPI PUSH1 0x20 PUSH1 0x3 SLOAD PUSH1 0x40 MLOAD SWAP1 DUP2 MSTORE RETURN JUMPDEST CALLVALUE PUSH2 0x322 JUMPI PUSH1 0x0 CALLDATASIZE PUSH1 0x3 NOT ADD SLT PUSH2 0x322 JUMPI PUSH1 0x1 SLOAD PUSH1 0x40 MLOAD PUSH1 0x1 PUSH1 0x1 PUSH1 0xA0 SHL SUB SWAP1 SWAP2 AND DUP2 MSTORE PUSH1 0x20 SWAP1 RETURN JUMPDEST POP CALLVALUE PUSH2 0x322 JUMPI PUSH1 0x80 CALLDATASIZE PUSH1 0x3 NOT ADD SLT PUSH2 0x322 JUMPI PUSH8 0xFFFFFFFFFFFFFFFF DUP2 CALLDATALOAD GT PUSH2 0x322 JUMPI CALLDATASIZE PUSH1 0x23 DUP3 CALLDATALOAD ADD SLT ISZERO PUSH2 0x322 JUMPI PUSH8 0xFFFFFFFFFFFFFFFF DUP2 CALLDATALOAD DUP3 ADD CALLDATALOAD GT PUSH2 0x322 JUMPI CALLDATASIZE DUP2 CALLDATALOAD DUP1 DUP4 ADD CALLDATALOAD ADD PUSH1 0x24 ADD GT PUSH2 0x322 JUMPI PUSH2 0xED0 PUSH2 0x215D JUMP JUMPDEST SWAP1 PUSH1 0x7 PUSH1 0x64 CALLDATALOAD LT ISZERO PUSH2 0x322 JUMPI PUSH1 0x0 SLOAD PUSH1 0x1 PUSH1 0x1 PUSH1 0xA0 SHL SUB AND CALLER EQ DUP1 ISZERO PUSH2 0x1208 JUMPI JUMPDEST PUSH2 0xEFA SWAP1 PUSH2 0x2247 JUMP JUMPDEST PUSH2 0xF05 PUSH1 0xD SLOAD PUSH2 0x22F7 JUMP JUMPDEST DUP1 PUSH1 0xD SSTORE PUSH1 0x40 MLOAD SWAP3 PUSH2 0xF16 DUP5 PUSH2 0x1FE9 JUMP JUMPDEST DUP2 DUP5 MSTORE CALLER PUSH1 0x20 DUP6 ADD MSTORE PUSH1 0x40 MLOAD PUSH2 0xF3A PUSH1 0x20 PUSH1 0x1F NOT PUSH1 0x1F DUP8 CALLDATALOAD DUP9 ADD CALLDATALOAD ADD AND ADD DUP3 PUSH2 0x201C JUMP JUMPDEST DUP4 CALLDATALOAD DUP1 DUP6 ADD CALLDATALOAD DUP1 DUP4 MSTORE SWAP1 PUSH1 0x24 ADD PUSH1 0x20 DUP4 ADD CALLDATACOPY PUSH1 0x0 DUP5 CALLDATALOAD DUP6 ADD CALLDATALOAD DUP3 ADD PUSH1 0x20 ADD MSTORE PUSH1 0x40 DUP6 ADD MSTORE PUSH1 0x1 PUSH1 0x1 PUSH1 0xA0 SHL SUB AND PUSH1 0x60 DUP5 ADD MSTORE PUSH1 0x44 CALLDATALOAD PUSH1 0x80 DUP5 ADD MSTORE PUSH2 0xF83 PUSH1 0x64 CALLDATALOAD PUSH1 0xA0 DUP6 ADD PUSH2 0x232A JUMP JUMPDEST PUSH1 0x0 PUSH1 0xC0 DUP5 ADD MSTORE TIMESTAMP PUSH1 0xE0 DUP5 ADD MSTORE PUSH1 0x0 PUSH2 0x100 DUP5 ADD MSTORE PUSH1 0x0 PUSH2 0x120 DUP5 ADD MSTORE PUSH1 0x0 PUSH2 0x140 DUP5 ADD MSTORE PUSH1 0x0 MSTORE PUSH1 0xE PUSH1 0x20 MSTORE PUSH1 0x40 PUSH1 0x0 KECCAK256 SWAP2 DUP1 MLOAD DUP4 SSTORE PUSH1 0x1 DUP4 ADD PUSH1 0x1 DUP1 PUSH1 0xA0 SHL SUB PUSH1 0x20 DUP4 ADD MLOAD AND PUSH1 0x1 PUSH1 0x1 PUSH1 0x60 SHL SUB PUSH1 0xA0 SHL DUP3 SLOAD AND OR SWAP1 SSTORE PUSH1 0x40 DUP2 ADD MLOAD SWAP3 DUP4 MLOAD PUSH8 0xFFFFFFFFFFFFFFFF DUP2 GT PUSH2 0x11F3 JUMPI PUSH2 0x1000 PUSH1 0x2 DUP4 ADD SLOAD PUSH2 0x1FAF JUMP JUMPDEST PUSH1 0x1F DUP2 GT PUSH2 0x11AC JUMPI JUMPDEST POP PUSH1 0x20 PUSH1 0x1F DUP3 GT PUSH1 0x1 EQ PUSH2 0x113D JUMPI DUP2 SWAP3 SWAP4 SWAP5 SWAP6 PUSH1 0x0 SWAP3 PUSH2 0x1132 JUMPI JUMPDEST POP POP DUP2 PUSH1 0x1 SHL SWAP2 PUSH1 0x0 NOT SWAP1 PUSH1 0x3 SHL SHR NOT AND OR PUSH1 0x2 DUP3 ADD SSTORE JUMPDEST PUSH1 0x3 DUP2 ADD PUSH1 0x1 DUP1 PUSH1 0xA0 SHL SUB PUSH1 0x60 DUP5 ADD MLOAD AND PUSH1 0x1 PUSH1 0x1 PUSH1 0x60 SHL SUB PUSH1 0xA0 SHL DUP3 SLOAD AND OR SWAP1 SSTORE PUSH1 0x80 DUP3 ADD MLOAD DUP4 DUP3 ADD SSTORE PUSH1 0x5 DUP2 ADD PUSH1 0xA0 DUP4 ADD MLOAD PUSH1 0x7 DUP2 LT ISZERO PUSH2 0x111D JUMPI PUSH1 0x9 SWAP4 SWAP5 POP PUSH1 0xFF DUP1 NOT DUP4 SLOAD AND SWAP2 AND OR SWAP1 SSTORE PUSH1 0xC0 DUP4 ADD MLOAD PUSH1 0x6 DUP3 ADD SSTORE PUSH1 0xE0 DUP4 ADD MLOAD PUSH1 0x7 DUP3 ADD SSTORE PUSH2 0x100 DUP4 ADD MLOAD PUSH1 0x8 DUP3 ADD SSTORE ADD SWAP1 PUSH2 0x120 DUP2 ADD MLOAD ISZERO ISZERO SWAP1 PUSH1 0xFF PUSH2 0xFF00 PUSH2 0x140 DUP6 SLOAD SWAP4 ADD MLOAD ISZERO ISZERO PUSH1 0x8 SHL AND SWAP3 AND SWAP1 PUSH2 0xFFFF NOT AND OR OR SWAP1 SSTORE PUSH1 0x20 PUSH1 0xD SLOAD PUSH1 0x40 MLOAD PUSH2 0x10E7 DUP2 PUSH1 0x64 CALLDATALOAD PUSH2 0x2124 JUMP JUMPDEST PUSH1 0x44 CALLDATALOAD DUP4 DUP3 ADD MSTORE DUP2 PUSH32 0x89F2CCBE5CE8017189037C67B330B3C300AEA4D3F98BF76108C6C8921DBF4AD9 PUSH1 0x40 CALLER SWAP4 LOG3 PUSH1 0x40 MLOAD SWAP1 DUP2 MSTORE RETURN JUMPDEST PUSH1 0x21 DUP6 PUSH4 0x4E487B71 PUSH1 0xE0 SHL PUSH1 0x0 MSTORE MSTORE PUSH1 0x24 PUSH1 0x0 REVERT JUMPDEST ADD MLOAD SWAP1 POP CODESIZE DUP1 PUSH2 0x1024 JUMP JUMPDEST PUSH1 0x2 DUP4 ADD PUSH1 0x0 MSTORE PUSH1 0x20 PUSH1 0x0 KECCAK256 SWAP1 PUSH1 0x0 JUMPDEST PUSH1 0x1F NOT DUP5 AND DUP2 LT PUSH2 0x1194 JUMPI POP PUSH1 0x1 SWAP4 SWAP5 SWAP6 SWAP7 DUP4 PUSH1 0x1F NOT DUP2 AND LT PUSH2 0x117B JUMPI JUMPDEST POP POP POP DUP2 SHL ADD PUSH1 0x2 DUP3 ADD SSTORE PUSH2 0x103C JUMP JUMPDEST ADD MLOAD PUSH1 0x0 NOT PUSH1 0xF8 DUP5 PUSH1 0x3 SHL AND SHR NOT AND SWAP1 SSTORE CODESIZE DUP1 DUP1 PUSH2 0x116B JUMP JUMPDEST SWAP1 SWAP2 PUSH1 0x20 PUSH1 0x1 DUP2 SWAP3 DUP6 DUP12 ADD MLOAD DUP2 SSTORE ADD SWAP4 ADD SWAP2 ADD PUSH2 0x114D JUMP JUMPDEST PUSH1 0x2 DUP4 ADD PUSH1 0x0 MSTORE PUSH1 0x20 PUSH1 0x0 KECCAK256 PUSH1 0x1F DUP4 ADD PUSH1 0x5 SHR DUP2 ADD PUSH1 0x20 DUP5 LT PUSH2 0x11EC JUMPI JUMPDEST PUSH1 0x1F DUP4 ADD PUSH1 0x5 SHR DUP3 ADD DUP2 LT PUSH2 0x11E0 JUMPI POP POP PUSH2 0x1009 JUMP JUMPDEST PUSH1 0x0 DUP2 SSTORE PUSH1 0x1 ADD PUSH2 0x11CA JUMP JUMPDEST POP DUP1 PUSH2 0x11CA JUMP JUMPDEST PUSH1 0x41 DUP5 PUSH4 0x4E487B71 PUSH1 0xE0 SHL PUSH1 0x0 MSTORE MSTORE PUSH1 0x24 PUSH1 0x0 REVERT JUMPDEST POP PUSH2 0xEFA PUSH2 0x1215 CALLER PUSH2 0x23D1 JUMP JUMPDEST SWAP1 POP PUSH2 0xEF1 JUMP JUMPDEST POP CALLVALUE PUSH2 0x322 JUMPI PUSH1 0x20 CALLDATASIZE PUSH1 0x3 NOT ADD SLT PUSH2 0x322 JUMPI CALLDATALOAD PUSH1 0x2 SLOAD DUP2 LT ISZERO PUSH2 0x322 JUMPI PUSH2 0x1244 PUSH1 0x20 SWAP2 PUSH2 0x21A4 JUMP JUMPDEST SWAP1 SLOAD PUSH1 0x40 MLOAD PUSH1 0x3 SWAP3 SWAP1 SWAP3 SHL SHR PUSH1 0x1 PUSH1 0x1 PUSH1 0xA0 SHL SUB AND DUP2 MSTORE RETURN JUMPDEST POP CALLVALUE PUSH2 0x322 JUMPI PUSH1 0x20 CALLDATASIZE PUSH1 0x3 NOT ADD SLT PUSH2 0x322 JUMPI DUP1 CALLDATALOAD SWAP1 PUSH2 0x1287 PUSH1 0x1 DUP1 PUSH1 0xA0 SHL SUB PUSH1 0x0 SLOAD AND CALLER EQ PUSH2 0x2372 JUMP JUMPDEST PUSH1 0x2 SLOAD DUP3 GT PUSH2 0x1296 JUMPI POP PUSH1 0x3 SSTORE STOP JUMPDEST PUSH1 0x64 SWAP1 PUSH1 0x20 PUSH1 0x40 MLOAD SWAP2 PUSH3 0x461BCD PUSH1 0xE5 SHL DUP4 MSTORE DUP3 ADD MSTORE PUSH1 0x12 PUSH1 0x24 DUP3 ADD MSTORE PUSH18 0xA890A48AA6909E9888BEA89E9EBE90928E9 PUSH1 0x73 SHL PUSH1 0x44 DUP3 ADD MSTORE REVERT JUMPDEST CALLVALUE PUSH2 0x322 JUMPI PUSH1 0x20 CALLDATASIZE PUSH1 0x3 NOT ADD SLT PUSH2 0x322 JUMPI PUSH1 0x1 PUSH1 0x1 PUSH1 0xA0 SHL SUB PUSH2 0x12F0 PUSH2 0x2147 JUMP JUMPDEST AND PUSH1 0x0 MSTORE PUSH1 0xB PUSH1 0x20 MSTORE PUSH1 0x20 PUSH1 0xFF PUSH1 0x40 PUSH1 0x0 KECCAK256 SLOAD AND PUSH1 0x40 MLOAD SWAP1 ISZERO ISZERO DUP2 MSTORE RETURN JUMPDEST POP CALLVALUE PUSH2 0x322 JUMPI PUSH1 0x0 CALLDATASIZE PUSH1 0x3 NOT ADD SLT PUSH2 0x322 JUMPI PUSH1 0x20 SWAP1 SLOAD PUSH1 0x40 MLOAD SWAP1 DUP2 MSTORE RETURN JUMPDEST CALLVALUE PUSH2 0x322 JUMPI PUSH1 0x0 CALLDATASIZE PUSH1 0x3 NOT ADD SLT PUSH2 0x322 JUMPI PUSH1 0x20 PUSH1 0x8 SLOAD PUSH1 0x40 MLOAD SWAP1 DUP2 MSTORE RETURN JUMPDEST CALLVALUE PUSH2 0x322 JUMPI PUSH1 0x0 CALLDATASIZE PUSH1 0x3 NOT ADD SLT PUSH2 0x322 JUMPI PUSH1 0x40 MLOAD PUSH32 0x0 PUSH1 0x1 PUSH1 0x1 PUSH1 0xA0 SHL SUB AND DUP2 MSTORE PUSH1 0x20 SWAP1 RETURN JUMPDEST CALLVALUE PUSH2 0x322 JUMPI PUSH1 0x0 CALLDATASIZE PUSH1 0x3 NOT ADD SLT PUSH2 0x322 JUMPI PUSH1 0x20 PUSH1 0x6 SLOAD PUSH1 0x40 MLOAD SWAP1 DUP2 MSTORE RETURN JUMPDEST CALLVALUE PUSH2 0x322 JUMPI PUSH1 0x0 CALLDATASIZE PUSH1 0x3 NOT ADD SLT PUSH2 0x322 JUMPI PUSH1 0x40 MLOAD DUP1 PUSH1 0x2 SLOAD DUP1 DUP4 MSTORE PUSH1 0x20 DUP1 SWAP4 ADD DUP1 SWAP2 PUSH1 0x2 PUSH1 0x0 MSTORE PUSH32 0x405787FA12A823E0F2B7631CC41B3BA8828B3321CA811111FA75CD3AA3BB5ACE SWAP1 PUSH1 0x0 JUMPDEST DUP7 DUP3 DUP3 LT PUSH2 0x1458 JUMPI DUP7 DUP7 PUSH2 0x140F DUP3 DUP9 SUB DUP4 PUSH2 0x201C JUMP JUMPDEST PUSH1 0x40 MLOAD SWAP3 DUP4 SWAP3 DUP2 DUP5 ADD SWAP1 DUP3 DUP6 MSTORE MLOAD DUP1 SWAP2 MSTORE PUSH1 0x40 DUP5 ADD SWAP3 SWAP2 PUSH1 0x0 JUMPDEST DUP3 DUP2 LT PUSH2 0x1438 JUMPI POP POP POP POP SUB SWAP1 RETURN JUMPDEST DUP4 MLOAD PUSH1 0x1 PUSH1 0x1 PUSH1 0xA0 SHL SUB AND DUP6 MSTORE DUP7 SWAP6 POP SWAP4 DUP2 ADD SWAP4 SWAP3 DUP2 ADD SWAP3 PUSH1 0x1 ADD PUSH2 0x1429 JUMP JUMPDEST DUP4 SLOAD PUSH1 0x1 PUSH1 0x1 PUSH1 0xA0 SHL SUB AND DUP6 MSTORE SWAP1 SWAP4 ADD SWAP3 PUSH1 0x1 SWAP3 DUP4 ADD SWAP3 ADD PUSH2 0x13F9 JUMP JUMPDEST POP CALLVALUE PUSH2 0x322 JUMPI PUSH1 0x80 CALLDATASIZE PUSH1 0x3 NOT ADD SLT PUSH2 0x322 JUMPI DUP1 CALLDATALOAD PUSH1 0x24 CALLDATALOAD PUSH1 0x44 CALLDATALOAD SWAP2 PUSH1 0x64 CALLDATALOAD SWAP4 PUSH2 0x14A9 PUSH1 0x1 DUP1 PUSH1 0xA0 SHL SUB PUSH1 0x0 SLOAD AND CALLER EQ PUSH2 0x2372 JUMP JUMPDEST PUSH2 0x14BB DUP6 PUSH2 0x83D DUP7 PUSH2 0x83D DUP8 DUP8 PUSH2 0x2284 JUMP JUMPDEST PUSH2 0x14E1 PUSH2 0x14D8 PUSH2 0x14CF DUP5 SLOAD PUSH1 0x5 SLOAD SWAP1 PUSH2 0x2284 JUMP JUMPDEST PUSH1 0x6 SLOAD SWAP1 PUSH2 0x2284 JUMP JUMPDEST PUSH1 0x7 SLOAD SWAP1 PUSH2 0x2284 JUMP JUMPDEST SUB PUSH2 0x14F2 JUMPI SSTORE PUSH1 0x5 SSTORE PUSH1 0x6 SSTORE PUSH1 0x7 SSTORE STOP JUMPDEST PUSH1 0x64 SWAP1 PUSH1 0x20 PUSH1 0x40 MLOAD SWAP2 PUSH3 0x461BCD PUSH1 0xE5 SHL DUP4 MSTORE DUP3 ADD MSTORE PUSH1 0xE PUSH1 0x24 DUP3 ADD MSTORE PUSH14 0xA89EA88298BE9A92A69A82A8869 PUSH1 0x93 SHL PUSH1 0x44 DUP3 ADD MSTORE REVERT JUMPDEST POP CALLVALUE PUSH2 0x322 JUMPI PUSH1 0x40 CALLDATASIZE PUSH1 0x3 NOT ADD SLT PUSH2 0x322 JUMPI PUSH2 0x1541 PUSH2 0x215D JUMP JUMPDEST SWAP1 CALLDATALOAD PUSH1 0x0 MSTORE PUSH1 0xF PUSH1 0x20 MSTORE PUSH1 0x40 PUSH1 0x0 KECCAK256 SWAP1 PUSH1 0x1 DUP1 PUSH1 0xA0 SHL SUB AND PUSH1 0x0 MSTORE PUSH1 0x20 MSTORE PUSH1 0x20 PUSH1 0xFF PUSH1 0x40 PUSH1 0x0 KECCAK256 SLOAD AND PUSH1 0x40 MLOAD SWAP1 ISZERO ISZERO DUP2 MSTORE RETURN JUMPDEST CALLVALUE PUSH2 0x322 JUMPI PUSH1 0x0 CALLDATASIZE PUSH1 0x3 NOT ADD SLT PUSH2 0x322 JUMPI PUSH1 0x0 SLOAD PUSH1 0x40 MLOAD PUSH1 0x1 PUSH1 0x1 PUSH1 0xA0 SHL SUB SWAP1 SWAP2 AND DUP2 MSTORE PUSH1 0x20 SWAP1 RETURN JUMPDEST CALLVALUE PUSH2 0x322 JUMPI PUSH1 0x20 CALLDATASIZE PUSH1 0x3 NOT ADD SLT PUSH2 0x322 JUMPI PUSH1 0x1 PUSH1 0x1 PUSH1 0xA0 SHL SUB PUSH2 0x15BE PUSH2 0x2147 JUMP JUMPDEST AND PUSH1 0x0 MSTORE PUSH1 0xC PUSH1 0x20 MSTORE PUSH1 0x20 PUSH1 0xFF PUSH1 0x40 PUSH1 0x0 KECCAK256 SLOAD AND PUSH1 0x40 MLOAD SWAP1 ISZERO ISZERO DUP2 MSTORE RETURN JUMPDEST CALLVALUE PUSH2 0x322 JUMPI PUSH1 0x0 CALLDATASIZE PUSH1 0x3 NOT ADD SLT PUSH2 0x322 JUMPI PUSH1 0x20 PUSH1 0x40 MLOAD PUSH2 0x369 DUP2 MSTORE RETURN JUMPDEST POP CALLVALUE PUSH2 0x322 JUMPI PUSH1 0x0 CALLDATASIZE PUSH1 0x3 NOT ADD SLT PUSH2 0x322 JUMPI SLOAD PUSH1 0x5 SLOAD PUSH1 0x6 SLOAD PUSH1 0x7 SLOAD PUSH1 0x40 DUP1 MLOAD SWAP5 DUP6 MSTORE PUSH1 0x20 DUP6 ADD SWAP4 SWAP1 SWAP4 MSTORE SWAP2 DUP4 ADD MSTORE PUSH1 0x60 DUP3 ADD MSTORE PUSH1 0x80 SWAP1 RETURN JUMPDEST POP CALLVALUE PUSH2 0x322 JUMPI PUSH1 0x40 CALLDATASIZE PUSH1 0x3 NOT ADD SLT PUSH2 0x322 JUMPI PUSH8 0xFFFFFFFFFFFFFFFF DUP2 CALLDATALOAD DUP2 DUP2 GT PUSH2 0x322 JUMPI PUSH2 0x1663 SWAP1 CALLDATASIZE SWAP1 DUP5 ADD PUSH2 0x2173 JUMP JUMPDEST SWAP2 PUSH1 0x24 CALLDATALOAD SWAP1 DUP2 GT PUSH2 0x322 JUMPI PUSH2 0x167B SWAP1 CALLDATASIZE SWAP1 DUP6 ADD PUSH2 0x2173 JUMP JUMPDEST PUSH1 0x0 SLOAD PUSH1 0x1 PUSH1 0x1 PUSH1 0xA0 SHL SUB SWAP3 SWAP1 DUP4 AND CALLER EQ DUP1 ISZERO PUSH2 0x1910 JUMPI JUMPDEST PUSH2 0x169C SWAP1 PUSH2 0x2247 JUMP JUMPDEST DUP2 DUP6 SUB PUSH2 0x18DA JUMPI PUSH1 0x0 SWAP6 PUSH1 0x0 JUMPDEST DUP4 DUP2 LT PUSH2 0x18B5 JUMPI POP PUSH1 0x6 SLOAD DUP8 GT PUSH2 0x1871 JUMPI PUSH2 0x16C5 SWAP6 SWAP4 SWAP6 PUSH2 0x23AD JUMP JUMPDEST PUSH2 0x16ED DUP8 PUSH1 0xA SLOAD PUSH2 0x16D9 PUSH2 0x833 DUP4 DUP4 PUSH2 0x2284 JUMP JUMPDEST PUSH2 0x16E5 DUP3 PUSH1 0x6 SLOAD PUSH2 0x22EA JUMP JUMPDEST PUSH1 0x6 SSTORE PUSH2 0x2284 JUMP JUMPDEST PUSH1 0xA SSTORE PUSH1 0x0 JUMPDEST DUP5 DUP2 LT PUSH2 0x1771 JUMPI POP POP POP POP PUSH1 0x40 MLOAD SWAP3 DUP2 PUSH1 0x40 DUP6 ADD PUSH1 0x40 DUP7 MSTORE MSTORE PUSH1 0x60 DUP5 ADD SWAP3 SWAP2 PUSH1 0x0 JUMPDEST DUP2 DUP2 LT PUSH2 0x174B JUMPI PUSH32 0x56CCAB27D9E4867C064687FD0550A0EF41045E67C7F019E65FED5C918DECEC83 DUP7 DUP1 DUP8 DUP11 PUSH1 0x20 DUP4 ADD MSTORE SUB SWAP1 LOG1 STOP JUMPDEST SWAP1 SWAP2 SWAP3 SWAP4 DUP5 CALLDATALOAD SWAP1 DUP5 DUP3 AND DUP1 SWAP3 SUB PUSH2 0x322 JUMPI SWAP1 DUP2 MSTORE PUSH1 0x20 SWAP1 DUP2 ADD SWAP5 ADD SWAP3 SWAP2 SWAP1 PUSH1 0x1 ADD PUSH2 0x1715 JUMP JUMPDEST PUSH2 0x177F DUP2 DUP6 DUP6 SWAP10 SWAP8 SWAP10 PUSH2 0x2306 JUMP JUMPDEST CALLDATALOAD ISZERO ISZERO DUP1 PUSH2 0x1859 JUMPI JUMPDEST PUSH2 0x179E JUMPI JUMPDEST PUSH2 0x1796 SWAP1 PUSH2 0x22F7 JUMP JUMPDEST SWAP6 SWAP4 SWAP6 PUSH2 0x16F3 JUMP JUMPDEST PUSH2 0x17B1 PUSH2 0x17AC DUP3 DUP10 DUP10 PUSH2 0x2306 JUMP JUMPDEST PUSH2 0x2316 JUMP JUMPDEST SWAP1 PUSH2 0x17BD DUP2 DUP7 DUP7 PUSH2 0x2306 JUMP JUMPDEST PUSH1 0x40 DUP1 MLOAD PUSH4 0xA9059CBB PUSH1 0xE0 SHL DUP2 MSTORE PUSH1 0x1 PUSH1 0x1 PUSH1 0xA0 SHL SUB SWAP1 SWAP5 AND DUP6 DUP6 ADD SWAP1 DUP2 MSTORE SWAP2 CALLDATALOAD PUSH1 0x20 DUP4 DUP2 ADD SWAP2 SWAP1 SWAP2 MSTORE SWAP2 DUP3 SWAP2 DUP6 SWAP2 DUP3 SWAP2 ADD SUB DUP2 PUSH1 0x0 DUP12 PUSH32 0x0 AND GAS CALL DUP1 ISZERO PUSH2 0x2E5 JUMPI PUSH2 0x1796 SWAP4 PUSH2 0x1835 SWAP3 PUSH1 0x0 SWAP3 PUSH2 0x183C JUMPI JUMPDEST POP POP PUSH2 0x2209 JUMP JUMPDEST SWAP1 POP PUSH2 0x178D JUMP JUMPDEST PUSH2 0x1852 SWAP3 POP DUP1 RETURNDATASIZE LT PUSH2 0x2DE JUMPI PUSH2 0x2D0 DUP2 DUP4 PUSH2 0x201C JUMP JUMPDEST CODESIZE DUP1 PUSH2 0x182E JUMP JUMPDEST POP DUP5 PUSH2 0x1869 PUSH2 0x17AC DUP4 DUP11 DUP11 PUSH2 0x2306 JUMP JUMPDEST AND ISZERO ISZERO PUSH2 0x1788 JUMP JUMPDEST PUSH1 0x64 SWAP1 PUSH1 0x20 PUSH1 0x40 MLOAD SWAP2 PUSH3 0x461BCD PUSH1 0xE5 SHL DUP4 MSTORE DUP3 ADD MSTORE PUSH1 0x18 PUSH1 0x24 DUP3 ADD MSTORE PUSH32 0x455843454544535F434F4D4D554E4954595F4255444745540000000000000000 PUSH1 0x44 DUP3 ADD MSTORE REVERT JUMPDEST SWAP7 PUSH2 0x18CF PUSH2 0x18D5 SWAP2 PUSH2 0x18C8 DUP11 DUP8 DUP8 PUSH2 0x2306 JUMP JUMPDEST CALLDATALOAD SWAP1 PUSH2 0x2284 JUMP JUMPDEST SWAP8 PUSH2 0x22F7 JUMP JUMPDEST PUSH2 0x16A9 JUMP JUMPDEST PUSH1 0x40 MLOAD PUSH3 0x461BCD PUSH1 0xE5 SHL DUP2 MSTORE PUSH1 0x20 DUP2 DUP9 ADD MSTORE PUSH1 0xF PUSH1 0x24 DUP3 ADD MSTORE PUSH15 0x988A9C8EA890BE9A92A69A82A8869 PUSH1 0x8B SHL PUSH1 0x44 DUP3 ADD MSTORE PUSH1 0x64 SWAP1 REVERT JUMPDEST POP PUSH2 0x169C PUSH2 0x191D CALLER PUSH2 0x23D1 JUMP JUMPDEST SWAP1 POP PUSH2 0x1693 JUMP JUMPDEST POP CALLVALUE PUSH2 0x322 JUMPI PUSH1 0x40 CALLDATASIZE PUSH1 0x3 NOT ADD SLT PUSH2 0x322 JUMPI PUSH2 0x193E PUSH2 0x2147 JUMP JUMPDEST PUSH1 0x0 SLOAD PUSH1 0x1 PUSH1 0x1 PUSH1 0xA0 SHL SUB SWAP3 SWAP1 PUSH1 0x24 CALLDATALOAD SWAP1 DUP5 AND CALLER EQ DUP1 ISZERO PUSH2 0x1ACB JUMPI JUMPDEST PUSH2 0x1963 SWAP1 PUSH2 0x2247 JUMP JUMPDEST PUSH2 0x196B PUSH2 0x23AD JUMP JUMPDEST PUSH2 0x197F DUP2 PUSH1 0xA SLOAD PUSH2 0x83D PUSH2 0x833 DUP4 DUP4 PUSH2 0x2284 JUMP JUMPDEST PUSH1 0xA SSTORE DUP4 DUP4 AND SWAP3 DUP4 PUSH1 0x0 MSTORE PUSH1 0x20 SWAP3 PUSH1 0xB DUP5 MSTORE PUSH1 0xFF PUSH1 0x40 PUSH1 0x0 KECCAK256 SLOAD AND ISZERO PUSH2 0x1A90 JUMPI DUP1 SLOAD DUP1 DUP5 GT PUSH2 0x1A53 JUMPI SWAP6 DUP5 SWAP3 PUSH1 0x0 DUP6 SWAP4 PUSH2 0x19BD DUP6 PUSH2 0x19F3 SWAP11 SWAP12 PUSH2 0x22EA JUMP JUMPDEST DUP2 SSTORE PUSH1 0x40 DUP1 MLOAD PUSH4 0xA9059CBB PUSH1 0xE0 SHL DUP2 MSTORE PUSH1 0x1 PUSH1 0x1 PUSH1 0xA0 SHL SUB SWAP1 SWAP5 AND SWAP2 DUP5 ADD SWAP2 DUP3 MSTORE PUSH1 0x20 DUP3 ADD SWAP6 SWAP1 SWAP6 MSTORE SWAP2 SWAP8 DUP9 SWAP5 DUP6 SWAP4 DUP5 SWAP3 SWAP2 ADD SWAP1 JUMP JUMPDEST SUB SWAP3 PUSH32 0x0 AND GAS CALL SWAP3 DUP4 ISZERO PUSH2 0x2E5 JUMPI PUSH32 0x85354D6E9A0501286F4F8AA85F7F810C0C8EA2185F8628C8306CD7A4AB9B08E SWAP4 PUSH2 0x918 SWAP2 PUSH1 0x0 SWAP2 PUSH2 0x921 JUMPI POP PUSH2 0x2209 JUMP JUMPDEST PUSH1 0x40 MLOAD PUSH3 0x461BCD PUSH1 0xE5 SHL DUP2 MSTORE DUP1 DUP4 ADD DUP7 SWAP1 MSTORE PUSH1 0x16 PUSH1 0x24 DUP3 ADD MSTORE PUSH22 0x115610D1515114D7D4D51052D25391D7D0955111D155 PUSH1 0x52 SHL PUSH1 0x44 DUP3 ADD MSTORE PUSH1 0x64 SWAP1 REVERT JUMPDEST PUSH1 0x40 MLOAD PUSH3 0x461BCD PUSH1 0xE5 SHL DUP2 MSTORE SWAP1 DUP2 ADD DUP5 SWAP1 MSTORE PUSH1 0x14 PUSH1 0x24 DUP3 ADD MSTORE PUSH20 0x4E4F545F415050524F5645445F5354414B494E47 PUSH1 0x60 SHL PUSH1 0x44 DUP3 ADD MSTORE PUSH1 0x64 SWAP1 REVERT JUMPDEST POP PUSH2 0x1963 PUSH2 0x1AD8 CALLER PUSH2 0x23D1 JUMP JUMPDEST SWAP1 POP PUSH2 0x195A JUMP JUMPDEST CALLVALUE PUSH2 0x322 JUMPI PUSH1 0x20 CALLDATASIZE PUSH1 0x3 NOT ADD SLT PUSH2 0x322 JUMPI PUSH2 0x1AF8 PUSH2 0x2147 JUMP JUMPDEST PUSH1 0x0 SLOAD PUSH1 0x1 PUSH1 0x1 PUSH1 0xA0 SHL SUB SWAP2 SWAP1 PUSH2 0x1B12 SWAP1 DUP4 AND CALLER EQ PUSH2 0x2372 JUMP JUMPDEST AND PUSH1 0x0 SWAP1 DUP2 MSTORE PUSH1 0xB PUSH1 0x20 MSTORE PUSH1 0x40 SWAP1 KECCAK256 DUP1 SLOAD PUSH1 0xFF NOT AND PUSH1 0x1 OR SWAP1 SSTORE STOP JUMPDEST CALLVALUE PUSH2 0x322 JUMPI PUSH1 0x0 CALLDATASIZE PUSH1 0x3 NOT ADD SLT PUSH2 0x322 JUMPI PUSH1 0x20 PUSH1 0x40 MLOAD PUSH11 0xA56FA5B99019A5C8000000 DUP2 MSTORE RETURN JUMPDEST POP CALLVALUE PUSH2 0x322 JUMPI PUSH1 0x20 DUP1 PUSH1 0x3 NOT CALLDATASIZE ADD SLT PUSH2 0x322 JUMPI PUSH1 0x0 SLOAD DUP3 CALLDATALOAD SWAP3 SWAP1 PUSH1 0x1 PUSH1 0x1 PUSH1 0xA0 SHL SUB SWAP1 DUP2 AND CALLER EQ DUP1 ISZERO PUSH2 0x1ECA JUMPI JUMPDEST PUSH2 0x1B8B SWAP1 PUSH2 0x2247 JUMP JUMPDEST DUP4 PUSH1 0x0 MSTORE PUSH1 0xE DUP4 MSTORE PUSH1 0x40 PUSH1 0x0 KECCAK256 PUSH1 0x9 DUP2 ADD DUP1 SLOAD SWAP1 PUSH1 0xFF DUP3 AND ISZERO DUP1 PUSH2 0x1EBB JUMPI JUMPDEST PUSH2 0x1BB3 SWAP1 PUSH2 0x2336 JUMP JUMPDEST PUSH1 0x6 DUP4 ADD SLOAD SWAP2 PUSH1 0x3 SWAP3 DUP4 SLOAD DUP1 SWAP2 LT SWAP1 DUP2 ISZERO SWAP2 PUSH2 0x1EB2 JUMPI JUMPDEST POP ISZERO PUSH2 0x1E75 JUMPI PUSH1 0xFF NOT AND PUSH1 0x1 OR SWAP1 SSTORE TIMESTAMP PUSH1 0x8 DUP4 ADD SSTORE PUSH1 0x5 DUP3 ADD SLOAD PUSH1 0xFF AND PUSH1 0x7 DUP2 LT ISZERO PUSH2 0x111D JUMPI DUP1 PUSH2 0x1CC2 JUMPI POP SWAP4 DUP4 DUP4 DUP4 DUP4 SWAP6 PUSH2 0x1C31 SWAP8 SWAP9 PUSH1 0x0 SWAP7 ADD SLOAD AND SWAP8 DUP9 SWAP2 ADD SLOAD SWAP5 DUP6 SWAP4 DUP3 DUP3 MSTORE PUSH1 0xB DUP7 MSTORE PUSH2 0x1C26 PUSH1 0xFF PUSH1 0x40 DUP5 KECCAK256 SLOAD AND PUSH2 0x2503 JUMP JUMPDEST PUSH2 0x19BD DUP6 DUP3 SLOAD PUSH2 0x22EA JUMP JUMPDEST SUB SWAP3 PUSH32 0x0 AND GAS CALL SWAP3 DUP4 ISZERO PUSH2 0x2E5 JUMPI PUSH32 0x85354D6E9A0501286F4F8AA85F7F810C0C8EA2185F8628C8306CD7A4AB9B08E SWAP4 PUSH2 0x1C91 SWAP2 PUSH1 0x0 SWAP2 PUSH2 0x921 JUMPI POP PUSH2 0x2209 JUMP JUMPDEST PUSH1 0x40 MLOAD SWAP1 DUP2 MSTORE LOG2 JUMPDEST CALLER SWAP1 PUSH32 0x9C85B616F29FCA57A17EAFE71CF9FF82FFEF41766E2CF01EA7F8F7878DD3EC24 PUSH1 0x0 DUP1 LOG3 STOP JUMPDEST PUSH1 0x1 DUP2 SUB PUSH2 0x1D73 JUMPI POP SWAP4 DUP4 DUP4 DUP4 DUP4 SWAP6 PUSH2 0x1D07 SWAP8 SWAP9 PUSH1 0x0 SWAP7 ADD SLOAD AND SWAP8 DUP9 SWAP2 ADD SLOAD SWAP5 DUP6 SWAP4 DUP3 DUP3 MSTORE PUSH1 0xC DUP7 MSTORE PUSH2 0x1CFB PUSH1 0xFF PUSH1 0x40 DUP5 KECCAK256 SLOAD AND PUSH2 0x2503 JUMP JUMPDEST PUSH2 0x881 DUP6 PUSH1 0x5 SLOAD PUSH2 0x22EA JUMP JUMPDEST SUB SWAP3 PUSH32 0x0 AND GAS CALL SWAP3 DUP4 ISZERO PUSH2 0x2E5 JUMPI PUSH32 0x11224EC236A848056AE38149A8952287AA7738B4FFB35D745A25FF53ACFB43D2 SWAP4 PUSH2 0x1D67 SWAP2 PUSH1 0x0 SWAP2 PUSH2 0x921 JUMPI POP PUSH2 0x2209 JUMP JUMPDEST PUSH1 0x40 MLOAD SWAP1 DUP2 MSTORE LOG2 PUSH2 0x1C99 JUMP JUMPDEST SWAP1 SWAP2 SWAP1 DUP1 DUP4 SUB PUSH2 0x1E4C JUMPI POP ADD SLOAD AND SWAP2 PUSH2 0x1D8B DUP4 PUSH2 0x23D1 JUMP JUMPDEST PUSH2 0x1E18 JUMPI POP PUSH1 0x2 SLOAD SWAP1 PUSH9 0x10000000000000000 DUP3 LT ISZERO PUSH2 0x1E03 JUMPI POP DUP2 PUSH2 0x1DBA DUP3 PUSH1 0x1 PUSH2 0x1DD9 SWAP5 ADD PUSH1 0x2 SSTORE PUSH2 0x21A4 JUMP JUMPDEST SWAP1 SWAP2 SWAP1 DUP3 SLOAD SWAP1 PUSH1 0x3 SHL SWAP2 PUSH1 0x1 DUP1 PUSH1 0xA0 SHL SUB DUP1 SWAP2 AND DUP4 SHL SWAP3 SHL NOT AND OR SWAP1 SSTORE JUMP JUMPDEST PUSH32 0xDCB46B4634AF6065FBBEAB63938D70A7CC803A67BC6A5BB9F28FB8D9A5C4CE14 PUSH1 0x0 DUP1 LOG2 PUSH2 0x1C99 JUMP JUMPDEST PUSH1 0x41 SWAP1 PUSH4 0x4E487B71 PUSH1 0xE0 SHL PUSH1 0x0 MSTORE MSTORE PUSH1 0x24 PUSH1 0x0 REVERT JUMPDEST PUSH1 0x40 MLOAD PUSH3 0x461BCD PUSH1 0xE5 SHL DUP2 MSTORE SWAP2 DUP3 ADD MSTORE PUSH1 0xE PUSH1 0x24 DUP3 ADD MSTORE PUSH14 0x20A62922A0A22CAFA6A2A6A122A9 PUSH1 0x91 SHL PUSH1 0x44 DUP3 ADD MSTORE PUSH1 0x64 SWAP2 POP REVERT JUMPDEST SWAP1 SWAP5 POP SWAP3 SWAP1 SWAP2 SWAP3 EQ PUSH2 0x1E61 JUMPI JUMPDEST POP POP POP PUSH2 0x1C99 JUMP JUMPDEST PUSH2 0x1E6D SWAP3 ADD SLOAD AND PUSH2 0x2422 JUMP JUMPDEST CODESIZE DUP1 DUP1 PUSH2 0x1E59 JUMP JUMPDEST PUSH1 0x40 MLOAD PUSH3 0x461BCD PUSH1 0xE5 SHL DUP2 MSTORE DUP1 DUP8 ADD DUP9 SWAP1 MSTORE PUSH1 0x16 PUSH1 0x24 DUP3 ADD MSTORE PUSH22 0x494E53554646494349454E545F415050524F56414C53 PUSH1 0x50 SHL PUSH1 0x44 DUP3 ADD MSTORE PUSH1 0x64 SWAP1 REVERT JUMPDEST SWAP1 POP ISZERO CODESIZE PUSH2 0x1BCA JUMP JUMPDEST POP PUSH1 0x8 DUP3 SWAP1 SHR PUSH1 0xFF AND ISZERO PUSH2 0x1BAA JUMP JUMPDEST POP PUSH2 0x1B8B PUSH2 0x1ED7 CALLER PUSH2 0x23D1 JUMP JUMPDEST SWAP1 POP PUSH2 0x1B82 JUMP JUMPDEST POP CALLVALUE PUSH2 0x322 JUMPI PUSH1 0x20 CALLDATASIZE PUSH1 0x3 NOT ADD SLT PUSH2 0x322 JUMPI DUP1 CALLDATALOAD PUSH1 0x0 MSTORE PUSH1 0xE PUSH1 0x20 MSTORE PUSH1 0x40 PUSH1 0x0 KECCAK256 SWAP1 DUP2 SLOAD SWAP1 PUSH1 0xFF PUSH1 0x1 DUP1 PUSH1 0xA0 SHL SUB DUP1 PUSH1 0x1 DUP7 ADD SLOAD AND SWAP5 PUSH2 0x1F20 PUSH1 0x2 DUP3 ADD PUSH2 0x203E JUMP JUMPDEST SWAP2 PUSH1 0x3 DUP3 ADD SLOAD AND SWAP4 DUP2 ADD SLOAD DUP4 PUSH1 0x5 DUP4 ADD SLOAD AND PUSH2 0x1F84 PUSH1 0x6 DUP5 ADD SLOAD SWAP2 PUSH1 0x7 DUP6 ADD SLOAD SWAP4 PUSH2 0x1F6F PUSH1 0x9 PUSH1 0x8 DUP9 ADD SLOAD SWAP8 ADD SLOAD SWAP8 PUSH1 0x40 MLOAD SWAP13 DUP14 SWAP13 DUP14 MSTORE PUSH1 0x20 DUP14 ADD MSTORE PUSH1 0x40 DUP13 PUSH2 0x160 SWAP2 DUP3 SWAP2 ADD MSTORE DUP13 ADD SWAP1 PUSH2 0x20E4 JUMP JUMPDEST SWAP9 PUSH1 0x60 DUP12 ADD MSTORE PUSH1 0x80 DUP11 ADD MSTORE PUSH1 0xA0 DUP10 ADD SWAP1 PUSH2 0x2124 JUMP JUMPDEST PUSH1 0xC0 DUP8 ADD MSTORE PUSH1 0xE0 DUP7 ADD MSTORE PUSH2 0x100 DUP6 ADD MSTORE DUP2 DUP2 AND ISZERO ISZERO PUSH2 0x120 DUP6 ADD MSTORE PUSH1 0x8 SHR AND ISZERO ISZERO PUSH2 0x140 DUP4 ADD MSTORE SUB SWAP1 RETURN JUMPDEST SWAP1 PUSH1 0x1 DUP3 DUP2 SHR SWAP3 AND DUP1 ISZERO PUSH2 0x1FDF JUMPI JUMPDEST PUSH1 0x20 DUP4 LT EQ PUSH2 0x1FC9 JUMPI JUMP JUMPDEST PUSH4 0x4E487B71 PUSH1 0xE0 SHL PUSH1 0x0 MSTORE PUSH1 0x22 PUSH1 0x4 MSTORE PUSH1 0x24 PUSH1 0x0 REVERT JUMPDEST SWAP2 PUSH1 0x7F AND SWAP2 PUSH2 0x1FBE JUMP JUMPDEST PUSH2 0x160 DUP2 ADD SWAP1 DUP2 LT PUSH8 0xFFFFFFFFFFFFFFFF DUP3 GT OR PUSH2 0x2006 JUMPI PUSH1 0x40 MSTORE JUMP JUMPDEST PUSH4 0x4E487B71 PUSH1 0xE0 SHL PUSH1 0x0 MSTORE PUSH1 0x41 PUSH1 0x4 MSTORE PUSH1 0x24 PUSH1 0x0 REVERT JUMPDEST SWAP1 PUSH1 0x1F DUP1 NOT SWAP2 ADD AND DUP2 ADD SWAP1 DUP2 LT PUSH8 0xFFFFFFFFFFFFFFFF DUP3 GT OR PUSH2 0x2006 JUMPI PUSH1 0x40 MSTORE JUMP JUMPDEST SWAP1 PUSH1 0x40 MLOAD SWAP2 DUP3 PUSH1 0x0 DUP3 SLOAD SWAP3 PUSH2 0x2052 DUP5 PUSH2 0x1FAF JUMP JUMPDEST SWAP1 DUP2 DUP5 MSTORE PUSH1 0x1 SWAP5 DUP6 DUP2 AND SWAP1 DUP2 PUSH1 0x0 EQ PUSH2 0x20C1 JUMPI POP PUSH1 0x1 EQ PUSH2 0x207E JUMPI JUMPDEST POP POP PUSH2 0x207C SWAP3 POP SUB DUP4 PUSH2 0x201C JUMP JUMPDEST JUMP JUMPDEST SWAP1 SWAP4 SWAP2 POP PUSH1 0x0 MSTORE PUSH1 0x20 SWAP1 DUP2 PUSH1 0x0 KECCAK256 SWAP4 PUSH1 0x0 SWAP2 JUMPDEST DUP2 DUP4 LT PUSH2 0x20A9 JUMPI POP POP PUSH2 0x207C SWAP4 POP DUP3 ADD ADD CODESIZE DUP1 PUSH2 0x206E JUMP JUMPDEST DUP6 SLOAD DUP9 DUP5 ADD DUP6 ADD MSTORE SWAP5 DUP6 ADD SWAP5 DUP8 SWAP5 POP SWAP2 DUP4 ADD SWAP2 PUSH2 0x2091 JUMP JUMPDEST SWAP2 POP POP PUSH2 0x207C SWAP5 POP PUSH1 0x20 SWAP3 POP PUSH1 0xFF NOT AND DUP3 DUP5 ADD MSTORE ISZERO ISZERO PUSH1 0x5 SHL DUP3 ADD ADD CODESIZE DUP1 PUSH2 0x206E JUMP JUMPDEST SWAP2 SWAP1 DUP3 MLOAD SWAP3 DUP4 DUP3 MSTORE PUSH1 0x0 JUMPDEST DUP5 DUP2 LT PUSH2 0x2110 JUMPI POP POP DUP3 PUSH1 0x0 PUSH1 0x20 DUP1 SWAP5 SWAP6 DUP5 ADD ADD MSTORE PUSH1 0x1F DUP1 NOT SWAP2 ADD AND ADD ADD SWAP1 JUMP JUMPDEST PUSH1 0x20 DUP2 DUP4 ADD DUP2 ADD MLOAD DUP5 DUP4 ADD DUP3 ADD MSTORE ADD PUSH2 0x20EF JUMP JUMPDEST SWAP1 PUSH1 0x7 DUP3 LT ISZERO PUSH2 0x2131 JUMPI MSTORE JUMP JUMPDEST PUSH4 0x4E487B71 PUSH1 0xE0 SHL PUSH1 0x0 MSTORE PUSH1 0x21 PUSH1 0x4 MSTORE PUSH1 0x24 PUSH1 0x0 REVERT JUMPDEST PUSH1 0x4 CALLDATALOAD SWAP1 PUSH1 0x1 PUSH1 0x1 PUSH1 0xA0 SHL SUB DUP3 AND DUP3 SUB PUSH2 0x322 JUMPI JUMP JUMPDEST PUSH1 0x24 CALLDATALOAD SWAP1 PUSH1 0x1 PUSH1 0x1 PUSH1 0xA0 SHL SUB DUP3 AND DUP3 SUB PUSH2 0x322 JUMPI JUMP JUMPDEST SWAP2 DUP2 PUSH1 0x1F DUP5 ADD SLT ISZERO PUSH2 0x322 JUMPI DUP3 CALLDATALOAD SWAP2 PUSH8 0xFFFFFFFFFFFFFFFF DUP4 GT PUSH2 0x322 JUMPI PUSH1 0x20 DUP1 DUP6 ADD SWAP5 DUP5 PUSH1 0x5 SHL ADD ADD GT PUSH2 0x322 JUMPI JUMP JUMPDEST PUSH1 0x2 SLOAD DUP2 LT ISZERO PUSH2 0x21DB JUMPI PUSH1 0x2 PUSH1 0x0 MSTORE PUSH32 0x405787FA12A823E0F2B7631CC41B3BA8828B3321CA811111FA75CD3AA3BB5ACE ADD SWAP1 PUSH1 0x0 SWAP1 JUMP JUMPDEST PUSH4 0x4E487B71 PUSH1 0xE0 SHL PUSH1 0x0 MSTORE PUSH1 0x32 PUSH1 0x4 MSTORE PUSH1 0x24 PUSH1 0x0 REVERT JUMPDEST SWAP1 DUP2 PUSH1 0x20 SWAP2 SUB SLT PUSH2 0x322 JUMPI MLOAD DUP1 ISZERO ISZERO DUP2 SUB PUSH2 0x322 JUMPI SWAP1 JUMP JUMPDEST ISZERO PUSH2 0x2210 JUMPI JUMP JUMPDEST PUSH1 0x40 MLOAD PUSH3 0x461BCD PUSH1 0xE5 SHL DUP2 MSTORE PUSH1 0x20 PUSH1 0x4 DUP3 ADD MSTORE PUSH1 0xF PUSH1 0x24 DUP3 ADD MSTORE PUSH15 0x1514905394D1915497D19052531151 PUSH1 0x8A SHL PUSH1 0x44 DUP3 ADD MSTORE PUSH1 0x64 SWAP1 REVERT JUMPDEST ISZERO PUSH2 0x224E JUMPI JUMP JUMPDEST PUSH1 0x40 MLOAD PUSH3 0x461BCD PUSH1 0xE5 SHL DUP2 MSTORE PUSH1 0x20 PUSH1 0x4 DUP3 ADD MSTORE PUSH1 0xE PUSH1 0x24 DUP3 ADD MSTORE PUSH14 0x1393D517D055551213D492569151 PUSH1 0x92 SHL PUSH1 0x44 DUP3 ADD MSTORE PUSH1 0x64 SWAP1 REVERT JUMPDEST SWAP2 SWAP1 DUP3 ADD DUP1 SWAP3 GT PUSH2 0x2291 JUMPI JUMP JUMPDEST PUSH4 0x4E487B71 PUSH1 0xE0 SHL PUSH1 0x0 MSTORE PUSH1 0x11 PUSH1 0x4 MSTORE PUSH1 0x24 PUSH1 0x0 REVERT JUMPDEST ISZERO PUSH2 0x22AE JUMPI JUMP JUMPDEST PUSH1 0x40 MLOAD PUSH3 0x461BCD PUSH1 0xE5 SHL DUP2 MSTORE PUSH1 0x20 PUSH1 0x4 DUP3 ADD MSTORE PUSH1 0x14 PUSH1 0x24 DUP3 ADD MSTORE PUSH20 0x111052531657D31253525517D15610D151511151 PUSH1 0x62 SHL PUSH1 0x44 DUP3 ADD MSTORE PUSH1 0x64 SWAP1 REVERT JUMPDEST SWAP2 SWAP1 DUP3 SUB SWAP2 DUP3 GT PUSH2 0x2291 JUMPI JUMP JUMPDEST PUSH1 0x0 NOT DUP2 EQ PUSH2 0x2291 JUMPI PUSH1 0x1 ADD SWAP1 JUMP JUMPDEST SWAP2 SWAP1 DUP2 LT ISZERO PUSH2 0x21DB JUMPI PUSH1 0x5 SHL ADD SWAP1 JUMP JUMPDEST CALLDATALOAD PUSH1 0x1 PUSH1 0x1 PUSH1 0xA0 SHL SUB DUP2 AND DUP2 SUB PUSH2 0x322 JUMPI SWAP1 JUMP JUMPDEST PUSH1 0x7 DUP3 LT ISZERO PUSH2 0x2131 JUMPI MSTORE JUMP JUMPDEST ISZERO PUSH2 0x233D JUMPI JUMP JUMPDEST PUSH1 0x40 MLOAD PUSH3 0x461BCD PUSH1 0xE5 SHL DUP2 MSTORE PUSH1 0x20 PUSH1 0x4 DUP3 ADD MSTORE PUSH1 0xD PUSH1 0x24 DUP3 ADD MSTORE PUSH13 0x494E56414C49445F5354415445 PUSH1 0x98 SHL PUSH1 0x44 DUP3 ADD MSTORE PUSH1 0x64 SWAP1 REVERT JUMPDEST ISZERO PUSH2 0x2379 JUMPI JUMP JUMPDEST PUSH1 0x40 MLOAD PUSH3 0x461BCD PUSH1 0xE5 SHL DUP2 MSTORE PUSH1 0x20 PUSH1 0x4 DUP3 ADD MSTORE PUSH1 0xC PUSH1 0x24 DUP3 ADD MSTORE PUSH12 0x2727AA2FA3AAA0A92224A0A7 PUSH1 0xA1 SHL PUSH1 0x44 DUP3 ADD MSTORE PUSH1 0x64 SWAP1 REVERT JUMPDEST PUSH1 0x9 SLOAD PUSH3 0x15180 DUP2 ADD DUP1 SWAP2 GT PUSH2 0x2291 JUMPI TIMESTAMP LT ISZERO PUSH2 0x23C6 JUMPI JUMP JUMPDEST PUSH1 0x0 PUSH1 0xA SSTORE TIMESTAMP PUSH1 0x9 SSTORE JUMP JUMPDEST PUSH1 0x2 SLOAD SWAP1 PUSH1 0x0 JUMPDEST DUP3 DUP2 LT PUSH2 0x23E7 JUMPI POP POP POP PUSH1 0x0 SWAP1 JUMP JUMPDEST PUSH2 0x23F0 DUP2 PUSH2 0x21A4 JUMP JUMPDEST SWAP1 SLOAD PUSH1 0x3 SWAP2 SWAP1 SWAP2 SHL SHR PUSH1 0x1 PUSH1 0x1 PUSH1 0xA0 SHL SUB SWAP1 DUP2 AND SWAP1 DUP4 AND EQ PUSH2 0x241A JUMPI PUSH2 0x2415 SWAP1 PUSH2 0x22F7 JUMP JUMPDEST PUSH2 0x23D8 JUMP JUMPDEST POP POP POP PUSH1 0x1 SWAP1 JUMP JUMPDEST PUSH1 0x0 JUMPDEST PUSH1 0x2 DUP1 SLOAD SWAP1 DUP2 DUP4 LT ISZERO PUSH2 0x24FD JUMPI PUSH2 0x243B DUP4 PUSH2 0x21A4 JUMP JUMPDEST SWAP1 SLOAD PUSH1 0x1 PUSH1 0x1 PUSH1 0xA0 SHL SUB DUP7 DUP2 AND SWAP5 PUSH1 0x3 SWAP5 SWAP4 SWAP2 SWAP3 SWAP1 SWAP2 DUP6 SHL SHR DUP3 AND DUP6 EQ PUSH2 0x246F JUMPI POP POP POP POP POP PUSH2 0x246A SWAP1 PUSH2 0x22F7 JUMP JUMPDEST PUSH2 0x2425 JUMP JUMPDEST SWAP4 SWAP6 POP SWAP2 SWAP4 SWAP1 SWAP3 PUSH1 0x0 NOT SWAP2 DUP3 DUP3 ADD SWAP2 DUP3 GT PUSH2 0x2291 JUMPI PUSH2 0x1DBA DUP5 PUSH2 0x2494 PUSH2 0x24A1 SWAP5 PUSH2 0x21A4 JUMP JUMPDEST SWAP1 SLOAD SWAP1 DUP10 SHL SHR AND SWAP2 PUSH2 0x21A4 JUMP JUMPDEST DUP3 SLOAD DUP1 ISZERO PUSH2 0x24E7 JUMPI ADD SWAP3 PUSH2 0x24B4 DUP5 PUSH2 0x21A4 JUMP JUMPDEST DUP2 SWAP4 SWAP2 SLOAD SWAP3 SHL SHL NOT AND SWAP1 SSTORE SSTORE PUSH32 0xCE6ED85C24E62FBD23486204879240944C169DFCDE2952B0C15F12BF12029669 PUSH1 0x0 DUP1 LOG2 JUMP JUMPDEST PUSH4 0x4E487B71 PUSH1 0xE0 SHL PUSH1 0x0 MSTORE PUSH1 0x31 PUSH1 0x4 MSTORE PUSH1 0x24 PUSH1 0x0 REVERT JUMPDEST POP POP POP POP JUMP JUMPDEST ISZERO PUSH2 0x250A JUMPI JUMP JUMPDEST PUSH1 0x40 MLOAD PUSH3 0x461BCD PUSH1 0xE5 SHL DUP2 MSTORE PUSH1 0x20 PUSH1 0x4 DUP3 ADD MSTORE PUSH1 0xC PUSH1 0x24 DUP3 ADD MSTORE PUSH12 0x1393D517D054141493D59151 PUSH1 0xA2 SHL PUSH1 0x44 DUP3 ADD MSTORE PUSH1 0x64 SWAP1 REVERT INVALID LOG2 PUSH5 0x6970667358 0x22 SLT KECCAK256 EXTCODESIZE 0xB0 PUSH14 0xE82A44B9CC424DF5A3638BB2B777 DUP1 EXP 0xAC PUSH17 0xE961B9615AFE851FEA7A7D64736F6C6343 STOP ADDMOD EQ STOP CALLER "},"methodIdentifiers":{"DTGC()":"b91f1f92","PULSE_BURN()":"324a9649","TOTAL_ALLOCATION()":"0dac7bea","URMOM()":"9927c2c6","acceptGuardianship()":"995e617a","approveLPContract(address)":"ca47b8b9","approveProposal(uint256)":"98951b56","approveStakingContract(address)":"10154c21","approvedLPContracts(address)":"3ea745a2","approvedStakingContracts(address)":"6ca51011","cancelProposal(uint256)":"e0a8f6f5","communityBudget()":"62324cef","communityDistribute(address[],uint256[])":"2fabf420","councilMembers(uint256)":"751a6a34","councilThreshold()":"7855daae","createProposal(string,address,uint256,uint8)":"75c6edb3","dailyLimit()":"67eeba0c","dtgcToken()":"9f76ab7c","executeProposal(uint256)":"0d61b519","fundLPContract(address,uint256)":"9eff9857","fundStakingContract(address,uint256)":"271c5076","fundTreasury(uint256)":"f6471f4b","getBudgets()":"30491144","getCouncilMembers()":"606a6b76","getDailySpendingStatus()":"8c75733c","getProposal(uint256)":"c7f758a8","getTreasuryBalance()":"9b5655dc","guardian()":"452a9320","lastDayReset()":"b1b60c53","lpBudget()":"83107626","operationsBudget()":"b77d3747","pendingGuardian()":"762c31ba","proposalApprovals(uint256,address)":"4733c271","proposalCount()":"da35c664","proposals(uint256)":"013cf08b","reallocateBudgets(uint256,uint256,uint256,uint256)":"5e340850","revokeLPContract(address)":"e87fbe2f","revokeStakingContract(address)":"eb08584a","setCouncilThreshold(uint256)":"722900e6","setDailyLimit(uint256)":"b20d30a9","spentToday()":"f059cf2b","stakingBudget()":"691eeedd","transferGuardianship(address)":"9cef4240","urmomToken()":"640332d5"}}}}}