{"contracts/DTGCLPStaking.sol":{"DTGCLPStaking":{"abi":[{"inputs":[{"internalType":"address","name":"_lpToken","type":"address"},{"internalType":"address","name":"_rewardToken","type":"address"},{"internalType":"address","name":"_treasury","type":"address"}],"stateMutability":"nonpayable","type":"constructor"},{"anonymous":false,"inputs":[{"indexed":true,"internalType":"address","name":"oldOwner","type":"address"},{"indexed":true,"internalType":"address","name":"newOwner","type":"address"}],"name":"OwnershipTransferred","type":"event"},{"anonymous":false,"inputs":[{"indexed":false,"internalType":"uint256","name":"reward","type":"uint256"}],"name":"RewardAdded","type":"event"},{"anonymous":false,"inputs":[{"indexed":true,"internalType":"address","name":"user","type":"address"},{"indexed":false,"internalType":"uint256","name":"reward","type":"uint256"}],"name":"RewardClaimed","type":"event"},{"anonymous":false,"inputs":[{"indexed":false,"internalType":"uint256","name":"newDuration","type":"uint256"}],"name":"RewardsDurationUpdated","type":"event"},{"anonymous":false,"inputs":[{"indexed":true,"internalType":"address","name":"user","type":"address"},{"indexed":false,"internalType":"uint256","name":"amount","type":"uint256"}],"name":"Staked","type":"event"},{"anonymous":false,"inputs":[{"indexed":true,"internalType":"address","name":"newTreasury","type":"address"}],"name":"TreasuryUpdated","type":"event"},{"anonymous":false,"inputs":[{"indexed":true,"internalType":"address","name":"user","type":"address"},{"indexed":false,"internalType":"uint256","name":"amount","type":"uint256"}],"name":"Withdrawn","type":"event"},{"inputs":[],"name":"BOOST_PERIOD","outputs":[{"internalType":"uint256","name":"","type":"uint256"}],"stateMutability":"view","type":"function"},{"inputs":[],"name":"BOOST_PRECISION","outputs":[{"internalType":"uint256","name":"","type":"uint256"}],"stateMutability":"view","type":"function"},{"inputs":[],"name":"MAX_BOOST","outputs":[{"internalType":"uint256","name":"","type":"uint256"}],"stateMutability":"view","type":"function"},{"inputs":[],"name":"claimReward","outputs":[],"stateMutability":"nonpayable","type":"function"},{"inputs":[{"internalType":"uint256","name":"additionalLP","type":"uint256"}],"name":"compound","outputs":[],"stateMutability":"nonpayable","type":"function"},{"inputs":[{"internalType":"address","name":"account","type":"address"}],"name":"earned","outputs":[{"internalType":"uint256","name":"","type":"uint256"}],"stateMutability":"view","type":"function"},{"inputs":[],"name":"exit","outputs":[],"stateMutability":"nonpayable","type":"function"},{"inputs":[{"internalType":"address","name":"account","type":"address"}],"name":"getBoostMultiplier","outputs":[{"internalType":"uint256","name":"","type":"uint256"}],"stateMutability":"view","type":"function"},{"inputs":[],"name":"getCurrentAPR","outputs":[{"internalType":"uint256","name":"","type":"uint256"}],"stateMutability":"view","type":"function"},{"inputs":[],"name":"getRewardForDuration","outputs":[{"internalType":"uint256","name":"","type":"uint256"}],"stateMutability":"view","type":"function"},{"inputs":[{"internalType":"address","name":"account","type":"address"}],"name":"getUserInfo","outputs":[{"internalType":"uint256","name":"stakedAmount","type":"uint256"},{"internalType":"uint256","name":"pendingRewards","type":"uint256"},{"internalType":"uint256","name":"boostMultiplier","type":"uint256"},{"internalType":"uint256","name":"stakeDuration","type":"uint256"},{"internalType":"uint256","name":"totalClaimed","type":"uint256"}],"stateMutability":"view","type":"function"},{"inputs":[],"name":"lastTimeRewardApplicable","outputs":[{"internalType":"uint256","name":"","type":"uint256"}],"stateMutability":"view","type":"function"},{"inputs":[],"name":"lastUpdateTime","outputs":[{"internalType":"uint256","name":"","type":"uint256"}],"stateMutability":"view","type":"function"},{"inputs":[],"name":"lpToken","outputs":[{"internalType":"contract IPRC20","name":"","type":"address"}],"stateMutability":"view","type":"function"},{"inputs":[{"internalType":"uint256","name":"reward","type":"uint256"}],"name":"notifyRewardAmount","outputs":[],"stateMutability":"nonpayable","type":"function"},{"inputs":[],"name":"owner","outputs":[{"internalType":"address","name":"","type":"address"}],"stateMutability":"view","type":"function"},{"inputs":[],"name":"periodFinish","outputs":[{"internalType":"uint256","name":"","type":"uint256"}],"stateMutability":"view","type":"function"},{"inputs":[{"internalType":"address","name":"token","type":"address"},{"internalType":"uint256","name":"amount","type":"uint256"}],"name":"recoverToken","outputs":[],"stateMutability":"nonpayable","type":"function"},{"inputs":[],"name":"rewardPerToken","outputs":[{"internalType":"uint256","name":"","type":"uint256"}],"stateMutability":"view","type":"function"},{"inputs":[],"name":"rewardPerTokenStored","outputs":[{"internalType":"uint256","name":"","type":"uint256"}],"stateMutability":"view","type":"function"},{"inputs":[],"name":"rewardRate","outputs":[{"internalType":"uint256","name":"","type":"uint256"}],"stateMutability":"view","type":"function"},{"inputs":[],"name":"rewardToken","outputs":[{"internalType":"contract IPRC20","name":"","type":"address"}],"stateMutability":"view","type":"function"},{"inputs":[],"name":"rewardsDuration","outputs":[{"internalType":"uint256","name":"","type":"uint256"}],"stateMutability":"view","type":"function"},{"inputs":[{"internalType":"uint256","name":"_rewardsDuration","type":"uint256"}],"name":"setRewardsDuration","outputs":[],"stateMutability":"nonpayable","type":"function"},{"inputs":[{"internalType":"address","name":"_treasury","type":"address"}],"name":"setTreasury","outputs":[],"stateMutability":"nonpayable","type":"function"},{"inputs":[{"internalType":"uint256","name":"amount","type":"uint256"}],"name":"stake","outputs":[],"stateMutability":"nonpayable","type":"function"},{"inputs":[],"name":"totalStaked","outputs":[{"internalType":"uint256","name":"","type":"uint256"}],"stateMutability":"view","type":"function"},{"inputs":[{"internalType":"address","name":"newOwner","type":"address"}],"name":"transferOwnership","outputs":[],"stateMutability":"nonpayable","type":"function"},{"inputs":[],"name":"treasury","outputs":[{"internalType":"address","name":"","type":"address"}],"stateMutability":"view","type":"function"},{"inputs":[{"internalType":"address","name":"","type":"address"}],"name":"userInfo","outputs":[{"internalType":"uint256","name":"amount","type":"uint256"},{"internalType":"uint256","name":"rewardPerTokenPaid","type":"uint256"},{"internalType":"uint256","name":"rewards","type":"uint256"},{"internalType":"uint256","name":"stakeTime","type":"uint256"},{"internalType":"uint256","name":"claimedRewards","type":"uint256"}],"stateMutability":"view","type":"function"},{"inputs":[{"internalType":"uint256","name":"amount","type":"uint256"}],"name":"withdraw","outputs":[],"stateMutability":"nonpayable","type":"function"}],"evm":{"bytecode":{"linkReferences":{},"object":"60c034620001c457601f62001aa338819003918201601f191683019291906001600160401b03841183851017620001c9578160609284926040968752833981010312620001c4576200005181620001df565b6200006c836200006460208501620001df565b9301620001df565b6276a7006005556001600160a01b0391821692909190831562000190578116918215620001585716918215620001245760805260a05260018060a01b03199081600154161760015533906000541617600055516118ae9081620001f582396080518181816103e7015281816108f901528181610b6801528181610d3601528181610f8801526112e0015260a05181818161018a015281816104c1015281816107fe0152818161092101528181610c1601526110220152f35b835162461bcd60e51b815260206004820152600d60248201526c54524541535552595f5a45524f60981b6044820152606490fd5b845162461bcd60e51b81526020600482015260116024820152705245574152445f544f4b454e5f5a45524f60781b6044820152606490fd5b845162461bcd60e51b815260206004820152600d60248201526c4c505f544f4b454e5f5a45524f60981b6044820152606490fd5b600080fd5b634e487b7160e01b600052604160045260246000fd5b51906001600160a01b0382168203620001c45756fe6040608081526004908136101561001557600080fd5b600091823560e01c9081628cc262146114835781631792858f146114655781631959a002146113ee5781631c1f78eb146113ca57816321ae05c8146113ad5781632e1a7d4d14611236578163315865df14611219578163386a9525146111fa5781633c6b16ab14610fb75781635fcbd28514610f7357816361d027b314610f4a5781636386c1c714610e7d5781636f371efe14610e575781637b0a47ee14610e3857816380faa57d14610e1b578163817b1cd214610dfc5781638da5cb5b14610dd4578163a694fc3a14610cd1578163aa5f7e2614610aba578163b29a8140146108b9578163b88a802f1461076c578163c8f33c911461074d578163cc1a378f14610676578163cc6db2da14610659578163cd3daf9d14610635578163df136d6514610617578163e9fad8ee1461032f578163ebe2b12b14610310578163f0f4426014610266578163f2fde38b146101bd575063f7c618c11461017757600080fd5b346101b957816003193601126101b957517f00000000000000000000000000000000000000000000000000000000000000006001600160a01b03168152602090f35b5080fd5b905034610262576020366003190112610262576101d86114a9565b8354916001600160a01b03808416926101f2338514611840565b1693841561023257505082907f8be0079c531659141344cd1fd0a4f28419497f9722a3daafe3b4186f6b6457e08580a36001600160a01b03191617815580f35b906020606492519162461bcd60e51b8352820152600a6024820152694f574e45525f5a45524f60b01b6044820152fd5b8280fd5b905034610262576020366003190112610262576102816114a9565b83546001600160a01b03919061029a9083163314611840565b169182156102dd575050600180546001600160a01b031916821790557f7dae230f18360d76a040c81f050aa14eb9d6dc7901b20fc5d855e2a20fe814d18280a280f35b906020606492519162461bcd60e51b8352820152600d60248201526c54524541535552595f5a45524f60981b6044820152fd5b5050346101b957816003193601126101b9576020906006549051908152f35b9050346102625782600319360112610262573383526020600881528284205461035661153c565b83556103606114c4565b600355331515806105f3575b6103778215156117b0565b33865260088352848620828154106105b8578690610397846007546114d9565b6007556103a58482546114d9565b808255156105ad575b5050845163a9059cbb60e01b808252338683019081526020810185905290936001600160a01b039392909186908290819003604001818c7f000000000000000000000000000000000000000000000000000000000000000089165af180156105a357610421918a9161058c575b50611802565b86519081527f7084f5476618d8e60b11ef0d7d3f06914655adb8793e28ff7f018d4c76d505d5853392a261045361153c565b855561045d6114c4565b600355610568575b33865260088352848620600281019182549588876104805780f35b6104bd95828995838a98550161049786825461152f565b905589519081523392810192835260208301949094529294859384929091839160400190565b03927f0000000000000000000000000000000000000000000000000000000000000000165af190811561055e577f106f923f993c2149d49b4255ff723acafa1f2d94393f561d3eda32ae348f724193949161051e9187916105315750611802565b519283523392a238808080808080808880f35b6105519150843d8611610557575b61054981836115c5565b8101906117ea565b3861041b565b503d61053f565b84513d87823e3d90fd5b3386526008835284862061057b336116cd565b600282015560018554910155610465565b6105519150873d89116105575761054981836115c5565b88513d8b823e3d90fd5b6003015585386103ae565b5050925162461bcd60e51b8152918201526014602482015273494e53554646494349454e545f42414c414e434560601b604482015260649150fd5b33865260088352848620610606336116cd565b60028201556001855491015561036c565b90503461026257826003193601126102625760209250549051908152f35b5050346101b957816003193601126101b95760209061065261153c565b9051908152f35b5050346101b957816003193601126101b957602090516127108152f35b91905034610262576020366003190112610262578135916106a160018060a01b038554163314611840565b6006544211156107155782156106e35750816020917ffb46ca5a5e06d4540d6387b930a7c978bce0db5f449ec6b3f5d07c6e1d44f2d39360055551908152a180f35b6020606492519162461bcd60e51b8352820152600d60248201526c4455524154494f4e5f5a45524f60981b6044820152fd5b6020606492519162461bcd60e51b835282015260136024820152721411549253d117d393d517d192539254d21151606a1b6044820152fd5b5050346101b957816003193601126101b9576020906003549051908152f35b9190503461026257826003193601126102625761078761153c565b82556107916114c4565b60035533610894575b3383526008602052808320600281019084825494856107b7575080f35b8060209387936107f99655016107ce83825461152f565b9055845163a9059cbb60e01b8152339181019182526020820192909252909283918291604090910190565b0381877f00000000000000000000000000000000000000000000000000000000000000006001600160a01b03165af190811561088a57906108409185916108725750611802565b519081527f106f923f993c2149d49b4255ff723acafa1f2d94393f561d3eda32ae348f724160203392a2388080808480f35b610551915060203d81116105575761054981836115c5565b82513d86823e3d90fd5b33835260086020528083206108a8336116cd565b60028201556001835491015561079a565b839150346101b957826003193601126101b9576108d46114a9565b8254602435926001600160a01b03929183169183906108f4338514611840565b1692807f0000000000000000000000000000000000000000000000000000000000000000168414610a83577f000000000000000000000000000000000000000000000000000000000000000016808414908115916109ff575b50156109c357855163a9059cbb60e01b81526001600160a01b0390921690820190815260208181019490945290928592909184919082908790829060400103925af19081156109ba575061099f575080f35b6109b69060203d81116105575761054981836115c5565b5080f35b513d84823e3d90fd5b606490602087519162461bcd60e51b8352820152601660248201527543414e4e4f545f5245434f5645525f5245574152445360501b6044820152fd5b87516370a0823160e01b815230848201529150602090829060249082905afa8015610a79578690610a42575b610a399150600754906114d9565b8411158761094d565b506020813d8211610a71575b81610a5b602093836115c5565b81010312610a6d57610a399051610a2b565b8580fd5b3d9150610a4e565b87513d88823e3d90fd5b865162461bcd60e51b81526020818401526011602482015270043414e4e4f545f5245434f5645525f4c5607c1b6044820152606490fd5b90503461026257602080600319360112610ccd57813591610ad961153c565b8155610ae36114c4565b60035533610ca9575b3385526008825283852090600282018681549182610bdd575b50505083610b11578580f35b838391610b6393610b248360075461152f565b600755610b3283825461152f565b905586516323b872dd60e01b8152339181019182523060208301526040820192909252909283918291606090910190565b0381887f00000000000000000000000000000000000000000000000000000000000000006001600160a01b03165af190811561055e577f9e71bc8eea02a63969f509818f2dafb9254532904319f9dbda79b67bd34a5f3d939491610bcd9187916105315750611802565b519283523392a238808080808580f35b55818301610bec82825461152f565b9055855163a9059cbb60e01b8152338382019081526020810183905285908290819060400103818b7f00000000000000000000000000000000000000000000000000000000000000006001600160a01b03165af18015610c9f57610c56918991610c885750611802565b85519081527f106f923f993c2149d49b4255ff723acafa1f2d94393f561d3eda32ae348f7241843392a2388681610b05565b6105519150863d88116105575761054981836115c5565b87513d8a823e3d90fd5b33855260088252838520610cbc336116cd565b600282015560018254910155610aec565b8380fd5b90503461026257602080600319360112610ccd57610d318183358094610cf561153c565b8155610cff6114c4565b60035533610db0575b610d138215156117b0565b33885260088352868820805415610da5575b610b248360075461152f565b0381887f00000000000000000000000000000000000000000000000000000000000000006001600160a01b03165af190811561055e577f9e71bc8eea02a63969f509818f2dafb9254532904319f9dbda79b67bd34a5f3d939491610d9b9187916105315750611802565b519283523392a280f35b426003820155610d25565b33885260088352868820610dc3336116cd565b600282015560018254910155610d08565b5050346101b957816003193601126101b957905490516001600160a01b039091168152602090f35b5050346101b957816003193601126101b9576020906007549051908152f35b5050346101b957816003193601126101b9576020906106526114c4565b5050346101b957816003193601126101b9576020906002549051908152f35b5050346101b95760203660031901126101b957602090610652610e786114a9565b6115e7565b9190503461026257602036600319011261026257610f3f90610e9d6114a9565b6001600160a01b0381168552600860205281852082519195610ebe83611593565b6080825496878552600184015460208601526002840154868601526003840154936060860194855201549301928352610eff610ef9886116cd565b976115e7565b91518015610f4357610f129150426114d9565b915b519251958695869192608093969594919660a084019784526020840152604083015260608201520152565b0390f35b5091610f14565b5050346101b957816003193601126101b95760015490516001600160a01b039091168152602090f35b5050346101b957816003193601126101b957517f00000000000000000000000000000000000000000000000000000000000000006001600160a01b03168152602090f35b839150346101b957602090816003193601126102625780359060018060a01b03610fe5818654163314611840565b610fed61153c565b8255610ff76114c4565b60035582156111c95785516323b872dd60e01b815233838201908152306020820152604081018590527f00000000000000000000000000000000000000000000000000000000000000009290921691859082908190606001038189865af1908115610a79579161107286926024959489916111ac5750611802565b60065442811161117857506110896005548661150f565b6002555b87516370a0823160e01b8152308482015293849182905afa91821561116e57859261113b575b506002546110c4600554809461150f565b106111065750936110fb7fde88a922e0d3b88b24e9623efeb464919c6bf9f66857a65e2bfcf2ce87a9433d9495426003554261152f565b60065551908152a180f35b855162461bcd60e51b8152908101849052600f60248201526e0a48aae82a488bea89e9ebe90928e9608b1b6044820152606490fd5b9091508381813d8311611167575b61115381836115c5565b81010312611163575190866110b3565b8480fd5b503d611149565b86513d87823e3d90fd5b61119b61119561118c6111a49342906114d9565b600254906114fc565b8761152f565b6005549061150f565b60025561108d565b6111c39150843d86116105575761054981836115c5565b8a61041b565b855162461bcd60e51b8152808301859052600b60248201526a5245574152445f5a45524f60a81b6044820152606490fd5b5050346101b957816003193601126101b9576020906005549051908152f35b5050346101b957816003193601126101b95760209051614e208152f35b90503461026257602080600319360112610ccd5781359161125561153c565b815561125f6114c4565b60035533611389575b6112738315156117b0565b338552600882528385208381541061135057836112db92878593611299846007546114d9565b6007556112a78482546114d9565b80825515611345575b5050865163a9059cbb60e01b8152339181019182526020820192909252909283918291604090910190565b0381887f00000000000000000000000000000000000000000000000000000000000000006001600160a01b03165af190811561055e577f7084f5476618d8e60b11ef0d7d3f06914655adb8793e28ff7f018d4c76d505d5939491610d9b9187916105315750611802565b6003015587386112b0565b5060649184519162461bcd60e51b83528201526014602482015273494e53554646494349454e545f42414c414e434560601b6044820152fd5b3385526008825283852061139c336116cd565b600282015560018254910155611268565b5050346101b957816003193601126101b957602090610652611767565b5050346101b957816003193601126101b957602090610652600254600554906114fc565b82843461146257602036600319011261146257610f3f9082906001600160a01b036114176114a9565b1681526008602052209182549260018101549460028201549060038301549201549251958695869192608093969594919660a084019784526020840152604083015260608201520152565b80fd5b5050346101b957816003193601126101b957602090516276a7008152f35b5050346101b95760203660031901126101b9576020906106526114a46114a9565b6116cd565b600435906001600160a01b03821682036114bf57565b600080fd5b6006548042106000146114d657504290565b90565b919082039182116114e657565b634e487b7160e01b600052601160045260246000fd5b818102929181159184041417156114e657565b8115611519570490565b634e487b7160e01b600052601260045260246000fd5b919082018092116114e657565b600754801561158c5760045461155f61118c6115566114c4565b600354906114d9565b670de0b6b3a7640000908181029181830414901517156114e6576114d6926115869161150f565b9061152f565b5060045490565b60a0810190811067ffffffffffffffff8211176115af57604052565b634e487b7160e01b600052604160045260246000fd5b90601f8019910116810190811067ffffffffffffffff8211176115af57604052565b6001600160a01b0316600090815260086020526040808220905161160a81611593565b81549081815260018301546020820152600283015460408201526080600460038501549485606085015201549101521580156116c5575b6116bd5761164f90426114d9565b906276a700808310156116b4576127109280840290848204036116a05704820180921161168c5750614e209081811115611687575090565b905090565b634e487b7160e01b81526011600452602490fd5b634e487b7160e01b83526011600452602483fd5b505050614e2090565b505061271090565b508015611641565b6117636127109160018060a01b038116600052600860205261174e61175d6040600020670de0b6b3a764000061175460405161170881611593565b61174e845491828152600186015490602081019182526080600460028901549860408401998a5260038101546060850152015491015261174661153c565b9051906114d9565b906114fc565b0490519061152f565b916115e7565b0490565b60075480156117aa57600254906301e13380918281029281840414811517156114e65764496cebb800029180830461271014901517156114e6576114d69161150f565b50600090565b156117b757565b60405162461bcd60e51b815260206004820152600b60248201526a414d4f554e545f5a45524f60a81b6044820152606490fd5b908160209103126114bf575180151581036114bf5790565b1561180957565b60405162461bcd60e51b815260206004820152600f60248201526e1514905394d1915497d19052531151608a1b6044820152606490fd5b1561184757565b60405162461bcd60e51b81526020600482015260096024820152682727aa2fa7aba722a960b91b6044820152606490fdfea2646970667358221220719bcdf7fd2af9f62a882873916112ecfe581fdd8ac6eabc600696186793c98964736f6c63430008140033","opcodes":"PUSH1 0xC0 CALLVALUE PUSH3 0x1C4 JUMPI PUSH1 0x1F PUSH3 0x1AA3 CODESIZE DUP2 SWAP1 SUB SWAP2 DUP3 ADD PUSH1 0x1F NOT AND DUP4 ADD SWAP3 SWAP2 SWAP1 PUSH1 0x1 PUSH1 0x1 PUSH1 0x40 SHL SUB DUP5 GT DUP4 DUP6 LT OR PUSH3 0x1C9 JUMPI DUP2 PUSH1 0x60 SWAP3 DUP5 SWAP3 PUSH1 0x40 SWAP7 DUP8 MSTORE DUP4 CODECOPY DUP2 ADD SUB SLT PUSH3 0x1C4 JUMPI PUSH3 0x51 DUP2 PUSH3 0x1DF JUMP JUMPDEST PUSH3 0x6C DUP4 PUSH3 0x64 PUSH1 0x20 DUP6 ADD PUSH3 0x1DF JUMP JUMPDEST SWAP4 ADD PUSH3 0x1DF JUMP JUMPDEST PUSH3 0x76A700 PUSH1 0x5 SSTORE PUSH1 0x1 PUSH1 0x1 PUSH1 0xA0 SHL SUB SWAP2 DUP3 AND SWAP3 SWAP1 SWAP2 SWAP1 DUP4 ISZERO PUSH3 0x190 JUMPI DUP2 AND SWAP2 DUP3 ISZERO PUSH3 0x158 JUMPI AND SWAP2 DUP3 ISZERO PUSH3 0x124 JUMPI PUSH1 0x80 MSTORE PUSH1 0xA0 MSTORE PUSH1 0x1 DUP1 PUSH1 0xA0 SHL SUB NOT SWAP1 DUP2 PUSH1 0x1 SLOAD AND OR PUSH1 0x1 SSTORE CALLER SWAP1 PUSH1 0x0 SLOAD AND OR PUSH1 0x0 SSTORE MLOAD PUSH2 0x18AE SWAP1 DUP2 PUSH3 0x1F5 DUP3 CODECOPY PUSH1 0x80 MLOAD DUP2 DUP2 DUP2 PUSH2 0x3E7 ADD MSTORE DUP2 DUP2 PUSH2 0x8F9 ADD MSTORE DUP2 DUP2 PUSH2 0xB68 ADD MSTORE DUP2 DUP2 PUSH2 0xD36 ADD MSTORE DUP2 DUP2 PUSH2 0xF88 ADD MSTORE PUSH2 0x12E0 ADD MSTORE PUSH1 0xA0 MLOAD DUP2 DUP2 DUP2 PUSH2 0x18A ADD MSTORE DUP2 DUP2 PUSH2 0x4C1 ADD MSTORE DUP2 DUP2 PUSH2 0x7FE ADD MSTORE DUP2 DUP2 PUSH2 0x921 ADD MSTORE DUP2 DUP2 PUSH2 0xC16 ADD MSTORE PUSH2 0x1022 ADD MSTORE RETURN JUMPDEST DUP4 MLOAD PUSH3 0x461BCD PUSH1 0xE5 SHL DUP2 MSTORE PUSH1 0x20 PUSH1 0x4 DUP3 ADD MSTORE PUSH1 0xD PUSH1 0x24 DUP3 ADD MSTORE PUSH13 0x54524541535552595F5A45524F PUSH1 0x98 SHL PUSH1 0x44 DUP3 ADD MSTORE PUSH1 0x64 SWAP1 REVERT JUMPDEST DUP5 MLOAD PUSH3 0x461BCD PUSH1 0xE5 SHL DUP2 MSTORE PUSH1 0x20 PUSH1 0x4 DUP3 ADD MSTORE PUSH1 0x11 PUSH1 0x24 DUP3 ADD MSTORE PUSH17 0x5245574152445F544F4B454E5F5A45524F PUSH1 0x78 SHL PUSH1 0x44 DUP3 ADD MSTORE PUSH1 0x64 SWAP1 REVERT JUMPDEST DUP5 MLOAD PUSH3 0x461BCD PUSH1 0xE5 SHL DUP2 MSTORE PUSH1 0x20 PUSH1 0x4 DUP3 ADD MSTORE PUSH1 0xD PUSH1 0x24 DUP3 ADD MSTORE PUSH13 0x4C505F544F4B454E5F5A45524F PUSH1 0x98 SHL PUSH1 0x44 DUP3 ADD MSTORE PUSH1 0x64 SWAP1 REVERT JUMPDEST PUSH1 0x0 DUP1 REVERT JUMPDEST PUSH4 0x4E487B71 PUSH1 0xE0 SHL PUSH1 0x0 MSTORE PUSH1 0x41 PUSH1 0x4 MSTORE PUSH1 0x24 PUSH1 0x0 REVERT JUMPDEST MLOAD SWAP1 PUSH1 0x1 PUSH1 0x1 PUSH1 0xA0 SHL SUB DUP3 AND DUP3 SUB PUSH3 0x1C4 JUMPI JUMP INVALID PUSH1 0x40 PUSH1 0x80 DUP2 MSTORE PUSH1 0x4 SWAP1 DUP2 CALLDATASIZE LT ISZERO PUSH2 0x15 JUMPI PUSH1 0x0 DUP1 REVERT JUMPDEST PUSH1 0x0 SWAP2 DUP3 CALLDATALOAD PUSH1 0xE0 SHR SWAP1 DUP2 PUSH3 0x8CC262 EQ PUSH2 0x1483 JUMPI DUP2 PUSH4 0x1792858F EQ PUSH2 0x1465 JUMPI DUP2 PUSH4 0x1959A002 EQ PUSH2 0x13EE JUMPI DUP2 PUSH4 0x1C1F78EB EQ PUSH2 0x13CA JUMPI DUP2 PUSH4 0x21AE05C8 EQ PUSH2 0x13AD JUMPI DUP2 PUSH4 0x2E1A7D4D EQ PUSH2 0x1236 JUMPI DUP2 PUSH4 0x315865DF EQ PUSH2 0x1219 JUMPI DUP2 PUSH4 0x386A9525 EQ PUSH2 0x11FA JUMPI DUP2 PUSH4 0x3C6B16AB EQ PUSH2 0xFB7 JUMPI DUP2 PUSH4 0x5FCBD285 EQ PUSH2 0xF73 JUMPI DUP2 PUSH4 0x61D027B3 EQ PUSH2 0xF4A JUMPI DUP2 PUSH4 0x6386C1C7 EQ PUSH2 0xE7D JUMPI DUP2 PUSH4 0x6F371EFE EQ PUSH2 0xE57 JUMPI DUP2 PUSH4 0x7B0A47EE EQ PUSH2 0xE38 JUMPI DUP2 PUSH4 0x80FAA57D EQ PUSH2 0xE1B JUMPI DUP2 PUSH4 0x817B1CD2 EQ PUSH2 0xDFC JUMPI DUP2 PUSH4 0x8DA5CB5B EQ PUSH2 0xDD4 JUMPI DUP2 PUSH4 0xA694FC3A EQ PUSH2 0xCD1 JUMPI DUP2 PUSH4 0xAA5F7E26 EQ PUSH2 0xABA JUMPI DUP2 PUSH4 0xB29A8140 EQ PUSH2 0x8B9 JUMPI DUP2 PUSH4 0xB88A802F EQ PUSH2 0x76C JUMPI DUP2 PUSH4 0xC8F33C91 EQ PUSH2 0x74D JUMPI DUP2 PUSH4 0xCC1A378F EQ PUSH2 0x676 JUMPI DUP2 PUSH4 0xCC6DB2DA EQ PUSH2 0x659 JUMPI DUP2 PUSH4 0xCD3DAF9D EQ PUSH2 0x635 JUMPI DUP2 PUSH4 0xDF136D65 EQ PUSH2 0x617 JUMPI DUP2 PUSH4 0xE9FAD8EE EQ PUSH2 0x32F JUMPI DUP2 PUSH4 0xEBE2B12B EQ PUSH2 0x310 JUMPI DUP2 PUSH4 0xF0F44260 EQ PUSH2 0x266 JUMPI DUP2 PUSH4 0xF2FDE38B EQ PUSH2 0x1BD JUMPI POP PUSH4 0xF7C618C1 EQ PUSH2 0x177 JUMPI PUSH1 0x0 DUP1 REVERT JUMPDEST CALLVALUE PUSH2 0x1B9 JUMPI DUP2 PUSH1 0x3 NOT CALLDATASIZE ADD SLT PUSH2 0x1B9 JUMPI MLOAD PUSH32 0x0 PUSH1 0x1 PUSH1 0x1 PUSH1 0xA0 SHL SUB AND DUP2 MSTORE PUSH1 0x20 SWAP1 RETURN JUMPDEST POP DUP1 REVERT JUMPDEST SWAP1 POP CALLVALUE PUSH2 0x262 JUMPI PUSH1 0x20 CALLDATASIZE PUSH1 0x3 NOT ADD SLT PUSH2 0x262 JUMPI PUSH2 0x1D8 PUSH2 0x14A9 JUMP JUMPDEST DUP4 SLOAD SWAP2 PUSH1 0x1 PUSH1 0x1 PUSH1 0xA0 SHL SUB DUP1 DUP5 AND SWAP3 PUSH2 0x1F2 CALLER DUP6 EQ PUSH2 0x1840 JUMP JUMPDEST AND SWAP4 DUP5 ISZERO PUSH2 0x232 JUMPI POP POP DUP3 SWAP1 PUSH32 0x8BE0079C531659141344CD1FD0A4F28419497F9722A3DAAFE3B4186F6B6457E0 DUP6 DUP1 LOG3 PUSH1 0x1 PUSH1 0x1 PUSH1 0xA0 SHL SUB NOT AND OR DUP2 SSTORE DUP1 RETURN JUMPDEST SWAP1 PUSH1 0x20 PUSH1 0x64 SWAP3 MLOAD SWAP2 PUSH3 0x461BCD PUSH1 0xE5 SHL DUP4 MSTORE DUP3 ADD MSTORE PUSH1 0xA PUSH1 0x24 DUP3 ADD MSTORE PUSH10 0x4F574E45525F5A45524F PUSH1 0xB0 SHL PUSH1 0x44 DUP3 ADD MSTORE REVERT JUMPDEST DUP3 DUP1 REVERT JUMPDEST SWAP1 POP CALLVALUE PUSH2 0x262 JUMPI PUSH1 0x20 CALLDATASIZE PUSH1 0x3 NOT ADD SLT PUSH2 0x262 JUMPI PUSH2 0x281 PUSH2 0x14A9 JUMP JUMPDEST DUP4 SLOAD PUSH1 0x1 PUSH1 0x1 PUSH1 0xA0 SHL SUB SWAP2 SWAP1 PUSH2 0x29A SWAP1 DUP4 AND CALLER EQ PUSH2 0x1840 JUMP JUMPDEST AND SWAP2 DUP3 ISZERO PUSH2 0x2DD JUMPI POP POP PUSH1 0x1 DUP1 SLOAD PUSH1 0x1 PUSH1 0x1 PUSH1 0xA0 SHL SUB NOT AND DUP3 OR SWAP1 SSTORE PUSH32 0x7DAE230F18360D76A040C81F050AA14EB9D6DC7901B20FC5D855E2A20FE814D1 DUP3 DUP1 LOG2 DUP1 RETURN JUMPDEST SWAP1 PUSH1 0x20 PUSH1 0x64 SWAP3 MLOAD SWAP2 PUSH3 0x461BCD PUSH1 0xE5 SHL DUP4 MSTORE DUP3 ADD MSTORE PUSH1 0xD PUSH1 0x24 DUP3 ADD MSTORE PUSH13 0x54524541535552595F5A45524F PUSH1 0x98 SHL PUSH1 0x44 DUP3 ADD MSTORE REVERT JUMPDEST POP POP CALLVALUE PUSH2 0x1B9 JUMPI DUP2 PUSH1 0x3 NOT CALLDATASIZE ADD SLT PUSH2 0x1B9 JUMPI PUSH1 0x20 SWAP1 PUSH1 0x6 SLOAD SWAP1 MLOAD SWAP1 DUP2 MSTORE RETURN JUMPDEST SWAP1 POP CALLVALUE PUSH2 0x262 JUMPI DUP3 PUSH1 0x3 NOT CALLDATASIZE ADD SLT PUSH2 0x262 JUMPI CALLER DUP4 MSTORE PUSH1 0x20 PUSH1 0x8 DUP2 MSTORE DUP3 DUP5 KECCAK256 SLOAD PUSH2 0x356 PUSH2 0x153C JUMP JUMPDEST DUP4 SSTORE PUSH2 0x360 PUSH2 0x14C4 JUMP JUMPDEST PUSH1 0x3 SSTORE CALLER ISZERO ISZERO DUP1 PUSH2 0x5F3 JUMPI JUMPDEST PUSH2 0x377 DUP3 ISZERO ISZERO PUSH2 0x17B0 JUMP JUMPDEST CALLER DUP7 MSTORE PUSH1 0x8 DUP4 MSTORE DUP5 DUP7 KECCAK256 DUP3 DUP2 SLOAD LT PUSH2 0x5B8 JUMPI DUP7 SWAP1 PUSH2 0x397 DUP5 PUSH1 0x7 SLOAD PUSH2 0x14D9 JUMP JUMPDEST PUSH1 0x7 SSTORE PUSH2 0x3A5 DUP5 DUP3 SLOAD PUSH2 0x14D9 JUMP JUMPDEST DUP1 DUP3 SSTORE ISZERO PUSH2 0x5AD JUMPI JUMPDEST POP POP DUP5 MLOAD PUSH4 0xA9059CBB PUSH1 0xE0 SHL DUP1 DUP3 MSTORE CALLER DUP7 DUP4 ADD SWAP1 DUP2 MSTORE PUSH1 0x20 DUP2 ADD DUP6 SWAP1 MSTORE SWAP1 SWAP4 PUSH1 0x1 PUSH1 0x1 PUSH1 0xA0 SHL SUB SWAP4 SWAP3 SWAP1 SWAP2 DUP7 SWAP1 DUP3 SWAP1 DUP2 SWAP1 SUB PUSH1 0x40 ADD DUP2 DUP13 PUSH32 0x0 DUP10 AND GAS CALL DUP1 ISZERO PUSH2 0x5A3 JUMPI PUSH2 0x421 SWAP2 DUP11 SWAP2 PUSH2 0x58C JUMPI JUMPDEST POP PUSH2 0x1802 JUMP JUMPDEST DUP7 MLOAD SWAP1 DUP2 MSTORE PUSH32 0x7084F5476618D8E60B11EF0D7D3F06914655ADB8793E28FF7F018D4C76D505D5 DUP6 CALLER SWAP3 LOG2 PUSH2 0x453 PUSH2 0x153C JUMP JUMPDEST DUP6 SSTORE PUSH2 0x45D PUSH2 0x14C4 JUMP JUMPDEST PUSH1 0x3 SSTORE PUSH2 0x568 JUMPI JUMPDEST CALLER DUP7 MSTORE PUSH1 0x8 DUP4 MSTORE DUP5 DUP7 KECCAK256 PUSH1 0x2 DUP2 ADD SWAP2 DUP3 SLOAD SWAP6 DUP9 DUP8 PUSH2 0x480 JUMPI DUP1 RETURN JUMPDEST PUSH2 0x4BD SWAP6 DUP3 DUP10 SWAP6 DUP4 DUP11 SWAP9 SSTORE ADD PUSH2 0x497 DUP7 DUP3 SLOAD PUSH2 0x152F JUMP JUMPDEST SWAP1 SSTORE DUP10 MLOAD SWAP1 DUP2 MSTORE CALLER SWAP3 DUP2 ADD SWAP3 DUP4 MSTORE PUSH1 0x20 DUP4 ADD SWAP5 SWAP1 SWAP5 MSTORE SWAP3 SWAP5 DUP6 SWAP4 DUP5 SWAP3 SWAP1 SWAP2 DUP4 SWAP2 PUSH1 0x40 ADD SWAP1 JUMP JUMPDEST SUB SWAP3 PUSH32 0x0 AND GAS CALL SWAP1 DUP2 ISZERO PUSH2 0x55E JUMPI PUSH32 0x106F923F993C2149D49B4255FF723ACAFA1F2D94393F561D3EDA32AE348F7241 SWAP4 SWAP5 SWAP2 PUSH2 0x51E SWAP2 DUP8 SWAP2 PUSH2 0x531 JUMPI POP PUSH2 0x1802 JUMP JUMPDEST MLOAD SWAP3 DUP4 MSTORE CALLER SWAP3 LOG2 CODESIZE DUP1 DUP1 DUP1 DUP1 DUP1 DUP1 DUP1 DUP9 DUP1 RETURN JUMPDEST PUSH2 0x551 SWAP2 POP DUP5 RETURNDATASIZE DUP7 GT PUSH2 0x557 JUMPI JUMPDEST PUSH2 0x549 DUP2 DUP4 PUSH2 0x15C5 JUMP JUMPDEST DUP2 ADD SWAP1 PUSH2 0x17EA JUMP JUMPDEST CODESIZE PUSH2 0x41B JUMP JUMPDEST POP RETURNDATASIZE PUSH2 0x53F JUMP JUMPDEST DUP5 MLOAD RETURNDATASIZE DUP8 DUP3 RETURNDATACOPY RETURNDATASIZE SWAP1 REVERT JUMPDEST CALLER DUP7 MSTORE PUSH1 0x8 DUP4 MSTORE DUP5 DUP7 KECCAK256 PUSH2 0x57B CALLER PUSH2 0x16CD JUMP JUMPDEST PUSH1 0x2 DUP3 ADD SSTORE PUSH1 0x1 DUP6 SLOAD SWAP2 ADD SSTORE PUSH2 0x465 JUMP JUMPDEST PUSH2 0x551 SWAP2 POP DUP8 RETURNDATASIZE DUP10 GT PUSH2 0x557 JUMPI PUSH2 0x549 DUP2 DUP4 PUSH2 0x15C5 JUMP JUMPDEST DUP9 MLOAD RETURNDATASIZE DUP12 DUP3 RETURNDATACOPY RETURNDATASIZE SWAP1 REVERT JUMPDEST PUSH1 0x3 ADD SSTORE DUP6 CODESIZE PUSH2 0x3AE JUMP JUMPDEST POP POP SWAP3 MLOAD PUSH3 0x461BCD PUSH1 0xE5 SHL DUP2 MSTORE SWAP2 DUP3 ADD MSTORE PUSH1 0x14 PUSH1 0x24 DUP3 ADD MSTORE PUSH20 0x494E53554646494349454E545F42414C414E4345 PUSH1 0x60 SHL PUSH1 0x44 DUP3 ADD MSTORE PUSH1 0x64 SWAP2 POP REVERT JUMPDEST CALLER DUP7 MSTORE PUSH1 0x8 DUP4 MSTORE DUP5 DUP7 KECCAK256 PUSH2 0x606 CALLER PUSH2 0x16CD JUMP JUMPDEST PUSH1 0x2 DUP3 ADD SSTORE PUSH1 0x1 DUP6 SLOAD SWAP2 ADD SSTORE PUSH2 0x36C JUMP JUMPDEST SWAP1 POP CALLVALUE PUSH2 0x262 JUMPI DUP3 PUSH1 0x3 NOT CALLDATASIZE ADD SLT PUSH2 0x262 JUMPI PUSH1 0x20 SWAP3 POP SLOAD SWAP1 MLOAD SWAP1 DUP2 MSTORE RETURN JUMPDEST POP POP CALLVALUE PUSH2 0x1B9 JUMPI DUP2 PUSH1 0x3 NOT CALLDATASIZE ADD SLT PUSH2 0x1B9 JUMPI PUSH1 0x20 SWAP1 PUSH2 0x652 PUSH2 0x153C JUMP JUMPDEST SWAP1 MLOAD SWAP1 DUP2 MSTORE RETURN JUMPDEST POP POP CALLVALUE PUSH2 0x1B9 JUMPI DUP2 PUSH1 0x3 NOT CALLDATASIZE ADD SLT PUSH2 0x1B9 JUMPI PUSH1 0x20 SWAP1 MLOAD PUSH2 0x2710 DUP2 MSTORE RETURN JUMPDEST SWAP2 SWAP1 POP CALLVALUE PUSH2 0x262 JUMPI PUSH1 0x20 CALLDATASIZE PUSH1 0x3 NOT ADD SLT PUSH2 0x262 JUMPI DUP2 CALLDATALOAD SWAP2 PUSH2 0x6A1 PUSH1 0x1 DUP1 PUSH1 0xA0 SHL SUB DUP6 SLOAD AND CALLER EQ PUSH2 0x1840 JUMP JUMPDEST PUSH1 0x6 SLOAD TIMESTAMP GT ISZERO PUSH2 0x715 JUMPI DUP3 ISZERO PUSH2 0x6E3 JUMPI POP DUP2 PUSH1 0x20 SWAP2 PUSH32 0xFB46CA5A5E06D4540D6387B930A7C978BCE0DB5F449EC6B3F5D07C6E1D44F2D3 SWAP4 PUSH1 0x5 SSTORE MLOAD SWAP1 DUP2 MSTORE LOG1 DUP1 RETURN JUMPDEST PUSH1 0x20 PUSH1 0x64 SWAP3 MLOAD SWAP2 PUSH3 0x461BCD PUSH1 0xE5 SHL DUP4 MSTORE DUP3 ADD MSTORE PUSH1 0xD PUSH1 0x24 DUP3 ADD MSTORE PUSH13 0x4455524154494F4E5F5A45524F PUSH1 0x98 SHL PUSH1 0x44 DUP3 ADD MSTORE REVERT JUMPDEST PUSH1 0x20 PUSH1 0x64 SWAP3 MLOAD SWAP2 PUSH3 0x461BCD PUSH1 0xE5 SHL DUP4 MSTORE DUP3 ADD MSTORE PUSH1 0x13 PUSH1 0x24 DUP3 ADD MSTORE PUSH19 0x1411549253D117D393D517D192539254D21151 PUSH1 0x6A SHL PUSH1 0x44 DUP3 ADD MSTORE REVERT JUMPDEST POP POP CALLVALUE PUSH2 0x1B9 JUMPI DUP2 PUSH1 0x3 NOT CALLDATASIZE ADD SLT PUSH2 0x1B9 JUMPI PUSH1 0x20 SWAP1 PUSH1 0x3 SLOAD SWAP1 MLOAD SWAP1 DUP2 MSTORE RETURN JUMPDEST SWAP2 SWAP1 POP CALLVALUE PUSH2 0x262 JUMPI DUP3 PUSH1 0x3 NOT CALLDATASIZE ADD SLT PUSH2 0x262 JUMPI PUSH2 0x787 PUSH2 0x153C JUMP JUMPDEST DUP3 SSTORE PUSH2 0x791 PUSH2 0x14C4 JUMP JUMPDEST PUSH1 0x3 SSTORE CALLER PUSH2 0x894 JUMPI JUMPDEST CALLER DUP4 MSTORE PUSH1 0x8 PUSH1 0x20 MSTORE DUP1 DUP4 KECCAK256 PUSH1 0x2 DUP2 ADD SWAP1 DUP5 DUP3 SLOAD SWAP5 DUP6 PUSH2 0x7B7 JUMPI POP DUP1 RETURN JUMPDEST DUP1 PUSH1 0x20 SWAP4 DUP8 SWAP4 PUSH2 0x7F9 SWAP7 SSTORE ADD PUSH2 0x7CE DUP4 DUP3 SLOAD PUSH2 0x152F JUMP JUMPDEST SWAP1 SSTORE DUP5 MLOAD PUSH4 0xA9059CBB PUSH1 0xE0 SHL DUP2 MSTORE CALLER SWAP2 DUP2 ADD SWAP2 DUP3 MSTORE PUSH1 0x20 DUP3 ADD SWAP3 SWAP1 SWAP3 MSTORE SWAP1 SWAP3 DUP4 SWAP2 DUP3 SWAP2 PUSH1 0x40 SWAP1 SWAP2 ADD SWAP1 JUMP JUMPDEST SUB DUP2 DUP8 PUSH32 0x0 PUSH1 0x1 PUSH1 0x1 PUSH1 0xA0 SHL SUB AND GAS CALL SWAP1 DUP2 ISZERO PUSH2 0x88A JUMPI SWAP1 PUSH2 0x840 SWAP2 DUP6 SWAP2 PUSH2 0x872 JUMPI POP PUSH2 0x1802 JUMP JUMPDEST MLOAD SWAP1 DUP2 MSTORE PUSH32 0x106F923F993C2149D49B4255FF723ACAFA1F2D94393F561D3EDA32AE348F7241 PUSH1 0x20 CALLER SWAP3 LOG2 CODESIZE DUP1 DUP1 DUP1 DUP5 DUP1 RETURN JUMPDEST PUSH2 0x551 SWAP2 POP PUSH1 0x20 RETURNDATASIZE DUP2 GT PUSH2 0x557 JUMPI PUSH2 0x549 DUP2 DUP4 PUSH2 0x15C5 JUMP JUMPDEST DUP3 MLOAD RETURNDATASIZE DUP7 DUP3 RETURNDATACOPY RETURNDATASIZE SWAP1 REVERT JUMPDEST CALLER DUP4 MSTORE PUSH1 0x8 PUSH1 0x20 MSTORE DUP1 DUP4 KECCAK256 PUSH2 0x8A8 CALLER PUSH2 0x16CD JUMP JUMPDEST PUSH1 0x2 DUP3 ADD SSTORE PUSH1 0x1 DUP4 SLOAD SWAP2 ADD SSTORE PUSH2 0x79A JUMP JUMPDEST DUP4 SWAP2 POP CALLVALUE PUSH2 0x1B9 JUMPI DUP3 PUSH1 0x3 NOT CALLDATASIZE ADD SLT PUSH2 0x1B9 JUMPI PUSH2 0x8D4 PUSH2 0x14A9 JUMP JUMPDEST DUP3 SLOAD PUSH1 0x24 CALLDATALOAD SWAP3 PUSH1 0x1 PUSH1 0x1 PUSH1 0xA0 SHL SUB SWAP3 SWAP2 DUP4 AND SWAP2 DUP4 SWAP1 PUSH2 0x8F4 CALLER DUP6 EQ PUSH2 0x1840 JUMP JUMPDEST AND SWAP3 DUP1 PUSH32 0x0 AND DUP5 EQ PUSH2 0xA83 JUMPI PUSH32 0x0 AND DUP1 DUP5 EQ SWAP1 DUP2 ISZERO SWAP2 PUSH2 0x9FF JUMPI JUMPDEST POP ISZERO PUSH2 0x9C3 JUMPI DUP6 MLOAD PUSH4 0xA9059CBB PUSH1 0xE0 SHL DUP2 MSTORE PUSH1 0x1 PUSH1 0x1 PUSH1 0xA0 SHL SUB SWAP1 SWAP3 AND SWAP1 DUP3 ADD SWAP1 DUP2 MSTORE PUSH1 0x20 DUP2 DUP2 ADD SWAP5 SWAP1 SWAP5 MSTORE SWAP1 SWAP3 DUP6 SWAP3 SWAP1 SWAP2 DUP5 SWAP2 SWAP1 DUP3 SWAP1 DUP8 SWAP1 DUP3 SWAP1 PUSH1 0x40 ADD SUB SWAP3 GAS CALL SWAP1 DUP2 ISZERO PUSH2 0x9BA JUMPI POP PUSH2 0x99F JUMPI POP DUP1 RETURN JUMPDEST PUSH2 0x9B6 SWAP1 PUSH1 0x20 RETURNDATASIZE DUP2 GT PUSH2 0x557 JUMPI PUSH2 0x549 DUP2 DUP4 PUSH2 0x15C5 JUMP JUMPDEST POP DUP1 RETURN JUMPDEST MLOAD RETURNDATASIZE DUP5 DUP3 RETURNDATACOPY RETURNDATASIZE SWAP1 REVERT JUMPDEST PUSH1 0x64 SWAP1 PUSH1 0x20 DUP8 MLOAD SWAP2 PUSH3 0x461BCD PUSH1 0xE5 SHL DUP4 MSTORE DUP3 ADD MSTORE PUSH1 0x16 PUSH1 0x24 DUP3 ADD MSTORE PUSH22 0x43414E4E4F545F5245434F5645525F52455741524453 PUSH1 0x50 SHL PUSH1 0x44 DUP3 ADD MSTORE REVERT JUMPDEST DUP8 MLOAD PUSH4 0x70A08231 PUSH1 0xE0 SHL DUP2 MSTORE ADDRESS DUP5 DUP3 ADD MSTORE SWAP2 POP PUSH1 0x20 SWAP1 DUP3 SWAP1 PUSH1 0x24 SWAP1 DUP3 SWAP1 GAS STATICCALL DUP1 ISZERO PUSH2 0xA79 JUMPI DUP7 SWAP1 PUSH2 0xA42 JUMPI JUMPDEST PUSH2 0xA39 SWAP2 POP PUSH1 0x7 SLOAD SWAP1 PUSH2 0x14D9 JUMP JUMPDEST DUP5 GT ISZERO DUP8 PUSH2 0x94D JUMP JUMPDEST POP PUSH1 0x20 DUP2 RETURNDATASIZE DUP3 GT PUSH2 0xA71 JUMPI JUMPDEST DUP2 PUSH2 0xA5B PUSH1 0x20 SWAP4 DUP4 PUSH2 0x15C5 JUMP JUMPDEST DUP2 ADD SUB SLT PUSH2 0xA6D JUMPI PUSH2 0xA39 SWAP1 MLOAD PUSH2 0xA2B JUMP JUMPDEST DUP6 DUP1 REVERT JUMPDEST RETURNDATASIZE SWAP2 POP PUSH2 0xA4E JUMP JUMPDEST DUP8 MLOAD RETURNDATASIZE DUP9 DUP3 RETURNDATACOPY RETURNDATASIZE SWAP1 REVERT JUMPDEST DUP7 MLOAD PUSH3 0x461BCD PUSH1 0xE5 SHL DUP2 MSTORE PUSH1 0x20 DUP2 DUP5 ADD MSTORE PUSH1 0x11 PUSH1 0x24 DUP3 ADD MSTORE PUSH17 0x43414E4E4F545F5245434F5645525F4C5 PUSH1 0x7C SHL PUSH1 0x44 DUP3 ADD MSTORE PUSH1 0x64 SWAP1 REVERT JUMPDEST SWAP1 POP CALLVALUE PUSH2 0x262 JUMPI PUSH1 0x20 DUP1 PUSH1 0x3 NOT CALLDATASIZE ADD SLT PUSH2 0xCCD JUMPI DUP2 CALLDATALOAD SWAP2 PUSH2 0xAD9 PUSH2 0x153C JUMP JUMPDEST DUP2 SSTORE PUSH2 0xAE3 PUSH2 0x14C4 JUMP JUMPDEST PUSH1 0x3 SSTORE CALLER PUSH2 0xCA9 JUMPI JUMPDEST CALLER DUP6 MSTORE PUSH1 0x8 DUP3 MSTORE DUP4 DUP6 KECCAK256 SWAP1 PUSH1 0x2 DUP3 ADD DUP7 DUP2 SLOAD SWAP2 DUP3 PUSH2 0xBDD JUMPI JUMPDEST POP POP POP DUP4 PUSH2 0xB11 JUMPI DUP6 DUP1 RETURN JUMPDEST DUP4 DUP4 SWAP2 PUSH2 0xB63 SWAP4 PUSH2 0xB24 DUP4 PUSH1 0x7 SLOAD PUSH2 0x152F JUMP JUMPDEST PUSH1 0x7 SSTORE PUSH2 0xB32 DUP4 DUP3 SLOAD PUSH2 0x152F JUMP JUMPDEST SWAP1 SSTORE DUP7 MLOAD PUSH4 0x23B872DD PUSH1 0xE0 SHL DUP2 MSTORE CALLER SWAP2 DUP2 ADD SWAP2 DUP3 MSTORE ADDRESS PUSH1 0x20 DUP4 ADD MSTORE PUSH1 0x40 DUP3 ADD SWAP3 SWAP1 SWAP3 MSTORE SWAP1 SWAP3 DUP4 SWAP2 DUP3 SWAP2 PUSH1 0x60 SWAP1 SWAP2 ADD SWAP1 JUMP JUMPDEST SUB DUP2 DUP9 PUSH32 0x0 PUSH1 0x1 PUSH1 0x1 PUSH1 0xA0 SHL SUB AND GAS CALL SWAP1 DUP2 ISZERO PUSH2 0x55E JUMPI PUSH32 0x9E71BC8EEA02A63969F509818F2DAFB9254532904319F9DBDA79B67BD34A5F3D SWAP4 SWAP5 SWAP2 PUSH2 0xBCD SWAP2 DUP8 SWAP2 PUSH2 0x531 JUMPI POP PUSH2 0x1802 JUMP JUMPDEST MLOAD SWAP3 DUP4 MSTORE CALLER SWAP3 LOG2 CODESIZE DUP1 DUP1 DUP1 DUP1 DUP6 DUP1 RETURN JUMPDEST SSTORE DUP2 DUP4 ADD PUSH2 0xBEC DUP3 DUP3 SLOAD PUSH2 0x152F JUMP JUMPDEST SWAP1 SSTORE DUP6 MLOAD PUSH4 0xA9059CBB PUSH1 0xE0 SHL DUP2 MSTORE CALLER DUP4 DUP3 ADD SWAP1 DUP2 MSTORE PUSH1 0x20 DUP2 ADD DUP4 SWAP1 MSTORE DUP6 SWAP1 DUP3 SWAP1 DUP2 SWAP1 PUSH1 0x40 ADD SUB DUP2 DUP12 PUSH32 0x0 PUSH1 0x1 PUSH1 0x1 PUSH1 0xA0 SHL SUB AND GAS CALL DUP1 ISZERO PUSH2 0xC9F JUMPI PUSH2 0xC56 SWAP2 DUP10 SWAP2 PUSH2 0xC88 JUMPI POP PUSH2 0x1802 JUMP JUMPDEST DUP6 MLOAD SWAP1 DUP2 MSTORE PUSH32 0x106F923F993C2149D49B4255FF723ACAFA1F2D94393F561D3EDA32AE348F7241 DUP5 CALLER SWAP3 LOG2 CODESIZE DUP7 DUP2 PUSH2 0xB05 JUMP JUMPDEST PUSH2 0x551 SWAP2 POP DUP7 RETURNDATASIZE DUP9 GT PUSH2 0x557 JUMPI PUSH2 0x549 DUP2 DUP4 PUSH2 0x15C5 JUMP JUMPDEST DUP8 MLOAD RETURNDATASIZE DUP11 DUP3 RETURNDATACOPY RETURNDATASIZE SWAP1 REVERT JUMPDEST CALLER DUP6 MSTORE PUSH1 0x8 DUP3 MSTORE DUP4 DUP6 KECCAK256 PUSH2 0xCBC CALLER PUSH2 0x16CD JUMP JUMPDEST PUSH1 0x2 DUP3 ADD SSTORE PUSH1 0x1 DUP3 SLOAD SWAP2 ADD SSTORE PUSH2 0xAEC JUMP JUMPDEST DUP4 DUP1 REVERT JUMPDEST SWAP1 POP CALLVALUE PUSH2 0x262 JUMPI PUSH1 0x20 DUP1 PUSH1 0x3 NOT CALLDATASIZE ADD SLT PUSH2 0xCCD JUMPI PUSH2 0xD31 DUP2 DUP4 CALLDATALOAD DUP1 SWAP5 PUSH2 0xCF5 PUSH2 0x153C JUMP JUMPDEST DUP2 SSTORE PUSH2 0xCFF PUSH2 0x14C4 JUMP JUMPDEST PUSH1 0x3 SSTORE CALLER PUSH2 0xDB0 JUMPI JUMPDEST PUSH2 0xD13 DUP3 ISZERO ISZERO PUSH2 0x17B0 JUMP JUMPDEST CALLER DUP9 MSTORE PUSH1 0x8 DUP4 MSTORE DUP7 DUP9 KECCAK256 DUP1 SLOAD ISZERO PUSH2 0xDA5 JUMPI JUMPDEST PUSH2 0xB24 DUP4 PUSH1 0x7 SLOAD PUSH2 0x152F JUMP JUMPDEST SUB DUP2 DUP9 PUSH32 0x0 PUSH1 0x1 PUSH1 0x1 PUSH1 0xA0 SHL SUB AND GAS CALL SWAP1 DUP2 ISZERO PUSH2 0x55E JUMPI PUSH32 0x9E71BC8EEA02A63969F509818F2DAFB9254532904319F9DBDA79B67BD34A5F3D SWAP4 SWAP5 SWAP2 PUSH2 0xD9B SWAP2 DUP8 SWAP2 PUSH2 0x531 JUMPI POP PUSH2 0x1802 JUMP JUMPDEST MLOAD SWAP3 DUP4 MSTORE CALLER SWAP3 LOG2 DUP1 RETURN JUMPDEST TIMESTAMP PUSH1 0x3 DUP3 ADD SSTORE PUSH2 0xD25 JUMP JUMPDEST CALLER DUP9 MSTORE PUSH1 0x8 DUP4 MSTORE DUP7 DUP9 KECCAK256 PUSH2 0xDC3 CALLER PUSH2 0x16CD JUMP JUMPDEST PUSH1 0x2 DUP3 ADD SSTORE PUSH1 0x1 DUP3 SLOAD SWAP2 ADD SSTORE PUSH2 0xD08 JUMP JUMPDEST POP POP CALLVALUE PUSH2 0x1B9 JUMPI DUP2 PUSH1 0x3 NOT CALLDATASIZE ADD SLT PUSH2 0x1B9 JUMPI SWAP1 SLOAD SWAP1 MLOAD PUSH1 0x1 PUSH1 0x1 PUSH1 0xA0 SHL SUB SWAP1 SWAP2 AND DUP2 MSTORE PUSH1 0x20 SWAP1 RETURN JUMPDEST POP POP CALLVALUE PUSH2 0x1B9 JUMPI DUP2 PUSH1 0x3 NOT CALLDATASIZE ADD SLT PUSH2 0x1B9 JUMPI PUSH1 0x20 SWAP1 PUSH1 0x7 SLOAD SWAP1 MLOAD SWAP1 DUP2 MSTORE RETURN JUMPDEST POP POP CALLVALUE PUSH2 0x1B9 JUMPI DUP2 PUSH1 0x3 NOT CALLDATASIZE ADD SLT PUSH2 0x1B9 JUMPI PUSH1 0x20 SWAP1 PUSH2 0x652 PUSH2 0x14C4 JUMP JUMPDEST POP POP CALLVALUE PUSH2 0x1B9 JUMPI DUP2 PUSH1 0x3 NOT CALLDATASIZE ADD SLT PUSH2 0x1B9 JUMPI PUSH1 0x20 SWAP1 PUSH1 0x2 SLOAD SWAP1 MLOAD SWAP1 DUP2 MSTORE RETURN JUMPDEST POP POP CALLVALUE PUSH2 0x1B9 JUMPI PUSH1 0x20 CALLDATASIZE PUSH1 0x3 NOT ADD SLT PUSH2 0x1B9 JUMPI PUSH1 0x20 SWAP1 PUSH2 0x652 PUSH2 0xE78 PUSH2 0x14A9 JUMP JUMPDEST PUSH2 0x15E7 JUMP JUMPDEST SWAP2 SWAP1 POP CALLVALUE PUSH2 0x262 JUMPI PUSH1 0x20 CALLDATASIZE PUSH1 0x3 NOT ADD SLT PUSH2 0x262 JUMPI PUSH2 0xF3F SWAP1 PUSH2 0xE9D PUSH2 0x14A9 JUMP JUMPDEST PUSH1 0x1 PUSH1 0x1 PUSH1 0xA0 SHL SUB DUP2 AND DUP6 MSTORE PUSH1 0x8 PUSH1 0x20 MSTORE DUP2 DUP6 KECCAK256 DUP3 MLOAD SWAP2 SWAP6 PUSH2 0xEBE DUP4 PUSH2 0x1593 JUMP JUMPDEST PUSH1 0x80 DUP3 SLOAD SWAP7 DUP8 DUP6 MSTORE PUSH1 0x1 DUP5 ADD SLOAD PUSH1 0x20 DUP7 ADD MSTORE PUSH1 0x2 DUP5 ADD SLOAD DUP7 DUP7 ADD MSTORE PUSH1 0x3 DUP5 ADD SLOAD SWAP4 PUSH1 0x60 DUP7 ADD SWAP5 DUP6 MSTORE ADD SLOAD SWAP4 ADD SWAP3 DUP4 MSTORE PUSH2 0xEFF PUSH2 0xEF9 DUP9 PUSH2 0x16CD JUMP JUMPDEST SWAP8 PUSH2 0x15E7 JUMP JUMPDEST SWAP2 MLOAD DUP1 ISZERO PUSH2 0xF43 JUMPI PUSH2 0xF12 SWAP2 POP TIMESTAMP PUSH2 0x14D9 JUMP JUMPDEST SWAP2 JUMPDEST MLOAD SWAP3 MLOAD SWAP6 DUP7 SWAP6 DUP7 SWAP2 SWAP3 PUSH1 0x80 SWAP4 SWAP7 SWAP6 SWAP5 SWAP2 SWAP7 PUSH1 0xA0 DUP5 ADD SWAP8 DUP5 MSTORE PUSH1 0x20 DUP5 ADD MSTORE PUSH1 0x40 DUP4 ADD MSTORE PUSH1 0x60 DUP3 ADD MSTORE ADD MSTORE JUMP JUMPDEST SUB SWAP1 RETURN JUMPDEST POP SWAP2 PUSH2 0xF14 JUMP JUMPDEST POP POP CALLVALUE PUSH2 0x1B9 JUMPI DUP2 PUSH1 0x3 NOT CALLDATASIZE ADD SLT PUSH2 0x1B9 JUMPI PUSH1 0x1 SLOAD SWAP1 MLOAD PUSH1 0x1 PUSH1 0x1 PUSH1 0xA0 SHL SUB SWAP1 SWAP2 AND DUP2 MSTORE PUSH1 0x20 SWAP1 RETURN JUMPDEST POP POP CALLVALUE PUSH2 0x1B9 JUMPI DUP2 PUSH1 0x3 NOT CALLDATASIZE ADD SLT PUSH2 0x1B9 JUMPI MLOAD PUSH32 0x0 PUSH1 0x1 PUSH1 0x1 PUSH1 0xA0 SHL SUB AND DUP2 MSTORE PUSH1 0x20 SWAP1 RETURN JUMPDEST DUP4 SWAP2 POP CALLVALUE PUSH2 0x1B9 JUMPI PUSH1 0x20 SWAP1 DUP2 PUSH1 0x3 NOT CALLDATASIZE ADD SLT PUSH2 0x262 JUMPI DUP1 CALLDATALOAD SWAP1 PUSH1 0x1 DUP1 PUSH1 0xA0 SHL SUB PUSH2 0xFE5 DUP2 DUP7 SLOAD AND CALLER EQ PUSH2 0x1840 JUMP JUMPDEST PUSH2 0xFED PUSH2 0x153C JUMP JUMPDEST DUP3 SSTORE PUSH2 0xFF7 PUSH2 0x14C4 JUMP JUMPDEST PUSH1 0x3 SSTORE DUP3 ISZERO PUSH2 0x11C9 JUMPI DUP6 MLOAD PUSH4 0x23B872DD PUSH1 0xE0 SHL DUP2 MSTORE CALLER DUP4 DUP3 ADD SWAP1 DUP2 MSTORE ADDRESS PUSH1 0x20 DUP3 ADD MSTORE PUSH1 0x40 DUP2 ADD DUP6 SWAP1 MSTORE PUSH32 0x0 SWAP3 SWAP1 SWAP3 AND SWAP2 DUP6 SWAP1 DUP3 SWAP1 DUP2 SWAP1 PUSH1 0x60 ADD SUB DUP2 DUP10 DUP7 GAS CALL SWAP1 DUP2 ISZERO PUSH2 0xA79 JUMPI SWAP2 PUSH2 0x1072 DUP7 SWAP3 PUSH1 0x24 SWAP6 SWAP5 DUP10 SWAP2 PUSH2 0x11AC JUMPI POP PUSH2 0x1802 JUMP JUMPDEST PUSH1 0x6 SLOAD TIMESTAMP DUP2 GT PUSH2 0x1178 JUMPI POP PUSH2 0x1089 PUSH1 0x5 SLOAD DUP7 PUSH2 0x150F JUMP JUMPDEST PUSH1 0x2 SSTORE JUMPDEST DUP8 MLOAD PUSH4 0x70A08231 PUSH1 0xE0 SHL DUP2 MSTORE ADDRESS DUP5 DUP3 ADD MSTORE SWAP4 DUP5 SWAP2 DUP3 SWAP1 GAS STATICCALL SWAP2 DUP3 ISZERO PUSH2 0x116E JUMPI DUP6 SWAP3 PUSH2 0x113B JUMPI JUMPDEST POP PUSH1 0x2 SLOAD PUSH2 0x10C4 PUSH1 0x5 SLOAD DUP1 SWAP5 PUSH2 0x150F JUMP JUMPDEST LT PUSH2 0x1106 JUMPI POP SWAP4 PUSH2 0x10FB PUSH32 0xDE88A922E0D3B88B24E9623EFEB464919C6BF9F66857A65E2BFCF2CE87A9433D SWAP5 SWAP6 TIMESTAMP PUSH1 0x3 SSTORE TIMESTAMP PUSH2 0x152F JUMP JUMPDEST PUSH1 0x6 SSTORE MLOAD SWAP1 DUP2 MSTORE LOG1 DUP1 RETURN JUMPDEST DUP6 MLOAD PUSH3 0x461BCD PUSH1 0xE5 SHL DUP2 MSTORE SWAP1 DUP2 ADD DUP5 SWAP1 MSTORE PUSH1 0xF PUSH1 0x24 DUP3 ADD MSTORE PUSH15 0xA48AAE82A488BEA89E9EBE90928E9 PUSH1 0x8B SHL PUSH1 0x44 DUP3 ADD MSTORE PUSH1 0x64 SWAP1 REVERT JUMPDEST SWAP1 SWAP2 POP DUP4 DUP2 DUP2 RETURNDATASIZE DUP4 GT PUSH2 0x1167 JUMPI JUMPDEST PUSH2 0x1153 DUP2 DUP4 PUSH2 0x15C5 JUMP JUMPDEST DUP2 ADD SUB SLT PUSH2 0x1163 JUMPI MLOAD SWAP1 DUP7 PUSH2 0x10B3 JUMP JUMPDEST DUP5 DUP1 REVERT JUMPDEST POP RETURNDATASIZE PUSH2 0x1149 JUMP JUMPDEST DUP7 MLOAD RETURNDATASIZE DUP8 DUP3 RETURNDATACOPY RETURNDATASIZE SWAP1 REVERT JUMPDEST PUSH2 0x119B PUSH2 0x1195 PUSH2 0x118C PUSH2 0x11A4 SWAP4 TIMESTAMP SWAP1 PUSH2 0x14D9 JUMP JUMPDEST PUSH1 0x2 SLOAD SWAP1 PUSH2 0x14FC JUMP JUMPDEST DUP8 PUSH2 0x152F JUMP JUMPDEST PUSH1 0x5 SLOAD SWAP1 PUSH2 0x150F JUMP JUMPDEST PUSH1 0x2 SSTORE PUSH2 0x108D JUMP JUMPDEST PUSH2 0x11C3 SWAP2 POP DUP5 RETURNDATASIZE DUP7 GT PUSH2 0x557 JUMPI PUSH2 0x549 DUP2 DUP4 PUSH2 0x15C5 JUMP JUMPDEST DUP11 PUSH2 0x41B JUMP JUMPDEST DUP6 MLOAD PUSH3 0x461BCD PUSH1 0xE5 SHL DUP2 MSTORE DUP1 DUP4 ADD DUP6 SWAP1 MSTORE PUSH1 0xB PUSH1 0x24 DUP3 ADD MSTORE PUSH11 0x5245574152445F5A45524F PUSH1 0xA8 SHL PUSH1 0x44 DUP3 ADD MSTORE PUSH1 0x64 SWAP1 REVERT JUMPDEST POP POP CALLVALUE PUSH2 0x1B9 JUMPI DUP2 PUSH1 0x3 NOT CALLDATASIZE ADD SLT PUSH2 0x1B9 JUMPI PUSH1 0x20 SWAP1 PUSH1 0x5 SLOAD SWAP1 MLOAD SWAP1 DUP2 MSTORE RETURN JUMPDEST POP POP CALLVALUE PUSH2 0x1B9 JUMPI DUP2 PUSH1 0x3 NOT CALLDATASIZE ADD SLT PUSH2 0x1B9 JUMPI PUSH1 0x20 SWAP1 MLOAD PUSH2 0x4E20 DUP2 MSTORE RETURN JUMPDEST SWAP1 POP CALLVALUE PUSH2 0x262 JUMPI PUSH1 0x20 DUP1 PUSH1 0x3 NOT CALLDATASIZE ADD SLT PUSH2 0xCCD JUMPI DUP2 CALLDATALOAD SWAP2 PUSH2 0x1255 PUSH2 0x153C JUMP JUMPDEST DUP2 SSTORE PUSH2 0x125F PUSH2 0x14C4 JUMP JUMPDEST PUSH1 0x3 SSTORE CALLER PUSH2 0x1389 JUMPI JUMPDEST PUSH2 0x1273 DUP4 ISZERO ISZERO PUSH2 0x17B0 JUMP JUMPDEST CALLER DUP6 MSTORE PUSH1 0x8 DUP3 MSTORE DUP4 DUP6 KECCAK256 DUP4 DUP2 SLOAD LT PUSH2 0x1350 JUMPI DUP4 PUSH2 0x12DB SWAP3 DUP8 DUP6 SWAP4 PUSH2 0x1299 DUP5 PUSH1 0x7 SLOAD PUSH2 0x14D9 JUMP JUMPDEST PUSH1 0x7 SSTORE PUSH2 0x12A7 DUP5 DUP3 SLOAD PUSH2 0x14D9 JUMP JUMPDEST DUP1 DUP3 SSTORE ISZERO PUSH2 0x1345 JUMPI JUMPDEST POP POP DUP7 MLOAD PUSH4 0xA9059CBB PUSH1 0xE0 SHL DUP2 MSTORE CALLER SWAP2 DUP2 ADD SWAP2 DUP3 MSTORE PUSH1 0x20 DUP3 ADD SWAP3 SWAP1 SWAP3 MSTORE SWAP1 SWAP3 DUP4 SWAP2 DUP3 SWAP2 PUSH1 0x40 SWAP1 SWAP2 ADD SWAP1 JUMP JUMPDEST SUB DUP2 DUP9 PUSH32 0x0 PUSH1 0x1 PUSH1 0x1 PUSH1 0xA0 SHL SUB AND GAS CALL SWAP1 DUP2 ISZERO PUSH2 0x55E JUMPI PUSH32 0x7084F5476618D8E60B11EF0D7D3F06914655ADB8793E28FF7F018D4C76D505D5 SWAP4 SWAP5 SWAP2 PUSH2 0xD9B SWAP2 DUP8 SWAP2 PUSH2 0x531 JUMPI POP PUSH2 0x1802 JUMP JUMPDEST PUSH1 0x3 ADD SSTORE DUP8 CODESIZE PUSH2 0x12B0 JUMP JUMPDEST POP PUSH1 0x64 SWAP2 DUP5 MLOAD SWAP2 PUSH3 0x461BCD PUSH1 0xE5 SHL DUP4 MSTORE DUP3 ADD MSTORE PUSH1 0x14 PUSH1 0x24 DUP3 ADD MSTORE PUSH20 0x494E53554646494349454E545F42414C414E4345 PUSH1 0x60 SHL PUSH1 0x44 DUP3 ADD MSTORE REVERT JUMPDEST CALLER DUP6 MSTORE PUSH1 0x8 DUP3 MSTORE DUP4 DUP6 KECCAK256 PUSH2 0x139C CALLER PUSH2 0x16CD JUMP JUMPDEST PUSH1 0x2 DUP3 ADD SSTORE PUSH1 0x1 DUP3 SLOAD SWAP2 ADD SSTORE PUSH2 0x1268 JUMP JUMPDEST POP POP CALLVALUE PUSH2 0x1B9 JUMPI DUP2 PUSH1 0x3 NOT CALLDATASIZE ADD SLT PUSH2 0x1B9 JUMPI PUSH1 0x20 SWAP1 PUSH2 0x652 PUSH2 0x1767 JUMP JUMPDEST POP POP CALLVALUE PUSH2 0x1B9 JUMPI DUP2 PUSH1 0x3 NOT CALLDATASIZE ADD SLT PUSH2 0x1B9 JUMPI PUSH1 0x20 SWAP1 PUSH2 0x652 PUSH1 0x2 SLOAD PUSH1 0x5 SLOAD SWAP1 PUSH2 0x14FC JUMP JUMPDEST DUP3 DUP5 CALLVALUE PUSH2 0x1462 JUMPI PUSH1 0x20 CALLDATASIZE PUSH1 0x3 NOT ADD SLT PUSH2 0x1462 JUMPI PUSH2 0xF3F SWAP1 DUP3 SWAP1 PUSH1 0x1 PUSH1 0x1 PUSH1 0xA0 SHL SUB PUSH2 0x1417 PUSH2 0x14A9 JUMP JUMPDEST AND DUP2 MSTORE PUSH1 0x8 PUSH1 0x20 MSTORE KECCAK256 SWAP2 DUP3 SLOAD SWAP3 PUSH1 0x1 DUP2 ADD SLOAD SWAP5 PUSH1 0x2 DUP3 ADD SLOAD SWAP1 PUSH1 0x3 DUP4 ADD SLOAD SWAP3 ADD SLOAD SWAP3 MLOAD SWAP6 DUP7 SWAP6 DUP7 SWAP2 SWAP3 PUSH1 0x80 SWAP4 SWAP7 SWAP6 SWAP5 SWAP2 SWAP7 PUSH1 0xA0 DUP5 ADD SWAP8 DUP5 MSTORE PUSH1 0x20 DUP5 ADD MSTORE PUSH1 0x40 DUP4 ADD MSTORE PUSH1 0x60 DUP3 ADD MSTORE ADD MSTORE JUMP JUMPDEST DUP1 REVERT JUMPDEST POP POP CALLVALUE PUSH2 0x1B9 JUMPI DUP2 PUSH1 0x3 NOT CALLDATASIZE ADD SLT PUSH2 0x1B9 JUMPI PUSH1 0x20 SWAP1 MLOAD PUSH3 0x76A700 DUP2 MSTORE RETURN JUMPDEST POP POP CALLVALUE PUSH2 0x1B9 JUMPI PUSH1 0x20 CALLDATASIZE PUSH1 0x3 NOT ADD SLT PUSH2 0x1B9 JUMPI PUSH1 0x20 SWAP1 PUSH2 0x652 PUSH2 0x14A4 PUSH2 0x14A9 JUMP JUMPDEST PUSH2 0x16CD JUMP JUMPDEST PUSH1 0x4 CALLDATALOAD SWAP1 PUSH1 0x1 PUSH1 0x1 PUSH1 0xA0 SHL SUB DUP3 AND DUP3 SUB PUSH2 0x14BF JUMPI JUMP JUMPDEST PUSH1 0x0 DUP1 REVERT JUMPDEST PUSH1 0x6 SLOAD DUP1 TIMESTAMP LT PUSH1 0x0 EQ PUSH2 0x14D6 JUMPI POP TIMESTAMP SWAP1 JUMP JUMPDEST SWAP1 JUMP JUMPDEST SWAP2 SWAP1 DUP3 SUB SWAP2 DUP3 GT PUSH2 0x14E6 JUMPI JUMP JUMPDEST PUSH4 0x4E487B71 PUSH1 0xE0 SHL PUSH1 0x0 MSTORE PUSH1 0x11 PUSH1 0x4 MSTORE PUSH1 0x24 PUSH1 0x0 REVERT JUMPDEST DUP2 DUP2 MUL SWAP3 SWAP2 DUP2 ISZERO SWAP2 DUP5 DIV EQ OR ISZERO PUSH2 0x14E6 JUMPI JUMP JUMPDEST DUP2 ISZERO PUSH2 0x1519 JUMPI DIV SWAP1 JUMP JUMPDEST PUSH4 0x4E487B71 PUSH1 0xE0 SHL PUSH1 0x0 MSTORE PUSH1 0x12 PUSH1 0x4 MSTORE PUSH1 0x24 PUSH1 0x0 REVERT JUMPDEST SWAP2 SWAP1 DUP3 ADD DUP1 SWAP3 GT PUSH2 0x14E6 JUMPI JUMP JUMPDEST PUSH1 0x7 SLOAD DUP1 ISZERO PUSH2 0x158C JUMPI PUSH1 0x4 SLOAD PUSH2 0x155F PUSH2 0x118C PUSH2 0x1556 PUSH2 0x14C4 JUMP JUMPDEST PUSH1 0x3 SLOAD SWAP1 PUSH2 0x14D9 JUMP JUMPDEST PUSH8 0xDE0B6B3A7640000 SWAP1 DUP2 DUP2 MUL SWAP2 DUP2 DUP4 DIV EQ SWAP1 ISZERO OR ISZERO PUSH2 0x14E6 JUMPI PUSH2 0x14D6 SWAP3 PUSH2 0x1586 SWAP2 PUSH2 0x150F JUMP JUMPDEST SWAP1 PUSH2 0x152F JUMP JUMPDEST POP PUSH1 0x4 SLOAD SWAP1 JUMP JUMPDEST PUSH1 0xA0 DUP2 ADD SWAP1 DUP2 LT PUSH8 0xFFFFFFFFFFFFFFFF DUP3 GT OR PUSH2 0x15AF JUMPI PUSH1 0x40 MSTORE JUMP JUMPDEST PUSH4 0x4E487B71 PUSH1 0xE0 SHL PUSH1 0x0 MSTORE PUSH1 0x41 PUSH1 0x4 MSTORE PUSH1 0x24 PUSH1 0x0 REVERT JUMPDEST SWAP1 PUSH1 0x1F DUP1 NOT SWAP2 ADD AND DUP2 ADD SWAP1 DUP2 LT PUSH8 0xFFFFFFFFFFFFFFFF DUP3 GT OR PUSH2 0x15AF JUMPI PUSH1 0x40 MSTORE JUMP JUMPDEST PUSH1 0x1 PUSH1 0x1 PUSH1 0xA0 SHL SUB AND PUSH1 0x0 SWAP1 DUP2 MSTORE PUSH1 0x8 PUSH1 0x20 MSTORE PUSH1 0x40 DUP1 DUP3 KECCAK256 SWAP1 MLOAD PUSH2 0x160A DUP2 PUSH2 0x1593 JUMP JUMPDEST DUP2 SLOAD SWAP1 DUP2 DUP2 MSTORE PUSH1 0x1 DUP4 ADD SLOAD PUSH1 0x20 DUP3 ADD MSTORE PUSH1 0x2 DUP4 ADD SLOAD PUSH1 0x40 DUP3 ADD MSTORE PUSH1 0x80 PUSH1 0x4 PUSH1 0x3 DUP6 ADD SLOAD SWAP5 DUP6 PUSH1 0x60 DUP6 ADD MSTORE ADD SLOAD SWAP2 ADD MSTORE ISZERO DUP1 ISZERO PUSH2 0x16C5 JUMPI JUMPDEST PUSH2 0x16BD JUMPI PUSH2 0x164F SWAP1 TIMESTAMP PUSH2 0x14D9 JUMP JUMPDEST SWAP1 PUSH3 0x76A700 DUP1 DUP4 LT ISZERO PUSH2 0x16B4 JUMPI PUSH2 0x2710 SWAP3 DUP1 DUP5 MUL SWAP1 DUP5 DUP3 DIV SUB PUSH2 0x16A0 JUMPI DIV DUP3 ADD DUP1 SWAP3 GT PUSH2 0x168C JUMPI POP PUSH2 0x4E20 SWAP1 DUP2 DUP2 GT ISZERO PUSH2 0x1687 JUMPI POP SWAP1 JUMP JUMPDEST SWAP1 POP SWAP1 JUMP JUMPDEST PUSH4 0x4E487B71 PUSH1 0xE0 SHL DUP2 MSTORE PUSH1 0x11 PUSH1 0x4 MSTORE PUSH1 0x24 SWAP1 REVERT JUMPDEST PUSH4 0x4E487B71 PUSH1 0xE0 SHL DUP4 MSTORE PUSH1 0x11 PUSH1 0x4 MSTORE PUSH1 0x24 DUP4 REVERT JUMPDEST POP POP POP PUSH2 0x4E20 SWAP1 JUMP JUMPDEST POP POP PUSH2 0x2710 SWAP1 JUMP JUMPDEST POP DUP1 ISZERO PUSH2 0x1641 JUMP JUMPDEST PUSH2 0x1763 PUSH2 0x2710 SWAP2 PUSH1 0x1 DUP1 PUSH1 0xA0 SHL SUB DUP2 AND PUSH1 0x0 MSTORE PUSH1 0x8 PUSH1 0x20 MSTORE PUSH2 0x174E PUSH2 0x175D PUSH1 0x40 PUSH1 0x0 KECCAK256 PUSH8 0xDE0B6B3A7640000 PUSH2 0x1754 PUSH1 0x40 MLOAD PUSH2 0x1708 DUP2 PUSH2 0x1593 JUMP JUMPDEST PUSH2 0x174E DUP5 SLOAD SWAP2 DUP3 DUP2 MSTORE PUSH1 0x1 DUP7 ADD SLOAD SWAP1 PUSH1 0x20 DUP2 ADD SWAP2 DUP3 MSTORE PUSH1 0x80 PUSH1 0x4 PUSH1 0x2 DUP10 ADD SLOAD SWAP9 PUSH1 0x40 DUP5 ADD SWAP10 DUP11 MSTORE PUSH1 0x3 DUP2 ADD SLOAD PUSH1 0x60 DUP6 ADD MSTORE ADD SLOAD SWAP2 ADD MSTORE PUSH2 0x1746 PUSH2 0x153C JUMP JUMPDEST SWAP1 MLOAD SWAP1 PUSH2 0x14D9 JUMP JUMPDEST SWAP1 PUSH2 0x14FC JUMP JUMPDEST DIV SWAP1 MLOAD SWAP1 PUSH2 0x152F JUMP JUMPDEST SWAP2 PUSH2 0x15E7 JUMP JUMPDEST DIV SWAP1 JUMP JUMPDEST PUSH1 0x7 SLOAD DUP1 ISZERO PUSH2 0x17AA JUMPI PUSH1 0x2 SLOAD SWAP1 PUSH4 0x1E13380 SWAP2 DUP3 DUP2 MUL SWAP3 DUP2 DUP5 DIV EQ DUP2 ISZERO OR ISZERO PUSH2 0x14E6 JUMPI PUSH5 0x496CEBB800 MUL SWAP2 DUP1 DUP4 DIV PUSH2 0x2710 EQ SWAP1 ISZERO OR ISZERO PUSH2 0x14E6 JUMPI PUSH2 0x14D6 SWAP2 PUSH2 0x150F JUMP JUMPDEST POP PUSH1 0x0 SWAP1 JUMP JUMPDEST ISZERO PUSH2 0x17B7 JUMPI JUMP JUMPDEST PUSH1 0x40 MLOAD PUSH3 0x461BCD PUSH1 0xE5 SHL DUP2 MSTORE PUSH1 0x20 PUSH1 0x4 DUP3 ADD MSTORE PUSH1 0xB PUSH1 0x24 DUP3 ADD MSTORE PUSH11 0x414D4F554E545F5A45524F PUSH1 0xA8 SHL PUSH1 0x44 DUP3 ADD MSTORE PUSH1 0x64 SWAP1 REVERT JUMPDEST SWAP1 DUP2 PUSH1 0x20 SWAP2 SUB SLT PUSH2 0x14BF JUMPI MLOAD DUP1 ISZERO ISZERO DUP2 SUB PUSH2 0x14BF JUMPI SWAP1 JUMP JUMPDEST ISZERO PUSH2 0x1809 JUMPI JUMP JUMPDEST PUSH1 0x40 MLOAD PUSH3 0x461BCD PUSH1 0xE5 SHL DUP2 MSTORE PUSH1 0x20 PUSH1 0x4 DUP3 ADD MSTORE PUSH1 0xF PUSH1 0x24 DUP3 ADD MSTORE PUSH15 0x1514905394D1915497D19052531151 PUSH1 0x8A SHL PUSH1 0x44 DUP3 ADD MSTORE PUSH1 0x64 SWAP1 REVERT JUMPDEST ISZERO PUSH2 0x1847 JUMPI JUMP JUMPDEST PUSH1 0x40 MLOAD PUSH3 0x461BCD PUSH1 0xE5 SHL DUP2 MSTORE PUSH1 0x20 PUSH1 0x4 DUP3 ADD MSTORE PUSH1 0x9 PUSH1 0x24 DUP3 ADD MSTORE PUSH9 0x2727AA2FA7ABA722A9 PUSH1 0xB9 SHL PUSH1 0x44 DUP3 ADD MSTORE PUSH1 0x64 SWAP1 REVERT INVALID LOG2 PUSH5 0x6970667358 0x22 SLT KECCAK256 PUSH18 0x9BCDF7FD2AF9F62A882873916112ECFE581F 0xDD DUP11 0xC6 0xEA 0xBC PUSH1 0x6 SWAP7 XOR PUSH8 0x93C98964736F6C63 NUMBER STOP ADDMOD EQ STOP CALLER "},"methodIdentifiers":{"BOOST_PERIOD()":"1792858f","BOOST_PRECISION()":"cc6db2da","MAX_BOOST()":"315865df","claimReward()":"b88a802f","compound(uint256)":"aa5f7e26","earned(address)":"008cc262","exit()":"e9fad8ee","getBoostMultiplier(address)":"6f371efe","getCurrentAPR()":"21ae05c8","getRewardForDuration()":"1c1f78eb","getUserInfo(address)":"6386c1c7","lastTimeRewardApplicable()":"80faa57d","lastUpdateTime()":"c8f33c91","lpToken()":"5fcbd285","notifyRewardAmount(uint256)":"3c6b16ab","owner()":"8da5cb5b","periodFinish()":"ebe2b12b","recoverToken(address,uint256)":"b29a8140","rewardPerToken()":"cd3daf9d","rewardPerTokenStored()":"df136d65","rewardRate()":"7b0a47ee","rewardToken()":"f7c618c1","rewardsDuration()":"386a9525","setRewardsDuration(uint256)":"cc1a378f","setTreasury(address)":"f0f44260","stake(uint256)":"a694fc3a","totalStaked()":"817b1cd2","transferOwnership(address)":"f2fde38b","treasury()":"61d027b3","userInfo(address)":"1959a002","withdraw(uint256)":"2e1a7d4d"}}}}}