{"contracts/DTGCStaking.sol":{"DTGCStaking":{"abi":[{"inputs":[{"internalType":"address","name":"_dtgcToken","type":"address"},{"internalType":"address","name":"_feeRecipient","type":"address"},{"internalType":"address","name":"_rewardPool","type":"address"}],"stateMutability":"nonpayable","type":"constructor"},{"anonymous":false,"inputs":[{"indexed":true,"internalType":"address","name":"user","type":"address"},{"indexed":false,"internalType":"uint256","name":"principal","type":"uint256"},{"indexed":false,"internalType":"uint256","name":"penalty","type":"uint256"},{"indexed":false,"internalType":"uint256","name":"netPayout","type":"uint256"}],"name":"EmergencyWithdrawn","type":"event"},{"anonymous":false,"inputs":[{"indexed":false,"internalType":"uint256","name":"newFeePool","type":"uint256"},{"indexed":false,"internalType":"uint256","name":"accFeePerShare","type":"uint256"}],"name":"FeePoolUpdated","type":"event"},{"anonymous":false,"inputs":[{"indexed":true,"internalType":"address","name":"newRecipient","type":"address"}],"name":"FeeRecipientUpdated","type":"event"},{"anonymous":false,"inputs":[{"indexed":true,"internalType":"address","name":"oldOwner","type":"address"},{"indexed":true,"internalType":"address","name":"newOwner","type":"address"}],"name":"OwnershipTransferred","type":"event"},{"anonymous":false,"inputs":[{"indexed":true,"internalType":"address","name":"funder","type":"address"},{"indexed":false,"internalType":"uint256","name":"amount","type":"uint256"}],"name":"RewardPoolFunded","type":"event"},{"anonymous":false,"inputs":[{"indexed":true,"internalType":"address","name":"user","type":"address"},{"indexed":false,"internalType":"uint256","name":"baseRewards","type":"uint256"},{"indexed":false,"internalType":"uint256","name":"feeShareRewards","type":"uint256"},{"indexed":false,"internalType":"uint256","name":"diamondBonus","type":"uint256"}],"name":"RewardsClaimed","type":"event"},{"anonymous":false,"inputs":[{"indexed":true,"internalType":"address","name":"user","type":"address"},{"indexed":false,"internalType":"uint256","name":"grossAmount","type":"uint256"},{"indexed":false,"internalType":"uint256","name":"entryFee","type":"uint256"},{"indexed":false,"internalType":"uint256","name":"principal","type":"uint256"},{"indexed":false,"internalType":"uint256","name":"lockPeriod","type":"uint256"},{"indexed":false,"internalType":"uint256","name":"aprBps","type":"uint256"},{"indexed":false,"internalType":"uint256","name":"unlockTime","type":"uint256"}],"name":"Staked","type":"event"},{"anonymous":false,"inputs":[{"indexed":true,"internalType":"address","name":"user","type":"address"},{"indexed":false,"internalType":"uint256","name":"principal","type":"uint256"},{"indexed":false,"internalType":"uint256","name":"rewards","type":"uint256"},{"indexed":false,"internalType":"uint256","name":"feeShareRewards","type":"uint256"},{"indexed":false,"internalType":"uint256","name":"exitFee","type":"uint256"},{"indexed":false,"internalType":"uint256","name":"netPayout","type":"uint256"}],"name":"Withdrawn","type":"event"},{"inputs":[],"name":"APR_14_DAYS","outputs":[{"internalType":"uint16","name":"","type":"uint16"}],"stateMutability":"view","type":"function"},{"inputs":[],"name":"APR_30_DAYS","outputs":[{"internalType":"uint16","name":"","type":"uint16"}],"stateMutability":"view","type":"function"},{"inputs":[],"name":"APR_90_DAYS","outputs":[{"internalType":"uint16","name":"","type":"uint16"}],"stateMutability":"view","type":"function"},{"inputs":[],"name":"BPS_DENOM","outputs":[{"internalType":"uint16","name":"","type":"uint16"}],"stateMutability":"view","type":"function"},{"inputs":[],"name":"DIAMOND_BONUS_14","outputs":[{"internalType":"uint16","name":"","type":"uint16"}],"stateMutability":"view","type":"function"},{"inputs":[],"name":"DIAMOND_BONUS_30","outputs":[{"internalType":"uint16","name":"","type":"uint16"}],"stateMutability":"view","type":"function"},{"inputs":[],"name":"DIAMOND_BONUS_90","outputs":[{"internalType":"uint16","name":"","type":"uint16"}],"stateMutability":"view","type":"function"},{"inputs":[],"name":"EMERGENCY_PENALTY_BPS","outputs":[{"internalType":"uint16","name":"","type":"uint16"}],"stateMutability":"view","type":"function"},{"inputs":[],"name":"ENTRY_FEE_BPS","outputs":[{"internalType":"uint16","name":"","type":"uint16"}],"stateMutability":"view","type":"function"},{"inputs":[],"name":"EXIT_FEE_BPS","outputs":[{"internalType":"uint16","name":"","type":"uint16"}],"stateMutability":"view","type":"function"},{"inputs":[],"name":"LOCK_14_DAYS","outputs":[{"internalType":"uint256","name":"","type":"uint256"}],"stateMutability":"view","type":"function"},{"inputs":[],"name":"LOCK_30_DAYS","outputs":[{"internalType":"uint256","name":"","type":"uint256"}],"stateMutability":"view","type":"function"},{"inputs":[],"name":"LOCK_90_DAYS","outputs":[{"internalType":"uint256","name":"","type":"uint256"}],"stateMutability":"view","type":"function"},{"inputs":[],"name":"PRECISION","outputs":[{"internalType":"uint256","name":"","type":"uint256"}],"stateMutability":"view","type":"function"},{"inputs":[],"name":"SECONDS_PER_YEAR","outputs":[{"internalType":"uint256","name":"","type":"uint256"}],"stateMutability":"view","type":"function"},{"inputs":[],"name":"accFeePerShare","outputs":[{"internalType":"uint256","name":"","type":"uint256"}],"stateMutability":"view","type":"function"},{"inputs":[{"internalType":"address","name":"user","type":"address"}],"name":"calculateAllRewards","outputs":[{"internalType":"uint256","name":"baseRewards","type":"uint256"},{"internalType":"uint256","name":"feeShareRewards","type":"uint256"},{"internalType":"uint256","name":"diamondBonus","type":"uint256"}],"stateMutability":"view","type":"function"},{"inputs":[],"name":"claimRewards","outputs":[],"stateMutability":"nonpayable","type":"function"},{"inputs":[],"name":"dtgcToken","outputs":[{"internalType":"contract IPRC20","name":"","type":"address"}],"stateMutability":"view","type":"function"},{"inputs":[],"name":"emergencyWithdraw","outputs":[],"stateMutability":"nonpayable","type":"function"},{"inputs":[],"name":"feePool","outputs":[{"internalType":"uint256","name":"","type":"uint256"}],"stateMutability":"view","type":"function"},{"inputs":[],"name":"feeRecipient","outputs":[{"internalType":"address","name":"","type":"address"}],"stateMutability":"view","type":"function"},{"inputs":[{"internalType":"uint256","name":"amount","type":"uint256"}],"name":"fundRewardPool","outputs":[],"stateMutability":"nonpayable","type":"function"},{"inputs":[],"name":"getContractStats","outputs":[{"internalType":"uint256","name":"_totalStaked","type":"uint256"},{"internalType":"uint256","name":"_totalRewardsDistributed","type":"uint256"},{"internalType":"uint256","name":"_feePool","type":"uint256"},{"internalType":"uint256","name":"_contractBalance","type":"uint256"}],"stateMutability":"view","type":"function"},{"inputs":[{"internalType":"address","name":"user","type":"address"}],"name":"getPosition","outputs":[{"internalType":"uint256","name":"amount","type":"uint256"},{"internalType":"uint256","name":"startTime","type":"uint256"},{"internalType":"uint256","name":"unlockTime","type":"uint256"},{"internalType":"uint256","name":"lockPeriod","type":"uint256"},{"internalType":"uint256","name":"aprBps","type":"uint256"},{"internalType":"uint256","name":"diamondBonus","type":"uint256"},{"internalType":"bool","name":"isActive","type":"bool"},{"internalType":"uint256","name":"timeRemaining","type":"uint256"}],"stateMutability":"view","type":"function"},{"inputs":[],"name":"getTiers","outputs":[{"components":[{"internalType":"uint256","name":"lockDuration","type":"uint256"},{"internalType":"uint16","name":"aprBps","type":"uint16"},{"internalType":"uint16","name":"diamondBonus","type":"uint16"},{"internalType":"string","name":"tierName","type":"string"}],"internalType":"struct DTGCStaking.StakingTier[3]","name":"","type":"tuple[3]"}],"stateMutability":"pure","type":"function"},{"inputs":[{"internalType":"address","name":"","type":"address"}],"name":"lifetimeRewards","outputs":[{"internalType":"uint256","name":"","type":"uint256"}],"stateMutability":"view","type":"function"},{"inputs":[{"internalType":"address","name":"","type":"address"}],"name":"lifetimeStaked","outputs":[{"internalType":"uint256","name":"","type":"uint256"}],"stateMutability":"view","type":"function"},{"inputs":[],"name":"owner","outputs":[{"internalType":"address","name":"","type":"address"}],"stateMutability":"view","type":"function"},{"inputs":[{"internalType":"address","name":"","type":"address"}],"name":"positions","outputs":[{"internalType":"uint256","name":"amount","type":"uint256"},{"internalType":"uint256","name":"startTime","type":"uint256"},{"internalType":"uint256","name":"unlockTime","type":"uint256"},{"internalType":"uint256","name":"lockPeriod","type":"uint256"},{"internalType":"uint256","name":"aprBps","type":"uint256"},{"internalType":"uint256","name":"diamondBonus","type":"uint256"},{"internalType":"uint256","name":"feeDebt","type":"uint256"},{"internalType":"uint256","name":"claimedRewards","type":"uint256"},{"internalType":"bool","name":"isActive","type":"bool"}],"stateMutability":"view","type":"function"},{"inputs":[{"internalType":"address","name":"token","type":"address"},{"internalType":"uint256","name":"amount","type":"uint256"}],"name":"recoverTokens","outputs":[],"stateMutability":"nonpayable","type":"function"},{"inputs":[],"name":"rewardPool","outputs":[{"internalType":"address","name":"","type":"address"}],"stateMutability":"view","type":"function"},{"inputs":[{"internalType":"address","name":"newRecipient","type":"address"}],"name":"setFeeRecipient","outputs":[],"stateMutability":"nonpayable","type":"function"},{"inputs":[{"internalType":"uint256","name":"amount","type":"uint256"},{"internalType":"uint8","name":"lockChoice","type":"uint8"}],"name":"stake","outputs":[],"stateMutability":"nonpayable","type":"function"},{"inputs":[],"name":"totalRewardsDistributed","outputs":[{"internalType":"uint256","name":"","type":"uint256"}],"stateMutability":"view","type":"function"},{"inputs":[],"name":"totalStaked","outputs":[{"internalType":"uint256","name":"","type":"uint256"}],"stateMutability":"view","type":"function"},{"inputs":[{"internalType":"address","name":"newOwner","type":"address"}],"name":"transferOwnership","outputs":[],"stateMutability":"nonpayable","type":"function"},{"inputs":[],"name":"withdraw","outputs":[],"stateMutability":"nonpayable","type":"function"}],"evm":{"bytecode":{"linkReferences":{},"object":"60a0346200016c57601f62001c5138819003918201601f19168301916001600160401b0383118484101762000171578084926060946040528339810103126200016c576200004d8162000187565b620000696040620000616020850162000187565b930162000187565b6001600160a01b039182169283156200013a578216928315620001005760805260018060a01b0319923384600054161760005583600154161760015516906002541617600255604051611ab490816200019d8239608051818181610370015281816107180152818161083b01528181610b9401528181610c0a01528181610d3f01528181610e1101528181610ff001526112fc0152f35b60405162461bcd60e51b81526020600482015260126024820152714645455f524543495049454e545f5a45524f60701b6044820152606490fd5b60405162461bcd60e51b815260206004820152600a602482015269544f4b454e5f5a45524f60b01b6044820152606490fd5b600080fd5b634e487b7160e01b600052604160045260246000fd5b51906001600160a01b03821682036200016c5756fe60406080815260048036101561001457600080fd5b600091823560e01c918263069c9fae146112c157826310087fb114610f7f57826316c1973914610e9a5782631d336d6214610e625782631d583e0d14610de85782632c9b4fd314610dcb578263324d8438146107fe57826336fecffa14610d93578263372500ab14610c645782633ccfd60b14610a8f57826340df876b14610a715782634690484014610a4857826355f57510146109b2578263618c9434146109955782636637e38c1461097857826366666aa91461094f57826379a59c13146109085782637c6e5db7146108ea578263817b1cd2146108cb5782638ba16fa8146108af5782638da5cb5b146108875782638f9bcee81461086a5782639089ad0e146107fe5782639f76ab7c14610826578263aaf5eb6814610803578263ab22a25f146107fe578263ae2e933b146107df578263ba1e1651146107c2578263db2e21bc14610632578263dd3b829a14610613578263de17057014610406578263dfe6b5d614610336578263e37c3a5514610318578263e6a69ab8146102f9578263e74b981b14610281578263e74eaf8014610260578263ee1725461461023d57505063f2fde38b146101c557600080fd5b3461023a57602036600319011261023a576101de6113fb565b8154906001600160a01b03808316916101f8338414611a0b565b168092610206821515611a43565b6001600160a01b0319161783557f8be0079c531659141344cd1fd0a4f28419497f9722a3daafe3b4186f6b6457e08380a380f35b80fd5b9091503461025c578260031936011261025c5760209250549051908152f35b8280fd5b83823461027d578160031936011261027d57602090516104b08152f35b5080fd5b833461023a57602036600319011261023a5761029b6113fb565b81546001600160a01b0391906102b49083163314611a0b565b166102c0811515611a43565b600180546001600160a01b031916821790557f7a7b5a0a132f9e0581eb8527f66eae9ee89c2a3e79d4ac7e41a1f1f4d48a7fc28280a280f35b83823461027d578160031936011261027d57602090516301e133808152f35b83823461027d578160031936011261027d57602090516276a7008152f35b9091503461025c578260031936011261025c57600354815460055484516370a0823160e01b815230948101949094529193906020846024817f00000000000000000000000000000000000000000000000000000000000000006001600160a01b03165afa9384156103fc5786946103c1575b5060809550815194855260208501528301526060820152f35b9093506020813d82116103f4575b816103dc60209383611552565b810103126103f057608095505192386103a8565b8580fd5b3d91506103cf565b82513d88823e3d90fd5b83823461027d578160031936011261027d57805160609267ffffffffffffffff9184810183811182821017610600578452815b8581106105eb575050825194848601928311868410176105d857509391908082526104638161151a565b6212750081526080936101f48585015260a09460648686015283519261048884611536565b600684526020936542726f6e7a6560d01b8582015260c0870152855283516104af8161151a565b62278d0081526104b08482015261012c8582015284516104ce81611536565b600681526529b4b63b32b960d11b85820152838201528386015283516104f38161151a565b6276a70081526109c48482015261032085820152845161051281611536565b6007815266111a585b5bdb9960ca1b85820152838201528486015283519583870184885291808801969880945b6003861061054d578989038af35b909192939495969787858b848e601f1980938703018b5251805186528d61ffff80878401511687890152818301511690870152015187868601528051908189870152875b8281106105c157505084810183018790529d83019d601f011690920190910198979660010195019392919061053f565b8181018601518782018c01528d958b955001610591565b634e487b7160e01b825260419052602490fd5b6020906105f66118ef565b8184015201610439565b634e487b7160e01b835260418752602483fd5b83823461027d578160031936011261027d576020906006549051908152f35b83823461027d578160031936011261027d57338252600760205261065e60ff60088385200154166116f9565b338252600760205280822060028101544210156107895754906107d080830290838204148315171561077657906127107f45df01186fed55abc3ac9cfa82408e10553b9b93a8f0c0b4c2965a7bedb267ec92046107706106be82866114cd565b926106cb866003546114cd565b600355338752600760205261071281882060086000918281558260018201558260028201558260038201558260048201558260058201558260068201558260078201550155565b610753847f000000000000000000000000000000000000000000000000000000000000000061074c8660018060a01b03600154168361158c565b339061158c565b519283923396846040919493926060820195825260208201520152565b0390a280f35b634e487b7160e01b845260118552602484fd5b815162461bcd60e51b815260208186015260136024820152725553455f4e4f524d414c5f574954484452415760681b6044820152606490fd5b83823461027d578160031936011261027d57602090516103208152f35b83823461027d578160031936011261027d576020906005549051908152f35b611416565b83823461027d578160031936011261027d5760209051670de0b6b3a76400008152f35b83823461027d578160031936011261027d57517f00000000000000000000000000000000000000000000000000000000000000006001600160a01b03168152602090f35b83823461027d578160031936011261027d57602090516107d08152f35b83823461027d578160031936011261027d57905490516001600160a01b039091168152602090f35b83823461027d578160031936011261027d576020905160648152f35b83823461027d578160031936011261027d576020906003549051908152f35b83823461027d578160031936011261027d576020905162278d008152f35b83823461027d57602036600319011261027d5761094b9061092f61092a6113fb565b61173a565b9251918252602082015260408101919091529081906060820190565b0390f35b83823461027d578160031936011261027d5760025490516001600160a01b039091168152602090f35b83823461027d578160031936011261027d57602090516127108152f35b83823461027d578160031936011261027d57602090516109c48152f35b9091503461025c57602036600319011261025c576101209282906001600160a01b036109dc6113fb565b1681526007602052208054926001820154926002830154906003840154908401549060058501549260068601549460ff6008600789015498015416978151998a5260208a01528801526060870152608086015260a085015260c084015260e08301521515610100820152f35b83823461027d578160031936011261027d5760015490516001600160a01b039091168152602090f35b83823461027d578160031936011261027d5760209051621275008152f35b9091503461025c578260031936011261025c5733835260209060078252610abe60ff60088587200154166116f9565b3384526007825282842060028101544210610c3357610af4905493610ae23361173a565b610aef82849693966114da565b6114da565b94612710610b018861146d565b0494610b42610b1488610aef898c6114cd565b97610b218a6003546114cd565b600355338b5260088452858b20610b398282546114da565b905582546114da565b905533885260078152610b8783892060086000918281558260018201558260028201558260038201558260048201558260058201558260068201558260078201550155565b84610bf6575b610bb886337f000000000000000000000000000000000000000000000000000000000000000061158c565b8251968752860152840152606083015260808201527fc1df1e8d1517a1d530e03dd0b5abd27970c523aa08e4dab690b68af40b925d9660a03392a280f35b600154610c2e9086906001600160a01b03167f000000000000000000000000000000000000000000000000000000000000000061158c565b610b8d565b50915162461bcd60e51b815291820152600c60248201526b14d512531317d313d0d2d15160a21b6044820152606490fd5b83903461027d578160031936011261027d573382526007602052610c9060ff60088585200154166116f9565b3382526007602052828220610ca43361173a565b92909193610cb684610aef85886114da565b918215610d6357610770927f56253d287efacdb2c4cd76dd03624a4821c1ce721d1152e8f5f5718f6087c9bf969798928260076107539401610cf98482546114da565b90556006670de0b6b3a7640000610d13835483549061149a565b04910155338a526008602052838a20610d2d8382546114da565b9055610d3a8282546114da565b9055337f000000000000000000000000000000000000000000000000000000000000000061158c565b875162461bcd60e51b8152602081840152600a6024820152694e4f5f5245574152445360b01b6044820152606490fd5b83823461027d57602036600319011261027d5760209181906001600160a01b03610dbb6113fb565b1681526009845220549051908152f35b83823461027d578160031936011261027d576020905161012c8152f35b9091503461025c57602036600319011261025c573590610e09821515611433565b610e358230337f0000000000000000000000000000000000000000000000000000000000000000611649565b519081527fd3c7d1587d8f93bae0fcfc5a820d2187e755a75ec28a06c20a9da047e1b01eb560203392a280f35b83823461027d57602036600319011261027d5760209181906001600160a01b03610e8a6113fb565b1681526008845220549051908152f35b9091503461025c57602036600319011261025c576001600160a01b03610ebe6113fb565b168352600760205281832092825193610ed6856114e7565b805493848652600182015493846020880152600283015480838901526003840154918260608a0152840154928360808a015260ff60086005870154968760a08d0152600681015460c08d0152600781015460e08d015201541615159586610100809b0152428311600014610f795750610f4f42836114cd565b965b815198895260208901528701526060860152608085015260a084015260c083015260e0820152f35b96610f51565b83823461027d578060031936011261027d5782356024359060ff8216918281036112bd57610fae821515611433565b3385526020926007845260ff60088688200154166112885760021061124f57610fd690611916565b612710610fe28361146d565b04610fed81846114cd565b967f00000000000000000000000000000000000000000000000000000000000000009761101c8530338c611649565b8260011c9861102b8a856114cd565b600354806111dd575b506110637f4da3ecb883947ea77ebd33e070098952e71fb76b23c093dab6b4f51916fe993e9a9b6005546114da565b600555806111be575b50508861107a8551426114da565b9460016008848a8c855196828701998c61ffff998a8d5116918b868c01511694670de0b6b3a76400006110af6006548b61149a565b04968051996110bd8b6114e7565b8a52888a0191428352818b0193845260608b0194855260808b0195865260a08b0197885260c08b01988952600760e08c019a828c526101008d019e8f523383525220985189555160018901555160028801555160038701555190850155516005840155516006830155516007820155019051151560ff80198354169116179055611149836003546114da565b600355338b5260098852888b206111618882546114da565b90555192511692875195865286860152868501526060840152608083015260a08201527fc16be9a586414a157dd46b4d023aa9997a025dd1cbbaa67ac0c1b8273a5eaf5560c03392a260055490600654908351928352820152a180f35b6001546111d6926001600160a01b039091169061158c565b898061106c565b670de0b6b3a7640000808d02908d8204148d15171561123c579b611231611229611063937f4da3ecb883947ea77ebd33e070098952e71fb76b23c093dab6b4f51916fe993e9e9f6114ad565b6006546114da565b6006559b9a50611034565b634e487b7160e01b8c526011865260248cfd5b835162461bcd60e51b81528087018490526013602482015272494e56414c49445f4c4f434b5f43484f49434560681b6044820152606490fd5b845162461bcd60e51b8152808801859052600f60248201526e504f534954494f4e5f45584953545360881b6044820152606490fd5b8480fd5b83903461027d578260031936011261027d576112db6113fb565b8254602435926001600160a01b0391821692916112f9338514611a0b565b807f0000000000000000000000000000000000000000000000000000000000000000169216918083149081159161137b575b5015611340575061133d93945061158c565b80f35b606490602087519162461bcd60e51b8352820152601560248201527410d0539393d517d49150d3d5915497d4d51052d151605a1b6044820152fd5b87516370a0823160e01b815230848201529150602090829060249082905afa80156113f15786906113be575b6113b59150600354906114cd565b8411158761132b565b506020813d82116113e9575b816113d760209383611552565b810103126103f0576113b590516113a7565b3d91506113ca565b87513d88823e3d90fd5b600435906001600160a01b038216820361141157565b600080fd5b346114115760003660031901126114115760206040516101f48152f35b1561143a57565b60405162461bcd60e51b815260206004820152600b60248201526a414d4f554e545f5a45524f60a81b6044820152606490fd5b906101f49182810292818404149015171561148457565b634e487b7160e01b600052601160045260246000fd5b8181029291811591840414171561148457565b81156114b7570490565b634e487b7160e01b600052601260045260246000fd5b9190820391821161148457565b9190820180921161148457565b610120810190811067ffffffffffffffff82111761150457604052565b634e487b7160e01b600052604160045260246000fd5b6080810190811067ffffffffffffffff82111761150457604052565b6040810190811067ffffffffffffffff82111761150457604052565b90601f8019910116810190811067ffffffffffffffff82111761150457604052565b90816020910312611411575180151581036114115790565b60405163a9059cbb60e01b81526001600160a01b039283166004820152602481019390935260209183916044918391600091165af190811561163d5760009161160f575b50156115d857565b60405162461bcd60e51b815260206004820152600f60248201526e1514905394d1915497d19052531151608a1b6044820152606490fd5b611630915060203d8111611636575b6116288183611552565b810190611574565b386115d0565b503d61161e565b6040513d6000823e3d90fd5b6040516323b872dd60e01b81526001600160a01b03928316600482015292821660248401526044830193909352909160209183916064918391600091165af190811561163d576000916116db575b501561169f57565b60405162461bcd60e51b81526020600482015260146024820152731514905394d1915497d19493d357d1905253115160621b6044820152606490fd5b6116f3915060203d8111611636576116288183611552565b38611697565b1561170057565b60405162461bcd60e51b81526020600482015260126024820152712727afa0a1aa24ab22afa827a9a4aa24a7a760711b6044820152606490fd5b6001600160a01b0316600090815260076020526040808220905191928391611761846114e7565b805484526001810154948560208601526002820154946040810195865260038301546060820190815260048401549060808301918252600585015460a0840190815260068601549960c085019a8b5260ff600860078901549860e08801998a520154161580156101008701526118de576117db90426114cd565b926117fa8551946117f564496cebb800968794519061149a565b61149a565b0499670de0b6b3a764000061181386516006549061149a565b0490518082116000146118d557611829916114cd565b935b8499514210156118a7575b5050505084610aef61184892896114da565b9151908183111561189b575061185e90826114cd565b81611867575050565b80611892836118878361188c83611887611887986118989b9c9d9e61149a565b6114ad565b9a61149a565b9561149a565b90565b95508594508493505050565b610aef9850916118c36118cb926118489695945190519061149a565b90519061149a565b0495819238611836565b5050849361182b565b505050505093505092505080918190565b604051906118fc8261151a565b606080836000815260006020820152600060408201520152565b60ff906119216118ef565b50168061197157506040516119358161151a565b6212750081526101f460208201526064604082015260405161195681611536565b600681526542726f6e7a6560d01b6020820152606082015290565b6001036119c1576040516119848161151a565b62278d0081526104b0602082015261012c60408201526040516119a681611536565b600681526529b4b63b32b960d11b6020820152606082015290565b6040516119cd8161151a565b6276a70081526109c4602082015261032060408201526040516119ef81611536565b6007815266111a585b5bdb9960ca1b6020820152606082015290565b15611a1257565b60405162461bcd60e51b81526020600482015260096024820152682727aa2fa7aba722a960b91b6044820152606490fd5b15611a4a57565b60405162461bcd60e51b815260206004820152600c60248201526b5a45524f5f4144445245535360a01b6044820152606490fdfea2646970667358221220f7a29fadbdbf7140a60fa3e2b60ded8b9355852f6c11b80ed0ad257afda4572264736f6c63430008140033","opcodes":"PUSH1 0xA0 CALLVALUE PUSH3 0x16C JUMPI PUSH1 0x1F PUSH3 0x1C51 CODESIZE DUP2 SWAP1 SUB SWAP2 DUP3 ADD PUSH1 0x1F NOT AND DUP4 ADD SWAP2 PUSH1 0x1 PUSH1 0x1 PUSH1 0x40 SHL SUB DUP4 GT DUP5 DUP5 LT OR PUSH3 0x171 JUMPI DUP1 DUP5 SWAP3 PUSH1 0x60 SWAP5 PUSH1 0x40 MSTORE DUP4 CODECOPY DUP2 ADD SUB SLT PUSH3 0x16C JUMPI PUSH3 0x4D DUP2 PUSH3 0x187 JUMP JUMPDEST PUSH3 0x69 PUSH1 0x40 PUSH3 0x61 PUSH1 0x20 DUP6 ADD PUSH3 0x187 JUMP JUMPDEST SWAP4 ADD PUSH3 0x187 JUMP JUMPDEST PUSH1 0x1 PUSH1 0x1 PUSH1 0xA0 SHL SUB SWAP2 DUP3 AND SWAP3 DUP4 ISZERO PUSH3 0x13A JUMPI DUP3 AND SWAP3 DUP4 ISZERO PUSH3 0x100 JUMPI PUSH1 0x80 MSTORE PUSH1 0x1 DUP1 PUSH1 0xA0 SHL SUB NOT SWAP3 CALLER DUP5 PUSH1 0x0 SLOAD AND OR PUSH1 0x0 SSTORE DUP4 PUSH1 0x1 SLOAD AND OR PUSH1 0x1 SSTORE AND SWAP1 PUSH1 0x2 SLOAD AND OR PUSH1 0x2 SSTORE PUSH1 0x40 MLOAD PUSH2 0x1AB4 SWAP1 DUP2 PUSH3 0x19D DUP3 CODECOPY PUSH1 0x80 MLOAD DUP2 DUP2 DUP2 PUSH2 0x370 ADD MSTORE DUP2 DUP2 PUSH2 0x718 ADD MSTORE DUP2 DUP2 PUSH2 0x83B ADD MSTORE DUP2 DUP2 PUSH2 0xB94 ADD MSTORE DUP2 DUP2 PUSH2 0xC0A ADD MSTORE DUP2 DUP2 PUSH2 0xD3F ADD MSTORE DUP2 DUP2 PUSH2 0xE11 ADD MSTORE DUP2 DUP2 PUSH2 0xFF0 ADD MSTORE PUSH2 0x12FC ADD MSTORE RETURN JUMPDEST PUSH1 0x40 MLOAD PUSH3 0x461BCD PUSH1 0xE5 SHL DUP2 MSTORE PUSH1 0x20 PUSH1 0x4 DUP3 ADD MSTORE PUSH1 0x12 PUSH1 0x24 DUP3 ADD MSTORE PUSH18 0x4645455F524543495049454E545F5A45524F PUSH1 0x70 SHL PUSH1 0x44 DUP3 ADD MSTORE PUSH1 0x64 SWAP1 REVERT JUMPDEST PUSH1 0x40 MLOAD PUSH3 0x461BCD PUSH1 0xE5 SHL DUP2 MSTORE PUSH1 0x20 PUSH1 0x4 DUP3 ADD MSTORE PUSH1 0xA PUSH1 0x24 DUP3 ADD MSTORE PUSH10 0x544F4B454E5F5A45524F PUSH1 0xB0 SHL PUSH1 0x44 DUP3 ADD MSTORE PUSH1 0x64 SWAP1 REVERT JUMPDEST PUSH1 0x0 DUP1 REVERT JUMPDEST PUSH4 0x4E487B71 PUSH1 0xE0 SHL PUSH1 0x0 MSTORE PUSH1 0x41 PUSH1 0x4 MSTORE PUSH1 0x24 PUSH1 0x0 REVERT JUMPDEST MLOAD SWAP1 PUSH1 0x1 PUSH1 0x1 PUSH1 0xA0 SHL SUB DUP3 AND DUP3 SUB PUSH3 0x16C JUMPI JUMP INVALID PUSH1 0x40 PUSH1 0x80 DUP2 MSTORE PUSH1 0x4 DUP1 CALLDATASIZE LT ISZERO PUSH2 0x14 JUMPI PUSH1 0x0 DUP1 REVERT JUMPDEST PUSH1 0x0 SWAP2 DUP3 CALLDATALOAD PUSH1 0xE0 SHR SWAP2 DUP3 PUSH4 0x69C9FAE EQ PUSH2 0x12C1 JUMPI DUP3 PUSH4 0x10087FB1 EQ PUSH2 0xF7F JUMPI DUP3 PUSH4 0x16C19739 EQ PUSH2 0xE9A JUMPI DUP3 PUSH4 0x1D336D62 EQ PUSH2 0xE62 JUMPI DUP3 PUSH4 0x1D583E0D EQ PUSH2 0xDE8 JUMPI DUP3 PUSH4 0x2C9B4FD3 EQ PUSH2 0xDCB JUMPI DUP3 PUSH4 0x324D8438 EQ PUSH2 0x7FE JUMPI DUP3 PUSH4 0x36FECFFA EQ PUSH2 0xD93 JUMPI DUP3 PUSH4 0x372500AB EQ PUSH2 0xC64 JUMPI DUP3 PUSH4 0x3CCFD60B EQ PUSH2 0xA8F JUMPI DUP3 PUSH4 0x40DF876B EQ PUSH2 0xA71 JUMPI DUP3 PUSH4 0x46904840 EQ PUSH2 0xA48 JUMPI DUP3 PUSH4 0x55F57510 EQ PUSH2 0x9B2 JUMPI DUP3 PUSH4 0x618C9434 EQ PUSH2 0x995 JUMPI DUP3 PUSH4 0x6637E38C EQ PUSH2 0x978 JUMPI DUP3 PUSH4 0x66666AA9 EQ PUSH2 0x94F JUMPI DUP3 PUSH4 0x79A59C13 EQ PUSH2 0x908 JUMPI DUP3 PUSH4 0x7C6E5DB7 EQ PUSH2 0x8EA JUMPI DUP3 PUSH4 0x817B1CD2 EQ PUSH2 0x8CB JUMPI DUP3 PUSH4 0x8BA16FA8 EQ PUSH2 0x8AF JUMPI DUP3 PUSH4 0x8DA5CB5B EQ PUSH2 0x887 JUMPI DUP3 PUSH4 0x8F9BCEE8 EQ PUSH2 0x86A JUMPI DUP3 PUSH4 0x9089AD0E EQ PUSH2 0x7FE JUMPI DUP3 PUSH4 0x9F76AB7C EQ PUSH2 0x826 JUMPI DUP3 PUSH4 0xAAF5EB68 EQ PUSH2 0x803 JUMPI DUP3 PUSH4 0xAB22A25F EQ PUSH2 0x7FE JUMPI DUP3 PUSH4 0xAE2E933B EQ PUSH2 0x7DF JUMPI DUP3 PUSH4 0xBA1E1651 EQ PUSH2 0x7C2 JUMPI DUP3 PUSH4 0xDB2E21BC EQ PUSH2 0x632 JUMPI DUP3 PUSH4 0xDD3B829A EQ PUSH2 0x613 JUMPI DUP3 PUSH4 0xDE170570 EQ PUSH2 0x406 JUMPI DUP3 PUSH4 0xDFE6B5D6 EQ PUSH2 0x336 JUMPI DUP3 PUSH4 0xE37C3A55 EQ PUSH2 0x318 JUMPI DUP3 PUSH4 0xE6A69AB8 EQ PUSH2 0x2F9 JUMPI DUP3 PUSH4 0xE74B981B EQ PUSH2 0x281 JUMPI DUP3 PUSH4 0xE74EAF80 EQ PUSH2 0x260 JUMPI DUP3 PUSH4 0xEE172546 EQ PUSH2 0x23D JUMPI POP POP PUSH4 0xF2FDE38B EQ PUSH2 0x1C5 JUMPI PUSH1 0x0 DUP1 REVERT JUMPDEST CALLVALUE PUSH2 0x23A JUMPI PUSH1 0x20 CALLDATASIZE PUSH1 0x3 NOT ADD SLT PUSH2 0x23A JUMPI PUSH2 0x1DE PUSH2 0x13FB JUMP JUMPDEST DUP2 SLOAD SWAP1 PUSH1 0x1 PUSH1 0x1 PUSH1 0xA0 SHL SUB DUP1 DUP4 AND SWAP2 PUSH2 0x1F8 CALLER DUP5 EQ PUSH2 0x1A0B JUMP JUMPDEST AND DUP1 SWAP3 PUSH2 0x206 DUP3 ISZERO ISZERO PUSH2 0x1A43 JUMP JUMPDEST PUSH1 0x1 PUSH1 0x1 PUSH1 0xA0 SHL SUB NOT AND OR DUP4 SSTORE PUSH32 0x8BE0079C531659141344CD1FD0A4F28419497F9722A3DAAFE3B4186F6B6457E0 DUP4 DUP1 LOG3 DUP1 RETURN JUMPDEST DUP1 REVERT JUMPDEST SWAP1 SWAP2 POP CALLVALUE PUSH2 0x25C JUMPI DUP3 PUSH1 0x3 NOT CALLDATASIZE ADD SLT PUSH2 0x25C JUMPI PUSH1 0x20 SWAP3 POP SLOAD SWAP1 MLOAD SWAP1 DUP2 MSTORE RETURN JUMPDEST DUP3 DUP1 REVERT JUMPDEST DUP4 DUP3 CALLVALUE PUSH2 0x27D JUMPI DUP2 PUSH1 0x3 NOT CALLDATASIZE ADD SLT PUSH2 0x27D JUMPI PUSH1 0x20 SWAP1 MLOAD PUSH2 0x4B0 DUP2 MSTORE RETURN JUMPDEST POP DUP1 REVERT JUMPDEST DUP4 CALLVALUE PUSH2 0x23A JUMPI PUSH1 0x20 CALLDATASIZE PUSH1 0x3 NOT ADD SLT PUSH2 0x23A JUMPI PUSH2 0x29B PUSH2 0x13FB JUMP JUMPDEST DUP2 SLOAD PUSH1 0x1 PUSH1 0x1 PUSH1 0xA0 SHL SUB SWAP2 SWAP1 PUSH2 0x2B4 SWAP1 DUP4 AND CALLER EQ PUSH2 0x1A0B JUMP JUMPDEST AND PUSH2 0x2C0 DUP2 ISZERO ISZERO PUSH2 0x1A43 JUMP JUMPDEST PUSH1 0x1 DUP1 SLOAD PUSH1 0x1 PUSH1 0x1 PUSH1 0xA0 SHL SUB NOT AND DUP3 OR SWAP1 SSTORE PUSH32 0x7A7B5A0A132F9E0581EB8527F66EAE9EE89C2A3E79D4AC7E41A1F1F4D48A7FC2 DUP3 DUP1 LOG2 DUP1 RETURN JUMPDEST DUP4 DUP3 CALLVALUE PUSH2 0x27D JUMPI DUP2 PUSH1 0x3 NOT CALLDATASIZE ADD SLT PUSH2 0x27D JUMPI PUSH1 0x20 SWAP1 MLOAD PUSH4 0x1E13380 DUP2 MSTORE RETURN JUMPDEST DUP4 DUP3 CALLVALUE PUSH2 0x27D JUMPI DUP2 PUSH1 0x3 NOT CALLDATASIZE ADD SLT PUSH2 0x27D JUMPI PUSH1 0x20 SWAP1 MLOAD PUSH3 0x76A700 DUP2 MSTORE RETURN JUMPDEST SWAP1 SWAP2 POP CALLVALUE PUSH2 0x25C JUMPI DUP3 PUSH1 0x3 NOT CALLDATASIZE ADD SLT PUSH2 0x25C JUMPI PUSH1 0x3 SLOAD DUP2 SLOAD PUSH1 0x5 SLOAD DUP5 MLOAD PUSH4 0x70A08231 PUSH1 0xE0 SHL DUP2 MSTORE ADDRESS SWAP5 DUP2 ADD SWAP5 SWAP1 SWAP5 MSTORE SWAP2 SWAP4 SWAP1 PUSH1 0x20 DUP5 PUSH1 0x24 DUP2 PUSH32 0x0 PUSH1 0x1 PUSH1 0x1 PUSH1 0xA0 SHL SUB AND GAS STATICCALL SWAP4 DUP5 ISZERO PUSH2 0x3FC JUMPI DUP7 SWAP5 PUSH2 0x3C1 JUMPI JUMPDEST POP PUSH1 0x80 SWAP6 POP DUP2 MLOAD SWAP5 DUP6 MSTORE PUSH1 0x20 DUP6 ADD MSTORE DUP4 ADD MSTORE PUSH1 0x60 DUP3 ADD MSTORE RETURN JUMPDEST SWAP1 SWAP4 POP PUSH1 0x20 DUP2 RETURNDATASIZE DUP3 GT PUSH2 0x3F4 JUMPI JUMPDEST DUP2 PUSH2 0x3DC PUSH1 0x20 SWAP4 DUP4 PUSH2 0x1552 JUMP JUMPDEST DUP2 ADD SUB SLT PUSH2 0x3F0 JUMPI PUSH1 0x80 SWAP6 POP MLOAD SWAP3 CODESIZE PUSH2 0x3A8 JUMP JUMPDEST DUP6 DUP1 REVERT JUMPDEST RETURNDATASIZE SWAP2 POP PUSH2 0x3CF JUMP JUMPDEST DUP3 MLOAD RETURNDATASIZE DUP9 DUP3 RETURNDATACOPY RETURNDATASIZE SWAP1 REVERT JUMPDEST DUP4 DUP3 CALLVALUE PUSH2 0x27D JUMPI DUP2 PUSH1 0x3 NOT CALLDATASIZE ADD SLT PUSH2 0x27D JUMPI DUP1 MLOAD PUSH1 0x60 SWAP3 PUSH8 0xFFFFFFFFFFFFFFFF SWAP2 DUP5 DUP2 ADD DUP4 DUP2 GT DUP3 DUP3 LT OR PUSH2 0x600 JUMPI DUP5 MSTORE DUP2 JUMPDEST DUP6 DUP2 LT PUSH2 0x5EB JUMPI POP POP DUP3 MLOAD SWAP5 DUP5 DUP7 ADD SWAP3 DUP4 GT DUP7 DUP5 LT OR PUSH2 0x5D8 JUMPI POP SWAP4 SWAP2 SWAP1 DUP1 DUP3 MSTORE PUSH2 0x463 DUP2 PUSH2 0x151A JUMP JUMPDEST PUSH3 0x127500 DUP2 MSTORE PUSH1 0x80 SWAP4 PUSH2 0x1F4 DUP6 DUP6 ADD MSTORE PUSH1 0xA0 SWAP5 PUSH1 0x64 DUP7 DUP7 ADD MSTORE DUP4 MLOAD SWAP3 PUSH2 0x488 DUP5 PUSH2 0x1536 JUMP JUMPDEST PUSH1 0x6 DUP5 MSTORE PUSH1 0x20 SWAP4 PUSH6 0x42726F6E7A65 PUSH1 0xD0 SHL DUP6 DUP3 ADD MSTORE PUSH1 0xC0 DUP8 ADD MSTORE DUP6 MSTORE DUP4 MLOAD PUSH2 0x4AF DUP2 PUSH2 0x151A JUMP JUMPDEST PUSH3 0x278D00 DUP2 MSTORE PUSH2 0x4B0 DUP5 DUP3 ADD MSTORE PUSH2 0x12C DUP6 DUP3 ADD MSTORE DUP5 MLOAD PUSH2 0x4CE DUP2 PUSH2 0x1536 JUMP JUMPDEST PUSH1 0x6 DUP2 MSTORE PUSH6 0x29B4B63B32B9 PUSH1 0xD1 SHL DUP6 DUP3 ADD MSTORE DUP4 DUP3 ADD MSTORE DUP4 DUP7 ADD MSTORE DUP4 MLOAD PUSH2 0x4F3 DUP2 PUSH2 0x151A JUMP JUMPDEST PUSH3 0x76A700 DUP2 MSTORE PUSH2 0x9C4 DUP5 DUP3 ADD MSTORE PUSH2 0x320 DUP6 DUP3 ADD MSTORE DUP5 MLOAD PUSH2 0x512 DUP2 PUSH2 0x1536 JUMP JUMPDEST PUSH1 0x7 DUP2 MSTORE PUSH7 0x111A585B5BDB99 PUSH1 0xCA SHL DUP6 DUP3 ADD MSTORE DUP4 DUP3 ADD MSTORE DUP5 DUP7 ADD MSTORE DUP4 MLOAD SWAP6 DUP4 DUP8 ADD DUP5 DUP9 MSTORE SWAP2 DUP1 DUP9 ADD SWAP7 SWAP9 DUP1 SWAP5 JUMPDEST PUSH1 0x3 DUP7 LT PUSH2 0x54D JUMPI DUP10 DUP10 SUB DUP11 RETURN JUMPDEST SWAP1 SWAP2 SWAP3 SWAP4 SWAP5 SWAP6 SWAP7 SWAP8 DUP8 DUP6 DUP12 DUP5 DUP15 PUSH1 0x1F NOT DUP1 SWAP4 DUP8 SUB ADD DUP12 MSTORE MLOAD DUP1 MLOAD DUP7 MSTORE DUP14 PUSH2 0xFFFF DUP1 DUP8 DUP5 ADD MLOAD AND DUP8 DUP10 ADD MSTORE DUP2 DUP4 ADD MLOAD AND SWAP1 DUP8 ADD MSTORE ADD MLOAD DUP8 DUP7 DUP7 ADD MSTORE DUP1 MLOAD SWAP1 DUP2 DUP10 DUP8 ADD MSTORE DUP8 JUMPDEST DUP3 DUP2 LT PUSH2 0x5C1 JUMPI POP POP DUP5 DUP2 ADD DUP4 ADD DUP8 SWAP1 MSTORE SWAP14 DUP4 ADD SWAP14 PUSH1 0x1F ADD AND SWAP1 SWAP3 ADD SWAP1 SWAP2 ADD SWAP9 SWAP8 SWAP7 PUSH1 0x1 ADD SWAP6 ADD SWAP4 SWAP3 SWAP2 SWAP1 PUSH2 0x53F JUMP JUMPDEST DUP2 DUP2 ADD DUP7 ADD MLOAD DUP8 DUP3 ADD DUP13 ADD MSTORE DUP14 SWAP6 DUP12 SWAP6 POP ADD PUSH2 0x591 JUMP JUMPDEST PUSH4 0x4E487B71 PUSH1 0xE0 SHL DUP3 MSTORE PUSH1 0x41 SWAP1 MSTORE PUSH1 0x24 SWAP1 REVERT JUMPDEST PUSH1 0x20 SWAP1 PUSH2 0x5F6 PUSH2 0x18EF JUMP JUMPDEST DUP2 DUP5 ADD MSTORE ADD PUSH2 0x439 JUMP JUMPDEST PUSH4 0x4E487B71 PUSH1 0xE0 SHL DUP4 MSTORE PUSH1 0x41 DUP8 MSTORE PUSH1 0x24 DUP4 REVERT JUMPDEST DUP4 DUP3 CALLVALUE PUSH2 0x27D JUMPI DUP2 PUSH1 0x3 NOT CALLDATASIZE ADD SLT PUSH2 0x27D JUMPI PUSH1 0x20 SWAP1 PUSH1 0x6 SLOAD SWAP1 MLOAD SWAP1 DUP2 MSTORE RETURN JUMPDEST DUP4 DUP3 CALLVALUE PUSH2 0x27D JUMPI DUP2 PUSH1 0x3 NOT CALLDATASIZE ADD SLT PUSH2 0x27D JUMPI CALLER DUP3 MSTORE PUSH1 0x7 PUSH1 0x20 MSTORE PUSH2 0x65E PUSH1 0xFF PUSH1 0x8 DUP4 DUP6 KECCAK256 ADD SLOAD AND PUSH2 0x16F9 JUMP JUMPDEST CALLER DUP3 MSTORE PUSH1 0x7 PUSH1 0x20 MSTORE DUP1 DUP3 KECCAK256 PUSH1 0x2 DUP2 ADD SLOAD TIMESTAMP LT ISZERO PUSH2 0x789 JUMPI SLOAD SWAP1 PUSH2 0x7D0 DUP1 DUP4 MUL SWAP1 DUP4 DUP3 DIV EQ DUP4 ISZERO OR ISZERO PUSH2 0x776 JUMPI SWAP1 PUSH2 0x2710 PUSH32 0x45DF01186FED55ABC3AC9CFA82408E10553B9B93A8F0C0B4C2965A7BEDB267EC SWAP3 DIV PUSH2 0x770 PUSH2 0x6BE DUP3 DUP7 PUSH2 0x14CD JUMP JUMPDEST SWAP3 PUSH2 0x6CB DUP7 PUSH1 0x3 SLOAD PUSH2 0x14CD JUMP JUMPDEST PUSH1 0x3 SSTORE CALLER DUP8 MSTORE PUSH1 0x7 PUSH1 0x20 MSTORE PUSH2 0x712 DUP2 DUP9 KECCAK256 PUSH1 0x8 PUSH1 0x0 SWAP2 DUP3 DUP2 SSTORE DUP3 PUSH1 0x1 DUP3 ADD SSTORE DUP3 PUSH1 0x2 DUP3 ADD SSTORE DUP3 PUSH1 0x3 DUP3 ADD SSTORE DUP3 PUSH1 0x4 DUP3 ADD SSTORE DUP3 PUSH1 0x5 DUP3 ADD SSTORE DUP3 PUSH1 0x6 DUP3 ADD SSTORE DUP3 PUSH1 0x7 DUP3 ADD SSTORE ADD SSTORE JUMP JUMPDEST PUSH2 0x753 DUP5 PUSH32 0x0 PUSH2 0x74C DUP7 PUSH1 0x1 DUP1 PUSH1 0xA0 SHL SUB PUSH1 0x1 SLOAD AND DUP4 PUSH2 0x158C JUMP JUMPDEST CALLER SWAP1 PUSH2 0x158C JUMP JUMPDEST MLOAD SWAP3 DUP4 SWAP3 CALLER SWAP7 DUP5 PUSH1 0x40 SWAP2 SWAP5 SWAP4 SWAP3 PUSH1 0x60 DUP3 ADD SWAP6 DUP3 MSTORE PUSH1 0x20 DUP3 ADD MSTORE ADD MSTORE JUMP JUMPDEST SUB SWAP1 LOG2 DUP1 RETURN JUMPDEST PUSH4 0x4E487B71 PUSH1 0xE0 SHL DUP5 MSTORE PUSH1 0x11 DUP6 MSTORE PUSH1 0x24 DUP5 REVERT JUMPDEST DUP2 MLOAD PUSH3 0x461BCD PUSH1 0xE5 SHL DUP2 MSTORE PUSH1 0x20 DUP2 DUP7 ADD MSTORE PUSH1 0x13 PUSH1 0x24 DUP3 ADD MSTORE PUSH19 0x5553455F4E4F524D414C5F5749544844524157 PUSH1 0x68 SHL PUSH1 0x44 DUP3 ADD MSTORE PUSH1 0x64 SWAP1 REVERT JUMPDEST DUP4 DUP3 CALLVALUE PUSH2 0x27D JUMPI DUP2 PUSH1 0x3 NOT CALLDATASIZE ADD SLT PUSH2 0x27D JUMPI PUSH1 0x20 SWAP1 MLOAD PUSH2 0x320 DUP2 MSTORE RETURN JUMPDEST DUP4 DUP3 CALLVALUE PUSH2 0x27D JUMPI DUP2 PUSH1 0x3 NOT CALLDATASIZE ADD SLT PUSH2 0x27D JUMPI PUSH1 0x20 SWAP1 PUSH1 0x5 SLOAD SWAP1 MLOAD SWAP1 DUP2 MSTORE RETURN JUMPDEST PUSH2 0x1416 JUMP JUMPDEST DUP4 DUP3 CALLVALUE PUSH2 0x27D JUMPI DUP2 PUSH1 0x3 NOT CALLDATASIZE ADD SLT PUSH2 0x27D JUMPI PUSH1 0x20 SWAP1 MLOAD PUSH8 0xDE0B6B3A7640000 DUP2 MSTORE RETURN JUMPDEST DUP4 DUP3 CALLVALUE PUSH2 0x27D JUMPI DUP2 PUSH1 0x3 NOT CALLDATASIZE ADD SLT PUSH2 0x27D JUMPI MLOAD PUSH32 0x0 PUSH1 0x1 PUSH1 0x1 PUSH1 0xA0 SHL SUB AND DUP2 MSTORE PUSH1 0x20 SWAP1 RETURN JUMPDEST DUP4 DUP3 CALLVALUE PUSH2 0x27D JUMPI DUP2 PUSH1 0x3 NOT CALLDATASIZE ADD SLT PUSH2 0x27D JUMPI PUSH1 0x20 SWAP1 MLOAD PUSH2 0x7D0 DUP2 MSTORE RETURN JUMPDEST DUP4 DUP3 CALLVALUE PUSH2 0x27D JUMPI DUP2 PUSH1 0x3 NOT CALLDATASIZE ADD SLT PUSH2 0x27D JUMPI SWAP1 SLOAD SWAP1 MLOAD PUSH1 0x1 PUSH1 0x1 PUSH1 0xA0 SHL SUB SWAP1 SWAP2 AND DUP2 MSTORE PUSH1 0x20 SWAP1 RETURN JUMPDEST DUP4 DUP3 CALLVALUE PUSH2 0x27D JUMPI DUP2 PUSH1 0x3 NOT CALLDATASIZE ADD SLT PUSH2 0x27D JUMPI PUSH1 0x20 SWAP1 MLOAD PUSH1 0x64 DUP2 MSTORE RETURN JUMPDEST DUP4 DUP3 CALLVALUE PUSH2 0x27D JUMPI DUP2 PUSH1 0x3 NOT CALLDATASIZE ADD SLT PUSH2 0x27D JUMPI PUSH1 0x20 SWAP1 PUSH1 0x3 SLOAD SWAP1 MLOAD SWAP1 DUP2 MSTORE RETURN JUMPDEST DUP4 DUP3 CALLVALUE PUSH2 0x27D JUMPI DUP2 PUSH1 0x3 NOT CALLDATASIZE ADD SLT PUSH2 0x27D JUMPI PUSH1 0x20 SWAP1 MLOAD PUSH3 0x278D00 DUP2 MSTORE RETURN JUMPDEST DUP4 DUP3 CALLVALUE PUSH2 0x27D JUMPI PUSH1 0x20 CALLDATASIZE PUSH1 0x3 NOT ADD SLT PUSH2 0x27D JUMPI PUSH2 0x94B SWAP1 PUSH2 0x92F PUSH2 0x92A PUSH2 0x13FB JUMP JUMPDEST PUSH2 0x173A JUMP JUMPDEST SWAP3 MLOAD SWAP2 DUP3 MSTORE PUSH1 0x20 DUP3 ADD MSTORE PUSH1 0x40 DUP2 ADD SWAP2 SWAP1 SWAP2 MSTORE SWAP1 DUP2 SWAP1 PUSH1 0x60 DUP3 ADD SWAP1 JUMP JUMPDEST SUB SWAP1 RETURN JUMPDEST DUP4 DUP3 CALLVALUE PUSH2 0x27D JUMPI DUP2 PUSH1 0x3 NOT CALLDATASIZE ADD SLT PUSH2 0x27D JUMPI PUSH1 0x2 SLOAD SWAP1 MLOAD PUSH1 0x1 PUSH1 0x1 PUSH1 0xA0 SHL SUB SWAP1 SWAP2 AND DUP2 MSTORE PUSH1 0x20 SWAP1 RETURN JUMPDEST DUP4 DUP3 CALLVALUE PUSH2 0x27D JUMPI DUP2 PUSH1 0x3 NOT CALLDATASIZE ADD SLT PUSH2 0x27D JUMPI PUSH1 0x20 SWAP1 MLOAD PUSH2 0x2710 DUP2 MSTORE RETURN JUMPDEST DUP4 DUP3 CALLVALUE PUSH2 0x27D JUMPI DUP2 PUSH1 0x3 NOT CALLDATASIZE ADD SLT PUSH2 0x27D JUMPI PUSH1 0x20 SWAP1 MLOAD PUSH2 0x9C4 DUP2 MSTORE RETURN JUMPDEST SWAP1 SWAP2 POP CALLVALUE PUSH2 0x25C JUMPI PUSH1 0x20 CALLDATASIZE PUSH1 0x3 NOT ADD SLT PUSH2 0x25C JUMPI PUSH2 0x120 SWAP3 DUP3 SWAP1 PUSH1 0x1 PUSH1 0x1 PUSH1 0xA0 SHL SUB PUSH2 0x9DC PUSH2 0x13FB JUMP JUMPDEST AND DUP2 MSTORE PUSH1 0x7 PUSH1 0x20 MSTORE KECCAK256 DUP1 SLOAD SWAP3 PUSH1 0x1 DUP3 ADD SLOAD SWAP3 PUSH1 0x2 DUP4 ADD SLOAD SWAP1 PUSH1 0x3 DUP5 ADD SLOAD SWAP1 DUP5 ADD SLOAD SWAP1 PUSH1 0x5 DUP6 ADD SLOAD SWAP3 PUSH1 0x6 DUP7 ADD SLOAD SWAP5 PUSH1 0xFF PUSH1 0x8 PUSH1 0x7 DUP10 ADD SLOAD SWAP9 ADD SLOAD AND SWAP8 DUP2 MLOAD SWAP10 DUP11 MSTORE PUSH1 0x20 DUP11 ADD MSTORE DUP9 ADD MSTORE PUSH1 0x60 DUP8 ADD MSTORE PUSH1 0x80 DUP7 ADD MSTORE PUSH1 0xA0 DUP6 ADD MSTORE PUSH1 0xC0 DUP5 ADD MSTORE PUSH1 0xE0 DUP4 ADD MSTORE ISZERO ISZERO PUSH2 0x100 DUP3 ADD MSTORE RETURN JUMPDEST DUP4 DUP3 CALLVALUE PUSH2 0x27D JUMPI DUP2 PUSH1 0x3 NOT CALLDATASIZE ADD SLT PUSH2 0x27D JUMPI PUSH1 0x1 SLOAD SWAP1 MLOAD PUSH1 0x1 PUSH1 0x1 PUSH1 0xA0 SHL SUB SWAP1 SWAP2 AND DUP2 MSTORE PUSH1 0x20 SWAP1 RETURN JUMPDEST DUP4 DUP3 CALLVALUE PUSH2 0x27D JUMPI DUP2 PUSH1 0x3 NOT CALLDATASIZE ADD SLT PUSH2 0x27D JUMPI PUSH1 0x20 SWAP1 MLOAD PUSH3 0x127500 DUP2 MSTORE RETURN JUMPDEST SWAP1 SWAP2 POP CALLVALUE PUSH2 0x25C JUMPI DUP3 PUSH1 0x3 NOT CALLDATASIZE ADD SLT PUSH2 0x25C JUMPI CALLER DUP4 MSTORE PUSH1 0x20 SWAP1 PUSH1 0x7 DUP3 MSTORE PUSH2 0xABE PUSH1 0xFF PUSH1 0x8 DUP6 DUP8 KECCAK256 ADD SLOAD AND PUSH2 0x16F9 JUMP JUMPDEST CALLER DUP5 MSTORE PUSH1 0x7 DUP3 MSTORE DUP3 DUP5 KECCAK256 PUSH1 0x2 DUP2 ADD SLOAD TIMESTAMP LT PUSH2 0xC33 JUMPI PUSH2 0xAF4 SWAP1 SLOAD SWAP4 PUSH2 0xAE2 CALLER PUSH2 0x173A JUMP JUMPDEST PUSH2 0xAEF DUP3 DUP5 SWAP7 SWAP4 SWAP7 PUSH2 0x14DA JUMP JUMPDEST PUSH2 0x14DA JUMP JUMPDEST SWAP5 PUSH2 0x2710 PUSH2 0xB01 DUP9 PUSH2 0x146D JUMP JUMPDEST DIV SWAP5 PUSH2 0xB42 PUSH2 0xB14 DUP9 PUSH2 0xAEF DUP10 DUP13 PUSH2 0x14CD JUMP JUMPDEST SWAP8 PUSH2 0xB21 DUP11 PUSH1 0x3 SLOAD PUSH2 0x14CD JUMP JUMPDEST PUSH1 0x3 SSTORE CALLER DUP12 MSTORE PUSH1 0x8 DUP5 MSTORE DUP6 DUP12 KECCAK256 PUSH2 0xB39 DUP3 DUP3 SLOAD PUSH2 0x14DA JUMP JUMPDEST SWAP1 SSTORE DUP3 SLOAD PUSH2 0x14DA JUMP JUMPDEST SWAP1 SSTORE CALLER DUP9 MSTORE PUSH1 0x7 DUP2 MSTORE PUSH2 0xB87 DUP4 DUP10 KECCAK256 PUSH1 0x8 PUSH1 0x0 SWAP2 DUP3 DUP2 SSTORE DUP3 PUSH1 0x1 DUP3 ADD SSTORE DUP3 PUSH1 0x2 DUP3 ADD SSTORE DUP3 PUSH1 0x3 DUP3 ADD SSTORE DUP3 PUSH1 0x4 DUP3 ADD SSTORE DUP3 PUSH1 0x5 DUP3 ADD SSTORE DUP3 PUSH1 0x6 DUP3 ADD SSTORE DUP3 PUSH1 0x7 DUP3 ADD SSTORE ADD SSTORE JUMP JUMPDEST DUP5 PUSH2 0xBF6 JUMPI JUMPDEST PUSH2 0xBB8 DUP7 CALLER PUSH32 0x0 PUSH2 0x158C JUMP JUMPDEST DUP3 MLOAD SWAP7 DUP8 MSTORE DUP7 ADD MSTORE DUP5 ADD MSTORE PUSH1 0x60 DUP4 ADD MSTORE PUSH1 0x80 DUP3 ADD MSTORE PUSH32 0xC1DF1E8D1517A1D530E03DD0B5ABD27970C523AA08E4DAB690B68AF40B925D96 PUSH1 0xA0 CALLER SWAP3 LOG2 DUP1 RETURN JUMPDEST PUSH1 0x1 SLOAD PUSH2 0xC2E SWAP1 DUP7 SWAP1 PUSH1 0x1 PUSH1 0x1 PUSH1 0xA0 SHL SUB AND PUSH32 0x0 PUSH2 0x158C JUMP JUMPDEST PUSH2 0xB8D JUMP JUMPDEST POP SWAP2 MLOAD PUSH3 0x461BCD PUSH1 0xE5 SHL DUP2 MSTORE SWAP2 DUP3 ADD MSTORE PUSH1 0xC PUSH1 0x24 DUP3 ADD MSTORE PUSH12 0x14D512531317D313D0D2D151 PUSH1 0xA2 SHL PUSH1 0x44 DUP3 ADD MSTORE PUSH1 0x64 SWAP1 REVERT JUMPDEST DUP4 SWAP1 CALLVALUE PUSH2 0x27D JUMPI DUP2 PUSH1 0x3 NOT CALLDATASIZE ADD SLT PUSH2 0x27D JUMPI CALLER DUP3 MSTORE PUSH1 0x7 PUSH1 0x20 MSTORE PUSH2 0xC90 PUSH1 0xFF PUSH1 0x8 DUP6 DUP6 KECCAK256 ADD SLOAD AND PUSH2 0x16F9 JUMP JUMPDEST CALLER DUP3 MSTORE PUSH1 0x7 PUSH1 0x20 MSTORE DUP3 DUP3 KECCAK256 PUSH2 0xCA4 CALLER PUSH2 0x173A JUMP JUMPDEST SWAP3 SWAP1 SWAP2 SWAP4 PUSH2 0xCB6 DUP5 PUSH2 0xAEF DUP6 DUP9 PUSH2 0x14DA JUMP JUMPDEST SWAP2 DUP3 ISZERO PUSH2 0xD63 JUMPI PUSH2 0x770 SWAP3 PUSH32 0x56253D287EFACDB2C4CD76DD03624A4821C1CE721D1152E8F5F5718F6087C9BF SWAP7 SWAP8 SWAP9 SWAP3 DUP3 PUSH1 0x7 PUSH2 0x753 SWAP5 ADD PUSH2 0xCF9 DUP5 DUP3 SLOAD PUSH2 0x14DA JUMP JUMPDEST SWAP1 SSTORE PUSH1 0x6 PUSH8 0xDE0B6B3A7640000 PUSH2 0xD13 DUP4 SLOAD DUP4 SLOAD SWAP1 PUSH2 0x149A JUMP JUMPDEST DIV SWAP2 ADD SSTORE CALLER DUP11 MSTORE PUSH1 0x8 PUSH1 0x20 MSTORE DUP4 DUP11 KECCAK256 PUSH2 0xD2D DUP4 DUP3 SLOAD PUSH2 0x14DA JUMP JUMPDEST SWAP1 SSTORE PUSH2 0xD3A DUP3 DUP3 SLOAD PUSH2 0x14DA JUMP JUMPDEST SWAP1 SSTORE CALLER PUSH32 0x0 PUSH2 0x158C JUMP JUMPDEST DUP8 MLOAD PUSH3 0x461BCD PUSH1 0xE5 SHL DUP2 MSTORE PUSH1 0x20 DUP2 DUP5 ADD MSTORE PUSH1 0xA PUSH1 0x24 DUP3 ADD MSTORE PUSH10 0x4E4F5F52455741524453 PUSH1 0xB0 SHL PUSH1 0x44 DUP3 ADD MSTORE PUSH1 0x64 SWAP1 REVERT JUMPDEST DUP4 DUP3 CALLVALUE PUSH2 0x27D JUMPI PUSH1 0x20 CALLDATASIZE PUSH1 0x3 NOT ADD SLT PUSH2 0x27D JUMPI PUSH1 0x20 SWAP2 DUP2 SWAP1 PUSH1 0x1 PUSH1 0x1 PUSH1 0xA0 SHL SUB PUSH2 0xDBB PUSH2 0x13FB JUMP JUMPDEST AND DUP2 MSTORE PUSH1 0x9 DUP5 MSTORE KECCAK256 SLOAD SWAP1 MLOAD SWAP1 DUP2 MSTORE RETURN JUMPDEST DUP4 DUP3 CALLVALUE PUSH2 0x27D JUMPI DUP2 PUSH1 0x3 NOT CALLDATASIZE ADD SLT PUSH2 0x27D JUMPI PUSH1 0x20 SWAP1 MLOAD PUSH2 0x12C DUP2 MSTORE RETURN JUMPDEST SWAP1 SWAP2 POP CALLVALUE PUSH2 0x25C JUMPI PUSH1 0x20 CALLDATASIZE PUSH1 0x3 NOT ADD SLT PUSH2 0x25C JUMPI CALLDATALOAD SWAP1 PUSH2 0xE09 DUP3 ISZERO ISZERO PUSH2 0x1433 JUMP JUMPDEST PUSH2 0xE35 DUP3 ADDRESS CALLER PUSH32 0x0 PUSH2 0x1649 JUMP JUMPDEST MLOAD SWAP1 DUP2 MSTORE PUSH32 0xD3C7D1587D8F93BAE0FCFC5A820D2187E755A75EC28A06C20A9DA047E1B01EB5 PUSH1 0x20 CALLER SWAP3 LOG2 DUP1 RETURN JUMPDEST DUP4 DUP3 CALLVALUE PUSH2 0x27D JUMPI PUSH1 0x20 CALLDATASIZE PUSH1 0x3 NOT ADD SLT PUSH2 0x27D JUMPI PUSH1 0x20 SWAP2 DUP2 SWAP1 PUSH1 0x1 PUSH1 0x1 PUSH1 0xA0 SHL SUB PUSH2 0xE8A PUSH2 0x13FB JUMP JUMPDEST AND DUP2 MSTORE PUSH1 0x8 DUP5 MSTORE KECCAK256 SLOAD SWAP1 MLOAD SWAP1 DUP2 MSTORE RETURN JUMPDEST SWAP1 SWAP2 POP CALLVALUE PUSH2 0x25C JUMPI PUSH1 0x20 CALLDATASIZE PUSH1 0x3 NOT ADD SLT PUSH2 0x25C JUMPI PUSH1 0x1 PUSH1 0x1 PUSH1 0xA0 SHL SUB PUSH2 0xEBE PUSH2 0x13FB JUMP JUMPDEST AND DUP4 MSTORE PUSH1 0x7 PUSH1 0x20 MSTORE DUP2 DUP4 KECCAK256 SWAP3 DUP3 MLOAD SWAP4 PUSH2 0xED6 DUP6 PUSH2 0x14E7 JUMP JUMPDEST DUP1 SLOAD SWAP4 DUP5 DUP7 MSTORE PUSH1 0x1 DUP3 ADD SLOAD SWAP4 DUP5 PUSH1 0x20 DUP9 ADD MSTORE PUSH1 0x2 DUP4 ADD SLOAD DUP1 DUP4 DUP10 ADD MSTORE PUSH1 0x3 DUP5 ADD SLOAD SWAP2 DUP3 PUSH1 0x60 DUP11 ADD MSTORE DUP5 ADD SLOAD SWAP3 DUP4 PUSH1 0x80 DUP11 ADD MSTORE PUSH1 0xFF PUSH1 0x8 PUSH1 0x5 DUP8 ADD SLOAD SWAP7 DUP8 PUSH1 0xA0 DUP14 ADD MSTORE PUSH1 0x6 DUP2 ADD SLOAD PUSH1 0xC0 DUP14 ADD MSTORE PUSH1 0x7 DUP2 ADD SLOAD PUSH1 0xE0 DUP14 ADD MSTORE ADD SLOAD AND ISZERO ISZERO SWAP6 DUP7 PUSH2 0x100 DUP1 SWAP12 ADD MSTORE TIMESTAMP DUP4 GT PUSH1 0x0 EQ PUSH2 0xF79 JUMPI POP PUSH2 0xF4F TIMESTAMP DUP4 PUSH2 0x14CD JUMP JUMPDEST SWAP7 JUMPDEST DUP2 MLOAD SWAP9 DUP10 MSTORE PUSH1 0x20 DUP10 ADD MSTORE DUP8 ADD MSTORE PUSH1 0x60 DUP7 ADD MSTORE PUSH1 0x80 DUP6 ADD MSTORE PUSH1 0xA0 DUP5 ADD MSTORE PUSH1 0xC0 DUP4 ADD MSTORE PUSH1 0xE0 DUP3 ADD MSTORE RETURN JUMPDEST SWAP7 PUSH2 0xF51 JUMP JUMPDEST DUP4 DUP3 CALLVALUE PUSH2 0x27D JUMPI DUP1 PUSH1 0x3 NOT CALLDATASIZE ADD SLT PUSH2 0x27D JUMPI DUP3 CALLDATALOAD PUSH1 0x24 CALLDATALOAD SWAP1 PUSH1 0xFF DUP3 AND SWAP2 DUP3 DUP2 SUB PUSH2 0x12BD JUMPI PUSH2 0xFAE DUP3 ISZERO ISZERO PUSH2 0x1433 JUMP JUMPDEST CALLER DUP6 MSTORE PUSH1 0x20 SWAP3 PUSH1 0x7 DUP5 MSTORE PUSH1 0xFF PUSH1 0x8 DUP7 DUP9 KECCAK256 ADD SLOAD AND PUSH2 0x1288 JUMPI PUSH1 0x2 LT PUSH2 0x124F JUMPI PUSH2 0xFD6 SWAP1 PUSH2 0x1916 JUMP JUMPDEST PUSH2 0x2710 PUSH2 0xFE2 DUP4 PUSH2 0x146D JUMP JUMPDEST DIV PUSH2 0xFED DUP2 DUP5 PUSH2 0x14CD JUMP JUMPDEST SWAP7 PUSH32 0x0 SWAP8 PUSH2 0x101C DUP6 ADDRESS CALLER DUP13 PUSH2 0x1649 JUMP JUMPDEST DUP3 PUSH1 0x1 SHR SWAP9 PUSH2 0x102B DUP11 DUP6 PUSH2 0x14CD JUMP JUMPDEST PUSH1 0x3 SLOAD DUP1 PUSH2 0x11DD JUMPI JUMPDEST POP PUSH2 0x1063 PUSH32 0x4DA3ECB883947EA77EBD33E070098952E71FB76B23C093DAB6B4F51916FE993E SWAP11 SWAP12 PUSH1 0x5 SLOAD PUSH2 0x14DA JUMP JUMPDEST PUSH1 0x5 SSTORE DUP1 PUSH2 0x11BE JUMPI JUMPDEST POP POP DUP9 PUSH2 0x107A DUP6 MLOAD TIMESTAMP PUSH2 0x14DA JUMP JUMPDEST SWAP5 PUSH1 0x1 PUSH1 0x8 DUP5 DUP11 DUP13 DUP6 MLOAD SWAP7 DUP3 DUP8 ADD SWAP10 DUP13 PUSH2 0xFFFF SWAP10 DUP11 DUP14 MLOAD AND SWAP2 DUP12 DUP7 DUP13 ADD MLOAD AND SWAP5 PUSH8 0xDE0B6B3A7640000 PUSH2 0x10AF PUSH1 0x6 SLOAD DUP12 PUSH2 0x149A JUMP JUMPDEST DIV SWAP7 DUP1 MLOAD SWAP10 PUSH2 0x10BD DUP12 PUSH2 0x14E7 JUMP JUMPDEST DUP11 MSTORE DUP9 DUP11 ADD SWAP2 TIMESTAMP DUP4 MSTORE DUP2 DUP12 ADD SWAP4 DUP5 MSTORE PUSH1 0x60 DUP12 ADD SWAP5 DUP6 MSTORE PUSH1 0x80 DUP12 ADD SWAP6 DUP7 MSTORE PUSH1 0xA0 DUP12 ADD SWAP8 DUP9 MSTORE PUSH1 0xC0 DUP12 ADD SWAP9 DUP10 MSTORE PUSH1 0x7 PUSH1 0xE0 DUP13 ADD SWAP11 DUP3 DUP13 MSTORE PUSH2 0x100 DUP14 ADD SWAP15 DUP16 MSTORE CALLER DUP4 MSTORE MSTORE KECCAK256 SWAP9 MLOAD DUP10 SSTORE MLOAD PUSH1 0x1 DUP10 ADD SSTORE MLOAD PUSH1 0x2 DUP9 ADD SSTORE MLOAD PUSH1 0x3 DUP8 ADD SSTORE MLOAD SWAP1 DUP6 ADD SSTORE MLOAD PUSH1 0x5 DUP5 ADD SSTORE MLOAD PUSH1 0x6 DUP4 ADD SSTORE MLOAD PUSH1 0x7 DUP3 ADD SSTORE ADD SWAP1 MLOAD ISZERO ISZERO PUSH1 0xFF DUP1 NOT DUP4 SLOAD AND SWAP2 AND OR SWAP1 SSTORE PUSH2 0x1149 DUP4 PUSH1 0x3 SLOAD PUSH2 0x14DA JUMP JUMPDEST PUSH1 0x3 SSTORE CALLER DUP12 MSTORE PUSH1 0x9 DUP9 MSTORE DUP9 DUP12 KECCAK256 PUSH2 0x1161 DUP9 DUP3 SLOAD PUSH2 0x14DA JUMP JUMPDEST SWAP1 SSTORE MLOAD SWAP3 MLOAD AND SWAP3 DUP8 MLOAD SWAP6 DUP7 MSTORE DUP7 DUP7 ADD MSTORE DUP7 DUP6 ADD MSTORE PUSH1 0x60 DUP5 ADD MSTORE PUSH1 0x80 DUP4 ADD MSTORE PUSH1 0xA0 DUP3 ADD MSTORE PUSH32 0xC16BE9A586414A157DD46B4D023AA9997A025DD1CBBAA67AC0C1B8273A5EAF55 PUSH1 0xC0 CALLER SWAP3 LOG2 PUSH1 0x5 SLOAD SWAP1 PUSH1 0x6 SLOAD SWAP1 DUP4 MLOAD SWAP3 DUP4 MSTORE DUP3 ADD MSTORE LOG1 DUP1 RETURN JUMPDEST PUSH1 0x1 SLOAD PUSH2 0x11D6 SWAP3 PUSH1 0x1 PUSH1 0x1 PUSH1 0xA0 SHL SUB SWAP1 SWAP2 AND SWAP1 PUSH2 0x158C JUMP JUMPDEST DUP10 DUP1 PUSH2 0x106C JUMP JUMPDEST PUSH8 0xDE0B6B3A7640000 DUP1 DUP14 MUL SWAP1 DUP14 DUP3 DIV EQ DUP14 ISZERO OR ISZERO PUSH2 0x123C JUMPI SWAP12 PUSH2 0x1231 PUSH2 0x1229 PUSH2 0x1063 SWAP4 PUSH32 0x4DA3ECB883947EA77EBD33E070098952E71FB76B23C093DAB6B4F51916FE993E SWAP15 SWAP16 PUSH2 0x14AD JUMP JUMPDEST PUSH1 0x6 SLOAD PUSH2 0x14DA JUMP JUMPDEST PUSH1 0x6 SSTORE SWAP12 SWAP11 POP PUSH2 0x1034 JUMP JUMPDEST PUSH4 0x4E487B71 PUSH1 0xE0 SHL DUP13 MSTORE PUSH1 0x11 DUP7 MSTORE PUSH1 0x24 DUP13 REVERT JUMPDEST DUP4 MLOAD PUSH3 0x461BCD PUSH1 0xE5 SHL DUP2 MSTORE DUP1 DUP8 ADD DUP5 SWAP1 MSTORE PUSH1 0x13 PUSH1 0x24 DUP3 ADD MSTORE PUSH19 0x494E56414C49445F4C4F434B5F43484F494345 PUSH1 0x68 SHL PUSH1 0x44 DUP3 ADD MSTORE PUSH1 0x64 SWAP1 REVERT JUMPDEST DUP5 MLOAD PUSH3 0x461BCD PUSH1 0xE5 SHL DUP2 MSTORE DUP1 DUP9 ADD DUP6 SWAP1 MSTORE PUSH1 0xF PUSH1 0x24 DUP3 ADD MSTORE PUSH15 0x504F534954494F4E5F455849535453 PUSH1 0x88 SHL PUSH1 0x44 DUP3 ADD MSTORE PUSH1 0x64 SWAP1 REVERT JUMPDEST DUP5 DUP1 REVERT JUMPDEST DUP4 SWAP1 CALLVALUE PUSH2 0x27D JUMPI DUP3 PUSH1 0x3 NOT CALLDATASIZE ADD SLT PUSH2 0x27D JUMPI PUSH2 0x12DB PUSH2 0x13FB JUMP JUMPDEST DUP3 SLOAD PUSH1 0x24 CALLDATALOAD SWAP3 PUSH1 0x1 PUSH1 0x1 PUSH1 0xA0 SHL SUB SWAP2 DUP3 AND SWAP3 SWAP2 PUSH2 0x12F9 CALLER DUP6 EQ PUSH2 0x1A0B JUMP JUMPDEST DUP1 PUSH32 0x0 AND SWAP3 AND SWAP2 DUP1 DUP4 EQ SWAP1 DUP2 ISZERO SWAP2 PUSH2 0x137B JUMPI JUMPDEST POP ISZERO PUSH2 0x1340 JUMPI POP PUSH2 0x133D SWAP4 SWAP5 POP PUSH2 0x158C JUMP JUMPDEST DUP1 RETURN JUMPDEST PUSH1 0x64 SWAP1 PUSH1 0x20 DUP8 MLOAD SWAP2 PUSH3 0x461BCD PUSH1 0xE5 SHL DUP4 MSTORE DUP3 ADD MSTORE PUSH1 0x15 PUSH1 0x24 DUP3 ADD MSTORE PUSH21 0x10D0539393D517D49150D3D5915497D4D51052D151 PUSH1 0x5A SHL PUSH1 0x44 DUP3 ADD MSTORE REVERT JUMPDEST DUP8 MLOAD PUSH4 0x70A08231 PUSH1 0xE0 SHL DUP2 MSTORE ADDRESS DUP5 DUP3 ADD MSTORE SWAP2 POP PUSH1 0x20 SWAP1 DUP3 SWAP1 PUSH1 0x24 SWAP1 DUP3 SWAP1 GAS STATICCALL DUP1 ISZERO PUSH2 0x13F1 JUMPI DUP7 SWAP1 PUSH2 0x13BE JUMPI JUMPDEST PUSH2 0x13B5 SWAP2 POP PUSH1 0x3 SLOAD SWAP1 PUSH2 0x14CD JUMP JUMPDEST DUP5 GT ISZERO DUP8 PUSH2 0x132B JUMP JUMPDEST POP PUSH1 0x20 DUP2 RETURNDATASIZE DUP3 GT PUSH2 0x13E9 JUMPI JUMPDEST DUP2 PUSH2 0x13D7 PUSH1 0x20 SWAP4 DUP4 PUSH2 0x1552 JUMP JUMPDEST DUP2 ADD SUB SLT PUSH2 0x3F0 JUMPI PUSH2 0x13B5 SWAP1 MLOAD PUSH2 0x13A7 JUMP JUMPDEST RETURNDATASIZE SWAP2 POP PUSH2 0x13CA JUMP JUMPDEST DUP8 MLOAD RETURNDATASIZE DUP9 DUP3 RETURNDATACOPY RETURNDATASIZE SWAP1 REVERT JUMPDEST PUSH1 0x4 CALLDATALOAD SWAP1 PUSH1 0x1 PUSH1 0x1 PUSH1 0xA0 SHL SUB DUP3 AND DUP3 SUB PUSH2 0x1411 JUMPI JUMP JUMPDEST PUSH1 0x0 DUP1 REVERT JUMPDEST CALLVALUE PUSH2 0x1411 JUMPI PUSH1 0x0 CALLDATASIZE PUSH1 0x3 NOT ADD SLT PUSH2 0x1411 JUMPI PUSH1 0x20 PUSH1 0x40 MLOAD PUSH2 0x1F4 DUP2 MSTORE RETURN JUMPDEST ISZERO PUSH2 0x143A JUMPI JUMP JUMPDEST PUSH1 0x40 MLOAD PUSH3 0x461BCD PUSH1 0xE5 SHL DUP2 MSTORE PUSH1 0x20 PUSH1 0x4 DUP3 ADD MSTORE PUSH1 0xB PUSH1 0x24 DUP3 ADD MSTORE PUSH11 0x414D4F554E545F5A45524F PUSH1 0xA8 SHL PUSH1 0x44 DUP3 ADD MSTORE PUSH1 0x64 SWAP1 REVERT JUMPDEST SWAP1 PUSH2 0x1F4 SWAP2 DUP3 DUP2 MUL SWAP3 DUP2 DUP5 DIV EQ SWAP1 ISZERO OR ISZERO PUSH2 0x1484 JUMPI JUMP JUMPDEST PUSH4 0x4E487B71 PUSH1 0xE0 SHL PUSH1 0x0 MSTORE PUSH1 0x11 PUSH1 0x4 MSTORE PUSH1 0x24 PUSH1 0x0 REVERT JUMPDEST DUP2 DUP2 MUL SWAP3 SWAP2 DUP2 ISZERO SWAP2 DUP5 DIV EQ OR ISZERO PUSH2 0x1484 JUMPI JUMP JUMPDEST DUP2 ISZERO PUSH2 0x14B7 JUMPI DIV SWAP1 JUMP JUMPDEST PUSH4 0x4E487B71 PUSH1 0xE0 SHL PUSH1 0x0 MSTORE PUSH1 0x12 PUSH1 0x4 MSTORE PUSH1 0x24 PUSH1 0x0 REVERT JUMPDEST SWAP2 SWAP1 DUP3 SUB SWAP2 DUP3 GT PUSH2 0x1484 JUMPI JUMP JUMPDEST SWAP2 SWAP1 DUP3 ADD DUP1 SWAP3 GT PUSH2 0x1484 JUMPI JUMP JUMPDEST PUSH2 0x120 DUP2 ADD SWAP1 DUP2 LT PUSH8 0xFFFFFFFFFFFFFFFF DUP3 GT OR PUSH2 0x1504 JUMPI PUSH1 0x40 MSTORE JUMP JUMPDEST PUSH4 0x4E487B71 PUSH1 0xE0 SHL PUSH1 0x0 MSTORE PUSH1 0x41 PUSH1 0x4 MSTORE PUSH1 0x24 PUSH1 0x0 REVERT JUMPDEST PUSH1 0x80 DUP2 ADD SWAP1 DUP2 LT PUSH8 0xFFFFFFFFFFFFFFFF DUP3 GT OR PUSH2 0x1504 JUMPI PUSH1 0x40 MSTORE JUMP JUMPDEST PUSH1 0x40 DUP2 ADD SWAP1 DUP2 LT PUSH8 0xFFFFFFFFFFFFFFFF DUP3 GT OR PUSH2 0x1504 JUMPI PUSH1 0x40 MSTORE JUMP JUMPDEST SWAP1 PUSH1 0x1F DUP1 NOT SWAP2 ADD AND DUP2 ADD SWAP1 DUP2 LT PUSH8 0xFFFFFFFFFFFFFFFF DUP3 GT OR PUSH2 0x1504 JUMPI PUSH1 0x40 MSTORE JUMP JUMPDEST SWAP1 DUP2 PUSH1 0x20 SWAP2 SUB SLT PUSH2 0x1411 JUMPI MLOAD DUP1 ISZERO ISZERO DUP2 SUB PUSH2 0x1411 JUMPI SWAP1 JUMP JUMPDEST PUSH1 0x40 MLOAD PUSH4 0xA9059CBB PUSH1 0xE0 SHL DUP2 MSTORE PUSH1 0x1 PUSH1 0x1 PUSH1 0xA0 SHL SUB SWAP3 DUP4 AND PUSH1 0x4 DUP3 ADD MSTORE PUSH1 0x24 DUP2 ADD SWAP4 SWAP1 SWAP4 MSTORE PUSH1 0x20 SWAP2 DUP4 SWAP2 PUSH1 0x44 SWAP2 DUP4 SWAP2 PUSH1 0x0 SWAP2 AND GAS CALL SWAP1 DUP2 ISZERO PUSH2 0x163D JUMPI PUSH1 0x0 SWAP2 PUSH2 0x160F JUMPI JUMPDEST POP ISZERO PUSH2 0x15D8 JUMPI JUMP JUMPDEST PUSH1 0x40 MLOAD PUSH3 0x461BCD PUSH1 0xE5 SHL DUP2 MSTORE PUSH1 0x20 PUSH1 0x4 DUP3 ADD MSTORE PUSH1 0xF PUSH1 0x24 DUP3 ADD MSTORE PUSH15 0x1514905394D1915497D19052531151 PUSH1 0x8A SHL PUSH1 0x44 DUP3 ADD MSTORE PUSH1 0x64 SWAP1 REVERT JUMPDEST PUSH2 0x1630 SWAP2 POP PUSH1 0x20 RETURNDATASIZE DUP2 GT PUSH2 0x1636 JUMPI JUMPDEST PUSH2 0x1628 DUP2 DUP4 PUSH2 0x1552 JUMP JUMPDEST DUP2 ADD SWAP1 PUSH2 0x1574 JUMP JUMPDEST CODESIZE PUSH2 0x15D0 JUMP JUMPDEST POP RETURNDATASIZE PUSH2 0x161E JUMP JUMPDEST PUSH1 0x40 MLOAD RETURNDATASIZE PUSH1 0x0 DUP3 RETURNDATACOPY RETURNDATASIZE SWAP1 REVERT JUMPDEST PUSH1 0x40 MLOAD PUSH4 0x23B872DD PUSH1 0xE0 SHL DUP2 MSTORE PUSH1 0x1 PUSH1 0x1 PUSH1 0xA0 SHL SUB SWAP3 DUP4 AND PUSH1 0x4 DUP3 ADD MSTORE SWAP3 DUP3 AND PUSH1 0x24 DUP5 ADD MSTORE PUSH1 0x44 DUP4 ADD SWAP4 SWAP1 SWAP4 MSTORE SWAP1 SWAP2 PUSH1 0x20 SWAP2 DUP4 SWAP2 PUSH1 0x64 SWAP2 DUP4 SWAP2 PUSH1 0x0 SWAP2 AND GAS CALL SWAP1 DUP2 ISZERO PUSH2 0x163D JUMPI PUSH1 0x0 SWAP2 PUSH2 0x16DB JUMPI JUMPDEST POP ISZERO PUSH2 0x169F JUMPI JUMP JUMPDEST PUSH1 0x40 MLOAD PUSH3 0x461BCD PUSH1 0xE5 SHL DUP2 MSTORE PUSH1 0x20 PUSH1 0x4 DUP3 ADD MSTORE PUSH1 0x14 PUSH1 0x24 DUP3 ADD MSTORE PUSH20 0x1514905394D1915497D19493D357D19052531151 PUSH1 0x62 SHL PUSH1 0x44 DUP3 ADD MSTORE PUSH1 0x64 SWAP1 REVERT JUMPDEST PUSH2 0x16F3 SWAP2 POP PUSH1 0x20 RETURNDATASIZE DUP2 GT PUSH2 0x1636 JUMPI PUSH2 0x1628 DUP2 DUP4 PUSH2 0x1552 JUMP JUMPDEST CODESIZE PUSH2 0x1697 JUMP JUMPDEST ISZERO PUSH2 0x1700 JUMPI JUMP JUMPDEST PUSH1 0x40 MLOAD PUSH3 0x461BCD PUSH1 0xE5 SHL DUP2 MSTORE PUSH1 0x20 PUSH1 0x4 DUP3 ADD MSTORE PUSH1 0x12 PUSH1 0x24 DUP3 ADD MSTORE PUSH18 0x2727AFA0A1AA24AB22AFA827A9A4AA24A7A7 PUSH1 0x71 SHL PUSH1 0x44 DUP3 ADD MSTORE PUSH1 0x64 SWAP1 REVERT JUMPDEST PUSH1 0x1 PUSH1 0x1 PUSH1 0xA0 SHL SUB AND PUSH1 0x0 SWAP1 DUP2 MSTORE PUSH1 0x7 PUSH1 0x20 MSTORE PUSH1 0x40 DUP1 DUP3 KECCAK256 SWAP1 MLOAD SWAP2 SWAP3 DUP4 SWAP2 PUSH2 0x1761 DUP5 PUSH2 0x14E7 JUMP JUMPDEST DUP1 SLOAD DUP5 MSTORE PUSH1 0x1 DUP2 ADD SLOAD SWAP5 DUP6 PUSH1 0x20 DUP7 ADD MSTORE PUSH1 0x2 DUP3 ADD SLOAD SWAP5 PUSH1 0x40 DUP2 ADD SWAP6 DUP7 MSTORE PUSH1 0x3 DUP4 ADD SLOAD PUSH1 0x60 DUP3 ADD SWAP1 DUP2 MSTORE PUSH1 0x4 DUP5 ADD SLOAD SWAP1 PUSH1 0x80 DUP4 ADD SWAP2 DUP3 MSTORE PUSH1 0x5 DUP6 ADD SLOAD PUSH1 0xA0 DUP5 ADD SWAP1 DUP2 MSTORE PUSH1 0x6 DUP7 ADD SLOAD SWAP10 PUSH1 0xC0 DUP6 ADD SWAP11 DUP12 MSTORE PUSH1 0xFF PUSH1 0x8 PUSH1 0x7 DUP10 ADD SLOAD SWAP9 PUSH1 0xE0 DUP9 ADD SWAP10 DUP11 MSTORE ADD SLOAD AND ISZERO DUP1 ISZERO PUSH2 0x100 DUP8 ADD MSTORE PUSH2 0x18DE JUMPI PUSH2 0x17DB SWAP1 TIMESTAMP PUSH2 0x14CD JUMP JUMPDEST SWAP3 PUSH2 0x17FA DUP6 MLOAD SWAP5 PUSH2 0x17F5 PUSH5 0x496CEBB800 SWAP7 DUP8 SWAP5 MLOAD SWAP1 PUSH2 0x149A JUMP JUMPDEST PUSH2 0x149A JUMP JUMPDEST DIV SWAP10 PUSH8 0xDE0B6B3A7640000 PUSH2 0x1813 DUP7 MLOAD PUSH1 0x6 SLOAD SWAP1 PUSH2 0x149A JUMP JUMPDEST DIV SWAP1 MLOAD DUP1 DUP3 GT PUSH1 0x0 EQ PUSH2 0x18D5 JUMPI PUSH2 0x1829 SWAP2 PUSH2 0x14CD JUMP JUMPDEST SWAP4 JUMPDEST DUP5 SWAP10 MLOAD TIMESTAMP LT ISZERO PUSH2 0x18A7 JUMPI JUMPDEST POP POP POP POP DUP5 PUSH2 0xAEF PUSH2 0x1848 SWAP3 DUP10 PUSH2 0x14DA JUMP JUMPDEST SWAP2 MLOAD SWAP1 DUP2 DUP4 GT ISZERO PUSH2 0x189B JUMPI POP PUSH2 0x185E SWAP1 DUP3 PUSH2 0x14CD JUMP JUMPDEST DUP2 PUSH2 0x1867 JUMPI POP POP JUMP JUMPDEST DUP1 PUSH2 0x1892 DUP4 PUSH2 0x1887 DUP4 PUSH2 0x188C DUP4 PUSH2 0x1887 PUSH2 0x1887 SWAP9 PUSH2 0x1898 SWAP12 SWAP13 SWAP14 SWAP15 PUSH2 0x149A JUMP JUMPDEST PUSH2 0x14AD JUMP JUMPDEST SWAP11 PUSH2 0x149A JUMP JUMPDEST SWAP6 PUSH2 0x149A JUMP JUMPDEST SWAP1 JUMP JUMPDEST SWAP6 POP DUP6 SWAP5 POP DUP5 SWAP4 POP POP POP JUMP JUMPDEST PUSH2 0xAEF SWAP9 POP SWAP2 PUSH2 0x18C3 PUSH2 0x18CB SWAP3 PUSH2 0x1848 SWAP7 SWAP6 SWAP5 MLOAD SWAP1 MLOAD SWAP1 PUSH2 0x149A JUMP JUMPDEST SWAP1 MLOAD SWAP1 PUSH2 0x149A JUMP JUMPDEST DIV SWAP6 DUP2 SWAP3 CODESIZE PUSH2 0x1836 JUMP JUMPDEST POP POP DUP5 SWAP4 PUSH2 0x182B JUMP JUMPDEST POP POP POP POP POP SWAP4 POP POP SWAP3 POP POP DUP1 SWAP2 DUP2 SWAP1 JUMP JUMPDEST PUSH1 0x40 MLOAD SWAP1 PUSH2 0x18FC DUP3 PUSH2 0x151A JUMP JUMPDEST PUSH1 0x60 DUP1 DUP4 PUSH1 0x0 DUP2 MSTORE PUSH1 0x0 PUSH1 0x20 DUP3 ADD MSTORE PUSH1 0x0 PUSH1 0x40 DUP3 ADD MSTORE ADD MSTORE JUMP JUMPDEST PUSH1 0xFF SWAP1 PUSH2 0x1921 PUSH2 0x18EF JUMP JUMPDEST POP AND DUP1 PUSH2 0x1971 JUMPI POP PUSH1 0x40 MLOAD PUSH2 0x1935 DUP2 PUSH2 0x151A JUMP JUMPDEST PUSH3 0x127500 DUP2 MSTORE PUSH2 0x1F4 PUSH1 0x20 DUP3 ADD MSTORE PUSH1 0x64 PUSH1 0x40 DUP3 ADD MSTORE PUSH1 0x40 MLOAD PUSH2 0x1956 DUP2 PUSH2 0x1536 JUMP JUMPDEST PUSH1 0x6 DUP2 MSTORE PUSH6 0x42726F6E7A65 PUSH1 0xD0 SHL PUSH1 0x20 DUP3 ADD MSTORE PUSH1 0x60 DUP3 ADD MSTORE SWAP1 JUMP JUMPDEST PUSH1 0x1 SUB PUSH2 0x19C1 JUMPI PUSH1 0x40 MLOAD PUSH2 0x1984 DUP2 PUSH2 0x151A JUMP JUMPDEST PUSH3 0x278D00 DUP2 MSTORE PUSH2 0x4B0 PUSH1 0x20 DUP3 ADD MSTORE PUSH2 0x12C PUSH1 0x40 DUP3 ADD MSTORE PUSH1 0x40 MLOAD PUSH2 0x19A6 DUP2 PUSH2 0x1536 JUMP JUMPDEST PUSH1 0x6 DUP2 MSTORE PUSH6 0x29B4B63B32B9 PUSH1 0xD1 SHL PUSH1 0x20 DUP3 ADD MSTORE PUSH1 0x60 DUP3 ADD MSTORE SWAP1 JUMP JUMPDEST PUSH1 0x40 MLOAD PUSH2 0x19CD DUP2 PUSH2 0x151A JUMP JUMPDEST PUSH3 0x76A700 DUP2 MSTORE PUSH2 0x9C4 PUSH1 0x20 DUP3 ADD MSTORE PUSH2 0x320 PUSH1 0x40 DUP3 ADD MSTORE PUSH1 0x40 MLOAD PUSH2 0x19EF DUP2 PUSH2 0x1536 JUMP JUMPDEST PUSH1 0x7 DUP2 MSTORE PUSH7 0x111A585B5BDB99 PUSH1 0xCA SHL PUSH1 0x20 DUP3 ADD MSTORE PUSH1 0x60 DUP3 ADD MSTORE SWAP1 JUMP JUMPDEST ISZERO PUSH2 0x1A12 JUMPI JUMP JUMPDEST PUSH1 0x40 MLOAD PUSH3 0x461BCD PUSH1 0xE5 SHL DUP2 MSTORE PUSH1 0x20 PUSH1 0x4 DUP3 ADD MSTORE PUSH1 0x9 PUSH1 0x24 DUP3 ADD MSTORE PUSH9 0x2727AA2FA7ABA722A9 PUSH1 0xB9 SHL PUSH1 0x44 DUP3 ADD MSTORE PUSH1 0x64 SWAP1 REVERT JUMPDEST ISZERO PUSH2 0x1A4A JUMPI JUMP JUMPDEST PUSH1 0x40 MLOAD PUSH3 0x461BCD PUSH1 0xE5 SHL DUP2 MSTORE PUSH1 0x20 PUSH1 0x4 DUP3 ADD MSTORE PUSH1 0xC PUSH1 0x24 DUP3 ADD MSTORE PUSH12 0x5A45524F5F41444452455353 PUSH1 0xA0 SHL PUSH1 0x44 DUP3 ADD MSTORE PUSH1 0x64 SWAP1 REVERT INVALID LOG2 PUSH5 0x6970667358 0x22 SLT KECCAK256 0xF7 LOG2 SWAP16 0xAD 0xBD 0xBF PUSH18 0x40A60FA3E2B60DED8B9355852F6C11B80ED0 0xAD 0x25 PUSH27 0xFDA4572264736F6C63430008140033000000000000000000000000 "},"methodIdentifiers":{"APR_14_DAYS()":"ab22a25f","APR_30_DAYS()":"e74eaf80","APR_90_DAYS()":"618c9434","BPS_DENOM()":"6637e38c","DIAMOND_BONUS_14()":"8ba16fa8","DIAMOND_BONUS_30()":"2c9b4fd3","DIAMOND_BONUS_90()":"ba1e1651","EMERGENCY_PENALTY_BPS()":"8f9bcee8","ENTRY_FEE_BPS()":"9089ad0e","EXIT_FEE_BPS()":"324d8438","LOCK_14_DAYS()":"40df876b","LOCK_30_DAYS()":"7c6e5db7","LOCK_90_DAYS()":"e37c3a55","PRECISION()":"aaf5eb68","SECONDS_PER_YEAR()":"e6a69ab8","accFeePerShare()":"dd3b829a","calculateAllRewards(address)":"79a59c13","claimRewards()":"372500ab","dtgcToken()":"9f76ab7c","emergencyWithdraw()":"db2e21bc","feePool()":"ae2e933b","feeRecipient()":"46904840","fundRewardPool(uint256)":"1d583e0d","getContractStats()":"dfe6b5d6","getPosition(address)":"16c19739","getTiers()":"de170570","lifetimeRewards(address)":"1d336d62","lifetimeStaked(address)":"36fecffa","owner()":"8da5cb5b","positions(address)":"55f57510","recoverTokens(address,uint256)":"069c9fae","rewardPool()":"66666aa9","setFeeRecipient(address)":"e74b981b","stake(uint256,uint8)":"10087fb1","totalRewardsDistributed()":"ee172546","totalStaked()":"817b1cd2","transferOwnership(address)":"f2fde38b","withdraw()":"3ccfd60b"}}}}}