{
  "_format": "hh-sol-artifact-1",
  "contractName": "DTGCLPStaking",
  "sourceName": "contracts/DTGCLPStaking.sol",
  "abi": [
    {
      "inputs": [
        {
          "internalType": "address",
          "name": "_lpToken",
          "type": "address"
        },
        {
          "internalType": "address",
          "name": "_rewardToken",
          "type": "address"
        },
        {
          "internalType": "address",
          "name": "_treasury",
          "type": "address"
        }
      ],
      "stateMutability": "nonpayable",
      "type": "constructor"
    },
    {
      "anonymous": false,
      "inputs": [
        {
          "indexed": true,
          "internalType": "address",
          "name": "oldOwner",
          "type": "address"
        },
        {
          "indexed": true,
          "internalType": "address",
          "name": "newOwner",
          "type": "address"
        }
      ],
      "name": "OwnershipTransferred",
      "type": "event"
    },
    {
      "anonymous": false,
      "inputs": [
        {
          "indexed": false,
          "internalType": "uint256",
          "name": "reward",
          "type": "uint256"
        }
      ],
      "name": "RewardAdded",
      "type": "event"
    },
    {
      "anonymous": false,
      "inputs": [
        {
          "indexed": true,
          "internalType": "address",
          "name": "user",
          "type": "address"
        },
        {
          "indexed": false,
          "internalType": "uint256",
          "name": "reward",
          "type": "uint256"
        }
      ],
      "name": "RewardClaimed",
      "type": "event"
    },
    {
      "anonymous": false,
      "inputs": [
        {
          "indexed": false,
          "internalType": "uint256",
          "name": "newDuration",
          "type": "uint256"
        }
      ],
      "name": "RewardsDurationUpdated",
      "type": "event"
    },
    {
      "anonymous": false,
      "inputs": [
        {
          "indexed": true,
          "internalType": "address",
          "name": "user",
          "type": "address"
        },
        {
          "indexed": false,
          "internalType": "uint256",
          "name": "amount",
          "type": "uint256"
        }
      ],
      "name": "Staked",
      "type": "event"
    },
    {
      "anonymous": false,
      "inputs": [
        {
          "indexed": true,
          "internalType": "address",
          "name": "newTreasury",
          "type": "address"
        }
      ],
      "name": "TreasuryUpdated",
      "type": "event"
    },
    {
      "anonymous": false,
      "inputs": [
        {
          "indexed": true,
          "internalType": "address",
          "name": "user",
          "type": "address"
        },
        {
          "indexed": false,
          "internalType": "uint256",
          "name": "amount",
          "type": "uint256"
        }
      ],
      "name": "Withdrawn",
      "type": "event"
    },
    {
      "inputs": [],
      "name": "BOOST_PERIOD",
      "outputs": [
        {
          "internalType": "uint256",
          "name": "",
          "type": "uint256"
        }
      ],
      "stateMutability": "view",
      "type": "function"
    },
    {
      "inputs": [],
      "name": "BOOST_PRECISION",
      "outputs": [
        {
          "internalType": "uint256",
          "name": "",
          "type": "uint256"
        }
      ],
      "stateMutability": "view",
      "type": "function"
    },
    {
      "inputs": [],
      "name": "MAX_BOOST",
      "outputs": [
        {
          "internalType": "uint256",
          "name": "",
          "type": "uint256"
        }
      ],
      "stateMutability": "view",
      "type": "function"
    },
    {
      "inputs": [],
      "name": "claimReward",
      "outputs": [],
      "stateMutability": "nonpayable",
      "type": "function"
    },
    {
      "inputs": [
        {
          "internalType": "uint256",
          "name": "additionalLP",
          "type": "uint256"
        }
      ],
      "name": "compound",
      "outputs": [],
      "stateMutability": "nonpayable",
      "type": "function"
    },
    {
      "inputs": [
        {
          "internalType": "address",
          "name": "account",
          "type": "address"
        }
      ],
      "name": "earned",
      "outputs": [
        {
          "internalType": "uint256",
          "name": "",
          "type": "uint256"
        }
      ],
      "stateMutability": "view",
      "type": "function"
    },
    {
      "inputs": [],
      "name": "exit",
      "outputs": [],
      "stateMutability": "nonpayable",
      "type": "function"
    },
    {
      "inputs": [
        {
          "internalType": "address",
          "name": "account",
          "type": "address"
        }
      ],
      "name": "getBoostMultiplier",
      "outputs": [
        {
          "internalType": "uint256",
          "name": "",
          "type": "uint256"
        }
      ],
      "stateMutability": "view",
      "type": "function"
    },
    {
      "inputs": [],
      "name": "getCurrentAPR",
      "outputs": [
        {
          "internalType": "uint256",
          "name": "",
          "type": "uint256"
        }
      ],
      "stateMutability": "view",
      "type": "function"
    },
    {
      "inputs": [],
      "name": "getRewardForDuration",
      "outputs": [
        {
          "internalType": "uint256",
          "name": "",
          "type": "uint256"
        }
      ],
      "stateMutability": "view",
      "type": "function"
    },
    {
      "inputs": [
        {
          "internalType": "address",
          "name": "account",
          "type": "address"
        }
      ],
      "name": "getUserInfo",
      "outputs": [
        {
          "internalType": "uint256",
          "name": "stakedAmount",
          "type": "uint256"
        },
        {
          "internalType": "uint256",
          "name": "pendingRewards",
          "type": "uint256"
        },
        {
          "internalType": "uint256",
          "name": "boostMultiplier",
          "type": "uint256"
        },
        {
          "internalType": "uint256",
          "name": "stakeDuration",
          "type": "uint256"
        },
        {
          "internalType": "uint256",
          "name": "totalClaimed",
          "type": "uint256"
        }
      ],
      "stateMutability": "view",
      "type": "function"
    },
    {
      "inputs": [],
      "name": "lastTimeRewardApplicable",
      "outputs": [
        {
          "internalType": "uint256",
          "name": "",
          "type": "uint256"
        }
      ],
      "stateMutability": "view",
      "type": "function"
    },
    {
      "inputs": [],
      "name": "lastUpdateTime",
      "outputs": [
        {
          "internalType": "uint256",
          "name": "",
          "type": "uint256"
        }
      ],
      "stateMutability": "view",
      "type": "function"
    },
    {
      "inputs": [],
      "name": "lpToken",
      "outputs": [
        {
          "internalType": "contract IPRC20",
          "name": "",
          "type": "address"
        }
      ],
      "stateMutability": "view",
      "type": "function"
    },
    {
      "inputs": [
        {
          "internalType": "uint256",
          "name": "reward",
          "type": "uint256"
        }
      ],
      "name": "notifyRewardAmount",
      "outputs": [],
      "stateMutability": "nonpayable",
      "type": "function"
    },
    {
      "inputs": [],
      "name": "owner",
      "outputs": [
        {
          "internalType": "address",
          "name": "",
          "type": "address"
        }
      ],
      "stateMutability": "view",
      "type": "function"
    },
    {
      "inputs": [],
      "name": "periodFinish",
      "outputs": [
        {
          "internalType": "uint256",
          "name": "",
          "type": "uint256"
        }
      ],
      "stateMutability": "view",
      "type": "function"
    },
    {
      "inputs": [
        {
          "internalType": "address",
          "name": "token",
          "type": "address"
        },
        {
          "internalType": "uint256",
          "name": "amount",
          "type": "uint256"
        }
      ],
      "name": "recoverToken",
      "outputs": [],
      "stateMutability": "nonpayable",
      "type": "function"
    },
    {
      "inputs": [],
      "name": "rewardPerToken",
      "outputs": [
        {
          "internalType": "uint256",
          "name": "",
          "type": "uint256"
        }
      ],
      "stateMutability": "view",
      "type": "function"
    },
    {
      "inputs": [],
      "name": "rewardPerTokenStored",
      "outputs": [
        {
          "internalType": "uint256",
          "name": "",
          "type": "uint256"
        }
      ],
      "stateMutability": "view",
      "type": "function"
    },
    {
      "inputs": [],
      "name": "rewardRate",
      "outputs": [
        {
          "internalType": "uint256",
          "name": "",
          "type": "uint256"
        }
      ],
      "stateMutability": "view",
      "type": "function"
    },
    {
      "inputs": [],
      "name": "rewardToken",
      "outputs": [
        {
          "internalType": "contract IPRC20",
          "name": "",
          "type": "address"
        }
      ],
      "stateMutability": "view",
      "type": "function"
    },
    {
      "inputs": [],
      "name": "rewardsDuration",
      "outputs": [
        {
          "internalType": "uint256",
          "name": "",
          "type": "uint256"
        }
      ],
      "stateMutability": "view",
      "type": "function"
    },
    {
      "inputs": [
        {
          "internalType": "uint256",
          "name": "_rewardsDuration",
          "type": "uint256"
        }
      ],
      "name": "setRewardsDuration",
      "outputs": [],
      "stateMutability": "nonpayable",
      "type": "function"
    },
    {
      "inputs": [
        {
          "internalType": "address",
          "name": "_treasury",
          "type": "address"
        }
      ],
      "name": "setTreasury",
      "outputs": [],
      "stateMutability": "nonpayable",
      "type": "function"
    },
    {
      "inputs": [
        {
          "internalType": "uint256",
          "name": "amount",
          "type": "uint256"
        }
      ],
      "name": "stake",
      "outputs": [],
      "stateMutability": "nonpayable",
      "type": "function"
    },
    {
      "inputs": [],
      "name": "totalStaked",
      "outputs": [
        {
          "internalType": "uint256",
          "name": "",
          "type": "uint256"
        }
      ],
      "stateMutability": "view",
      "type": "function"
    },
    {
      "inputs": [
        {
          "internalType": "address",
          "name": "newOwner",
          "type": "address"
        }
      ],
      "name": "transferOwnership",
      "outputs": [],
      "stateMutability": "nonpayable",
      "type": "function"
    },
    {
      "inputs": [],
      "name": "treasury",
      "outputs": [
        {
          "internalType": "address",
          "name": "",
          "type": "address"
        }
      ],
      "stateMutability": "view",
      "type": "function"
    },
    {
      "inputs": [
        {
          "internalType": "address",
          "name": "",
          "type": "address"
        }
      ],
      "name": "userInfo",
      "outputs": [
        {
          "internalType": "uint256",
          "name": "amount",
          "type": "uint256"
        },
        {
          "internalType": "uint256",
          "name": "rewardPerTokenPaid",
          "type": "uint256"
        },
        {
          "internalType": "uint256",
          "name": "rewards",
          "type": "uint256"
        },
        {
          "internalType": "uint256",
          "name": "stakeTime",
          "type": "uint256"
        },
        {
          "internalType": "uint256",
          "name": "claimedRewards",
          "type": "uint256"
        }
      ],
      "stateMutability": "view",
      "type": "function"
    },
    {
      "inputs": [
        {
          "internalType": "uint256",
          "name": "amount",
          "type": "uint256"
        }
      ],
      "name": "withdraw",
      "outputs": [],
      "stateMutability": "nonpayable",
      "type": "function"
    }
  ],
  "bytecode": "0x60c034620001c457601f62001aa338819003918201601f191683019291906001600160401b03841183851017620001c9578160609284926040968752833981010312620001c4576200005181620001df565b6200006c836200006460208501620001df565b9301620001df565b6276a7006005556001600160a01b0391821692909190831562000190578116918215620001585716918215620001245760805260a05260018060a01b03199081600154161760015533906000541617600055516118ae9081620001f582396080518181816103e7015281816108f901528181610b6801528181610d3601528181610f8801526112e0015260a05181818161018a015281816104c1015281816107fe0152818161092101528181610c1601526110220152f35b835162461bcd60e51b815260206004820152600d60248201526c54524541535552595f5a45524f60981b6044820152606490fd5b845162461bcd60e51b81526020600482015260116024820152705245574152445f544f4b454e5f5a45524f60781b6044820152606490fd5b845162461bcd60e51b815260206004820152600d60248201526c4c505f544f4b454e5f5a45524f60981b6044820152606490fd5b600080fd5b634e487b7160e01b600052604160045260246000fd5b51906001600160a01b0382168203620001c45756fe6040608081526004908136101561001557600080fd5b600091823560e01c9081628cc262146114835781631792858f146114655781631959a002146113ee5781631c1f78eb146113ca57816321ae05c8146113ad5781632e1a7d4d14611236578163315865df14611219578163386a9525146111fa5781633c6b16ab14610fb75781635fcbd28514610f7357816361d027b314610f4a5781636386c1c714610e7d5781636f371efe14610e575781637b0a47ee14610e3857816380faa57d14610e1b578163817b1cd214610dfc5781638da5cb5b14610dd4578163a694fc3a14610cd1578163aa5f7e2614610aba578163b29a8140146108b9578163b88a802f1461076c578163c8f33c911461074d578163cc1a378f14610676578163cc6db2da14610659578163cd3daf9d14610635578163df136d6514610617578163e9fad8ee1461032f578163ebe2b12b14610310578163f0f4426014610266578163f2fde38b146101bd575063f7c618c11461017757600080fd5b346101b957816003193601126101b957517f00000000000000000000000000000000000000000000000000000000000000006001600160a01b03168152602090f35b5080fd5b905034610262576020366003190112610262576101d86114a9565b8354916001600160a01b03808416926101f2338514611840565b1693841561023257505082907f8be0079c531659141344cd1fd0a4f28419497f9722a3daafe3b4186f6b6457e08580a36001600160a01b03191617815580f35b906020606492519162461bcd60e51b8352820152600a6024820152694f574e45525f5a45524f60b01b6044820152fd5b8280fd5b905034610262576020366003190112610262576102816114a9565b83546001600160a01b03919061029a9083163314611840565b169182156102dd575050600180546001600160a01b031916821790557f7dae230f18360d76a040c81f050aa14eb9d6dc7901b20fc5d855e2a20fe814d18280a280f35b906020606492519162461bcd60e51b8352820152600d60248201526c54524541535552595f5a45524f60981b6044820152fd5b5050346101b957816003193601126101b9576020906006549051908152f35b9050346102625782600319360112610262573383526020600881528284205461035661153c565b83556103606114c4565b600355331515806105f3575b6103778215156117b0565b33865260088352848620828154106105b8578690610397846007546114d9565b6007556103a58482546114d9565b808255156105ad575b5050845163a9059cbb60e01b808252338683019081526020810185905290936001600160a01b039392909186908290819003604001818c7f000000000000000000000000000000000000000000000000000000000000000089165af180156105a357610421918a9161058c575b50611802565b86519081527f7084f5476618d8e60b11ef0d7d3f06914655adb8793e28ff7f018d4c76d505d5853392a261045361153c565b855561045d6114c4565b600355610568575b33865260088352848620600281019182549588876104805780f35b6104bd95828995838a98550161049786825461152f565b905589519081523392810192835260208301949094529294859384929091839160400190565b03927f0000000000000000000000000000000000000000000000000000000000000000165af190811561055e577f106f923f993c2149d49b4255ff723acafa1f2d94393f561d3eda32ae348f724193949161051e9187916105315750611802565b519283523392a238808080808080808880f35b6105519150843d8611610557575b61054981836115c5565b8101906117ea565b3861041b565b503d61053f565b84513d87823e3d90fd5b3386526008835284862061057b336116cd565b600282015560018554910155610465565b6105519150873d89116105575761054981836115c5565b88513d8b823e3d90fd5b6003015585386103ae565b5050925162461bcd60e51b8152918201526014602482015273494e53554646494349454e545f42414c414e434560601b604482015260649150fd5b33865260088352848620610606336116cd565b60028201556001855491015561036c565b90503461026257826003193601126102625760209250549051908152f35b5050346101b957816003193601126101b95760209061065261153c565b9051908152f35b5050346101b957816003193601126101b957602090516127108152f35b91905034610262576020366003190112610262578135916106a160018060a01b038554163314611840565b6006544211156107155782156106e35750816020917ffb46ca5a5e06d4540d6387b930a7c978bce0db5f449ec6b3f5d07c6e1d44f2d39360055551908152a180f35b6020606492519162461bcd60e51b8352820152600d60248201526c4455524154494f4e5f5a45524f60981b6044820152fd5b6020606492519162461bcd60e51b835282015260136024820152721411549253d117d393d517d192539254d21151606a1b6044820152fd5b5050346101b957816003193601126101b9576020906003549051908152f35b9190503461026257826003193601126102625761078761153c565b82556107916114c4565b60035533610894575b3383526008602052808320600281019084825494856107b7575080f35b8060209387936107f99655016107ce83825461152f565b9055845163a9059cbb60e01b8152339181019182526020820192909252909283918291604090910190565b0381877f00000000000000000000000000000000000000000000000000000000000000006001600160a01b03165af190811561088a57906108409185916108725750611802565b519081527f106f923f993c2149d49b4255ff723acafa1f2d94393f561d3eda32ae348f724160203392a2388080808480f35b610551915060203d81116105575761054981836115c5565b82513d86823e3d90fd5b33835260086020528083206108a8336116cd565b60028201556001835491015561079a565b839150346101b957826003193601126101b9576108d46114a9565b8254602435926001600160a01b03929183169183906108f4338514611840565b1692807f0000000000000000000000000000000000000000000000000000000000000000168414610a83577f000000000000000000000000000000000000000000000000000000000000000016808414908115916109ff575b50156109c357855163a9059cbb60e01b81526001600160a01b0390921690820190815260208181019490945290928592909184919082908790829060400103925af19081156109ba575061099f575080f35b6109b69060203d81116105575761054981836115c5565b5080f35b513d84823e3d90fd5b606490602087519162461bcd60e51b8352820152601660248201527543414e4e4f545f5245434f5645525f5245574152445360501b6044820152fd5b87516370a0823160e01b815230848201529150602090829060249082905afa8015610a79578690610a42575b610a399150600754906114d9565b8411158761094d565b506020813d8211610a71575b81610a5b602093836115c5565b81010312610a6d57610a399051610a2b565b8580fd5b3d9150610a4e565b87513d88823e3d90fd5b865162461bcd60e51b81526020818401526011602482015270043414e4e4f545f5245434f5645525f4c5607c1b6044820152606490fd5b90503461026257602080600319360112610ccd57813591610ad961153c565b8155610ae36114c4565b60035533610ca9575b3385526008825283852090600282018681549182610bdd575b50505083610b11578580f35b838391610b6393610b248360075461152f565b600755610b3283825461152f565b905586516323b872dd60e01b8152339181019182523060208301526040820192909252909283918291606090910190565b0381887f00000000000000000000000000000000000000000000000000000000000000006001600160a01b03165af190811561055e577f9e71bc8eea02a63969f509818f2dafb9254532904319f9dbda79b67bd34a5f3d939491610bcd9187916105315750611802565b519283523392a238808080808580f35b55818301610bec82825461152f565b9055855163a9059cbb60e01b8152338382019081526020810183905285908290819060400103818b7f00000000000000000000000000000000000000000000000000000000000000006001600160a01b03165af18015610c9f57610c56918991610c885750611802565b85519081527f106f923f993c2149d49b4255ff723acafa1f2d94393f561d3eda32ae348f7241843392a2388681610b05565b6105519150863d88116105575761054981836115c5565b87513d8a823e3d90fd5b33855260088252838520610cbc336116cd565b600282015560018254910155610aec565b8380fd5b90503461026257602080600319360112610ccd57610d318183358094610cf561153c565b8155610cff6114c4565b60035533610db0575b610d138215156117b0565b33885260088352868820805415610da5575b610b248360075461152f565b0381887f00000000000000000000000000000000000000000000000000000000000000006001600160a01b03165af190811561055e577f9e71bc8eea02a63969f509818f2dafb9254532904319f9dbda79b67bd34a5f3d939491610d9b9187916105315750611802565b519283523392a280f35b426003820155610d25565b33885260088352868820610dc3336116cd565b600282015560018254910155610d08565b5050346101b957816003193601126101b957905490516001600160a01b039091168152602090f35b5050346101b957816003193601126101b9576020906007549051908152f35b5050346101b957816003193601126101b9576020906106526114c4565b5050346101b957816003193601126101b9576020906002549051908152f35b5050346101b95760203660031901126101b957602090610652610e786114a9565b6115e7565b9190503461026257602036600319011261026257610f3f90610e9d6114a9565b6001600160a01b0381168552600860205281852082519195610ebe83611593565b6080825496878552600184015460208601526002840154868601526003840154936060860194855201549301928352610eff610ef9886116cd565b976115e7565b91518015610f4357610f129150426114d9565b915b519251958695869192608093969594919660a084019784526020840152604083015260608201520152565b0390f35b5091610f14565b5050346101b957816003193601126101b95760015490516001600160a01b039091168152602090f35b5050346101b957816003193601126101b957517f00000000000000000000000000000000000000000000000000000000000000006001600160a01b03168152602090f35b839150346101b957602090816003193601126102625780359060018060a01b03610fe5818654163314611840565b610fed61153c565b8255610ff76114c4565b60035582156111c95785516323b872dd60e01b815233838201908152306020820152604081018590527f00000000000000000000000000000000000000000000000000000000000000009290921691859082908190606001038189865af1908115610a79579161107286926024959489916111ac5750611802565b60065442811161117857506110896005548661150f565b6002555b87516370a0823160e01b8152308482015293849182905afa91821561116e57859261113b575b506002546110c4600554809461150f565b106111065750936110fb7fde88a922e0d3b88b24e9623efeb464919c6bf9f66857a65e2bfcf2ce87a9433d9495426003554261152f565b60065551908152a180f35b855162461bcd60e51b8152908101849052600f60248201526e0a48aae82a488bea89e9ebe90928e9608b1b6044820152606490fd5b9091508381813d8311611167575b61115381836115c5565b81010312611163575190866110b3565b8480fd5b503d611149565b86513d87823e3d90fd5b61119b61119561118c6111a49342906114d9565b600254906114fc565b8761152f565b6005549061150f565b60025561108d565b6111c39150843d86116105575761054981836115c5565b8a61041b565b855162461bcd60e51b8152808301859052600b60248201526a5245574152445f5a45524f60a81b6044820152606490fd5b5050346101b957816003193601126101b9576020906005549051908152f35b5050346101b957816003193601126101b95760209051614e208152f35b90503461026257602080600319360112610ccd5781359161125561153c565b815561125f6114c4565b60035533611389575b6112738315156117b0565b338552600882528385208381541061135057836112db92878593611299846007546114d9565b6007556112a78482546114d9565b80825515611345575b5050865163a9059cbb60e01b8152339181019182526020820192909252909283918291604090910190565b0381887f00000000000000000000000000000000000000000000000000000000000000006001600160a01b03165af190811561055e577f7084f5476618d8e60b11ef0d7d3f06914655adb8793e28ff7f018d4c76d505d5939491610d9b9187916105315750611802565b6003015587386112b0565b5060649184519162461bcd60e51b83528201526014602482015273494e53554646494349454e545f42414c414e434560601b6044820152fd5b3385526008825283852061139c336116cd565b600282015560018254910155611268565b5050346101b957816003193601126101b957602090610652611767565b5050346101b957816003193601126101b957602090610652600254600554906114fc565b82843461146257602036600319011261146257610f3f9082906001600160a01b036114176114a9565b1681526008602052209182549260018101549460028201549060038301549201549251958695869192608093969594919660a084019784526020840152604083015260608201520152565b80fd5b5050346101b957816003193601126101b957602090516276a7008152f35b5050346101b95760203660031901126101b9576020906106526114a46114a9565b6116cd565b600435906001600160a01b03821682036114bf57565b600080fd5b6006548042106000146114d657504290565b90565b919082039182116114e657565b634e487b7160e01b600052601160045260246000fd5b818102929181159184041417156114e657565b8115611519570490565b634e487b7160e01b600052601260045260246000fd5b919082018092116114e657565b600754801561158c5760045461155f61118c6115566114c4565b600354906114d9565b670de0b6b3a7640000908181029181830414901517156114e6576114d6926115869161150f565b9061152f565b5060045490565b60a0810190811067ffffffffffffffff8211176115af57604052565b634e487b7160e01b600052604160045260246000fd5b90601f8019910116810190811067ffffffffffffffff8211176115af57604052565b6001600160a01b0316600090815260086020526040808220905161160a81611593565b81549081815260018301546020820152600283015460408201526080600460038501549485606085015201549101521580156116c5575b6116bd5761164f90426114d9565b906276a700808310156116b4576127109280840290848204036116a05704820180921161168c5750614e209081811115611687575090565b905090565b634e487b7160e01b81526011600452602490fd5b634e487b7160e01b83526011600452602483fd5b505050614e2090565b505061271090565b508015611641565b6117636127109160018060a01b038116600052600860205261174e61175d6040600020670de0b6b3a764000061175460405161170881611593565b61174e845491828152600186015490602081019182526080600460028901549860408401998a5260038101546060850152015491015261174661153c565b9051906114d9565b906114fc565b0490519061152f565b916115e7565b0490565b60075480156117aa57600254906301e13380918281029281840414811517156114e65764496cebb800029180830461271014901517156114e6576114d69161150f565b50600090565b156117b757565b60405162461bcd60e51b815260206004820152600b60248201526a414d4f554e545f5a45524f60a81b6044820152606490fd5b908160209103126114bf575180151581036114bf5790565b1561180957565b60405162461bcd60e51b815260206004820152600f60248201526e1514905394d1915497d19052531151608a1b6044820152606490fd5b1561184757565b60405162461bcd60e51b81526020600482015260096024820152682727aa2fa7aba722a960b91b6044820152606490fdfea2646970667358221220719bcdf7fd2af9f62a882873916112ecfe581fdd8ac6eabc600696186793c98964736f6c63430008140033",
  "linkReferences": {},
  "deployedLinkReferences": {}
}