{
  "_format": "hh-sol-artifact-1",
  "contractName": "DTGCLPStakingV2",
  "sourceName": "contracts/DTGCLPStakingV2.sol",
  "abi": [
    {
      "inputs": [
        {
          "internalType": "address",
          "name": "_lpToken",
          "type": "address"
        },
        {
          "internalType": "address",
          "name": "_rewardToken",
          "type": "address"
        },
        {
          "internalType": "address",
          "name": "_dtgcToken",
          "type": "address"
        },
        {
          "internalType": "address",
          "name": "_devWallet",
          "type": "address"
        },
        {
          "internalType": "address",
          "name": "_daoTreasury",
          "type": "address"
        },
        {
          "internalType": "address",
          "name": "_daoVotingPool",
          "type": "address"
        }
      ],
      "stateMutability": "nonpayable",
      "type": "constructor"
    },
    {
      "anonymous": false,
      "inputs": [
        {
          "indexed": false,
          "internalType": "uint256",
          "name": "devAmount",
          "type": "uint256"
        },
        {
          "indexed": false,
          "internalType": "uint256",
          "name": "daoVotingAmount",
          "type": "uint256"
        }
      ],
      "name": "EESCollected",
      "type": "event"
    },
    {
      "anonymous": false,
      "inputs": [
        {
          "indexed": true,
          "internalType": "address",
          "name": "user",
          "type": "address"
        },
        {
          "indexed": false,
          "internalType": "uint256",
          "name": "returned",
          "type": "uint256"
        },
        {
          "indexed": false,
          "internalType": "uint256",
          "name": "devFee",
          "type": "uint256"
        },
        {
          "indexed": false,
          "internalType": "uint256",
          "name": "daoVotingFee",
          "type": "uint256"
        }
      ],
      "name": "EmergencyWithdrawn",
      "type": "event"
    },
    {
      "anonymous": false,
      "inputs": [
        {
          "indexed": true,
          "internalType": "address",
          "name": "user",
          "type": "address"
        },
        {
          "indexed": false,
          "internalType": "uint256",
          "name": "reward",
          "type": "uint256"
        }
      ],
      "name": "RewardsClaimed",
      "type": "event"
    },
    {
      "anonymous": false,
      "inputs": [
        {
          "indexed": true,
          "internalType": "address",
          "name": "user",
          "type": "address"
        },
        {
          "indexed": false,
          "internalType": "uint256",
          "name": "amount",
          "type": "uint256"
        },
        {
          "indexed": false,
          "internalType": "uint256",
          "name": "principal",
          "type": "uint256"
        },
        {
          "indexed": false,
          "internalType": "uint256",
          "name": "unlockTime",
          "type": "uint256"
        }
      ],
      "name": "Staked",
      "type": "event"
    },
    {
      "anonymous": false,
      "inputs": [
        {
          "indexed": true,
          "internalType": "address",
          "name": "user",
          "type": "address"
        },
        {
          "indexed": false,
          "internalType": "uint256",
          "name": "lpAmount",
          "type": "uint256"
        },
        {
          "indexed": false,
          "internalType": "uint256",
          "name": "rewards",
          "type": "uint256"
        },
        {
          "indexed": false,
          "internalType": "uint256",
          "name": "fees",
          "type": "uint256"
        }
      ],
      "name": "Withdrawn",
      "type": "event"
    },
    {
      "inputs": [],
      "name": "BASIS_POINTS",
      "outputs": [
        {
          "internalType": "uint256",
          "name": "",
          "type": "uint256"
        }
      ],
      "stateMutability": "view",
      "type": "function"
    },
    {
      "inputs": [],
      "name": "BOOST_PRECISION",
      "outputs": [
        {
          "internalType": "uint256",
          "name": "",
          "type": "uint256"
        }
      ],
      "stateMutability": "view",
      "type": "function"
    },
    {
      "inputs": [],
      "name": "DAO_FEE_SHARE",
      "outputs": [
        {
          "internalType": "uint256",
          "name": "",
          "type": "uint256"
        }
      ],
      "stateMutability": "view",
      "type": "function"
    },
    {
      "inputs": [],
      "name": "DEV_FEE_SHARE",
      "outputs": [
        {
          "internalType": "uint256",
          "name": "",
          "type": "uint256"
        }
      ],
      "stateMutability": "view",
      "type": "function"
    },
    {
      "inputs": [],
      "name": "DIAMOND_APR",
      "outputs": [
        {
          "internalType": "uint256",
          "name": "",
          "type": "uint256"
        }
      ],
      "stateMutability": "view",
      "type": "function"
    },
    {
      "inputs": [],
      "name": "DIAMOND_BONUS",
      "outputs": [
        {
          "internalType": "uint256",
          "name": "",
          "type": "uint256"
        }
      ],
      "stateMutability": "view",
      "type": "function"
    },
    {
      "inputs": [],
      "name": "DIAMOND_LOCK",
      "outputs": [
        {
          "internalType": "uint256",
          "name": "",
          "type": "uint256"
        }
      ],
      "stateMutability": "view",
      "type": "function"
    },
    {
      "inputs": [],
      "name": "EES_DAO_SHARE",
      "outputs": [
        {
          "internalType": "uint256",
          "name": "",
          "type": "uint256"
        }
      ],
      "stateMutability": "view",
      "type": "function"
    },
    {
      "inputs": [],
      "name": "EES_DEV_SHARE",
      "outputs": [
        {
          "internalType": "uint256",
          "name": "",
          "type": "uint256"
        }
      ],
      "stateMutability": "view",
      "type": "function"
    },
    {
      "inputs": [],
      "name": "EES_PENALTY",
      "outputs": [
        {
          "internalType": "uint256",
          "name": "",
          "type": "uint256"
        }
      ],
      "stateMutability": "view",
      "type": "function"
    },
    {
      "inputs": [],
      "name": "ENTRY_FEE",
      "outputs": [
        {
          "internalType": "uint256",
          "name": "",
          "type": "uint256"
        }
      ],
      "stateMutability": "view",
      "type": "function"
    },
    {
      "inputs": [],
      "name": "EXIT_FEE",
      "outputs": [
        {
          "internalType": "uint256",
          "name": "",
          "type": "uint256"
        }
      ],
      "stateMutability": "view",
      "type": "function"
    },
    {
      "inputs": [],
      "name": "MAX_BOOST",
      "outputs": [
        {
          "internalType": "uint256",
          "name": "",
          "type": "uint256"
        }
      ],
      "stateMutability": "view",
      "type": "function"
    },
    {
      "inputs": [],
      "name": "MIN_TOKENS_FOR_VOTING",
      "outputs": [
        {
          "internalType": "uint256",
          "name": "",
          "type": "uint256"
        }
      ],
      "stateMutability": "view",
      "type": "function"
    },
    {
      "inputs": [
        {
          "internalType": "address",
          "name": "user",
          "type": "address"
        }
      ],
      "name": "calculateBonus",
      "outputs": [
        {
          "internalType": "uint256",
          "name": "",
          "type": "uint256"
        }
      ],
      "stateMutability": "view",
      "type": "function"
    },
    {
      "inputs": [
        {
          "internalType": "address",
          "name": "user",
          "type": "address"
        }
      ],
      "name": "calculateReward",
      "outputs": [
        {
          "internalType": "uint256",
          "name": "",
          "type": "uint256"
        }
      ],
      "stateMutability": "view",
      "type": "function"
    },
    {
      "inputs": [
        {
          "internalType": "address",
          "name": "user",
          "type": "address"
        }
      ],
      "name": "canVote",
      "outputs": [
        {
          "internalType": "bool",
          "name": "",
          "type": "bool"
        }
      ],
      "stateMutability": "view",
      "type": "function"
    },
    {
      "inputs": [],
      "name": "claimRewards",
      "outputs": [],
      "stateMutability": "nonpayable",
      "type": "function"
    },
    {
      "inputs": [],
      "name": "daoTreasury",
      "outputs": [
        {
          "internalType": "address",
          "name": "",
          "type": "address"
        }
      ],
      "stateMutability": "view",
      "type": "function"
    },
    {
      "inputs": [],
      "name": "daoVotingPool",
      "outputs": [
        {
          "internalType": "address",
          "name": "",
          "type": "address"
        }
      ],
      "stateMutability": "view",
      "type": "function"
    },
    {
      "inputs": [],
      "name": "devWallet",
      "outputs": [
        {
          "internalType": "address",
          "name": "",
          "type": "address"
        }
      ],
      "stateMutability": "view",
      "type": "function"
    },
    {
      "inputs": [],
      "name": "dtgcToken",
      "outputs": [
        {
          "internalType": "contract IPRC20",
          "name": "",
          "type": "address"
        }
      ],
      "stateMutability": "view",
      "type": "function"
    },
    {
      "inputs": [],
      "name": "eesPoolTotal",
      "outputs": [
        {
          "internalType": "uint256",
          "name": "",
          "type": "uint256"
        }
      ],
      "stateMutability": "view",
      "type": "function"
    },
    {
      "inputs": [],
      "name": "emergencyWithdraw",
      "outputs": [],
      "stateMutability": "nonpayable",
      "type": "function"
    },
    {
      "inputs": [
        {
          "internalType": "uint256",
          "name": "amount",
          "type": "uint256"
        }
      ],
      "name": "fundRewards",
      "outputs": [],
      "stateMutability": "nonpayable",
      "type": "function"
    },
    {
      "inputs": [
        {
          "internalType": "address",
          "name": "user",
          "type": "address"
        }
      ],
      "name": "getBoostMultiplier",
      "outputs": [
        {
          "internalType": "uint256",
          "name": "",
          "type": "uint256"
        }
      ],
      "stateMutability": "view",
      "type": "function"
    },
    {
      "inputs": [],
      "name": "getContractStats",
      "outputs": [
        {
          "internalType": "uint256",
          "name": "_totalStaked",
          "type": "uint256"
        },
        {
          "internalType": "uint256",
          "name": "_totalRewards",
          "type": "uint256"
        },
        {
          "internalType": "uint256",
          "name": "_eesPool",
          "type": "uint256"
        },
        {
          "internalType": "uint256",
          "name": "_apr",
          "type": "uint256"
        },
        {
          "internalType": "uint256",
          "name": "_stakers",
          "type": "uint256"
        }
      ],
      "stateMutability": "view",
      "type": "function"
    },
    {
      "inputs": [
        {
          "internalType": "address",
          "name": "user",
          "type": "address"
        }
      ],
      "name": "getPosition",
      "outputs": [
        {
          "internalType": "uint256",
          "name": "amount",
          "type": "uint256"
        },
        {
          "internalType": "uint256",
          "name": "startTime",
          "type": "uint256"
        },
        {
          "internalType": "uint256",
          "name": "unlockTime",
          "type": "uint256"
        },
        {
          "internalType": "uint256",
          "name": "pendingReward",
          "type": "uint256"
        },
        {
          "internalType": "uint256",
          "name": "pendingBonus",
          "type": "uint256"
        },
        {
          "internalType": "uint256",
          "name": "boostMultiplier",
          "type": "uint256"
        },
        {
          "internalType": "bool",
          "name": "isActive",
          "type": "bool"
        },
        {
          "internalType": "uint256",
          "name": "timeRemaining",
          "type": "uint256"
        }
      ],
      "stateMutability": "view",
      "type": "function"
    },
    {
      "inputs": [
        {
          "internalType": "address",
          "name": "",
          "type": "address"
        }
      ],
      "name": "isVerifiedStaker",
      "outputs": [
        {
          "internalType": "bool",
          "name": "",
          "type": "bool"
        }
      ],
      "stateMutability": "view",
      "type": "function"
    },
    {
      "inputs": [
        {
          "internalType": "address",
          "name": "",
          "type": "address"
        }
      ],
      "name": "lifetimeRewards",
      "outputs": [
        {
          "internalType": "uint256",
          "name": "",
          "type": "uint256"
        }
      ],
      "stateMutability": "view",
      "type": "function"
    },
    {
      "inputs": [],
      "name": "lpToken",
      "outputs": [
        {
          "internalType": "contract IPRC20",
          "name": "",
          "type": "address"
        }
      ],
      "stateMutability": "view",
      "type": "function"
    },
    {
      "inputs": [],
      "name": "owner",
      "outputs": [
        {
          "internalType": "address",
          "name": "",
          "type": "address"
        }
      ],
      "stateMutability": "view",
      "type": "function"
    },
    {
      "inputs": [
        {
          "internalType": "address",
          "name": "",
          "type": "address"
        }
      ],
      "name": "positions",
      "outputs": [
        {
          "internalType": "uint256",
          "name": "amount",
          "type": "uint256"
        },
        {
          "internalType": "uint256",
          "name": "startTime",
          "type": "uint256"
        },
        {
          "internalType": "uint256",
          "name": "unlockTime",
          "type": "uint256"
        },
        {
          "internalType": "uint256",
          "name": "rewardDebt",
          "type": "uint256"
        },
        {
          "internalType": "bool",
          "name": "isActive",
          "type": "bool"
        }
      ],
      "stateMutability": "view",
      "type": "function"
    },
    {
      "inputs": [
        {
          "internalType": "address",
          "name": "token",
          "type": "address"
        },
        {
          "internalType": "uint256",
          "name": "amount",
          "type": "uint256"
        }
      ],
      "name": "recoverToken",
      "outputs": [],
      "stateMutability": "nonpayable",
      "type": "function"
    },
    {
      "inputs": [],
      "name": "rewardToken",
      "outputs": [
        {
          "internalType": "contract IPRC20",
          "name": "",
          "type": "address"
        }
      ],
      "stateMutability": "view",
      "type": "function"
    },
    {
      "inputs": [
        {
          "internalType": "address",
          "name": "_dao",
          "type": "address"
        }
      ],
      "name": "setDaoTreasury",
      "outputs": [],
      "stateMutability": "nonpayable",
      "type": "function"
    },
    {
      "inputs": [
        {
          "internalType": "address",
          "name": "_voting",
          "type": "address"
        }
      ],
      "name": "setDaoVotingPool",
      "outputs": [],
      "stateMutability": "nonpayable",
      "type": "function"
    },
    {
      "inputs": [
        {
          "internalType": "address",
          "name": "_dev",
          "type": "address"
        }
      ],
      "name": "setDevWallet",
      "outputs": [],
      "stateMutability": "nonpayable",
      "type": "function"
    },
    {
      "inputs": [
        {
          "internalType": "uint256",
          "name": "amount",
          "type": "uint256"
        }
      ],
      "name": "stake",
      "outputs": [],
      "stateMutability": "nonpayable",
      "type": "function"
    },
    {
      "inputs": [],
      "name": "totalRewardsDistributed",
      "outputs": [
        {
          "internalType": "uint256",
          "name": "",
          "type": "uint256"
        }
      ],
      "stateMutability": "view",
      "type": "function"
    },
    {
      "inputs": [],
      "name": "totalStaked",
      "outputs": [
        {
          "internalType": "uint256",
          "name": "",
          "type": "uint256"
        }
      ],
      "stateMutability": "view",
      "type": "function"
    },
    {
      "inputs": [],
      "name": "totalStakers",
      "outputs": [
        {
          "internalType": "uint256",
          "name": "",
          "type": "uint256"
        }
      ],
      "stateMutability": "view",
      "type": "function"
    },
    {
      "inputs": [
        {
          "internalType": "address",
          "name": "_new",
          "type": "address"
        }
      ],
      "name": "transferOwnership",
      "outputs": [],
      "stateMutability": "nonpayable",
      "type": "function"
    },
    {
      "inputs": [],
      "name": "withdraw",
      "outputs": [],
      "stateMutability": "nonpayable",
      "type": "function"
    }
  ],
  "bytecode": "0x60e034620002a857601f62001fcf38819003918201601f191683019291906001600160401b03841183851017620002ad578160c09284926040968752833981010312620002a8576200005181620002c3565b60209062000061828401620002c3565b6200006e858501620002c3565b6200007c60608601620002c3565b916200009960a06200009160808901620002c3565b9701620002c3565b936001600160a01b0390811691821562000277578116928315620002425781169384156200020f578116968715620001dd578116948515620001ab571694851562000177575060805260a05260c05260018060a01b0319928360015416176001558260025416176002558160035416176003553390600054161760005551611cf69081620002d982396080518181816103f0015281816106c90152818161096c01528181610fee01526111fe015260a05181818161024401528181610d9e01528181611352015261159b015260c0518181816108810152610d0e0152f35b60649088519062461bcd60e51b82526004820152600e60248201526d494e56414c49445f564f54494e4760901b6044820152fd5b885162461bcd60e51b815260048101889052600b60248201526a494e56414c49445f44414f60a81b6044820152606490fd5b885162461bcd60e51b815260048101889052600b60248201526a24a72b20a624a22fa222ab60a91b6044820152606490fd5b885162461bcd60e51b815260048101889052600c60248201526b494e56414c49445f4454474360a01b6044820152606490fd5b885162461bcd60e51b815260048101889052600e60248201526d1253959053125117d49155d0549160921b6044820152606490fd5b885162461bcd60e51b815260048101889052600a6024820152690494e56414c49445f4c560b41b6044820152606490fd5b600080fd5b634e487b7160e01b600052604160045260246000fd5b51906001600160a01b0382168203620002a85756fe608060408181526004918236101561001657600080fd5b600092833560e01c918263019f7b671461182b57508163143ae5b11461180e57816316c197391461171c5781631d336d62146116e45781631f53ac021461169a578163315865df1461167d5781633367fe1614611660578163372500ab146114eb5781633ccfd60b146110f9578163432c4fa2146110dc5781634961ca9f146110c057816352628d9a146110a157816355f57510146110395781635c6771921461101d5781635fcbd28514610fd95781636e8a56d914610f8f5781636f371efe14610f695781637319e5aa14610f43578163751a2d6414610f0557816376bce55b14610ee857816379022a9f14610ebf578163817b1cd214610ea15781638698903814610e825781638da5cb5b14610e5a5781638ea5220f14610e3157816393707a1914610d3d5781639f0e56dd146102735781639f76ab7c14610cf9578163a124df5d14610caf578163a694fc3a14610911578163adfaa72e14610817578163b29a81401461068e578163c6580d1214610273578163cc6db2da146102e0578163d805e62d14610670578163d82e396214610643578163db2e21bc14610329578163dfe6b5d6146102e557508063e1f1c4a7146102e0578063ee172546146102c2578063f2fde38b14610278578063f6d361cc14610273578063f7c618c1146102305763fd10467e1461020957600080fd5b3461022c578160031936011261022c576020905169d3c21bcecceda10000008152f35b5080fd5b503461022c578160031936011261022c57517f00000000000000000000000000000000000000000000000000000000000000006001600160a01b03168152602090f35b61186b565b82346102bf5760203660031901126102bf57610292611850565b8154906001600160a01b03906102ab3383851614611c88565b16906001600160601b0360a01b1617815580f35b80fd5b503461022c578160031936011261022c576020906005549051908152f35b611888565b90503461032557826003193601126103255760a092505490600554906006549060075492815194855260208501528301526104b060608301526080820152f35b8280fd5b83833461022c578160031936011261022c57338252602060088152818320908482019061035960ff835416611c4e565b825460c881029381159482810460c8148617156106305761271080910495610708908185029185830414171561061d5704938791906103ac6103a48761039f8a886118f9565b6118f9565b948b546118f9565b8a556103ba8660065461192f565b600655805460ff1916905555600154855163a9059cbb60e01b8082526001600160a01b039283168a8301908152602081018890527f000000000000000000000000000000000000000000000000000000000000000084169a9391929086908290819003604001818d8f5af1908115610613578a916105f6575b50156105be57600354885183815291166001600160a01b031683820190815260208101879052859082908c9082908d90829060400103925af19081156105b4578991610597575b501561055f57865190815233918101918252602082018390529697839188919082908b90829060400103925af1958615610555577f7dbf5014c70ce465b3faa9272d46a09414d933de54728a335f7df4bea2bc2ae1966104e1918991610528575b50611b96565b8451908152602081018490526040810183905233907f45df01186fed55abc3ac9cfa82408e10553b9b93a8f0c0b4c2965a7bedb267ec90606090a28351928352820152a180f35b6105489150843d861161054e575b61054081836118d7565b810190611b7e565b896104db565b503d610536565b85513d89823e3d90fd5b865162461bcd60e51b81528083018590526012602482015271111053d7d411539053151657d1905253115160721b6044820152606490fd5b6105ae9150853d871161054e5761054081836118d7565b8a61047a565b88513d8b823e3d90fd5b875162461bcd60e51b8152808401869052601260248201527111115597d411539053151657d1905253115160721b6044820152606490fd5b61060d9150863d881161054e5761054081836118d7565b8b610433565b89513d8c823e3d90fd5b634e487b7160e01b895260118a52602489fd5b634e487b7160e01b885260118952602488fd5b50503461022c57602036600319011261022c57602090610669610664611850565b611a1d565b9051908152f35b50503461022c578160031936011261022c57602090516276a7008152f35b8391503461022c578260031936011261022c576106a9611850565b8254602435926001600160a01b03918216916106c6338414611c88565b807f000000000000000000000000000000000000000000000000000000000000000016931692808414610765575b50855163a9059cbb60e01b81526001600160a01b0390921690820190815260208181019490945293949093909291849182908790829060400103925af190811561075c5750610741575080f35b6107589060203d811161054e5761054081836118d7565b5080f35b513d84823e3d90fd5b60206024918851928380926370a0823160e01b825230878301525afa801561080d5786906107d6575b61079b91508254906118f9565b84116107a757866106f4565b606490602087519162461bcd60e51b83528201526009602482015268141493d51150d5115160ba1b6044820152fd5b506020813d8211610805575b816107ef602093836118d7565b810103126108015761079b905161078e565b8580fd5b3d91506107e2565b87513d88823e3d90fd5b9190503461032557602092836003193601126102bf576001600160a01b03908482610840611850565b16808352600a825260ff8584205416958615610862575b828787519015158152f35b856024929394959697505195869384926370a0823160e01b84528301527f0000000000000000000000000000000000000000000000000000000000000000165afa9081156109065780916108cc575b5069d3c21bcecceda100000091501015903880848180610857565b90508382813d83116108ff575b6108e381836118d7565b810103126102bf575069d3c21bcecceda10000009051386108b1565b503d6108d9565b8351903d90823e3d90fd5b83833461022c57602080600319360112610325578335918215610c7e573384526008825260ff85828620015416610c495780516323b872dd60e01b815233868201908152306020820152604081018590526001600160a01b037f000000000000000000000000000000000000000000000000000000000000000081169392909185908290819060600103818a885af1908115610c3f57906109b8918891610c285750611b96565b6064850292858404606403610c155761271080940493610190808802908882040361061d570491889190610a29876109f48661039f8a8d6118f9565b9783600154168851938492839263a9059cbb60e01b998a8552840160209093929193604081019460018060a01b031681520152565b03818d875af1908115610c0b5788949392610a4e8d938d938491610bee575b50611bd4565b6002548851958652166001600160a01b0316918401918252602082019590955291938492839190829060400103925af1908115610be45790610a97918791610bc7575b50611c11565b6276a700420192834211610bb457600a825191610ab3836118a5565b848352888184019342855285810188815260608201908b8252608083019660018852338d5260088652888d209351845551600184015551600283015551600382015501925115159260ff199360ff858354169116179055610b15858a5461192f565b89553388525281862090815460ff811615610b6d575b50509051938452506020830152604082015233907fb4caaf29adda3eefee3ad552a8e85058589bf834c7466cae4ee58787f70589ed9080606081015b0390a280f35b1660011790556007546000198114610bb4576001016007559394508493610b677fb4caaf29adda3eefee3ad552a8e85058589bf834c7466cae4ee58787f70589ed88610b2b565b634e487b7160e01b865260118752602486fd5b610bde9150853d871161054e5761054081836118d7565b88610a91565b82513d88823e3d90fd5b610c059150883d8a1161054e5761054081836118d7565b8f610a48565b86513d8c823e3d90fd5b634e487b7160e01b875260118852602487fd5b6105489150863d881161054e5761054081836118d7565b83513d89823e3d90fd5b5162461bcd60e51b815280850191909152600f60248201526e504f534954494f4e5f45584953545360881b6044820152606490fd5b5162461bcd60e51b815280850191909152600b60248201526a16915493d7d05353d5539560aa1b6044820152606490fd5b83346102bf5760203660031901126102bf57610cc9611850565b81546001600160a01b039190610ce29083163314611c88565b166001600160601b0360a01b600254161760025580f35b50503461022c578160031936011261022c57517f00000000000000000000000000000000000000000000000000000000000000006001600160a01b03168152602090f35b919050346103255760203660031901126103255782546001600160a01b0390610d699082163314611c88565b81516323b872dd60e01b81523384820190815230602082810191909152853560408301529192839182908890829060600103927f0000000000000000000000000000000000000000000000000000000000000000165af1908115610e27578491610e09575b5015610dd8578280f35b906020606492519162461bcd60e51b8352820152600b60248201526a1195539117d1905253115160aa1b6044820152fd5b610e21915060203d811161054e5761054081836118d7565b38610dce565b82513d86823e3d90fd5b50503461022c578160031936011261022c5760015490516001600160a01b039091168152602090f35b50503461022c578160031936011261022c57905490516001600160a01b039091168152602090f35b50503461022c578160031936011261022c576020906007549051908152f35b90503461032557826003193601126103255760209250549051908152f35b50503461022c578160031936011261022c5760025490516001600160a01b039091168152602090f35b50503461022c578160031936011261022c57602090516107d08152f35b50503461022c57602036600319011261022c5760209160ff9082906001600160a01b03610f30611850565b168152600a855220541690519015158152f35b50503461022c57602036600319011261022c57602090610669610f64611850565b611aed565b50503461022c57602036600319011261022c57602090610669610f8a611850565b61193c565b83346102bf5760203660031901126102bf57610fa9611850565b81546001600160a01b039190610fc29083163314611c88565b166001600160601b0360a01b600354161760035580f35b50503461022c578160031936011261022c57517f00000000000000000000000000000000000000000000000000000000000000006001600160a01b03168152602090f35b50503461022c578160031936011261022c576020905160648152f35b919050346103255760203660031901126103255760a09281906001600160a01b03611062611850565b16815260086020522080549260018201549260ff6002840154926003850154940154169381519586526020860152840152606083015215156080820152f35b50503461022c578160031936011261022c576020906006549051908152f35b50503461022c578160031936011261022c576020905160c88152f35b50503461022c578160031936011261022c57602090516107088152f35b8391503461022c578160031936011261022c5733825260209260088452808320938285019461112b60ff875416611c4e565b600281015442106114ba5780549361115461114533611a1d565b61114e33611aed565b9061192f565b9260648602928615938781046064148517156114a7576127108091049461019090818a02918a83041417156114945704988891906111a16111998c61039f898d6118f9565b9986546118f9565b85556111af8760055461192f565b600555338352600984528783206111c788825461192f565b9055805460ff1916905555600154855163a9059cbb60e01b8082526001600160a01b039283168583019081526020810187905290917f000000000000000000000000000000000000000000000000000000000000000084169185908290819003604001818e865af190811561146d5790611247918c916114775750611bd4565b60025488518381529084166001600160a01b0316868201908152602081018d9052859082908d90829081906040010391865af190811561146d578b9261129887936112bb9386916114505750611c11565b8a5185815233898201908152602081018e90529094859384928391604090910190565b03925af1908115611446578a91611429575b50156113f1578561132b575b5050505061130d7f75e161b3e824b114fc1a33274bd7091918dd4e639cede50b78b15a4eea956a21949596610b679261192f565b92519283923396846040919493926060820195825260208201520152565b865190815233848201908152602081018790529091839183919082908c90829060400103927f0000000000000000000000000000000000000000000000000000000000000000165af19081156113e75788916113ca575b501561138f5780806112d9565b845162461bcd60e51b8152918201526016602482015275149155d0549117d514905394d1915497d1905253115160521b604482015260649150fd5b6113e19150823d841161054e5761054081836118d7565b89611382565b86513d8a823e3d90fd5b865162461bcd60e51b81528085018490526012602482015271131417d514905394d1915497d1905253115160721b6044820152606490fd5b6114409150843d861161054e5761054081836118d7565b8b6112cd565b88513d8c823e3d90fd5b6114679150853d871161054e5761054081836118d7565b38610a91565b89513d8d823e3d90fd5b61148e9150863d881161054e5761054081836118d7565b8d610a48565b634e487b7160e01b8a526011855260248afd5b634e487b7160e01b895260118452602489fd5b50905162461bcd60e51b815291820152600c60248201526b14d512531317d313d0d2d15160a21b6044820152606490fd5b9050346103255782600319360112610325573383526020600881528284209161151960ff8285015416611c4e565b61152233611a1d565b92831561163157836115969282600386940161153f84825461192f565b90556001429101556115538260055461192f565b6005553388526009835286882061156b83825461192f565b9055865163a9059cbb60e01b8152339181019182526020820192909252909283918291604090910190565b0381887f00000000000000000000000000000000000000000000000000000000000000006001600160a01b03165af1908115611627577ffc30cddea38e2bf4d6ea7d3f9ed3b6ad7f176419f4963bd81318067a4aee73fe93949161160091879161160a5750611b96565b519283523392a280f35b6116219150843d861161054e5761054081836118d7565b386104db565b84513d87823e3d90fd5b5060649184519162461bcd60e51b8352820152600a6024820152694e4f5f5245574152445360b01b6044820152fd5b50503461022c578160031936011261022c57602090516104b08152f35b50503461022c578160031936011261022c5760209051613a988152f35b83346102bf5760203660031901126102bf576116b4611850565b81546001600160a01b0391906116cd9083163314611c88565b166001600160601b0360a01b600154161760015580f35b50503461022c57602036600319011261022c5760209181906001600160a01b0361170c611850565b1681526009845220549051908152f35b83833461022c57602036600319011261022c576101009261173b611850565b6001600160a01b038116845260086020528284208351939092919061175f856118a5565b835485526001840154956020860196875260ff60028601549483880196868852600381015460608a0152015416936080870194151580865280611805575b156117fe576117ae915042906118f9565b945b51955193516117be83611a1d565b916117d16117cb85611aed565b9461193c565b9451151595815198895260208901528701526060860152608085015260a084015260c083015260e0820152f35b50946117b0565b5080421061179d565b50503461022c578160031936011261022c57602090516101908152f35b84903461022c578160031936011261022c576003546001600160a01b03168152602090f35b600435906001600160a01b038216820361186657565b600080fd5b346118665760003660031901126118665760206040516101f48152f35b346118665760003660031901126118665760206040516127108152f35b60a0810190811067ffffffffffffffff8211176118c157604052565b634e487b7160e01b600052604160045260246000fd5b90601f8019910116810190811067ffffffffffffffff8211176118c157604052565b9190820391821161190657565b634e487b7160e01b600052601160045260246000fd5b8181029291811591840414171561190657565b9190820180921161190657565b6001600160a01b03166000908152600860205260408082209051608090611962816118a5565b82549081815260ff6004600186015495866020850152600281015460408501526003810154606085015201541615908115938491015291611a14575b50611a0c576119ad90426118f9565b906276a70080831015611a035761138892808402938404036119ef57612710920482018092116119db575090565b634e487b7160e01b81526011600452602490fd5b634e487b7160e01b82526011600452602482fd5b505050613a9890565b505061271090565b9050153861199e565b60018060a01b03811660005260086020526040600020604051611a3f816118a5565b81548082526001830154908160208401526002840154604084015260ff600460038601549560608601968752015416159081159182608086015291611ae4575b50611adb57611a8e90426118f9565b9051906104b09182810292818404149015171561190657611ad893611ac964496cebb800611ac2611acf946127109661191c565b049161193c565b9061191c565b049051906118f9565b90565b50505050600090565b90501538611a7f565b60018060a01b031660005260086020526040600020608060405191611b11836118a5565b8054928381526001820154602082015260ff60046002840154938460408501526003810154606085015201541615908115938491015291611b74575b50611b6e576101f49081810291818304149015171561190657612710900490565b50600090565b9050421038611b4d565b90816020910312611866575180151581036118665790565b15611b9d57565b60405162461bcd60e51b815260206004820152600f60248201526e1514905394d1915497d19052531151608a1b6044820152606490fd5b15611bdb57565b60405162461bcd60e51b815260206004820152600e60248201526d11115597d1915157d1905253115160921b6044820152606490fd5b15611c1857565b60405162461bcd60e51b815260206004820152600e60248201526d111053d7d1915157d1905253115160921b6044820152606490fd5b15611c5557565b60405162461bcd60e51b815260206004820152600b60248201526a2727afa827a9a4aa24a7a760a91b6044820152606490fd5b15611c8f57565b60405162461bcd60e51b81526020600482015260096024820152682727aa2fa7aba722a960b91b6044820152606490fdfea264697066735822122075211375ec33a9ad50afe5496df008f814287ff4c8ee700a7221c2058955fb1364736f6c63430008140033",
  "linkReferences": {},
  "deployedLinkReferences": {}
}