{
  "_format": "hh-sol-artifact-1",
  "contractName": "DTGCStakingV2",
  "sourceName": "contracts/DTGCStakingV2.sol",
  "abi": [
    {
      "inputs": [
        {
          "internalType": "address",
          "name": "_dtgcToken",
          "type": "address"
        },
        {
          "internalType": "address",
          "name": "_devWallet",
          "type": "address"
        },
        {
          "internalType": "address",
          "name": "_daoTreasury",
          "type": "address"
        },
        {
          "internalType": "address",
          "name": "_daoVotingPool",
          "type": "address"
        }
      ],
      "stateMutability": "nonpayable",
      "type": "constructor"
    },
    {
      "anonymous": false,
      "inputs": [
        {
          "indexed": false,
          "internalType": "uint256",
          "name": "devAmount",
          "type": "uint256"
        },
        {
          "indexed": false,
          "internalType": "uint256",
          "name": "daoVotingAmount",
          "type": "uint256"
        }
      ],
      "name": "EESCollected",
      "type": "event"
    },
    {
      "anonymous": false,
      "inputs": [
        {
          "indexed": true,
          "internalType": "address",
          "name": "user",
          "type": "address"
        },
        {
          "indexed": false,
          "internalType": "uint256",
          "name": "returned",
          "type": "uint256"
        },
        {
          "indexed": false,
          "internalType": "uint256",
          "name": "devFee",
          "type": "uint256"
        },
        {
          "indexed": false,
          "internalType": "uint256",
          "name": "daoVotingFee",
          "type": "uint256"
        }
      ],
      "name": "EmergencyWithdrawn",
      "type": "event"
    },
    {
      "anonymous": false,
      "inputs": [
        {
          "indexed": false,
          "internalType": "uint256",
          "name": "devAmount",
          "type": "uint256"
        },
        {
          "indexed": false,
          "internalType": "uint256",
          "name": "daoAmount",
          "type": "uint256"
        },
        {
          "indexed": false,
          "internalType": "uint256",
          "name": "stakerAmount",
          "type": "uint256"
        }
      ],
      "name": "FeesDistributed",
      "type": "event"
    },
    {
      "anonymous": false,
      "inputs": [
        {
          "indexed": true,
          "internalType": "address",
          "name": "user",
          "type": "address"
        },
        {
          "indexed": false,
          "internalType": "uint256",
          "name": "baseReward",
          "type": "uint256"
        },
        {
          "indexed": false,
          "internalType": "uint256",
          "name": "feeShare",
          "type": "uint256"
        },
        {
          "indexed": false,
          "internalType": "uint256",
          "name": "bonus",
          "type": "uint256"
        }
      ],
      "name": "RewardsClaimed",
      "type": "event"
    },
    {
      "anonymous": false,
      "inputs": [
        {
          "indexed": true,
          "internalType": "address",
          "name": "user",
          "type": "address"
        },
        {
          "indexed": false,
          "internalType": "uint256",
          "name": "amount",
          "type": "uint256"
        },
        {
          "indexed": false,
          "internalType": "uint256",
          "name": "principal",
          "type": "uint256"
        },
        {
          "indexed": false,
          "internalType": "uint8",
          "name": "tier",
          "type": "uint8"
        },
        {
          "indexed": false,
          "internalType": "uint256",
          "name": "unlockTime",
          "type": "uint256"
        }
      ],
      "name": "Staked",
      "type": "event"
    },
    {
      "anonymous": false,
      "inputs": [
        {
          "indexed": true,
          "internalType": "address",
          "name": "user",
          "type": "address"
        },
        {
          "indexed": false,
          "internalType": "uint256",
          "name": "amount",
          "type": "uint256"
        },
        {
          "indexed": false,
          "internalType": "uint256",
          "name": "rewards",
          "type": "uint256"
        },
        {
          "indexed": false,
          "internalType": "uint256",
          "name": "fee",
          "type": "uint256"
        }
      ],
      "name": "Withdrawn",
      "type": "event"
    },
    {
      "inputs": [],
      "name": "BASIS_POINTS",
      "outputs": [
        {
          "internalType": "uint256",
          "name": "",
          "type": "uint256"
        }
      ],
      "stateMutability": "view",
      "type": "function"
    },
    {
      "inputs": [],
      "name": "BRONZE_APR",
      "outputs": [
        {
          "internalType": "uint256",
          "name": "",
          "type": "uint256"
        }
      ],
      "stateMutability": "view",
      "type": "function"
    },
    {
      "inputs": [],
      "name": "BRONZE_BONUS",
      "outputs": [
        {
          "internalType": "uint256",
          "name": "",
          "type": "uint256"
        }
      ],
      "stateMutability": "view",
      "type": "function"
    },
    {
      "inputs": [],
      "name": "BRONZE_LOCK",
      "outputs": [
        {
          "internalType": "uint256",
          "name": "",
          "type": "uint256"
        }
      ],
      "stateMutability": "view",
      "type": "function"
    },
    {
      "inputs": [],
      "name": "DAO_FEE_SHARE",
      "outputs": [
        {
          "internalType": "uint256",
          "name": "",
          "type": "uint256"
        }
      ],
      "stateMutability": "view",
      "type": "function"
    },
    {
      "inputs": [],
      "name": "DEV_FEE_SHARE",
      "outputs": [
        {
          "internalType": "uint256",
          "name": "",
          "type": "uint256"
        }
      ],
      "stateMutability": "view",
      "type": "function"
    },
    {
      "inputs": [],
      "name": "EES_DAO_SHARE",
      "outputs": [
        {
          "internalType": "uint256",
          "name": "",
          "type": "uint256"
        }
      ],
      "stateMutability": "view",
      "type": "function"
    },
    {
      "inputs": [],
      "name": "EES_DEV_SHARE",
      "outputs": [
        {
          "internalType": "uint256",
          "name": "",
          "type": "uint256"
        }
      ],
      "stateMutability": "view",
      "type": "function"
    },
    {
      "inputs": [],
      "name": "EES_PENALTY",
      "outputs": [
        {
          "internalType": "uint256",
          "name": "",
          "type": "uint256"
        }
      ],
      "stateMutability": "view",
      "type": "function"
    },
    {
      "inputs": [],
      "name": "ENTRY_FEE",
      "outputs": [
        {
          "internalType": "uint256",
          "name": "",
          "type": "uint256"
        }
      ],
      "stateMutability": "view",
      "type": "function"
    },
    {
      "inputs": [],
      "name": "EXIT_FEE",
      "outputs": [
        {
          "internalType": "uint256",
          "name": "",
          "type": "uint256"
        }
      ],
      "stateMutability": "view",
      "type": "function"
    },
    {
      "inputs": [],
      "name": "GOLD_APR",
      "outputs": [
        {
          "internalType": "uint256",
          "name": "",
          "type": "uint256"
        }
      ],
      "stateMutability": "view",
      "type": "function"
    },
    {
      "inputs": [],
      "name": "GOLD_BONUS",
      "outputs": [
        {
          "internalType": "uint256",
          "name": "",
          "type": "uint256"
        }
      ],
      "stateMutability": "view",
      "type": "function"
    },
    {
      "inputs": [],
      "name": "GOLD_LOCK",
      "outputs": [
        {
          "internalType": "uint256",
          "name": "",
          "type": "uint256"
        }
      ],
      "stateMutability": "view",
      "type": "function"
    },
    {
      "inputs": [],
      "name": "MIN_TOKENS_FOR_VOTING",
      "outputs": [
        {
          "internalType": "uint256",
          "name": "",
          "type": "uint256"
        }
      ],
      "stateMutability": "view",
      "type": "function"
    },
    {
      "inputs": [],
      "name": "SILVER_APR",
      "outputs": [
        {
          "internalType": "uint256",
          "name": "",
          "type": "uint256"
        }
      ],
      "stateMutability": "view",
      "type": "function"
    },
    {
      "inputs": [],
      "name": "SILVER_BONUS",
      "outputs": [
        {
          "internalType": "uint256",
          "name": "",
          "type": "uint256"
        }
      ],
      "stateMutability": "view",
      "type": "function"
    },
    {
      "inputs": [],
      "name": "SILVER_LOCK",
      "outputs": [
        {
          "internalType": "uint256",
          "name": "",
          "type": "uint256"
        }
      ],
      "stateMutability": "view",
      "type": "function"
    },
    {
      "inputs": [],
      "name": "accFeePerShare",
      "outputs": [
        {
          "internalType": "uint256",
          "name": "",
          "type": "uint256"
        }
      ],
      "stateMutability": "view",
      "type": "function"
    },
    {
      "inputs": [
        {
          "internalType": "address",
          "name": "user",
          "type": "address"
        }
      ],
      "name": "calculateAllRewards",
      "outputs": [
        {
          "internalType": "uint256",
          "name": "base",
          "type": "uint256"
        },
        {
          "internalType": "uint256",
          "name": "feeShare",
          "type": "uint256"
        },
        {
          "internalType": "uint256",
          "name": "bonus",
          "type": "uint256"
        }
      ],
      "stateMutability": "view",
      "type": "function"
    },
    {
      "inputs": [
        {
          "internalType": "address",
          "name": "user",
          "type": "address"
        }
      ],
      "name": "calculateBaseReward",
      "outputs": [
        {
          "internalType": "uint256",
          "name": "",
          "type": "uint256"
        }
      ],
      "stateMutability": "view",
      "type": "function"
    },
    {
      "inputs": [
        {
          "internalType": "address",
          "name": "user",
          "type": "address"
        }
      ],
      "name": "calculateBonus",
      "outputs": [
        {
          "internalType": "uint256",
          "name": "",
          "type": "uint256"
        }
      ],
      "stateMutability": "view",
      "type": "function"
    },
    {
      "inputs": [
        {
          "internalType": "address",
          "name": "user",
          "type": "address"
        }
      ],
      "name": "calculateFeeShareReward",
      "outputs": [
        {
          "internalType": "uint256",
          "name": "",
          "type": "uint256"
        }
      ],
      "stateMutability": "view",
      "type": "function"
    },
    {
      "inputs": [
        {
          "internalType": "address",
          "name": "user",
          "type": "address"
        }
      ],
      "name": "canVote",
      "outputs": [
        {
          "internalType": "bool",
          "name": "",
          "type": "bool"
        }
      ],
      "stateMutability": "view",
      "type": "function"
    },
    {
      "inputs": [],
      "name": "claimRewards",
      "outputs": [],
      "stateMutability": "nonpayable",
      "type": "function"
    },
    {
      "inputs": [],
      "name": "daoTreasury",
      "outputs": [
        {
          "internalType": "address",
          "name": "",
          "type": "address"
        }
      ],
      "stateMutability": "view",
      "type": "function"
    },
    {
      "inputs": [],
      "name": "daoVotingPool",
      "outputs": [
        {
          "internalType": "address",
          "name": "",
          "type": "address"
        }
      ],
      "stateMutability": "view",
      "type": "function"
    },
    {
      "inputs": [],
      "name": "devWallet",
      "outputs": [
        {
          "internalType": "address",
          "name": "",
          "type": "address"
        }
      ],
      "stateMutability": "view",
      "type": "function"
    },
    {
      "inputs": [],
      "name": "dtgcToken",
      "outputs": [
        {
          "internalType": "contract IPRC20",
          "name": "",
          "type": "address"
        }
      ],
      "stateMutability": "view",
      "type": "function"
    },
    {
      "inputs": [],
      "name": "eesPoolTotal",
      "outputs": [
        {
          "internalType": "uint256",
          "name": "",
          "type": "uint256"
        }
      ],
      "stateMutability": "view",
      "type": "function"
    },
    {
      "inputs": [],
      "name": "emergencyWithdraw",
      "outputs": [],
      "stateMutability": "nonpayable",
      "type": "function"
    },
    {
      "inputs": [],
      "name": "feePool",
      "outputs": [
        {
          "internalType": "uint256",
          "name": "",
          "type": "uint256"
        }
      ],
      "stateMutability": "view",
      "type": "function"
    },
    {
      "inputs": [
        {
          "internalType": "address",
          "name": "",
          "type": "address"
        }
      ],
      "name": "feeShareClaimed",
      "outputs": [
        {
          "internalType": "uint256",
          "name": "",
          "type": "uint256"
        }
      ],
      "stateMutability": "view",
      "type": "function"
    },
    {
      "inputs": [],
      "name": "getContractStats",
      "outputs": [
        {
          "internalType": "uint256",
          "name": "_totalStaked",
          "type": "uint256"
        },
        {
          "internalType": "uint256",
          "name": "_totalRewards",
          "type": "uint256"
        },
        {
          "internalType": "uint256",
          "name": "_feePool",
          "type": "uint256"
        },
        {
          "internalType": "uint256",
          "name": "_eesPool",
          "type": "uint256"
        },
        {
          "internalType": "uint256",
          "name": "_stakers",
          "type": "uint256"
        }
      ],
      "stateMutability": "view",
      "type": "function"
    },
    {
      "inputs": [
        {
          "internalType": "address",
          "name": "user",
          "type": "address"
        }
      ],
      "name": "getPosition",
      "outputs": [
        {
          "internalType": "uint256",
          "name": "amount",
          "type": "uint256"
        },
        {
          "internalType": "uint256",
          "name": "startTime",
          "type": "uint256"
        },
        {
          "internalType": "uint256",
          "name": "unlockTime",
          "type": "uint256"
        },
        {
          "internalType": "uint256",
          "name": "lockPeriod",
          "type": "uint256"
        },
        {
          "internalType": "uint256",
          "name": "aprBps",
          "type": "uint256"
        },
        {
          "internalType": "uint256",
          "name": "bonus",
          "type": "uint256"
        },
        {
          "internalType": "bool",
          "name": "isActive",
          "type": "bool"
        },
        {
          "internalType": "uint256",
          "name": "timeRemaining",
          "type": "uint256"
        }
      ],
      "stateMutability": "view",
      "type": "function"
    },
    {
      "inputs": [],
      "name": "getTiers",
      "outputs": [
        {
          "internalType": "string[3]",
          "name": "names",
          "type": "string[3]"
        },
        {
          "internalType": "uint256[3]",
          "name": "locks",
          "type": "uint256[3]"
        },
        {
          "internalType": "uint256[3]",
          "name": "aprs",
          "type": "uint256[3]"
        },
        {
          "internalType": "uint256[3]",
          "name": "bonuses",
          "type": "uint256[3]"
        }
      ],
      "stateMutability": "pure",
      "type": "function"
    },
    {
      "inputs": [
        {
          "internalType": "address",
          "name": "",
          "type": "address"
        }
      ],
      "name": "isVerifiedStaker",
      "outputs": [
        {
          "internalType": "bool",
          "name": "",
          "type": "bool"
        }
      ],
      "stateMutability": "view",
      "type": "function"
    },
    {
      "inputs": [
        {
          "internalType": "address",
          "name": "",
          "type": "address"
        }
      ],
      "name": "lifetimeRewards",
      "outputs": [
        {
          "internalType": "uint256",
          "name": "",
          "type": "uint256"
        }
      ],
      "stateMutability": "view",
      "type": "function"
    },
    {
      "inputs": [
        {
          "internalType": "address",
          "name": "",
          "type": "address"
        }
      ],
      "name": "lifetimeStaked",
      "outputs": [
        {
          "internalType": "uint256",
          "name": "",
          "type": "uint256"
        }
      ],
      "stateMutability": "view",
      "type": "function"
    },
    {
      "inputs": [],
      "name": "owner",
      "outputs": [
        {
          "internalType": "address",
          "name": "",
          "type": "address"
        }
      ],
      "stateMutability": "view",
      "type": "function"
    },
    {
      "inputs": [
        {
          "internalType": "address",
          "name": "",
          "type": "address"
        }
      ],
      "name": "positions",
      "outputs": [
        {
          "internalType": "uint256",
          "name": "amount",
          "type": "uint256"
        },
        {
          "internalType": "uint256",
          "name": "startTime",
          "type": "uint256"
        },
        {
          "internalType": "uint256",
          "name": "unlockTime",
          "type": "uint256"
        },
        {
          "internalType": "uint256",
          "name": "lockPeriod",
          "type": "uint256"
        },
        {
          "internalType": "uint256",
          "name": "aprBps",
          "type": "uint256"
        },
        {
          "internalType": "uint256",
          "name": "diamondBonus",
          "type": "uint256"
        },
        {
          "internalType": "bool",
          "name": "isActive",
          "type": "bool"
        }
      ],
      "stateMutability": "view",
      "type": "function"
    },
    {
      "inputs": [
        {
          "internalType": "address",
          "name": "token",
          "type": "address"
        },
        {
          "internalType": "uint256",
          "name": "amount",
          "type": "uint256"
        }
      ],
      "name": "recoverToken",
      "outputs": [],
      "stateMutability": "nonpayable",
      "type": "function"
    },
    {
      "inputs": [
        {
          "internalType": "address",
          "name": "_dao",
          "type": "address"
        }
      ],
      "name": "setDaoTreasury",
      "outputs": [],
      "stateMutability": "nonpayable",
      "type": "function"
    },
    {
      "inputs": [
        {
          "internalType": "address",
          "name": "_voting",
          "type": "address"
        }
      ],
      "name": "setDaoVotingPool",
      "outputs": [],
      "stateMutability": "nonpayable",
      "type": "function"
    },
    {
      "inputs": [
        {
          "internalType": "address",
          "name": "_dev",
          "type": "address"
        }
      ],
      "name": "setDevWallet",
      "outputs": [],
      "stateMutability": "nonpayable",
      "type": "function"
    },
    {
      "inputs": [
        {
          "internalType": "uint256",
          "name": "amount",
          "type": "uint256"
        },
        {
          "internalType": "uint8",
          "name": "tier",
          "type": "uint8"
        }
      ],
      "name": "stake",
      "outputs": [],
      "stateMutability": "nonpayable",
      "type": "function"
    },
    {
      "inputs": [],
      "name": "totalRewardsDistributed",
      "outputs": [
        {
          "internalType": "uint256",
          "name": "",
          "type": "uint256"
        }
      ],
      "stateMutability": "view",
      "type": "function"
    },
    {
      "inputs": [],
      "name": "totalStaked",
      "outputs": [
        {
          "internalType": "uint256",
          "name": "",
          "type": "uint256"
        }
      ],
      "stateMutability": "view",
      "type": "function"
    },
    {
      "inputs": [],
      "name": "totalStakers",
      "outputs": [
        {
          "internalType": "uint256",
          "name": "",
          "type": "uint256"
        }
      ],
      "stateMutability": "view",
      "type": "function"
    },
    {
      "inputs": [
        {
          "internalType": "address",
          "name": "_new",
          "type": "address"
        }
      ],
      "name": "transferOwnership",
      "outputs": [],
      "stateMutability": "nonpayable",
      "type": "function"
    },
    {
      "inputs": [],
      "name": "withdraw",
      "outputs": [],
      "stateMutability": "nonpayable",
      "type": "function"
    }
  ],
  "bytecode": "0x60a034620001ed57601f620022d438819003918201601f191683019291906001600160401b03841183851017620001f2578160809284926040968752833981010312620001ed57620000518162000208565b6200005f6020830162000208565b906200007b60606200007386860162000208565b940162000208565b6001600160a01b03918216929091908315620001b957811693841562000187578116918215620001555716918215620001205760805260018060a01b03199283600154161760015582600254161760025581600354161760035533906000541617600055516120b690816200021e82396080518181816106810152818161093001528181610b1001528181610bff015281816110620152818161133d01526116940152f35b845162461bcd60e51b815260206004820152600e60248201526d494e56414c49445f564f54494e4760901b6044820152606490fd5b855162461bcd60e51b815260206004820152600b60248201526a494e56414c49445f44414f60a81b6044820152606490fd5b855162461bcd60e51b815260206004820152600b60248201526a24a72b20a624a22fa222ab60a91b6044820152606490fd5b855162461bcd60e51b815260206004820152600d60248201526c24a72b20a624a22faa27a5a2a760991b6044820152606490fd5b600080fd5b634e487b7160e01b600052604160045260246000fd5b51906001600160a01b0382168203620001ed5756fe608060408181526004918236101561001657600080fd5b600092833560e01c918263019f7b6714611b92575081630652812314611b75578163078f31fd14611b5857816310087fb11461161f578163143ae5b1146108d457816316c19739146115265781631d336d62146114ee5781631f53ac02146114a4578163310d88231461146c578163362296161461144657816336fecffa1461140e578163372500ab146112745781633ccfd60b14610f50578163432c4fa214610f335781634961ca9f14610f1757816351ff016614610efb57816352628d9a14610edc57816355f5751014610e605781635c67719214610e4457816366e0f8a014610e265781636d6277bb14610e085781636e8a56d914610dbe5781637319e5aa14610d98578163751a2d6414610d5a57816376bce55b14610d3d57816379022a9f14610d1457816379a59c1314610cbc578163817b1cd214610c9e5781638698903814610c7f5781638da5cb5b14610c575781638ea5220f14610c2e5781639f76ab7c14610bea578163a124df5d14610ba0578163adfaa72e14610aa6578163ae2e933b14610a87578163b29a8140146108f5578163b5d0d4e9146108d9578163b5ebb120146108d4578163c6580d1214610298578163db2e21bc146105b9578163dd3b829a1461059a578163de170570146103af578163dfae377914610382578163dfe6b5d61461033e57508063e1f1c4a714610322578063eb1d576314610305578063ee172546146102e7578063f2fde38b1461029d578063f6d361cc14610298578063fa652b951461027d5763fd10467e1461025657600080fd5b346102795781600319360112610279576020905169d3c21bcecceda10000008152f35b5080fd5b50346102795781600319360112610279576020905160328152f35b611bef565b82346102e45760203660031901126102e4576102b7611bd9565b8154906001600160a01b03906102d03383851614612048565b16906001600160601b0360a01b1617815580f35b80fd5b50346102795781600319360112610279576020906005549051908152f35b503461027957816003193601126102795760209051621275008152f35b5034610279578160031936011261027957602090516127108152f35b90503461037e578260031936011261037e5760a0925054906005549060065460075491600854938151958652602086015284015260608301526080820152f35b8280fd5b505034610279576020366003190112610279576020906103a86103a3611bd9565b611cf6565b9051908152f35b9190503461037e578260031936011261037e578051926103ce84611c66565b805b6060808210156103e657858201526020016103d0565b5050919250606081516103f881611c66565b3690376060815161040881611c66565b3690376060815161041881611c66565b36903780519061042782611c66565b80519361043385611c82565b600685526020946542726f6e7a6560d01b868201528352815161045581611c82565b600681526529b4b63b32b960d11b868201528584015281519061047782611c82565b81526311dbdb1960e21b8582015281830152805161049481611c66565b62127500815262278d00858201526276a700828201528151906104b682611c66565b60fa825261025886830152610384838301528251926104d484611c66565b6032845260968785015261019081850152519586956101408088019088526101a088019691805b6003811061053457505050509161051c610526926105309594880190611c0c565b6080860190611c0c565b60e0840190611c0c565b0390f35b9193949596979092985061013f198a8203018452848951805190818452855b82811061058657505081838287838095600198010152601f801991011601019a01940191019189989796959493926104fb565b818101840151858201850152889301610553565b505034610279578160031936011261027957602090600e549051908152f35b8383346102795781600319360112610279573382526020600981528183209060068201906105ea60ff835416611fd3565b825460c881029381159482810460c8148617156108c1576127108091049561070890818502918583041417156108ae57049387919061063d610635876106308a88611cc0565b611cc0565b948b54611cc0565b8a5561064b86600754611fc6565b600755805460ff1916905555600154855163a9059cbb60e01b8082526001600160a01b039283168a8301908152602081018890527f000000000000000000000000000000000000000000000000000000000000000084169a9391929086908290819003604001818d8f5af19081156108a4578a91610887575b501561084f57600354885183815291166001600160a01b031683820190815260208101879052859082908c9082908d90829060400103925af1908115610845578991610828575b50156107f057865190815233918101918252602082018390529697839188919082908b90829060400103925af19586156107e6577f7dbf5014c70ce465b3faa9272d46a09414d933de54728a335f7df4bea2bc2ae1966107729189916107b9575b50611f0e565b8451908152602081018490526040810183905233907f45df01186fed55abc3ac9cfa82408e10553b9b93a8f0c0b4c2965a7bedb267ec90606090a28351928352820152a180f35b6107d99150843d86116107df575b6107d18183611c9e565b810190611ef6565b8961076c565b503d6107c7565b85513d89823e3d90fd5b865162461bcd60e51b81528083018590526012602482015271111053d7d411539053151657d1905253115160721b6044820152606490fd5b61083f9150853d87116107df576107d18183611c9e565b8a61070b565b88513d8b823e3d90fd5b875162461bcd60e51b8152808401869052601260248201527111115597d411539053151657d1905253115160721b6044820152606490fd5b61089e9150863d88116107df576107d18183611c9e565b8b6106c4565b89513d8c823e3d90fd5b634e487b7160e01b895260118a52602489fd5b634e487b7160e01b885260118952602488fd5b611bb7565b5050346102795781600319360112610279576020905160fa8152f35b83915034610279578260031936011261027957610910611bd9565b8254602435926001600160a01b039182169161092d338414612048565b807f00000000000000000000000000000000000000000000000000000000000000001693169280841490811591610a04575b50156109d557855163a9059cbb60e01b81526001600160a01b0390921690820190815260208181019490945290928592909184919082908790829060400103925af19081156109cc57506109b1575080f35b6109c89060203d81116107df576107d18183611c9e565b5080f35b513d84823e3d90fd5b606490602087519162461bcd60e51b83528201526009602482015268141493d51150d5115160ba1b6044820152fd5b87516370a0823160e01b815230848201529150602090829060249082905afa8015610a7d578690610a46575b610a3d9150825490611cc0565b8411158761095f565b506020813d8211610a75575b81610a5f60209383611c9e565b81010312610a7157610a3d9051610a30565b8580fd5b3d9150610a52565b87513d88823e3d90fd5b5050346102795781600319360112610279576020906006549051908152f35b9190503461037e57602092836003193601126102e4576001600160a01b03908482610acf611bd9565b16808352600d825260ff8584205416958615610af1575b828787519015158152f35b856024929394959697505195869384926370a0823160e01b84528301527f0000000000000000000000000000000000000000000000000000000000000000165afa908115610b95578091610b5b575b5069d3c21bcecceda100000091501015903880848180610ae6565b90508382813d8311610b8e575b610b728183611c9e565b810103126102e4575069d3c21bcecceda1000000905138610b40565b503d610b68565b8351903d90823e3d90fd5b83346102e45760203660031901126102e457610bba611bd9565b81546001600160a01b039190610bd39083163314612048565b166001600160601b0360a01b600254161760025580f35b505034610279578160031936011261027957517f00000000000000000000000000000000000000000000000000000000000000006001600160a01b03168152602090f35b50503461027957816003193601126102795760015490516001600160a01b039091168152602090f35b505034610279578160031936011261027957905490516001600160a01b039091168152602090f35b5050346102795781600319360112610279576020906008549051908152f35b90503461037e578260031936011261037e5760209250549051908152f35b8284346102e45760203660031901126102e45750610cd8611bd9565b90610530610ce583611cf6565b91610cf8610cf285611dad565b94611e65565b9051938493846040919493926060820195825260208201520152565b50503461027957816003193601126102795760025490516001600160a01b039091168152602090f35b505034610279578160031936011261027957602090516107d08152f35b5050346102795760203660031901126102795760209160ff9082906001600160a01b03610d85611bd9565b168152600d855220541690519015158152f35b505034610279576020366003190112610279576020906103a8610db9611bd9565b611e65565b83346102e45760203660031901126102e457610dd8611bd9565b81546001600160a01b039190610df19083163314612048565b166001600160601b0360a01b600354161760035580f35b5050346102795781600319360112610279576020905162278d008152f35b505034610279578160031936011261027957602090516276a7008152f35b5050346102795781600319360112610279576020905160648152f35b90503461037e57602036600319011261037e5760e09282906001600160a01b03610e88611bd9565b16815260096020522080549260018201549260028301546003840154918401549260ff600660058701549601541695815197885260208801528601526060850152608084015260a0830152151560c0820152f35b5050346102795781600319360112610279576020906007549051908152f35b5050346102795781600319360112610279576020905160968152f35b5050346102795781600319360112610279576020905160c88152f35b505034610279578160031936011261027957602090516107088152f35b9190503461037e578260031936011261037e5733835260209060098252808420926006840193610f8360ff865416611fd3565b6002810154421061124357805493610fb8610faf610fa033611cf6565b610fa933611dad565b90611fc6565b610fa933611e65565b926064860292861593878104606414851715611230576127108091049461019090818a02918a830414171561121d570497899190611005610ffd8b610630898d611cc0565b998554611cc0565b845561101387600554611fc6565b600555338352600a855287832061102b888254611fc6565b9055805460ff1916905555600154855163a9059cbb60e01b8082526001600160a01b039283168285019081526020810187905290937f000000000000000000000000000000000000000000000000000000000000000084169390928c92879082908190604001038186895af1908115611213579287926110b78e936110e39684916111f6575b50611f4c565b600254168b518095819482938b845289840160209093929193604081019460018060a01b031681520152565b0391875af1908b82156111eb5786949261113596949261110992916111ce575b50611f89565b8b611114898c611fc6565b8a519485523392850192835260208301529294859384929091839160400190565b03925af19182156111c4579261117e611183937f75e161b3e824b114fc1a33274bd7091918dd4e639cede50b78b15a4eea956a219899936111a1968c926111a7575b5050611f0e565b611fc6565b92519283923396846040919493926060820195825260208201520152565b0390a280f35b6111bd9250803d106107df576107d18183611c9e565b3880611177565b85513d8a823e3d90fd5b6111e59150863d88116107df576107d18183611c9e565b38611103565b8951903d90823e3d90fd5b61120d9150863d88116107df576107d18183611c9e565b386110b1565b8a513d85823e3d90fd5b634e487b7160e01b8b526011845260248bfd5b634e487b7160e01b8a526011835260248afd5b5082606492519162461bcd60e51b8352820152600c60248201526b14d512531317d313d0d2d15160a21b6044820152fd5b9190503461037e578260031936011261037e57338352602060098152818420926112a460ff600686015416611fd3565b6112b0610fa033611cf6565b9384156113df57828587959493670de0b6b3a76400006112dd6113389542600182015554600e5490611ce3565b04338852600c8452868820556112f582600554611fc6565b600555338752600a835285872061130d838254611fc6565b9055855163a9059cbb60e01b8152339181019182526020820192909252909283918291604090910190565b0381877f00000000000000000000000000000000000000000000000000000000000000006001600160a01b03165af19081156113d2578492916113819184916113b55750611f0e565b82519485528401528201527f56253d287efacdb2c4cd76dd03624a4821c1ce721d1152e8f5f5718f6087c9bf60603392a280f35b6113cc9150833d85116107df576107d18183611c9e565b3861076c565b50505051903d90823e3d90fd5b50915162461bcd60e51b815291820152600a6024820152694e4f5f5245574152445360b01b6044820152606490fd5b5050346102795760203660031901126102795760209181906001600160a01b03611436611bd9565b168152600b845220549051908152f35b505034610279576020366003190112610279576020906103a8611467611bd9565b611dad565b5050346102795760203660031901126102795760209181906001600160a01b03611494611bd9565b168152600c845220549051908152f35b83346102e45760203660031901126102e4576114be611bd9565b81546001600160a01b0391906114d79083163314612048565b166001600160601b0360a01b600154161760015580f35b5050346102795760203660031901126102795760209181906001600160a01b03611516611bd9565b168152600a845220549051908152f35b9190503461037e57602036600319011261037e5761010092906001600160a01b0361154f611bd9565b16825260096020528082209281519361156785611c34565b80548552600181015494602081019586526002820154928482019484865260038401549160608401928352840154926080810193845260ff600660058701549660a084019788520154169560c08201961515988988529880611616575b611602575b5051975195519151925193519451151595815198895260208901528701526060860152608085015260a084015260c083015260e0820152f35b61160f9198504290611cc0565b96386115c9565b508042106115c4565b90503461037e578160031936011261037e5780359160249081359160ff831692838103611b54578515611b245760028411611af3573387526020946009865260ff6006858a20015416611abf5783516323b872dd60e01b815233828201523081850152604481018890526001600160a01b03937f0000000000000000000000000000000000000000000000000000000000000000851693909188816064818e895af1908115611ab557906116d9918c91611a9e5750611f0e565b6064890293898504606403611a8c5761271080950494610190808c02908c820403611a7a57918c868d9389950480948160011c9a61171691611cc0565b9061172091611cc0565b6001548c5163a9059cbb60e01b808252918d166001600160a01b031693810193845260208401889052919b90929091908f9082908190604001038187895af1908115611a7057938f94936117ba8f9794611793908f978f96611788918791611a595750611f4c565b60025416968a611cc0565b9751978896879586948552840160209093929193604081019460018060a01b031681520152565b03925af1908d8215611a4e578c959493926117da92906111ce5750611f89565b6117e687600654611fc6565b6006558554801580156119b0575b505086611850939261184861182c60069a7f312c5308f42848705a866c73dec11fd0783c2d64aac6a97e94467062ad3f405895611cc0565b8c51928352602083015260408201929092529081906060820190565b0390a161200d565b61185c83979342611fc6565b918d8a519361186a85611c34565b8a85528685014281528c86019182528c60608701938c85526080880195865260a08801968752600960c089019a60018c52338352522095518655516001860155516002850155516003840155518683015551600582015501905115159060ff199160ff8383541691161790556118e1858454611fc6565b8355338a52600b8852858a206118f8868254611fc6565b9055670de0b6b3a764000061190f600e5487611ce3565b04338b52600c8952868b2055600d8852858a2090815460ff811615611978575b505050505061193e9042611fc6565b93825195865285015283015260608201527fcc10169be2ad544347561e230939849af48d1714c052d7fe247d12f3decb489660803392a280f35b16600117905560085491600019831461199f57505060010160085561193e3880808061192f565b634e487b7160e01b8a526011905288fd5b909192939596979450670de0b6b3a764000090818602918683041486151715611a3c57611a2a57936118509361184861182c838f9896611a1a7f312c5308f42848705a866c73dec11fd0783c2d64aac6a97e94467062ad3f40589760069e9d9c9904600e54611fc6565b600e5595509a50505092936117f4565b634e487b7160e01b8e5260128852868efd5b634e487b7160e01b8f5260118952878ffd5b8a51903d90823e3d90fd5b61120d91508b3d8d116107df576107d18183611c9e565b8d513d86823e3d90fd5b634e487b7160e01b8d5260118652848dfd5b634e487b7160e01b8b5260118452828bfd5b6113cc91508a3d8c116107df576107d18183611c9e565b87513d8d823e3d90fd5b835162461bcd60e51b8152908101869052600f818401526e504f534954494f4e5f45584953545360881b6044820152606490fd5b825162461bcd60e51b8152602081870152600c818401526b24a72b20a624a22faa24a2a960a11b6044820152606490fd5b825162461bcd60e51b8152602081870152600b818401526a16915493d7d05353d5539560aa1b6044820152606490fd5b8680fd5b505034610279578160031936011261027957602090516102588152f35b505034610279578160031936011261027957602090516103848152f35b8490346102795781600319360112610279576003546001600160a01b03168152602090f35b34611bd4576000366003190112611bd45760206040516101908152f35b600080fd5b600435906001600160a01b0382168203611bd457565b34611bd4576000366003190112611bd45760206040516101f48152f35b6000915b60038310611c1d57505050565b600190825181526020809101920192019190611c10565b60e0810190811067ffffffffffffffff821117611c5057604052565b634e487b7160e01b600052604160045260246000fd5b6060810190811067ffffffffffffffff821117611c5057604052565b6040810190811067ffffffffffffffff821117611c5057604052565b90601f8019910116810190811067ffffffffffffffff821117611c5057604052565b91908203918211611ccd57565b634e487b7160e01b600052601160045260246000fd5b81810292918115918404141715611ccd57565b60018060a01b03166000526009602052604060002060405190611d1882611c34565b805491828152600182015492836020830152600283015460408301526003830154606083015260ff600660048501549460808501958652600581015460a086015201541615908115918260c085015291611da4575b50611d9c57611d93611d9892611d8964496cebb8009542611cc0565b9251905190611ce3565b611ce3565b0490565b505050600090565b90501538611d6d565b60018060a01b031680600052600960205260406000209060c0604051611dd281611c34565b60ff600685549586845260018101546020850152600281015460408501526003810154606085015260048101546080850152600581015460a085015201541615908115928391015290611e5d575b611e5657670de0b6b3a7640000611e3d611e5393600e5490611ce3565b0490600052600c60205260406000205490611cc0565b90565b5050600090565b508115611e20565b60018060a01b031660005260096020526040600020604051611e8681611c34565b60c082549182815260018401546020820152600284015490816040820152600385015460608201526004850154608082015260ff60066005870154968760a085015201541615908115938491015291611eec575b50611e565761271091611d9891611ce3565b9050421038611eda565b90816020910312611bd457518015158103611bd45790565b15611f1557565b60405162461bcd60e51b815260206004820152600f60248201526e1514905394d1915497d19052531151608a1b6044820152606490fd5b15611f5357565b60405162461bcd60e51b815260206004820152600e60248201526d11115597d1915157d1905253115160921b6044820152606490fd5b15611f9057565b60405162461bcd60e51b815260206004820152600e60248201526d111053d7d1915157d1905253115160921b6044820152606490fd5b91908201809211611ccd57565b15611fda57565b60405162461bcd60e51b815260206004820152600b60248201526a2727afa827a9a4aa24a7a760a91b6044820152606490fd5b60ff16801561203a5760011461202c576276a700906103849061019090565b62278d009061025890609690565b50621275009060fa90603290565b1561204f57565b60405162461bcd60e51b81526020600482015260096024820152682727aa2fa7aba722a960b91b6044820152606490fdfea26469706673582212203d033b0035e1207bc36f86189473030103a67837c0b21e3ac942ab5f353d5ae264736f6c63430008140033",
  "linkReferences": {},
  "deployedLinkReferences": {}
}