{
  "_format": "hh-sol-artifact-1",
  "contractName": "DTGCStaking",
  "sourceName": "contracts/DTGCStaking.sol",
  "abi": [
    {
      "inputs": [
        {
          "internalType": "address",
          "name": "_dtgcToken",
          "type": "address"
        },
        {
          "internalType": "address",
          "name": "_feeRecipient",
          "type": "address"
        },
        {
          "internalType": "address",
          "name": "_rewardPool",
          "type": "address"
        }
      ],
      "stateMutability": "nonpayable",
      "type": "constructor"
    },
    {
      "anonymous": false,
      "inputs": [
        {
          "indexed": true,
          "internalType": "address",
          "name": "user",
          "type": "address"
        },
        {
          "indexed": false,
          "internalType": "uint256",
          "name": "principal",
          "type": "uint256"
        },
        {
          "indexed": false,
          "internalType": "uint256",
          "name": "penalty",
          "type": "uint256"
        },
        {
          "indexed": false,
          "internalType": "uint256",
          "name": "netPayout",
          "type": "uint256"
        }
      ],
      "name": "EmergencyWithdrawn",
      "type": "event"
    },
    {
      "anonymous": false,
      "inputs": [
        {
          "indexed": false,
          "internalType": "uint256",
          "name": "newFeePool",
          "type": "uint256"
        },
        {
          "indexed": false,
          "internalType": "uint256",
          "name": "accFeePerShare",
          "type": "uint256"
        }
      ],
      "name": "FeePoolUpdated",
      "type": "event"
    },
    {
      "anonymous": false,
      "inputs": [
        {
          "indexed": true,
          "internalType": "address",
          "name": "newRecipient",
          "type": "address"
        }
      ],
      "name": "FeeRecipientUpdated",
      "type": "event"
    },
    {
      "anonymous": false,
      "inputs": [
        {
          "indexed": true,
          "internalType": "address",
          "name": "oldOwner",
          "type": "address"
        },
        {
          "indexed": true,
          "internalType": "address",
          "name": "newOwner",
          "type": "address"
        }
      ],
      "name": "OwnershipTransferred",
      "type": "event"
    },
    {
      "anonymous": false,
      "inputs": [
        {
          "indexed": true,
          "internalType": "address",
          "name": "funder",
          "type": "address"
        },
        {
          "indexed": false,
          "internalType": "uint256",
          "name": "amount",
          "type": "uint256"
        }
      ],
      "name": "RewardPoolFunded",
      "type": "event"
    },
    {
      "anonymous": false,
      "inputs": [
        {
          "indexed": true,
          "internalType": "address",
          "name": "user",
          "type": "address"
        },
        {
          "indexed": false,
          "internalType": "uint256",
          "name": "baseRewards",
          "type": "uint256"
        },
        {
          "indexed": false,
          "internalType": "uint256",
          "name": "feeShareRewards",
          "type": "uint256"
        },
        {
          "indexed": false,
          "internalType": "uint256",
          "name": "diamondBonus",
          "type": "uint256"
        }
      ],
      "name": "RewardsClaimed",
      "type": "event"
    },
    {
      "anonymous": false,
      "inputs": [
        {
          "indexed": true,
          "internalType": "address",
          "name": "user",
          "type": "address"
        },
        {
          "indexed": false,
          "internalType": "uint256",
          "name": "grossAmount",
          "type": "uint256"
        },
        {
          "indexed": false,
          "internalType": "uint256",
          "name": "entryFee",
          "type": "uint256"
        },
        {
          "indexed": false,
          "internalType": "uint256",
          "name": "principal",
          "type": "uint256"
        },
        {
          "indexed": false,
          "internalType": "uint256",
          "name": "lockPeriod",
          "type": "uint256"
        },
        {
          "indexed": false,
          "internalType": "uint256",
          "name": "aprBps",
          "type": "uint256"
        },
        {
          "indexed": false,
          "internalType": "uint256",
          "name": "unlockTime",
          "type": "uint256"
        }
      ],
      "name": "Staked",
      "type": "event"
    },
    {
      "anonymous": false,
      "inputs": [
        {
          "indexed": true,
          "internalType": "address",
          "name": "user",
          "type": "address"
        },
        {
          "indexed": false,
          "internalType": "uint256",
          "name": "principal",
          "type": "uint256"
        },
        {
          "indexed": false,
          "internalType": "uint256",
          "name": "rewards",
          "type": "uint256"
        },
        {
          "indexed": false,
          "internalType": "uint256",
          "name": "feeShareRewards",
          "type": "uint256"
        },
        {
          "indexed": false,
          "internalType": "uint256",
          "name": "exitFee",
          "type": "uint256"
        },
        {
          "indexed": false,
          "internalType": "uint256",
          "name": "netPayout",
          "type": "uint256"
        }
      ],
      "name": "Withdrawn",
      "type": "event"
    },
    {
      "inputs": [],
      "name": "APR_14_DAYS",
      "outputs": [
        {
          "internalType": "uint16",
          "name": "",
          "type": "uint16"
        }
      ],
      "stateMutability": "view",
      "type": "function"
    },
    {
      "inputs": [],
      "name": "APR_30_DAYS",
      "outputs": [
        {
          "internalType": "uint16",
          "name": "",
          "type": "uint16"
        }
      ],
      "stateMutability": "view",
      "type": "function"
    },
    {
      "inputs": [],
      "name": "APR_90_DAYS",
      "outputs": [
        {
          "internalType": "uint16",
          "name": "",
          "type": "uint16"
        }
      ],
      "stateMutability": "view",
      "type": "function"
    },
    {
      "inputs": [],
      "name": "BPS_DENOM",
      "outputs": [
        {
          "internalType": "uint16",
          "name": "",
          "type": "uint16"
        }
      ],
      "stateMutability": "view",
      "type": "function"
    },
    {
      "inputs": [],
      "name": "DIAMOND_BONUS_14",
      "outputs": [
        {
          "internalType": "uint16",
          "name": "",
          "type": "uint16"
        }
      ],
      "stateMutability": "view",
      "type": "function"
    },
    {
      "inputs": [],
      "name": "DIAMOND_BONUS_30",
      "outputs": [
        {
          "internalType": "uint16",
          "name": "",
          "type": "uint16"
        }
      ],
      "stateMutability": "view",
      "type": "function"
    },
    {
      "inputs": [],
      "name": "DIAMOND_BONUS_90",
      "outputs": [
        {
          "internalType": "uint16",
          "name": "",
          "type": "uint16"
        }
      ],
      "stateMutability": "view",
      "type": "function"
    },
    {
      "inputs": [],
      "name": "EMERGENCY_PENALTY_BPS",
      "outputs": [
        {
          "internalType": "uint16",
          "name": "",
          "type": "uint16"
        }
      ],
      "stateMutability": "view",
      "type": "function"
    },
    {
      "inputs": [],
      "name": "ENTRY_FEE_BPS",
      "outputs": [
        {
          "internalType": "uint16",
          "name": "",
          "type": "uint16"
        }
      ],
      "stateMutability": "view",
      "type": "function"
    },
    {
      "inputs": [],
      "name": "EXIT_FEE_BPS",
      "outputs": [
        {
          "internalType": "uint16",
          "name": "",
          "type": "uint16"
        }
      ],
      "stateMutability": "view",
      "type": "function"
    },
    {
      "inputs": [],
      "name": "LOCK_14_DAYS",
      "outputs": [
        {
          "internalType": "uint256",
          "name": "",
          "type": "uint256"
        }
      ],
      "stateMutability": "view",
      "type": "function"
    },
    {
      "inputs": [],
      "name": "LOCK_30_DAYS",
      "outputs": [
        {
          "internalType": "uint256",
          "name": "",
          "type": "uint256"
        }
      ],
      "stateMutability": "view",
      "type": "function"
    },
    {
      "inputs": [],
      "name": "LOCK_90_DAYS",
      "outputs": [
        {
          "internalType": "uint256",
          "name": "",
          "type": "uint256"
        }
      ],
      "stateMutability": "view",
      "type": "function"
    },
    {
      "inputs": [],
      "name": "PRECISION",
      "outputs": [
        {
          "internalType": "uint256",
          "name": "",
          "type": "uint256"
        }
      ],
      "stateMutability": "view",
      "type": "function"
    },
    {
      "inputs": [],
      "name": "SECONDS_PER_YEAR",
      "outputs": [
        {
          "internalType": "uint256",
          "name": "",
          "type": "uint256"
        }
      ],
      "stateMutability": "view",
      "type": "function"
    },
    {
      "inputs": [],
      "name": "accFeePerShare",
      "outputs": [
        {
          "internalType": "uint256",
          "name": "",
          "type": "uint256"
        }
      ],
      "stateMutability": "view",
      "type": "function"
    },
    {
      "inputs": [
        {
          "internalType": "address",
          "name": "user",
          "type": "address"
        }
      ],
      "name": "calculateAllRewards",
      "outputs": [
        {
          "internalType": "uint256",
          "name": "baseRewards",
          "type": "uint256"
        },
        {
          "internalType": "uint256",
          "name": "feeShareRewards",
          "type": "uint256"
        },
        {
          "internalType": "uint256",
          "name": "diamondBonus",
          "type": "uint256"
        }
      ],
      "stateMutability": "view",
      "type": "function"
    },
    {
      "inputs": [],
      "name": "claimRewards",
      "outputs": [],
      "stateMutability": "nonpayable",
      "type": "function"
    },
    {
      "inputs": [],
      "name": "dtgcToken",
      "outputs": [
        {
          "internalType": "contract IPRC20",
          "name": "",
          "type": "address"
        }
      ],
      "stateMutability": "view",
      "type": "function"
    },
    {
      "inputs": [],
      "name": "emergencyWithdraw",
      "outputs": [],
      "stateMutability": "nonpayable",
      "type": "function"
    },
    {
      "inputs": [],
      "name": "feePool",
      "outputs": [
        {
          "internalType": "uint256",
          "name": "",
          "type": "uint256"
        }
      ],
      "stateMutability": "view",
      "type": "function"
    },
    {
      "inputs": [],
      "name": "feeRecipient",
      "outputs": [
        {
          "internalType": "address",
          "name": "",
          "type": "address"
        }
      ],
      "stateMutability": "view",
      "type": "function"
    },
    {
      "inputs": [
        {
          "internalType": "uint256",
          "name": "amount",
          "type": "uint256"
        }
      ],
      "name": "fundRewardPool",
      "outputs": [],
      "stateMutability": "nonpayable",
      "type": "function"
    },
    {
      "inputs": [],
      "name": "getContractStats",
      "outputs": [
        {
          "internalType": "uint256",
          "name": "_totalStaked",
          "type": "uint256"
        },
        {
          "internalType": "uint256",
          "name": "_totalRewardsDistributed",
          "type": "uint256"
        },
        {
          "internalType": "uint256",
          "name": "_feePool",
          "type": "uint256"
        },
        {
          "internalType": "uint256",
          "name": "_contractBalance",
          "type": "uint256"
        }
      ],
      "stateMutability": "view",
      "type": "function"
    },
    {
      "inputs": [
        {
          "internalType": "address",
          "name": "user",
          "type": "address"
        }
      ],
      "name": "getPosition",
      "outputs": [
        {
          "internalType": "uint256",
          "name": "amount",
          "type": "uint256"
        },
        {
          "internalType": "uint256",
          "name": "startTime",
          "type": "uint256"
        },
        {
          "internalType": "uint256",
          "name": "unlockTime",
          "type": "uint256"
        },
        {
          "internalType": "uint256",
          "name": "lockPeriod",
          "type": "uint256"
        },
        {
          "internalType": "uint256",
          "name": "aprBps",
          "type": "uint256"
        },
        {
          "internalType": "uint256",
          "name": "diamondBonus",
          "type": "uint256"
        },
        {
          "internalType": "bool",
          "name": "isActive",
          "type": "bool"
        },
        {
          "internalType": "uint256",
          "name": "timeRemaining",
          "type": "uint256"
        }
      ],
      "stateMutability": "view",
      "type": "function"
    },
    {
      "inputs": [],
      "name": "getTiers",
      "outputs": [
        {
          "components": [
            {
              "internalType": "uint256",
              "name": "lockDuration",
              "type": "uint256"
            },
            {
              "internalType": "uint16",
              "name": "aprBps",
              "type": "uint16"
            },
            {
              "internalType": "uint16",
              "name": "diamondBonus",
              "type": "uint16"
            },
            {
              "internalType": "string",
              "name": "tierName",
              "type": "string"
            }
          ],
          "internalType": "struct DTGCStaking.StakingTier[3]",
          "name": "",
          "type": "tuple[3]"
        }
      ],
      "stateMutability": "pure",
      "type": "function"
    },
    {
      "inputs": [
        {
          "internalType": "address",
          "name": "",
          "type": "address"
        }
      ],
      "name": "lifetimeRewards",
      "outputs": [
        {
          "internalType": "uint256",
          "name": "",
          "type": "uint256"
        }
      ],
      "stateMutability": "view",
      "type": "function"
    },
    {
      "inputs": [
        {
          "internalType": "address",
          "name": "",
          "type": "address"
        }
      ],
      "name": "lifetimeStaked",
      "outputs": [
        {
          "internalType": "uint256",
          "name": "",
          "type": "uint256"
        }
      ],
      "stateMutability": "view",
      "type": "function"
    },
    {
      "inputs": [],
      "name": "owner",
      "outputs": [
        {
          "internalType": "address",
          "name": "",
          "type": "address"
        }
      ],
      "stateMutability": "view",
      "type": "function"
    },
    {
      "inputs": [
        {
          "internalType": "address",
          "name": "",
          "type": "address"
        }
      ],
      "name": "positions",
      "outputs": [
        {
          "internalType": "uint256",
          "name": "amount",
          "type": "uint256"
        },
        {
          "internalType": "uint256",
          "name": "startTime",
          "type": "uint256"
        },
        {
          "internalType": "uint256",
          "name": "unlockTime",
          "type": "uint256"
        },
        {
          "internalType": "uint256",
          "name": "lockPeriod",
          "type": "uint256"
        },
        {
          "internalType": "uint256",
          "name": "aprBps",
          "type": "uint256"
        },
        {
          "internalType": "uint256",
          "name": "diamondBonus",
          "type": "uint256"
        },
        {
          "internalType": "uint256",
          "name": "feeDebt",
          "type": "uint256"
        },
        {
          "internalType": "uint256",
          "name": "claimedRewards",
          "type": "uint256"
        },
        {
          "internalType": "bool",
          "name": "isActive",
          "type": "bool"
        }
      ],
      "stateMutability": "view",
      "type": "function"
    },
    {
      "inputs": [
        {
          "internalType": "address",
          "name": "token",
          "type": "address"
        },
        {
          "internalType": "uint256",
          "name": "amount",
          "type": "uint256"
        }
      ],
      "name": "recoverTokens",
      "outputs": [],
      "stateMutability": "nonpayable",
      "type": "function"
    },
    {
      "inputs": [],
      "name": "rewardPool",
      "outputs": [
        {
          "internalType": "address",
          "name": "",
          "type": "address"
        }
      ],
      "stateMutability": "view",
      "type": "function"
    },
    {
      "inputs": [
        {
          "internalType": "address",
          "name": "newRecipient",
          "type": "address"
        }
      ],
      "name": "setFeeRecipient",
      "outputs": [],
      "stateMutability": "nonpayable",
      "type": "function"
    },
    {
      "inputs": [
        {
          "internalType": "uint256",
          "name": "amount",
          "type": "uint256"
        },
        {
          "internalType": "uint8",
          "name": "lockChoice",
          "type": "uint8"
        }
      ],
      "name": "stake",
      "outputs": [],
      "stateMutability": "nonpayable",
      "type": "function"
    },
    {
      "inputs": [],
      "name": "totalRewardsDistributed",
      "outputs": [
        {
          "internalType": "uint256",
          "name": "",
          "type": "uint256"
        }
      ],
      "stateMutability": "view",
      "type": "function"
    },
    {
      "inputs": [],
      "name": "totalStaked",
      "outputs": [
        {
          "internalType": "uint256",
          "name": "",
          "type": "uint256"
        }
      ],
      "stateMutability": "view",
      "type": "function"
    },
    {
      "inputs": [
        {
          "internalType": "address",
          "name": "newOwner",
          "type": "address"
        }
      ],
      "name": "transferOwnership",
      "outputs": [],
      "stateMutability": "nonpayable",
      "type": "function"
    },
    {
      "inputs": [],
      "name": "withdraw",
      "outputs": [],
      "stateMutability": "nonpayable",
      "type": "function"
    }
  ],
  "bytecode": "0x60a0346200016c57601f62001c5138819003918201601f19168301916001600160401b0383118484101762000171578084926060946040528339810103126200016c576200004d8162000187565b620000696040620000616020850162000187565b930162000187565b6001600160a01b039182169283156200013a578216928315620001005760805260018060a01b0319923384600054161760005583600154161760015516906002541617600255604051611ab490816200019d8239608051818181610370015281816107180152818161083b01528181610b9401528181610c0a01528181610d3f01528181610e1101528181610ff001526112fc0152f35b60405162461bcd60e51b81526020600482015260126024820152714645455f524543495049454e545f5a45524f60701b6044820152606490fd5b60405162461bcd60e51b815260206004820152600a602482015269544f4b454e5f5a45524f60b01b6044820152606490fd5b600080fd5b634e487b7160e01b600052604160045260246000fd5b51906001600160a01b03821682036200016c5756fe60406080815260048036101561001457600080fd5b600091823560e01c918263069c9fae146112c157826310087fb114610f7f57826316c1973914610e9a5782631d336d6214610e625782631d583e0d14610de85782632c9b4fd314610dcb578263324d8438146107fe57826336fecffa14610d93578263372500ab14610c645782633ccfd60b14610a8f57826340df876b14610a715782634690484014610a4857826355f57510146109b2578263618c9434146109955782636637e38c1461097857826366666aa91461094f57826379a59c13146109085782637c6e5db7146108ea578263817b1cd2146108cb5782638ba16fa8146108af5782638da5cb5b146108875782638f9bcee81461086a5782639089ad0e146107fe5782639f76ab7c14610826578263aaf5eb6814610803578263ab22a25f146107fe578263ae2e933b146107df578263ba1e1651146107c2578263db2e21bc14610632578263dd3b829a14610613578263de17057014610406578263dfe6b5d614610336578263e37c3a5514610318578263e6a69ab8146102f9578263e74b981b14610281578263e74eaf8014610260578263ee1725461461023d57505063f2fde38b146101c557600080fd5b3461023a57602036600319011261023a576101de6113fb565b8154906001600160a01b03808316916101f8338414611a0b565b168092610206821515611a43565b6001600160a01b0319161783557f8be0079c531659141344cd1fd0a4f28419497f9722a3daafe3b4186f6b6457e08380a380f35b80fd5b9091503461025c578260031936011261025c5760209250549051908152f35b8280fd5b83823461027d578160031936011261027d57602090516104b08152f35b5080fd5b833461023a57602036600319011261023a5761029b6113fb565b81546001600160a01b0391906102b49083163314611a0b565b166102c0811515611a43565b600180546001600160a01b031916821790557f7a7b5a0a132f9e0581eb8527f66eae9ee89c2a3e79d4ac7e41a1f1f4d48a7fc28280a280f35b83823461027d578160031936011261027d57602090516301e133808152f35b83823461027d578160031936011261027d57602090516276a7008152f35b9091503461025c578260031936011261025c57600354815460055484516370a0823160e01b815230948101949094529193906020846024817f00000000000000000000000000000000000000000000000000000000000000006001600160a01b03165afa9384156103fc5786946103c1575b5060809550815194855260208501528301526060820152f35b9093506020813d82116103f4575b816103dc60209383611552565b810103126103f057608095505192386103a8565b8580fd5b3d91506103cf565b82513d88823e3d90fd5b83823461027d578160031936011261027d57805160609267ffffffffffffffff9184810183811182821017610600578452815b8581106105eb575050825194848601928311868410176105d857509391908082526104638161151a565b6212750081526080936101f48585015260a09460648686015283519261048884611536565b600684526020936542726f6e7a6560d01b8582015260c0870152855283516104af8161151a565b62278d0081526104b08482015261012c8582015284516104ce81611536565b600681526529b4b63b32b960d11b85820152838201528386015283516104f38161151a565b6276a70081526109c48482015261032085820152845161051281611536565b6007815266111a585b5bdb9960ca1b85820152838201528486015283519583870184885291808801969880945b6003861061054d578989038af35b909192939495969787858b848e601f1980938703018b5251805186528d61ffff80878401511687890152818301511690870152015187868601528051908189870152875b8281106105c157505084810183018790529d83019d601f011690920190910198979660010195019392919061053f565b8181018601518782018c01528d958b955001610591565b634e487b7160e01b825260419052602490fd5b6020906105f66118ef565b8184015201610439565b634e487b7160e01b835260418752602483fd5b83823461027d578160031936011261027d576020906006549051908152f35b83823461027d578160031936011261027d57338252600760205261065e60ff60088385200154166116f9565b338252600760205280822060028101544210156107895754906107d080830290838204148315171561077657906127107f45df01186fed55abc3ac9cfa82408e10553b9b93a8f0c0b4c2965a7bedb267ec92046107706106be82866114cd565b926106cb866003546114cd565b600355338752600760205261071281882060086000918281558260018201558260028201558260038201558260048201558260058201558260068201558260078201550155565b610753847f000000000000000000000000000000000000000000000000000000000000000061074c8660018060a01b03600154168361158c565b339061158c565b519283923396846040919493926060820195825260208201520152565b0390a280f35b634e487b7160e01b845260118552602484fd5b815162461bcd60e51b815260208186015260136024820152725553455f4e4f524d414c5f574954484452415760681b6044820152606490fd5b83823461027d578160031936011261027d57602090516103208152f35b83823461027d578160031936011261027d576020906005549051908152f35b611416565b83823461027d578160031936011261027d5760209051670de0b6b3a76400008152f35b83823461027d578160031936011261027d57517f00000000000000000000000000000000000000000000000000000000000000006001600160a01b03168152602090f35b83823461027d578160031936011261027d57602090516107d08152f35b83823461027d578160031936011261027d57905490516001600160a01b039091168152602090f35b83823461027d578160031936011261027d576020905160648152f35b83823461027d578160031936011261027d576020906003549051908152f35b83823461027d578160031936011261027d576020905162278d008152f35b83823461027d57602036600319011261027d5761094b9061092f61092a6113fb565b61173a565b9251918252602082015260408101919091529081906060820190565b0390f35b83823461027d578160031936011261027d5760025490516001600160a01b039091168152602090f35b83823461027d578160031936011261027d57602090516127108152f35b83823461027d578160031936011261027d57602090516109c48152f35b9091503461025c57602036600319011261025c576101209282906001600160a01b036109dc6113fb565b1681526007602052208054926001820154926002830154906003840154908401549060058501549260068601549460ff6008600789015498015416978151998a5260208a01528801526060870152608086015260a085015260c084015260e08301521515610100820152f35b83823461027d578160031936011261027d5760015490516001600160a01b039091168152602090f35b83823461027d578160031936011261027d5760209051621275008152f35b9091503461025c578260031936011261025c5733835260209060078252610abe60ff60088587200154166116f9565b3384526007825282842060028101544210610c3357610af4905493610ae23361173a565b610aef82849693966114da565b6114da565b94612710610b018861146d565b0494610b42610b1488610aef898c6114cd565b97610b218a6003546114cd565b600355338b5260088452858b20610b398282546114da565b905582546114da565b905533885260078152610b8783892060086000918281558260018201558260028201558260038201558260048201558260058201558260068201558260078201550155565b84610bf6575b610bb886337f000000000000000000000000000000000000000000000000000000000000000061158c565b8251968752860152840152606083015260808201527fc1df1e8d1517a1d530e03dd0b5abd27970c523aa08e4dab690b68af40b925d9660a03392a280f35b600154610c2e9086906001600160a01b03167f000000000000000000000000000000000000000000000000000000000000000061158c565b610b8d565b50915162461bcd60e51b815291820152600c60248201526b14d512531317d313d0d2d15160a21b6044820152606490fd5b83903461027d578160031936011261027d573382526007602052610c9060ff60088585200154166116f9565b3382526007602052828220610ca43361173a565b92909193610cb684610aef85886114da565b918215610d6357610770927f56253d287efacdb2c4cd76dd03624a4821c1ce721d1152e8f5f5718f6087c9bf969798928260076107539401610cf98482546114da565b90556006670de0b6b3a7640000610d13835483549061149a565b04910155338a526008602052838a20610d2d8382546114da565b9055610d3a8282546114da565b9055337f000000000000000000000000000000000000000000000000000000000000000061158c565b875162461bcd60e51b8152602081840152600a6024820152694e4f5f5245574152445360b01b6044820152606490fd5b83823461027d57602036600319011261027d5760209181906001600160a01b03610dbb6113fb565b1681526009845220549051908152f35b83823461027d578160031936011261027d576020905161012c8152f35b9091503461025c57602036600319011261025c573590610e09821515611433565b610e358230337f0000000000000000000000000000000000000000000000000000000000000000611649565b519081527fd3c7d1587d8f93bae0fcfc5a820d2187e755a75ec28a06c20a9da047e1b01eb560203392a280f35b83823461027d57602036600319011261027d5760209181906001600160a01b03610e8a6113fb565b1681526008845220549051908152f35b9091503461025c57602036600319011261025c576001600160a01b03610ebe6113fb565b168352600760205281832092825193610ed6856114e7565b805493848652600182015493846020880152600283015480838901526003840154918260608a0152840154928360808a015260ff60086005870154968760a08d0152600681015460c08d0152600781015460e08d015201541615159586610100809b0152428311600014610f795750610f4f42836114cd565b965b815198895260208901528701526060860152608085015260a084015260c083015260e0820152f35b96610f51565b83823461027d578060031936011261027d5782356024359060ff8216918281036112bd57610fae821515611433565b3385526020926007845260ff60088688200154166112885760021061124f57610fd690611916565b612710610fe28361146d565b04610fed81846114cd565b967f00000000000000000000000000000000000000000000000000000000000000009761101c8530338c611649565b8260011c9861102b8a856114cd565b600354806111dd575b506110637f4da3ecb883947ea77ebd33e070098952e71fb76b23c093dab6b4f51916fe993e9a9b6005546114da565b600555806111be575b50508861107a8551426114da565b9460016008848a8c855196828701998c61ffff998a8d5116918b868c01511694670de0b6b3a76400006110af6006548b61149a565b04968051996110bd8b6114e7565b8a52888a0191428352818b0193845260608b0194855260808b0195865260a08b0197885260c08b01988952600760e08c019a828c526101008d019e8f523383525220985189555160018901555160028801555160038701555190850155516005840155516006830155516007820155019051151560ff80198354169116179055611149836003546114da565b600355338b5260098852888b206111618882546114da565b90555192511692875195865286860152868501526060840152608083015260a08201527fc16be9a586414a157dd46b4d023aa9997a025dd1cbbaa67ac0c1b8273a5eaf5560c03392a260055490600654908351928352820152a180f35b6001546111d6926001600160a01b039091169061158c565b898061106c565b670de0b6b3a7640000808d02908d8204148d15171561123c579b611231611229611063937f4da3ecb883947ea77ebd33e070098952e71fb76b23c093dab6b4f51916fe993e9e9f6114ad565b6006546114da565b6006559b9a50611034565b634e487b7160e01b8c526011865260248cfd5b835162461bcd60e51b81528087018490526013602482015272494e56414c49445f4c4f434b5f43484f49434560681b6044820152606490fd5b845162461bcd60e51b8152808801859052600f60248201526e504f534954494f4e5f45584953545360881b6044820152606490fd5b8480fd5b83903461027d578260031936011261027d576112db6113fb565b8254602435926001600160a01b0391821692916112f9338514611a0b565b807f0000000000000000000000000000000000000000000000000000000000000000169216918083149081159161137b575b5015611340575061133d93945061158c565b80f35b606490602087519162461bcd60e51b8352820152601560248201527410d0539393d517d49150d3d5915497d4d51052d151605a1b6044820152fd5b87516370a0823160e01b815230848201529150602090829060249082905afa80156113f15786906113be575b6113b59150600354906114cd565b8411158761132b565b506020813d82116113e9575b816113d760209383611552565b810103126103f0576113b590516113a7565b3d91506113ca565b87513d88823e3d90fd5b600435906001600160a01b038216820361141157565b600080fd5b346114115760003660031901126114115760206040516101f48152f35b1561143a57565b60405162461bcd60e51b815260206004820152600b60248201526a414d4f554e545f5a45524f60a81b6044820152606490fd5b906101f49182810292818404149015171561148457565b634e487b7160e01b600052601160045260246000fd5b8181029291811591840414171561148457565b81156114b7570490565b634e487b7160e01b600052601260045260246000fd5b9190820391821161148457565b9190820180921161148457565b610120810190811067ffffffffffffffff82111761150457604052565b634e487b7160e01b600052604160045260246000fd5b6080810190811067ffffffffffffffff82111761150457604052565b6040810190811067ffffffffffffffff82111761150457604052565b90601f8019910116810190811067ffffffffffffffff82111761150457604052565b90816020910312611411575180151581036114115790565b60405163a9059cbb60e01b81526001600160a01b039283166004820152602481019390935260209183916044918391600091165af190811561163d5760009161160f575b50156115d857565b60405162461bcd60e51b815260206004820152600f60248201526e1514905394d1915497d19052531151608a1b6044820152606490fd5b611630915060203d8111611636575b6116288183611552565b810190611574565b386115d0565b503d61161e565b6040513d6000823e3d90fd5b6040516323b872dd60e01b81526001600160a01b03928316600482015292821660248401526044830193909352909160209183916064918391600091165af190811561163d576000916116db575b501561169f57565b60405162461bcd60e51b81526020600482015260146024820152731514905394d1915497d19493d357d1905253115160621b6044820152606490fd5b6116f3915060203d8111611636576116288183611552565b38611697565b1561170057565b60405162461bcd60e51b81526020600482015260126024820152712727afa0a1aa24ab22afa827a9a4aa24a7a760711b6044820152606490fd5b6001600160a01b0316600090815260076020526040808220905191928391611761846114e7565b805484526001810154948560208601526002820154946040810195865260038301546060820190815260048401549060808301918252600585015460a0840190815260068601549960c085019a8b5260ff600860078901549860e08801998a520154161580156101008701526118de576117db90426114cd565b926117fa8551946117f564496cebb800968794519061149a565b61149a565b0499670de0b6b3a764000061181386516006549061149a565b0490518082116000146118d557611829916114cd565b935b8499514210156118a7575b5050505084610aef61184892896114da565b9151908183111561189b575061185e90826114cd565b81611867575050565b80611892836118878361188c83611887611887986118989b9c9d9e61149a565b6114ad565b9a61149a565b9561149a565b90565b95508594508493505050565b610aef9850916118c36118cb926118489695945190519061149a565b90519061149a565b0495819238611836565b5050849361182b565b505050505093505092505080918190565b604051906118fc8261151a565b606080836000815260006020820152600060408201520152565b60ff906119216118ef565b50168061197157506040516119358161151a565b6212750081526101f460208201526064604082015260405161195681611536565b600681526542726f6e7a6560d01b6020820152606082015290565b6001036119c1576040516119848161151a565b62278d0081526104b0602082015261012c60408201526040516119a681611536565b600681526529b4b63b32b960d11b6020820152606082015290565b6040516119cd8161151a565b6276a70081526109c4602082015261032060408201526040516119ef81611536565b6007815266111a585b5bdb9960ca1b6020820152606082015290565b15611a1257565b60405162461bcd60e51b81526020600482015260096024820152682727aa2fa7aba722a960b91b6044820152606490fd5b15611a4a57565b60405162461bcd60e51b815260206004820152600c60248201526b5a45524f5f4144445245535360a01b6044820152606490fdfea2646970667358221220f7a29fadbdbf7140a60fa3e2b60ded8b9355852f6c11b80ed0ad257afda4572264736f6c63430008140033",
  "linkReferences": {},
  "deployedLinkReferences": {}
}